{
	"Users/ben/Documents/GitHub/gen-bridge/contracts/BridgeDeposit.sol": {
		"EscrowPaymentSplitter": {
			"abi": [
				{
					"inputs": [],
					"stateMutability": "nonpayable",
					"type": "constructor"
				},
				{
					"anonymous": false,
					"inputs": [
						{
							"indexed": true,
							"internalType": "address",
							"name": "_from",
							"type": "address"
						},
						{
							"indexed": false,
							"internalType": "uint256",
							"name": "_amount",
							"type": "uint256"
						}
					],
					"name": "Deposit",
					"type": "event"
				},
				{
					"anonymous": false,
					"inputs": [
						{
							"indexed": true,
							"internalType": "address",
							"name": "_from",
							"type": "address"
						},
						{
							"indexed": false,
							"internalType": "uint256",
							"name": "_amount",
							"type": "uint256"
						}
					],
					"name": "GenTransfer",
					"type": "event"
				},
				{
					"anonymous": false,
					"inputs": [
						{
							"indexed": true,
							"internalType": "address",
							"name": "oldManager",
							"type": "address"
						},
						{
							"indexed": true,
							"internalType": "address",
							"name": "newManager",
							"type": "address"
						}
					],
					"name": "ManagerSet",
					"type": "event"
				},
				{
					"anonymous": false,
					"inputs": [
						{
							"indexed": true,
							"internalType": "address",
							"name": "_from",
							"type": "address"
						},
						{
							"indexed": false,
							"internalType": "uint256",
							"name": "_amount",
							"type": "uint256"
						},
						{
							"indexed": false,
							"internalType": "address",
							"name": "token",
							"type": "address"
						}
					],
					"name": "TokenTransfer",
					"type": "event"
				},
				{
					"inputs": [
						{
							"internalType": "uint256",
							"name": "amount",
							"type": "uint256"
						}
					],
					"name": "bridgeGenTransfer",
					"outputs": [],
					"stateMutability": "nonpayable",
					"type": "function"
				},
				{
					"inputs": [
						{
							"internalType": "address",
							"name": "token",
							"type": "address"
						},
						{
							"internalType": "uint256",
							"name": "amount",
							"type": "uint256"
						},
						{
							"internalType": "address",
							"name": "toAddress",
							"type": "address"
						}
					],
					"name": "bridgeTokenTransfer",
					"outputs": [],
					"stateMutability": "nonpayable",
					"type": "function"
				},
				{
					"inputs": [
						{
							"internalType": "address",
							"name": "newManager",
							"type": "address"
						}
					],
					"name": "changeManager",
					"outputs": [],
					"stateMutability": "nonpayable",
					"type": "function"
				},
				{
					"inputs": [],
					"name": "getGenBalance",
					"outputs": [
						{
							"internalType": "uint256",
							"name": "",
							"type": "uint256"
						}
					],
					"stateMutability": "view",
					"type": "function"
				},
				{
					"inputs": [],
					"name": "getManager",
					"outputs": [
						{
							"internalType": "address",
							"name": "",
							"type": "address"
						}
					],
					"stateMutability": "view",
					"type": "function"
				},
				{
					"inputs": [
						{
							"internalType": "address",
							"name": "token",
							"type": "address"
						}
					],
					"name": "getTokenBalance",
					"outputs": [
						{
							"internalType": "uint256",
							"name": "",
							"type": "uint256"
						}
					],
					"stateMutability": "view",
					"type": "function"
				},
				{
					"inputs": [],
					"name": "manager",
					"outputs": [
						{
							"internalType": "address",
							"name": "",
							"type": "address"
						}
					],
					"stateMutability": "view",
					"type": "function"
				},
				{
					"inputs": [],
					"name": "name",
					"outputs": [
						{
							"internalType": "string",
							"name": "",
							"type": "string"
						}
					],
					"stateMutability": "pure",
					"type": "function"
				},
				{
					"inputs": [],
					"name": "version",
					"outputs": [
						{
							"internalType": "string",
							"name": "",
							"type": "string"
						}
					],
					"stateMutability": "pure",
					"type": "function"
				},
				{
					"stateMutability": "payable",
					"type": "receive"
				}
			],
			"devdoc": {
				"kind": "dev",
				"methods": {},
				"version": 1
			},
			"evm": {
				"assembly": "    /* \"Users/ben/Documents/GitHub/gen-bridge/contracts/BridgeDeposit.sol\":149:2856  contract EscrowPaymentSplitter {... */\n  mstore(0x40, 0x80)\n    /* \"Users/ben/Documents/GitHub/gen-bridge/contracts/BridgeDeposit.sol\":870:922  constructor() { ... */\n  callvalue\n  dup1\n  iszero\n  tag_1\n  jumpi\n  0x00\n  dup1\n  revert\ntag_1:\n  pop\n    /* \"Users/ben/Documents/GitHub/gen-bridge/contracts/BridgeDeposit.sol\":905:915  msg.sender */\n  caller\n    /* \"Users/ben/Documents/GitHub/gen-bridge/contracts/BridgeDeposit.sol\":895:902  manager */\n  0x00\n  dup1\n    /* \"Users/ben/Documents/GitHub/gen-bridge/contracts/BridgeDeposit.sol\":895:915  manager = msg.sender */\n  0x0100\n  exp\n  dup2\n  sload\n  dup2\n  0xffffffffffffffffffffffffffffffffffffffff\n  mul\n  not\n  and\n  swap1\n  dup4\n  0xffffffffffffffffffffffffffffffffffffffff\n  and\n  mul\n  or\n  swap1\n  sstore\n  pop\n    /* \"Users/ben/Documents/GitHub/gen-bridge/contracts/BridgeDeposit.sol\":149:2856  contract EscrowPaymentSplitter {... */\n  dataSize(sub_0)\n  dup1\n  dataOffset(sub_0)\n  0x00\n  codecopy\n  0x00\n  return\nstop\n\nsub_0: assembly {\n        /* \"Users/ben/Documents/GitHub/gen-bridge/contracts/BridgeDeposit.sol\":149:2856  contract EscrowPaymentSplitter {... */\n      mstore(0x40, 0x80)\n      jumpi(tag_1, lt(calldatasize, 0x04))\n      shr(0xe0, calldataload(0x00))\n      dup1\n      0x54fd4d50\n      gt\n      tag_12\n      jumpi\n      dup1\n      0x54fd4d50\n      eq\n      tag_7\n      jumpi\n      dup1\n      0x783b04b8\n      eq\n      tag_8\n      jumpi\n      dup1\n      0xa3fbbaae\n      eq\n      tag_9\n      jumpi\n      dup1\n      0xb79cf13f\n      eq\n      tag_10\n      jumpi\n      dup1\n      0xd5009584\n      eq\n      tag_11\n      jumpi\n      jump(tag_2)\n    tag_12:\n      dup1\n      0x06fdde03\n      eq\n      tag_3\n      jumpi\n      dup1\n      0x2cd89139\n      eq\n      tag_4\n      jumpi\n      dup1\n      0x3aecd0e3\n      eq\n      tag_5\n      jumpi\n      dup1\n      0x481c6a75\n      eq\n      tag_6\n      jumpi\n      jump(tag_2)\n    tag_1:\n      jumpi(tag_2, calldatasize)\n        /* \"Users/ben/Documents/GitHub/gen-bridge/contracts/BridgeDeposit.sol\":699:714  uint _minAmount */\n      0x00\n        /* \"Users/ben/Documents/GitHub/gen-bridge/contracts/BridgeDeposit.sol\":717:727  1*(10**12) */\n      0xe8d4a51000\n        /* \"Users/ben/Documents/GitHub/gen-bridge/contracts/BridgeDeposit.sol\":699:727  uint _minAmount = 1*(10**12) */\n      swap1\n      pop\n        /* \"Users/ben/Documents/GitHub/gen-bridge/contracts/BridgeDeposit.sol\":758:768  _minAmount */\n      dup1\n        /* \"Users/ben/Documents/GitHub/gen-bridge/contracts/BridgeDeposit.sol\":745:754  msg.value */\n      callvalue\n        /* \"Users/ben/Documents/GitHub/gen-bridge/contracts/BridgeDeposit.sol\":745:768  msg.value >= _minAmount */\n      lt\n      iszero\n        /* \"Users/ben/Documents/GitHub/gen-bridge/contracts/BridgeDeposit.sol\":737:811  require(msg.value >= _minAmount, \"You need to send at least 0.000001 GEN\") */\n      tag_15\n      jumpi\n      mload(0x40)\n      0x08c379a000000000000000000000000000000000000000000000000000000000\n      dup2\n      mstore\n      0x04\n      add\n      tag_16\n      swap1\n      tag_17\n      jump\t// in\n    tag_16:\n      mload(0x40)\n      dup1\n      swap2\n      sub\n      swap1\n      revert\n    tag_15:\n        /* \"Users/ben/Documents/GitHub/gen-bridge/contracts/BridgeDeposit.sol\":835:845  msg.sender */\n      caller\n        /* \"Users/ben/Documents/GitHub/gen-bridge/contracts/BridgeDeposit.sol\":827:857  Deposit(msg.sender, msg.value) */\n      0xffffffffffffffffffffffffffffffffffffffff\n      and\n      0xe1fffcc4923d04b559f4d29a8bfc6cda04eb5b0d3c460751c2402c5c5cc9109c\n        /* \"Users/ben/Documents/GitHub/gen-bridge/contracts/BridgeDeposit.sol\":847:856  msg.value */\n      callvalue\n        /* \"Users/ben/Documents/GitHub/gen-bridge/contracts/BridgeDeposit.sol\":827:857  Deposit(msg.sender, msg.value) */\n      mload(0x40)\n      tag_18\n      swap2\n      swap1\n      tag_19\n      jump\t// in\n    tag_18:\n      mload(0x40)\n      dup1\n      swap2\n      sub\n      swap1\n      log2\n        /* \"Users/ben/Documents/GitHub/gen-bridge/contracts/BridgeDeposit.sol\":469:864  {... */\n      stop\n        /* \"Users/ben/Documents/GitHub/gen-bridge/contracts/BridgeDeposit.sol\":149:2856  contract EscrowPaymentSplitter {... */\n    tag_2:\n      0x00\n      dup1\n      revert\n        /* \"Users/ben/Documents/GitHub/gen-bridge/contracts/BridgeDeposit.sol\":1020:1121  function name() public pure returns (string memory) {... */\n    tag_3:\n      callvalue\n      dup1\n      iszero\n      tag_20\n      jumpi\n      0x00\n      dup1\n      revert\n    tag_20:\n      pop\n      tag_21\n      tag_22\n      jump\t// in\n    tag_21:\n      mload(0x40)\n      tag_23\n      swap2\n      swap1\n      tag_24\n      jump\t// in\n    tag_23:\n      mload(0x40)\n      dup1\n      swap2\n      sub\n      swap1\n      return\n        /* \"Users/ben/Documents/GitHub/gen-bridge/contracts/BridgeDeposit.sol\":2183:2357  function bridgeGenTransfer(uint256 amount) public isManager {... */\n    tag_4:\n      callvalue\n      dup1\n      iszero\n      tag_25\n      jumpi\n      0x00\n      dup1\n      revert\n    tag_25:\n      pop\n      tag_26\n      0x04\n      dup1\n      calldatasize\n      sub\n      dup2\n      add\n      swap1\n      tag_27\n      swap2\n      swap1\n      tag_28\n      jump\t// in\n    tag_27:\n      tag_29\n      jump\t// in\n    tag_26:\n      stop\n        /* \"Users/ben/Documents/GitHub/gen-bridge/contracts/BridgeDeposit.sol\":2363:2492  function getTokenBalance(address token) public view returns (uint) {... */\n    tag_5:\n      callvalue\n      dup1\n      iszero\n      tag_30\n      jumpi\n      0x00\n      dup1\n      revert\n    tag_30:\n      pop\n      tag_31\n      0x04\n      dup1\n      calldatasize\n      sub\n      dup2\n      add\n      swap1\n      tag_32\n      swap2\n      swap1\n      tag_33\n      jump\t// in\n    tag_32:\n      tag_34\n      jump\t// in\n    tag_31:\n      mload(0x40)\n      tag_35\n      swap2\n      swap1\n      tag_19\n      jump\t// in\n    tag_35:\n      mload(0x40)\n      dup1\n      swap2\n      sub\n      swap1\n      return\n        /* \"Users/ben/Documents/GitHub/gen-bridge/contracts/BridgeDeposit.sol\":219:241  address public manager */\n    tag_6:\n      callvalue\n      dup1\n      iszero\n      tag_36\n      jumpi\n      0x00\n      dup1\n      revert\n    tag_36:\n      pop\n      tag_37\n      tag_38\n      jump\t// in\n    tag_37:\n      mload(0x40)\n      tag_39\n      swap2\n      swap1\n      tag_40\n      jump\t// in\n    tag_39:\n      mload(0x40)\n      dup1\n      swap2\n      sub\n      swap1\n      return\n        /* \"Users/ben/Documents/GitHub/gen-bridge/contracts/BridgeDeposit.sol\":928:1014  function version() public pure returns (string memory) {... */\n    tag_7:\n      callvalue\n      dup1\n      iszero\n      tag_41\n      jumpi\n      0x00\n      dup1\n      revert\n    tag_41:\n      pop\n      tag_42\n      tag_43\n      jump\t// in\n    tag_42:\n      mload(0x40)\n      tag_44\n      swap2\n      swap1\n      tag_24\n      jump\t// in\n    tag_44:\n      mload(0x40)\n      dup1\n      swap2\n      sub\n      swap1\n      return\n        /* \"Users/ben/Documents/GitHub/gen-bridge/contracts/BridgeDeposit.sol\":2498:2854  function bridgeTokenTransfer(address token, uint256 amount, address toAddress) public isManager {... */\n    tag_8:\n      callvalue\n      dup1\n      iszero\n      tag_45\n      jumpi\n      0x00\n      dup1\n      revert\n    tag_45:\n      pop\n      tag_46\n      0x04\n      dup1\n      calldatasize\n      sub\n      dup2\n      add\n      swap1\n      tag_47\n      swap2\n      swap1\n      tag_48\n      jump\t// in\n    tag_47:\n      tag_49\n      jump\t// in\n    tag_46:\n      stop\n        /* \"Users/ben/Documents/GitHub/gen-bridge/contracts/BridgeDeposit.sol\":1826:1969  function changeManager(address newManager) public isManager {... */\n    tag_9:\n      callvalue\n      dup1\n      iszero\n      tag_50\n      jumpi\n      0x00\n      dup1\n      revert\n    tag_50:\n      pop\n      tag_51\n      0x04\n      dup1\n      calldatasize\n      sub\n      dup2\n      add\n      swap1\n      tag_52\n      swap2\n      swap1\n      tag_33\n      jump\t// in\n    tag_52:\n      tag_53\n      jump\t// in\n    tag_51:\n      stop\n        /* \"Users/ben/Documents/GitHub/gen-bridge/contracts/BridgeDeposit.sol\":2080:2177  function getGenBalance() public view returns (uint) {... */\n    tag_10:\n      callvalue\n      dup1\n      iszero\n      tag_54\n      jumpi\n      0x00\n      dup1\n      revert\n    tag_54:\n      pop\n      tag_55\n      tag_56\n      jump\t// in\n    tag_55:\n      mload(0x40)\n      tag_57\n      swap2\n      swap1\n      tag_19\n      jump\t// in\n    tag_57:\n      mload(0x40)\n      dup1\n      swap2\n      sub\n      swap1\n      return\n        /* \"Users/ben/Documents/GitHub/gen-bridge/contracts/BridgeDeposit.sol\":1975:2060  function getManager() external view returns (address) {... */\n    tag_11:\n      callvalue\n      dup1\n      iszero\n      tag_58\n      jumpi\n      0x00\n      dup1\n      revert\n    tag_58:\n      pop\n      tag_59\n      tag_60\n      jump\t// in\n    tag_59:\n      mload(0x40)\n      tag_61\n      swap2\n      swap1\n      tag_40\n      jump\t// in\n    tag_61:\n      mload(0x40)\n      dup1\n      swap2\n      sub\n      swap1\n      return\n        /* \"Users/ben/Documents/GitHub/gen-bridge/contracts/BridgeDeposit.sol\":1020:1121  function name() public pure returns (string memory) {... */\n    tag_22:\n        /* \"Users/ben/Documents/GitHub/gen-bridge/contracts/BridgeDeposit.sol\":1057:1070  string memory */\n      0x60\n        /* \"Users/ben/Documents/GitHub/gen-bridge/contracts/BridgeDeposit.sol\":1082:1114  return \"Bridge Deposit Contract\" */\n      mload(0x40)\n      dup1\n      0x40\n      add\n      0x40\n      mstore\n      dup1\n      0x17\n      dup2\n      mstore\n      0x20\n      add\n      0x427269646765204465706f73697420436f6e7472616374000000000000000000\n      dup2\n      mstore\n      pop\n      swap1\n      pop\n        /* \"Users/ben/Documents/GitHub/gen-bridge/contracts/BridgeDeposit.sol\":1020:1121  function name() public pure returns (string memory) {... */\n      swap1\n      jump\t// out\n        /* \"Users/ben/Documents/GitHub/gen-bridge/contracts/BridgeDeposit.sol\":2183:2357  function bridgeGenTransfer(uint256 amount) public isManager {... */\n    tag_29:\n        /* \"Users/ben/Documents/GitHub/gen-bridge/contracts/BridgeDeposit.sol\":1765:1772  manager */\n      0x00\n      dup1\n      sload\n      swap1\n      0x0100\n      exp\n      swap1\n      div\n      0xffffffffffffffffffffffffffffffffffffffff\n      and\n        /* \"Users/ben/Documents/GitHub/gen-bridge/contracts/BridgeDeposit.sol\":1751:1772  msg.sender == manager */\n      0xffffffffffffffffffffffffffffffffffffffff\n      and\n        /* \"Users/ben/Documents/GitHub/gen-bridge/contracts/BridgeDeposit.sol\":1751:1761  msg.sender */\n      caller\n        /* \"Users/ben/Documents/GitHub/gen-bridge/contracts/BridgeDeposit.sol\":1751:1772  msg.sender == manager */\n      0xffffffffffffffffffffffffffffffffffffffff\n      and\n      eq\n        /* \"Users/ben/Documents/GitHub/gen-bridge/contracts/BridgeDeposit.sol\":1743:1798  require(msg.sender == manager, \"Caller is not manager\") */\n      tag_64\n      jumpi\n      mload(0x40)\n      0x08c379a000000000000000000000000000000000000000000000000000000000\n      dup2\n      mstore\n      0x04\n      add\n      tag_65\n      swap1\n      tag_66\n      jump\t// in\n    tag_65:\n      mload(0x40)\n      dup1\n      swap2\n      sub\n      swap1\n      revert\n    tag_64:\n        /* \"Users/ben/Documents/GitHub/gen-bridge/contracts/BridgeDeposit.sol\":2261:2271  msg.sender */\n      caller\n        /* \"Users/ben/Documents/GitHub/gen-bridge/contracts/BridgeDeposit.sol\":2253:2281  payable(msg.sender).transfer */\n      0xffffffffffffffffffffffffffffffffffffffff\n      and\n        /* \"Users/ben/Documents/GitHub/gen-bridge/contracts/BridgeDeposit.sol\":2253:2304  payable(msg.sender).transfer(address(this).balance) */\n      0x08fc\n        /* \"Users/ben/Documents/GitHub/gen-bridge/contracts/BridgeDeposit.sol\":2282:2303  address(this).balance */\n      selfbalance\n        /* \"Users/ben/Documents/GitHub/gen-bridge/contracts/BridgeDeposit.sol\":2253:2304  payable(msg.sender).transfer(address(this).balance) */\n      swap1\n      dup2\n      iszero\n      mul\n      swap1\n      mload(0x40)\n      0x00\n      mload(0x40)\n      dup1\n      dup4\n      sub\n      dup2\n      dup6\n      dup9\n      dup9\n      call\n      swap4\n      pop\n      pop\n      pop\n      pop\n      iszero\n      dup1\n      iszero\n      tag_69\n      jumpi\n      returndatasize\n      0x00\n      dup1\n      returndatacopy\n      revert(0x00, returndatasize)\n    tag_69:\n      pop\n        /* \"Users/ben/Documents/GitHub/gen-bridge/contracts/BridgeDeposit.sol\":2331:2341  msg.sender */\n      caller\n        /* \"Users/ben/Documents/GitHub/gen-bridge/contracts/BridgeDeposit.sol\":2319:2350  GenTransfer(msg.sender, amount) */\n      0xffffffffffffffffffffffffffffffffffffffff\n      and\n      0xa1f8fe9881f87957d0db5ebb2883430b78d16fda15cfd81b181a595fe06a9551\n        /* \"Users/ben/Documents/GitHub/gen-bridge/contracts/BridgeDeposit.sol\":2343:2349  amount */\n      dup3\n        /* \"Users/ben/Documents/GitHub/gen-bridge/contracts/BridgeDeposit.sol\":2319:2350  GenTransfer(msg.sender, amount) */\n      mload(0x40)\n      tag_70\n      swap2\n      swap1\n      tag_19\n      jump\t// in\n    tag_70:\n      mload(0x40)\n      dup1\n      swap2\n      sub\n      swap1\n      log2\n        /* \"Users/ben/Documents/GitHub/gen-bridge/contracts/BridgeDeposit.sol\":2183:2357  function bridgeGenTransfer(uint256 amount) public isManager {... */\n      pop\n      jump\t// out\n        /* \"Users/ben/Documents/GitHub/gen-bridge/contracts/BridgeDeposit.sol\":2363:2492  function getTokenBalance(address token) public view returns (uint) {... */\n    tag_34:\n        /* \"Users/ben/Documents/GitHub/gen-bridge/contracts/BridgeDeposit.sol\":2424:2428  uint */\n      0x00\n        /* \"Users/ben/Documents/GitHub/gen-bridge/contracts/BridgeDeposit.sol\":2454:2459  token */\n      dup2\n        /* \"Users/ben/Documents/GitHub/gen-bridge/contracts/BridgeDeposit.sol\":2447:2470  IERC20(token).balanceOf */\n      0xffffffffffffffffffffffffffffffffffffffff\n      and\n      0x70a08231\n        /* \"Users/ben/Documents/GitHub/gen-bridge/contracts/BridgeDeposit.sol\":2479:2483  this */\n      address\n        /* \"Users/ben/Documents/GitHub/gen-bridge/contracts/BridgeDeposit.sol\":2447:2485  IERC20(token).balanceOf(address(this)) */\n      mload(0x40)\n      dup3\n      0xffffffff\n      and\n      0xe0\n      shl\n      dup2\n      mstore\n      0x04\n      add\n      tag_72\n      swap2\n      swap1\n      tag_40\n      jump\t// in\n    tag_72:\n      0x20\n      mload(0x40)\n      dup1\n      dup4\n      sub\n      dup2\n      dup7\n      gas\n      staticcall\n      iszero\n      dup1\n      iszero\n      tag_74\n      jumpi\n      returndatasize\n      0x00\n      dup1\n      returndatacopy\n      revert(0x00, returndatasize)\n    tag_74:\n      pop\n      pop\n      pop\n      pop\n      mload(0x40)\n      returndatasize\n      not(0x1f)\n      0x1f\n      dup3\n      add\n      and\n      dup3\n      add\n      dup1\n      0x40\n      mstore\n      pop\n      dup2\n      add\n      swap1\n      tag_75\n      swap2\n      swap1\n      tag_76\n      jump\t// in\n    tag_75:\n        /* \"Users/ben/Documents/GitHub/gen-bridge/contracts/BridgeDeposit.sol\":2440:2485  return IERC20(token).balanceOf(address(this)) */\n      swap1\n      pop\n        /* \"Users/ben/Documents/GitHub/gen-bridge/contracts/BridgeDeposit.sol\":2363:2492  function getTokenBalance(address token) public view returns (uint) {... */\n      swap2\n      swap1\n      pop\n      jump\t// out\n        /* \"Users/ben/Documents/GitHub/gen-bridge/contracts/BridgeDeposit.sol\":219:241  address public manager */\n    tag_38:\n      0x00\n      dup1\n      sload\n      swap1\n      0x0100\n      exp\n      swap1\n      div\n      0xffffffffffffffffffffffffffffffffffffffff\n      and\n      dup2\n      jump\t// out\n        /* \"Users/ben/Documents/GitHub/gen-bridge/contracts/BridgeDeposit.sol\":928:1014  function version() public pure returns (string memory) {... */\n    tag_43:\n        /* \"Users/ben/Documents/GitHub/gen-bridge/contracts/BridgeDeposit.sol\":968:981  string memory */\n      0x60\n        /* \"Users/ben/Documents/GitHub/gen-bridge/contracts/BridgeDeposit.sol\":993:1007  return \"0.1.0\" */\n      mload(0x40)\n      dup1\n      0x40\n      add\n      0x40\n      mstore\n      dup1\n      0x05\n      dup2\n      mstore\n      0x20\n      add\n      0x302e312e30000000000000000000000000000000000000000000000000000000\n      dup2\n      mstore\n      pop\n      swap1\n      pop\n        /* \"Users/ben/Documents/GitHub/gen-bridge/contracts/BridgeDeposit.sol\":928:1014  function version() public pure returns (string memory) {... */\n      swap1\n      jump\t// out\n        /* \"Users/ben/Documents/GitHub/gen-bridge/contracts/BridgeDeposit.sol\":2498:2854  function bridgeTokenTransfer(address token, uint256 amount, address toAddress) public isManager {... */\n    tag_49:\n        /* \"Users/ben/Documents/GitHub/gen-bridge/contracts/BridgeDeposit.sol\":1765:1772  manager */\n      0x00\n      dup1\n      sload\n      swap1\n      0x0100\n      exp\n      swap1\n      div\n      0xffffffffffffffffffffffffffffffffffffffff\n      and\n        /* \"Users/ben/Documents/GitHub/gen-bridge/contracts/BridgeDeposit.sol\":1751:1772  msg.sender == manager */\n      0xffffffffffffffffffffffffffffffffffffffff\n      and\n        /* \"Users/ben/Documents/GitHub/gen-bridge/contracts/BridgeDeposit.sol\":1751:1761  msg.sender */\n      caller\n        /* \"Users/ben/Documents/GitHub/gen-bridge/contracts/BridgeDeposit.sol\":1751:1772  msg.sender == manager */\n      0xffffffffffffffffffffffffffffffffffffffff\n      and\n      eq\n        /* \"Users/ben/Documents/GitHub/gen-bridge/contracts/BridgeDeposit.sol\":1743:1798  require(msg.sender == manager, \"Caller is not manager\") */\n      tag_79\n      jumpi\n      mload(0x40)\n      0x08c379a000000000000000000000000000000000000000000000000000000000\n      dup2\n      mstore\n      0x04\n      add\n      tag_80\n      swap1\n      tag_66\n      jump\t// in\n    tag_80:\n      mload(0x40)\n      dup1\n      swap2\n      sub\n      swap1\n      revert\n    tag_79:\n        /* \"Users/ben/Documents/GitHub/gen-bridge/contracts/BridgeDeposit.sol\":2604:2624  uint256 tokenBalance */\n      0x00\n        /* \"Users/ben/Documents/GitHub/gen-bridge/contracts/BridgeDeposit.sol\":2634:2639  token */\n      dup4\n        /* \"Users/ben/Documents/GitHub/gen-bridge/contracts/BridgeDeposit.sol\":2627:2650  IERC20(token).balanceOf */\n      0xffffffffffffffffffffffffffffffffffffffff\n      and\n      0x70a08231\n        /* \"Users/ben/Documents/GitHub/gen-bridge/contracts/BridgeDeposit.sol\":2659:2663  this */\n      address\n        /* \"Users/ben/Documents/GitHub/gen-bridge/contracts/BridgeDeposit.sol\":2627:2665  IERC20(token).balanceOf(address(this)) */\n      mload(0x40)\n      dup3\n      0xffffffff\n      and\n      0xe0\n      shl\n      dup2\n      mstore\n      0x04\n      add\n      tag_82\n      swap2\n      swap1\n      tag_40\n      jump\t// in\n    tag_82:\n      0x20\n      mload(0x40)\n      dup1\n      dup4\n      sub\n      dup2\n      dup7\n      gas\n      staticcall\n      iszero\n      dup1\n      iszero\n      tag_84\n      jumpi\n      returndatasize\n      0x00\n      dup1\n      returndatacopy\n      revert(0x00, returndatasize)\n    tag_84:\n      pop\n      pop\n      pop\n      pop\n      mload(0x40)\n      returndatasize\n      not(0x1f)\n      0x1f\n      dup3\n      add\n      and\n      dup3\n      add\n      dup1\n      0x40\n      mstore\n      pop\n      dup2\n      add\n      swap1\n      tag_85\n      swap2\n      swap1\n      tag_76\n      jump\t// in\n    tag_85:\n        /* \"Users/ben/Documents/GitHub/gen-bridge/contracts/BridgeDeposit.sol\":2604:2665  uint256 tokenBalance = IERC20(token).balanceOf(address(this)) */\n      swap1\n      pop\n        /* \"Users/ben/Documents/GitHub/gen-bridge/contracts/BridgeDeposit.sol\":2699:2705  amount */\n      dup3\n        /* \"Users/ben/Documents/GitHub/gen-bridge/contracts/BridgeDeposit.sol\":2683:2695  tokenBalance */\n      dup2\n        /* \"Users/ben/Documents/GitHub/gen-bridge/contracts/BridgeDeposit.sol\":2683:2705  tokenBalance >= amount */\n      lt\n      iszero\n        /* \"Users/ben/Documents/GitHub/gen-bridge/contracts/BridgeDeposit.sol\":2675:2736  require(tokenBalance >= amount, \"Insufficient token balance\") */\n      tag_86\n      jumpi\n      mload(0x40)\n      0x08c379a000000000000000000000000000000000000000000000000000000000\n      dup2\n      mstore\n      0x04\n      add\n      tag_87\n      swap1\n      tag_88\n      jump\t// in\n    tag_87:\n      mload(0x40)\n      dup1\n      swap2\n      sub\n      swap1\n      revert\n    tag_86:\n        /* \"Users/ben/Documents/GitHub/gen-bridge/contracts/BridgeDeposit.sol\":2747:2792  IERC20(token).safeTransfer(toAddress, amount) */\n      tag_89\n        /* \"Users/ben/Documents/GitHub/gen-bridge/contracts/BridgeDeposit.sol\":2774:2783  toAddress */\n      dup3\n        /* \"Users/ben/Documents/GitHub/gen-bridge/contracts/BridgeDeposit.sol\":2785:2791  amount */\n      dup5\n        /* \"Users/ben/Documents/GitHub/gen-bridge/contracts/BridgeDeposit.sol\":2754:2759  token */\n      dup7\n        /* \"Users/ben/Documents/GitHub/gen-bridge/contracts/BridgeDeposit.sol\":2747:2773  IERC20(token).safeTransfer */\n      0xffffffffffffffffffffffffffffffffffffffff\n      and\n      tag_90\n      swap1\n        /* \"Users/ben/Documents/GitHub/gen-bridge/contracts/BridgeDeposit.sol\":2747:2792  IERC20(token).safeTransfer(toAddress, amount) */\n      swap3\n      swap2\n      swap1\n      0xffffffff\n      and\n      jump\t// in\n    tag_89:\n        /* \"Users/ben/Documents/GitHub/gen-bridge/contracts/BridgeDeposit.sol\":2821:2831  msg.sender */\n      caller\n        /* \"Users/ben/Documents/GitHub/gen-bridge/contracts/BridgeDeposit.sol\":2807:2847  TokenTransfer(msg.sender, amount, token) */\n      0xffffffffffffffffffffffffffffffffffffffff\n      and\n      0xe9001e94dcb1564a47a8ad9116dfc37603e2c82e303ac9ce65dd8747d02ce0b4\n        /* \"Users/ben/Documents/GitHub/gen-bridge/contracts/BridgeDeposit.sol\":2833:2839  amount */\n      dup5\n        /* \"Users/ben/Documents/GitHub/gen-bridge/contracts/BridgeDeposit.sol\":2841:2846  token */\n      dup7\n        /* \"Users/ben/Documents/GitHub/gen-bridge/contracts/BridgeDeposit.sol\":2807:2847  TokenTransfer(msg.sender, amount, token) */\n      mload(0x40)\n      tag_91\n      swap3\n      swap2\n      swap1\n      tag_92\n      jump\t// in\n    tag_91:\n      mload(0x40)\n      dup1\n      swap2\n      sub\n      swap1\n      log2\n        /* \"Users/ben/Documents/GitHub/gen-bridge/contracts/BridgeDeposit.sol\":2594:2854  {... */\n      pop\n        /* \"Users/ben/Documents/GitHub/gen-bridge/contracts/BridgeDeposit.sol\":2498:2854  function bridgeTokenTransfer(address token, uint256 amount, address toAddress) public isManager {... */\n      pop\n      pop\n      pop\n      jump\t// out\n        /* \"Users/ben/Documents/GitHub/gen-bridge/contracts/BridgeDeposit.sol\":1826:1969  function changeManager(address newManager) public isManager {... */\n    tag_53:\n        /* \"Users/ben/Documents/GitHub/gen-bridge/contracts/BridgeDeposit.sol\":1765:1772  manager */\n      0x00\n      dup1\n      sload\n      swap1\n      0x0100\n      exp\n      swap1\n      div\n      0xffffffffffffffffffffffffffffffffffffffff\n      and\n        /* \"Users/ben/Documents/GitHub/gen-bridge/contracts/BridgeDeposit.sol\":1751:1772  msg.sender == manager */\n      0xffffffffffffffffffffffffffffffffffffffff\n      and\n        /* \"Users/ben/Documents/GitHub/gen-bridge/contracts/BridgeDeposit.sol\":1751:1761  msg.sender */\n      caller\n        /* \"Users/ben/Documents/GitHub/gen-bridge/contracts/BridgeDeposit.sol\":1751:1772  msg.sender == manager */\n      0xffffffffffffffffffffffffffffffffffffffff\n      and\n      eq\n        /* \"Users/ben/Documents/GitHub/gen-bridge/contracts/BridgeDeposit.sol\":1743:1798  require(msg.sender == manager, \"Caller is not manager\") */\n      tag_94\n      jumpi\n      mload(0x40)\n      0x08c379a000000000000000000000000000000000000000000000000000000000\n      dup2\n      mstore\n      0x04\n      add\n      tag_95\n      swap1\n      tag_66\n      jump\t// in\n    tag_95:\n      mload(0x40)\n      dup1\n      swap2\n      sub\n      swap1\n      revert\n    tag_94:\n        /* \"Users/ben/Documents/GitHub/gen-bridge/contracts/BridgeDeposit.sol\":1921:1931  newManager */\n      dup1\n        /* \"Users/ben/Documents/GitHub/gen-bridge/contracts/BridgeDeposit.sol\":1901:1932  ManagerSet(manager, newManager) */\n      0xffffffffffffffffffffffffffffffffffffffff\n      and\n        /* \"Users/ben/Documents/GitHub/gen-bridge/contracts/BridgeDeposit.sol\":1912:1919  manager */\n      0x00\n      dup1\n      sload\n      swap1\n      0x0100\n      exp\n      swap1\n      div\n      0xffffffffffffffffffffffffffffffffffffffff\n      and\n        /* \"Users/ben/Documents/GitHub/gen-bridge/contracts/BridgeDeposit.sol\":1901:1932  ManagerSet(manager, newManager) */\n      0xffffffffffffffffffffffffffffffffffffffff\n      and\n      0xc64707e618a83637fc41ad1e3aa4242bd5fdd353f3d60bc0faf40db0d7d86078\n      mload(0x40)\n      mload(0x40)\n      dup1\n      swap2\n      sub\n      swap1\n      log3\n        /* \"Users/ben/Documents/GitHub/gen-bridge/contracts/BridgeDeposit.sol\":1952:1962  newManager */\n      dup1\n        /* \"Users/ben/Documents/GitHub/gen-bridge/contracts/BridgeDeposit.sol\":1942:1949  manager */\n      0x00\n      dup1\n        /* \"Users/ben/Documents/GitHub/gen-bridge/contracts/BridgeDeposit.sol\":1942:1962  manager = newManager */\n      0x0100\n      exp\n      dup2\n      sload\n      dup2\n      0xffffffffffffffffffffffffffffffffffffffff\n      mul\n      not\n      and\n      swap1\n      dup4\n      0xffffffffffffffffffffffffffffffffffffffff\n      and\n      mul\n      or\n      swap1\n      sstore\n      pop\n        /* \"Users/ben/Documents/GitHub/gen-bridge/contracts/BridgeDeposit.sol\":1826:1969  function changeManager(address newManager) public isManager {... */\n      pop\n      jump\t// out\n        /* \"Users/ben/Documents/GitHub/gen-bridge/contracts/BridgeDeposit.sol\":2080:2177  function getGenBalance() public view returns (uint) {... */\n    tag_56:\n        /* \"Users/ben/Documents/GitHub/gen-bridge/contracts/BridgeDeposit.sol\":2126:2130  uint */\n      0x00\n        /* \"Users/ben/Documents/GitHub/gen-bridge/contracts/BridgeDeposit.sol\":2149:2170  address(this).balance */\n      selfbalance\n        /* \"Users/ben/Documents/GitHub/gen-bridge/contracts/BridgeDeposit.sol\":2142:2170  return address(this).balance */\n      swap1\n      pop\n        /* \"Users/ben/Documents/GitHub/gen-bridge/contracts/BridgeDeposit.sol\":2080:2177  function getGenBalance() public view returns (uint) {... */\n      swap1\n      jump\t// out\n        /* \"Users/ben/Documents/GitHub/gen-bridge/contracts/BridgeDeposit.sol\":1975:2060  function getManager() external view returns (address) {... */\n    tag_60:\n        /* \"Users/ben/Documents/GitHub/gen-bridge/contracts/BridgeDeposit.sol\":2020:2027  address */\n      0x00\n        /* \"Users/ben/Documents/GitHub/gen-bridge/contracts/BridgeDeposit.sol\":2046:2053  manager */\n      dup1\n      0x00\n      swap1\n      sload\n      swap1\n      0x0100\n      exp\n      swap1\n      div\n      0xffffffffffffffffffffffffffffffffffffffff\n      and\n        /* \"Users/ben/Documents/GitHub/gen-bridge/contracts/BridgeDeposit.sol\":2039:2053  return manager */\n      swap1\n      pop\n        /* \"Users/ben/Documents/GitHub/gen-bridge/contracts/BridgeDeposit.sol\":1975:2060  function getManager() external view returns (address) {... */\n      swap1\n      jump\t// out\n        /* \"@openzeppelin/contracts/token/ERC20/utils/SafeERC20.sol\":763:968  function safeTransfer(... */\n    tag_90:\n        /* \"@openzeppelin/contracts/token/ERC20/utils/SafeERC20.sol\":875:961  _callOptionalReturn(token, abi.encodeWithSelector(token.transfer.selector, to, value)) */\n      tag_100\n        /* \"@openzeppelin/contracts/token/ERC20/utils/SafeERC20.sol\":895:900  token */\n      dup4\n        /* \"@openzeppelin/contracts/token/ERC20/utils/SafeERC20.sol\":925:948  token.transfer.selector */\n      shl(0xe0, 0xa9059cbb)\n        /* \"@openzeppelin/contracts/token/ERC20/utils/SafeERC20.sol\":950:952  to */\n      dup5\n        /* \"@openzeppelin/contracts/token/ERC20/utils/SafeERC20.sol\":954:959  value */\n      dup5\n        /* \"@openzeppelin/contracts/token/ERC20/utils/SafeERC20.sol\":902:960  abi.encodeWithSelector(token.transfer.selector, to, value) */\n      add(0x24, mload(0x40))\n      tag_101\n      swap3\n      swap2\n      swap1\n      tag_102\n      jump\t// in\n    tag_101:\n      mload(0x40)\n      0x20\n      dup2\n      dup4\n      sub\n      sub\n      dup2\n      mstore\n      swap1\n      0x40\n      mstore\n      swap1\n      not(0xffffffffffffffffffffffffffffffffffffffffffffffffffffffff)\n      and\n      0x20\n      dup3\n      add\n      dup1\n      mload\n      0xffffffffffffffffffffffffffffffffffffffffffffffffffffffff\n      dup4\n      dup2\n      dup4\n      and\n      or\n      dup4\n      mstore\n      pop\n      pop\n      pop\n      pop\n        /* \"@openzeppelin/contracts/token/ERC20/utils/SafeERC20.sol\":875:894  _callOptionalReturn */\n      tag_103\n        /* \"@openzeppelin/contracts/token/ERC20/utils/SafeERC20.sol\":875:961  _callOptionalReturn(token, abi.encodeWithSelector(token.transfer.selector, to, value)) */\n      jump\t// in\n    tag_100:\n        /* \"@openzeppelin/contracts/token/ERC20/utils/SafeERC20.sol\":763:968  function safeTransfer(... */\n      pop\n      pop\n      pop\n      jump\t// out\n        /* \"@openzeppelin/contracts/token/ERC20/utils/SafeERC20.sol\":3747:4453  function _callOptionalReturn(IERC20 token, bytes memory data) private {... */\n    tag_103:\n        /* \"@openzeppelin/contracts/token/ERC20/utils/SafeERC20.sol\":4166:4189  bytes memory returndata */\n      0x00\n        /* \"@openzeppelin/contracts/token/ERC20/utils/SafeERC20.sol\":4192:4261  address(token).functionCall(data, \"SafeERC20: low-level call failed\") */\n      tag_105\n        /* \"@openzeppelin/contracts/token/ERC20/utils/SafeERC20.sol\":4220:4224  data */\n      dup3\n        /* \"@openzeppelin/contracts/token/ERC20/utils/SafeERC20.sol\":4192:4261  address(token).functionCall(data, \"SafeERC20: low-level call failed\") */\n      mload(0x40)\n      dup1\n      0x40\n      add\n      0x40\n      mstore\n      dup1\n      0x20\n      dup2\n      mstore\n      0x20\n      add\n      0x5361666545524332303a206c6f772d6c6576656c2063616c6c206661696c6564\n      dup2\n      mstore\n      pop\n        /* \"@openzeppelin/contracts/token/ERC20/utils/SafeERC20.sol\":4200:4205  token */\n      dup6\n        /* \"@openzeppelin/contracts/token/ERC20/utils/SafeERC20.sol\":4192:4219  address(token).functionCall */\n      0xffffffffffffffffffffffffffffffffffffffff\n      and\n      tag_106\n      swap1\n        /* \"@openzeppelin/contracts/token/ERC20/utils/SafeERC20.sol\":4192:4261  address(token).functionCall(data, \"SafeERC20: low-level call failed\") */\n      swap3\n      swap2\n      swap1\n      0xffffffff\n      and\n      jump\t// in\n    tag_105:\n        /* \"@openzeppelin/contracts/token/ERC20/utils/SafeERC20.sol\":4166:4261  bytes memory returndata = address(token).functionCall(data, \"SafeERC20: low-level call failed\") */\n      swap1\n      pop\n        /* \"@openzeppelin/contracts/token/ERC20/utils/SafeERC20.sol\":4295:4296  0 */\n      0x00\n        /* \"@openzeppelin/contracts/token/ERC20/utils/SafeERC20.sol\":4275:4285  returndata */\n      dup2\n        /* \"@openzeppelin/contracts/token/ERC20/utils/SafeERC20.sol\":4275:4292  returndata.length */\n      mload\n        /* \"@openzeppelin/contracts/token/ERC20/utils/SafeERC20.sol\":4275:4296  returndata.length > 0 */\n      gt\n        /* \"@openzeppelin/contracts/token/ERC20/utils/SafeERC20.sol\":4271:4447  if (returndata.length > 0) {... */\n      iszero\n      tag_107\n      jumpi\n        /* \"@openzeppelin/contracts/token/ERC20/utils/SafeERC20.sol\":4370:4380  returndata */\n      dup1\n        /* \"@openzeppelin/contracts/token/ERC20/utils/SafeERC20.sol\":4359:4389  abi.decode(returndata, (bool)) */\n      dup1\n      0x20\n      add\n      swap1\n      mload\n      dup2\n      add\n      swap1\n      tag_108\n      swap2\n      swap1\n      tag_109\n      jump\t// in\n    tag_108:\n        /* \"@openzeppelin/contracts/token/ERC20/utils/SafeERC20.sol\":4351:4436  require(abi.decode(returndata, (bool)), \"SafeERC20: ERC20 operation did not succeed\") */\n      tag_110\n      jumpi\n      mload(0x40)\n      0x08c379a000000000000000000000000000000000000000000000000000000000\n      dup2\n      mstore\n      0x04\n      add\n      tag_111\n      swap1\n      tag_112\n      jump\t// in\n    tag_111:\n      mload(0x40)\n      dup1\n      swap2\n      sub\n      swap1\n      revert\n    tag_110:\n        /* \"@openzeppelin/contracts/token/ERC20/utils/SafeERC20.sol\":4271:4447  if (returndata.length > 0) {... */\n    tag_107:\n        /* \"@openzeppelin/contracts/token/ERC20/utils/SafeERC20.sol\":3817:4453  {... */\n      pop\n        /* \"@openzeppelin/contracts/token/ERC20/utils/SafeERC20.sol\":3747:4453  function _callOptionalReturn(IERC20 token, bytes memory data) private {... */\n      pop\n      pop\n      jump\t// out\n        /* \"@openzeppelin/contracts/utils/Address.sol\":3861:4084  function functionCall(... */\n    tag_106:\n        /* \"@openzeppelin/contracts/utils/Address.sol\":3994:4006  bytes memory */\n      0x60\n        /* \"@openzeppelin/contracts/utils/Address.sol\":4025:4077  functionCallWithValue(target, data, 0, errorMessage) */\n      tag_114\n        /* \"@openzeppelin/contracts/utils/Address.sol\":4047:4053  target */\n      dup5\n        /* \"@openzeppelin/contracts/utils/Address.sol\":4055:4059  data */\n      dup5\n        /* \"@openzeppelin/contracts/utils/Address.sol\":4061:4062  0 */\n      0x00\n        /* \"@openzeppelin/contracts/utils/Address.sol\":4064:4076  errorMessage */\n      dup6\n        /* \"@openzeppelin/contracts/utils/Address.sol\":4025:4046  functionCallWithValue */\n      tag_115\n        /* \"@openzeppelin/contracts/utils/Address.sol\":4025:4077  functionCallWithValue(target, data, 0, errorMessage) */\n      jump\t// in\n    tag_114:\n        /* \"@openzeppelin/contracts/utils/Address.sol\":4018:4077  return functionCallWithValue(target, data, 0, errorMessage) */\n      swap1\n      pop\n        /* \"@openzeppelin/contracts/utils/Address.sol\":3861:4084  function functionCall(... */\n      swap4\n      swap3\n      pop\n      pop\n      pop\n      jump\t// out\n        /* \"@openzeppelin/contracts/utils/Address.sol\":4948:5447  function functionCallWithValue(... */\n    tag_115:\n        /* \"@openzeppelin/contracts/utils/Address.sol\":5113:5125  bytes memory */\n      0x60\n        /* \"@openzeppelin/contracts/utils/Address.sol\":5170:5175  value */\n      dup3\n        /* \"@openzeppelin/contracts/utils/Address.sol\":5145:5166  address(this).balance */\n      selfbalance\n        /* \"@openzeppelin/contracts/utils/Address.sol\":5145:5175  address(this).balance >= value */\n      lt\n      iszero\n        /* \"@openzeppelin/contracts/utils/Address.sol\":5137:5218  require(address(this).balance >= value, \"Address: insufficient balance for call\") */\n      tag_117\n      jumpi\n      mload(0x40)\n      0x08c379a000000000000000000000000000000000000000000000000000000000\n      dup2\n      mstore\n      0x04\n      add\n      tag_118\n      swap1\n      tag_119\n      jump\t// in\n    tag_118:\n      mload(0x40)\n      dup1\n      swap2\n      sub\n      swap1\n      revert\n    tag_117:\n        /* \"@openzeppelin/contracts/utils/Address.sol\":5236:5254  isContract(target) */\n      tag_120\n        /* \"@openzeppelin/contracts/utils/Address.sol\":5247:5253  target */\n      dup6\n        /* \"@openzeppelin/contracts/utils/Address.sol\":5236:5246  isContract */\n      tag_121\n        /* \"@openzeppelin/contracts/utils/Address.sol\":5236:5254  isContract(target) */\n      jump\t// in\n    tag_120:\n        /* \"@openzeppelin/contracts/utils/Address.sol\":5228:5288  require(isContract(target), \"Address: call to non-contract\") */\n      tag_122\n      jumpi\n      mload(0x40)\n      0x08c379a000000000000000000000000000000000000000000000000000000000\n      dup2\n      mstore\n      0x04\n      add\n      tag_123\n      swap1\n      tag_124\n      jump\t// in\n    tag_123:\n      mload(0x40)\n      dup1\n      swap2\n      sub\n      swap1\n      revert\n    tag_122:\n        /* \"@openzeppelin/contracts/utils/Address.sol\":5300:5312  bool success */\n      0x00\n        /* \"@openzeppelin/contracts/utils/Address.sol\":5314:5337  bytes memory returndata */\n      dup1\n        /* \"@openzeppelin/contracts/utils/Address.sol\":5341:5347  target */\n      dup7\n        /* \"@openzeppelin/contracts/utils/Address.sol\":5341:5352  target.call */\n      0xffffffffffffffffffffffffffffffffffffffff\n      and\n        /* \"@openzeppelin/contracts/utils/Address.sol\":5360:5365  value */\n      dup6\n        /* \"@openzeppelin/contracts/utils/Address.sol\":5367:5371  data */\n      dup8\n        /* \"@openzeppelin/contracts/utils/Address.sol\":5341:5372  target.call{value: value}(data) */\n      mload(0x40)\n      tag_125\n      swap2\n      swap1\n      tag_126\n      jump\t// in\n    tag_125:\n      0x00\n      mload(0x40)\n      dup1\n      dup4\n      sub\n      dup2\n      dup6\n      dup8\n      gas\n      call\n      swap3\n      pop\n      pop\n      pop\n      returndatasize\n      dup1\n      0x00\n      dup2\n      eq\n      tag_129\n      jumpi\n      mload(0x40)\n      swap2\n      pop\n      and(add(returndatasize, 0x3f), not(0x1f))\n      dup3\n      add\n      0x40\n      mstore\n      returndatasize\n      dup3\n      mstore\n      returndatasize\n      0x00\n      0x20\n      dup5\n      add\n      returndatacopy\n      jump(tag_128)\n    tag_129:\n      0x60\n      swap2\n      pop\n    tag_128:\n      pop\n        /* \"@openzeppelin/contracts/utils/Address.sol\":5299:5372  (bool success, bytes memory returndata) = target.call{value: value}(data) */\n      swap2\n      pop\n      swap2\n      pop\n        /* \"@openzeppelin/contracts/utils/Address.sol\":5389:5440  verifyCallResult(success, returndata, errorMessage) */\n      tag_130\n        /* \"@openzeppelin/contracts/utils/Address.sol\":5406:5413  success */\n      dup3\n        /* \"@openzeppelin/contracts/utils/Address.sol\":5415:5425  returndata */\n      dup3\n        /* \"@openzeppelin/contracts/utils/Address.sol\":5427:5439  errorMessage */\n      dup7\n        /* \"@openzeppelin/contracts/utils/Address.sol\":5389:5405  verifyCallResult */\n      tag_131\n        /* \"@openzeppelin/contracts/utils/Address.sol\":5389:5440  verifyCallResult(success, returndata, errorMessage) */\n      jump\t// in\n    tag_130:\n        /* \"@openzeppelin/contracts/utils/Address.sol\":5382:5440  return verifyCallResult(success, returndata, errorMessage) */\n      swap3\n      pop\n      pop\n      pop\n        /* \"@openzeppelin/contracts/utils/Address.sol\":4948:5447  function functionCallWithValue(... */\n      swap5\n      swap4\n      pop\n      pop\n      pop\n      pop\n      jump\t// out\n        /* \"@openzeppelin/contracts/utils/Address.sol\":1175:1495  function isContract(address account) internal view returns (bool) {... */\n    tag_121:\n        /* \"@openzeppelin/contracts/utils/Address.sol\":1235:1239  bool */\n      0x00\n        /* \"@openzeppelin/contracts/utils/Address.sol\":1487:1488  0 */\n      dup1\n        /* \"@openzeppelin/contracts/utils/Address.sol\":1465:1472  account */\n      dup3\n        /* \"@openzeppelin/contracts/utils/Address.sol\":1465:1484  account.code.length */\n      0xffffffffffffffffffffffffffffffffffffffff\n      and\n      extcodesize\n        /* \"@openzeppelin/contracts/utils/Address.sol\":1465:1488  account.code.length > 0 */\n      gt\n        /* \"@openzeppelin/contracts/utils/Address.sol\":1458:1488  return account.code.length > 0 */\n      swap1\n      pop\n        /* \"@openzeppelin/contracts/utils/Address.sol\":1175:1495  function isContract(address account) internal view returns (bool) {... */\n      swap2\n      swap1\n      pop\n      jump\t// out\n        /* \"@openzeppelin/contracts/utils/Address.sol\":7561:8303  function verifyCallResult(... */\n    tag_131:\n        /* \"@openzeppelin/contracts/utils/Address.sol\":7707:7719  bytes memory */\n      0x60\n        /* \"@openzeppelin/contracts/utils/Address.sol\":7735:7742  success */\n      dup4\n        /* \"@openzeppelin/contracts/utils/Address.sol\":7731:8297  if (success) {... */\n      iszero\n      tag_134\n      jumpi\n        /* \"@openzeppelin/contracts/utils/Address.sol\":7765:7775  returndata */\n      dup3\n        /* \"@openzeppelin/contracts/utils/Address.sol\":7758:7775  return returndata */\n      swap1\n      pop\n      jump(tag_133)\n        /* \"@openzeppelin/contracts/utils/Address.sol\":7731:8297  if (success) {... */\n    tag_134:\n        /* \"@openzeppelin/contracts/utils/Address.sol\":7896:7897  0 */\n      0x00\n        /* \"@openzeppelin/contracts/utils/Address.sol\":7876:7886  returndata */\n      dup4\n        /* \"@openzeppelin/contracts/utils/Address.sol\":7876:7893  returndata.length */\n      mload\n        /* \"@openzeppelin/contracts/utils/Address.sol\":7876:7897  returndata.length > 0 */\n      gt\n        /* \"@openzeppelin/contracts/utils/Address.sol\":7872:8287  if (returndata.length > 0) {... */\n      iszero\n      tag_136\n      jumpi\n        /* \"@openzeppelin/contracts/utils/Address.sol\":8120:8130  returndata */\n      dup3\n        /* \"@openzeppelin/contracts/utils/Address.sol\":8114:8131  mload(returndata) */\n      mload\n        /* \"@openzeppelin/contracts/utils/Address.sol\":8180:8195  returndata_size */\n      dup1\n        /* \"@openzeppelin/contracts/utils/Address.sol\":8167:8177  returndata */\n      dup5\n        /* \"@openzeppelin/contracts/utils/Address.sol\":8163:8165  32 */\n      0x20\n        /* \"@openzeppelin/contracts/utils/Address.sol\":8159:8178  add(32, returndata) */\n      add\n        /* \"@openzeppelin/contracts/utils/Address.sol\":8152:8196  revert(add(32, returndata), returndata_size) */\n      revert\n        /* \"@openzeppelin/contracts/utils/Address.sol\":7872:8287  if (returndata.length > 0) {... */\n    tag_136:\n        /* \"@openzeppelin/contracts/utils/Address.sol\":8259:8271  errorMessage */\n      dup2\n        /* \"@openzeppelin/contracts/utils/Address.sol\":8252:8272  revert(errorMessage) */\n      mload(0x40)\n      0x08c379a000000000000000000000000000000000000000000000000000000000\n      dup2\n      mstore\n      0x04\n      add\n      tag_138\n      swap2\n      swap1\n      tag_24\n      jump\t// in\n    tag_138:\n      mload(0x40)\n      dup1\n      swap2\n      sub\n      swap1\n      revert\n        /* \"@openzeppelin/contracts/utils/Address.sol\":7561:8303  function verifyCallResult(... */\n    tag_133:\n      swap4\n      swap3\n      pop\n      pop\n      pop\n      jump\t// out\n        /* \"#utility.yul\":7:176   */\n    tag_139:\n        /* \"#utility.yul\":91:102   */\n      0x00\n        /* \"#utility.yul\":125:131   */\n      dup3\n        /* \"#utility.yul\":120:123   */\n      dup3\n        /* \"#utility.yul\":113:132   */\n      mstore\n        /* \"#utility.yul\":165:169   */\n      0x20\n        /* \"#utility.yul\":160:163   */\n      dup3\n        /* \"#utility.yul\":156:170   */\n      add\n        /* \"#utility.yul\":141:170   */\n      swap1\n      pop\n        /* \"#utility.yul\":7:176   */\n      swap3\n      swap2\n      pop\n      pop\n      jump\t// out\n        /* \"#utility.yul\":182:407   */\n    tag_140:\n        /* \"#utility.yul\":322:356   */\n      0x596f75206e65656420746f2073656e64206174206c6561737420302e30303030\n        /* \"#utility.yul\":318:319   */\n      0x00\n        /* \"#utility.yul\":310:316   */\n      dup3\n        /* \"#utility.yul\":306:320   */\n      add\n        /* \"#utility.yul\":299:357   */\n      mstore\n        /* \"#utility.yul\":391:399   */\n      0x30312047454e0000000000000000000000000000000000000000000000000000\n        /* \"#utility.yul\":386:388   */\n      0x20\n        /* \"#utility.yul\":378:384   */\n      dup3\n        /* \"#utility.yul\":374:389   */\n      add\n        /* \"#utility.yul\":367:400   */\n      mstore\n        /* \"#utility.yul\":182:407   */\n      pop\n      jump\t// out\n        /* \"#utility.yul\":413:779   */\n    tag_141:\n        /* \"#utility.yul\":555:558   */\n      0x00\n        /* \"#utility.yul\":576:643   */\n      tag_179\n        /* \"#utility.yul\":640:642   */\n      0x26\n        /* \"#utility.yul\":635:638   */\n      dup4\n        /* \"#utility.yul\":576:643   */\n      tag_139\n      jump\t// in\n    tag_179:\n        /* \"#utility.yul\":569:643   */\n      swap2\n      pop\n        /* \"#utility.yul\":652:745   */\n      tag_180\n        /* \"#utility.yul\":741:744   */\n      dup3\n        /* \"#utility.yul\":652:745   */\n      tag_140\n      jump\t// in\n    tag_180:\n        /* \"#utility.yul\":770:772   */\n      0x40\n        /* \"#utility.yul\":765:768   */\n      dup3\n        /* \"#utility.yul\":761:773   */\n      add\n        /* \"#utility.yul\":754:773   */\n      swap1\n      pop\n        /* \"#utility.yul\":413:779   */\n      swap2\n      swap1\n      pop\n      jump\t// out\n        /* \"#utility.yul\":785:1204   */\n    tag_17:\n        /* \"#utility.yul\":951:955   */\n      0x00\n        /* \"#utility.yul\":989:991   */\n      0x20\n        /* \"#utility.yul\":978:987   */\n      dup3\n        /* \"#utility.yul\":974:992   */\n      add\n        /* \"#utility.yul\":966:992   */\n      swap1\n      pop\n        /* \"#utility.yul\":1038:1047   */\n      dup2\n        /* \"#utility.yul\":1032:1036   */\n      dup2\n        /* \"#utility.yul\":1028:1048   */\n      sub\n        /* \"#utility.yul\":1024:1025   */\n      0x00\n        /* \"#utility.yul\":1013:1022   */\n      dup4\n        /* \"#utility.yul\":1009:1026   */\n      add\n        /* \"#utility.yul\":1002:1049   */\n      mstore\n        /* \"#utility.yul\":1066:1197   */\n      tag_182\n        /* \"#utility.yul\":1192:1196   */\n      dup2\n        /* \"#utility.yul\":1066:1197   */\n      tag_141\n      jump\t// in\n    tag_182:\n        /* \"#utility.yul\":1058:1197   */\n      swap1\n      pop\n        /* \"#utility.yul\":785:1204   */\n      swap2\n      swap1\n      pop\n      jump\t// out\n        /* \"#utility.yul\":1210:1287   */\n    tag_142:\n        /* \"#utility.yul\":1247:1254   */\n      0x00\n        /* \"#utility.yul\":1276:1281   */\n      dup2\n        /* \"#utility.yul\":1265:1281   */\n      swap1\n      pop\n        /* \"#utility.yul\":1210:1287   */\n      swap2\n      swap1\n      pop\n      jump\t// out\n        /* \"#utility.yul\":1293:1411   */\n    tag_143:\n        /* \"#utility.yul\":1380:1404   */\n      tag_185\n        /* \"#utility.yul\":1398:1403   */\n      dup2\n        /* \"#utility.yul\":1380:1404   */\n      tag_142\n      jump\t// in\n    tag_185:\n        /* \"#utility.yul\":1375:1378   */\n      dup3\n        /* \"#utility.yul\":1368:1405   */\n      mstore\n        /* \"#utility.yul\":1293:1411   */\n      pop\n      pop\n      jump\t// out\n        /* \"#utility.yul\":1417:1639   */\n    tag_19:\n        /* \"#utility.yul\":1510:1514   */\n      0x00\n        /* \"#utility.yul\":1548:1550   */\n      0x20\n        /* \"#utility.yul\":1537:1546   */\n      dup3\n        /* \"#utility.yul\":1533:1551   */\n      add\n        /* \"#utility.yul\":1525:1551   */\n      swap1\n      pop\n        /* \"#utility.yul\":1561:1632   */\n      tag_187\n        /* \"#utility.yul\":1629:1630   */\n      0x00\n        /* \"#utility.yul\":1618:1627   */\n      dup4\n        /* \"#utility.yul\":1614:1631   */\n      add\n        /* \"#utility.yul\":1605:1611   */\n      dup5\n        /* \"#utility.yul\":1561:1632   */\n      tag_143\n      jump\t// in\n    tag_187:\n        /* \"#utility.yul\":1417:1639   */\n      swap3\n      swap2\n      pop\n      pop\n      jump\t// out\n        /* \"#utility.yul\":1645:1744   */\n    tag_144:\n        /* \"#utility.yul\":1697:1703   */\n      0x00\n        /* \"#utility.yul\":1731:1736   */\n      dup2\n        /* \"#utility.yul\":1725:1737   */\n      mload\n        /* \"#utility.yul\":1715:1737   */\n      swap1\n      pop\n        /* \"#utility.yul\":1645:1744   */\n      swap2\n      swap1\n      pop\n      jump\t// out\n        /* \"#utility.yul\":1750:1996   */\n    tag_145:\n        /* \"#utility.yul\":1831:1832   */\n      0x00\n        /* \"#utility.yul\":1841:1954   */\n    tag_190:\n        /* \"#utility.yul\":1855:1861   */\n      dup4\n        /* \"#utility.yul\":1852:1853   */\n      dup2\n        /* \"#utility.yul\":1849:1862   */\n      lt\n        /* \"#utility.yul\":1841:1954   */\n      iszero\n      tag_192\n      jumpi\n        /* \"#utility.yul\":1940:1941   */\n      dup1\n        /* \"#utility.yul\":1935:1938   */\n      dup3\n        /* \"#utility.yul\":1931:1942   */\n      add\n        /* \"#utility.yul\":1925:1943   */\n      mload\n        /* \"#utility.yul\":1921:1922   */\n      dup2\n        /* \"#utility.yul\":1916:1919   */\n      dup5\n        /* \"#utility.yul\":1912:1923   */\n      add\n        /* \"#utility.yul\":1905:1944   */\n      mstore\n        /* \"#utility.yul\":1877:1879   */\n      0x20\n        /* \"#utility.yul\":1874:1875   */\n      dup2\n        /* \"#utility.yul\":1870:1880   */\n      add\n        /* \"#utility.yul\":1865:1880   */\n      swap1\n      pop\n        /* \"#utility.yul\":1841:1954   */\n      jump(tag_190)\n    tag_192:\n        /* \"#utility.yul\":1988:1989   */\n      0x00\n        /* \"#utility.yul\":1979:1985   */\n      dup5\n        /* \"#utility.yul\":1974:1977   */\n      dup5\n        /* \"#utility.yul\":1970:1986   */\n      add\n        /* \"#utility.yul\":1963:1990   */\n      mstore\n        /* \"#utility.yul\":1812:1996   */\n      pop\n        /* \"#utility.yul\":1750:1996   */\n      pop\n      pop\n      pop\n      jump\t// out\n        /* \"#utility.yul\":2002:2104   */\n    tag_146:\n        /* \"#utility.yul\":2043:2049   */\n      0x00\n        /* \"#utility.yul\":2094:2096   */\n      0x1f\n        /* \"#utility.yul\":2090:2097   */\n      not\n        /* \"#utility.yul\":2085:2087   */\n      0x1f\n        /* \"#utility.yul\":2078:2083   */\n      dup4\n        /* \"#utility.yul\":2074:2088   */\n      add\n        /* \"#utility.yul\":2070:2098   */\n      and\n        /* \"#utility.yul\":2060:2098   */\n      swap1\n      pop\n        /* \"#utility.yul\":2002:2104   */\n      swap2\n      swap1\n      pop\n      jump\t// out\n        /* \"#utility.yul\":2110:2487   */\n    tag_147:\n        /* \"#utility.yul\":2198:2201   */\n      0x00\n        /* \"#utility.yul\":2226:2265   */\n      tag_195\n        /* \"#utility.yul\":2259:2264   */\n      dup3\n        /* \"#utility.yul\":2226:2265   */\n      tag_144\n      jump\t// in\n    tag_195:\n        /* \"#utility.yul\":2281:2352   */\n      tag_196\n        /* \"#utility.yul\":2345:2351   */\n      dup2\n        /* \"#utility.yul\":2340:2343   */\n      dup6\n        /* \"#utility.yul\":2281:2352   */\n      tag_139\n      jump\t// in\n    tag_196:\n        /* \"#utility.yul\":2274:2352   */\n      swap4\n      pop\n        /* \"#utility.yul\":2361:2426   */\n      tag_197\n        /* \"#utility.yul\":2419:2425   */\n      dup2\n        /* \"#utility.yul\":2414:2417   */\n      dup6\n        /* \"#utility.yul\":2407:2411   */\n      0x20\n        /* \"#utility.yul\":2400:2405   */\n      dup7\n        /* \"#utility.yul\":2396:2412   */\n      add\n        /* \"#utility.yul\":2361:2426   */\n      tag_145\n      jump\t// in\n    tag_197:\n        /* \"#utility.yul\":2451:2480   */\n      tag_198\n        /* \"#utility.yul\":2473:2479   */\n      dup2\n        /* \"#utility.yul\":2451:2480   */\n      tag_146\n      jump\t// in\n    tag_198:\n        /* \"#utility.yul\":2446:2449   */\n      dup5\n        /* \"#utility.yul\":2442:2481   */\n      add\n        /* \"#utility.yul\":2435:2481   */\n      swap2\n      pop\n        /* \"#utility.yul\":2202:2487   */\n      pop\n        /* \"#utility.yul\":2110:2487   */\n      swap3\n      swap2\n      pop\n      pop\n      jump\t// out\n        /* \"#utility.yul\":2493:2806   */\n    tag_24:\n        /* \"#utility.yul\":2606:2610   */\n      0x00\n        /* \"#utility.yul\":2644:2646   */\n      0x20\n        /* \"#utility.yul\":2633:2642   */\n      dup3\n        /* \"#utility.yul\":2629:2647   */\n      add\n        /* \"#utility.yul\":2621:2647   */\n      swap1\n      pop\n        /* \"#utility.yul\":2693:2702   */\n      dup2\n        /* \"#utility.yul\":2687:2691   */\n      dup2\n        /* \"#utility.yul\":2683:2703   */\n      sub\n        /* \"#utility.yul\":2679:2680   */\n      0x00\n        /* \"#utility.yul\":2668:2677   */\n      dup4\n        /* \"#utility.yul\":2664:2681   */\n      add\n        /* \"#utility.yul\":2657:2704   */\n      mstore\n        /* \"#utility.yul\":2721:2799   */\n      tag_200\n        /* \"#utility.yul\":2794:2798   */\n      dup2\n        /* \"#utility.yul\":2785:2791   */\n      dup5\n        /* \"#utility.yul\":2721:2799   */\n      tag_147\n      jump\t// in\n    tag_200:\n        /* \"#utility.yul\":2713:2799   */\n      swap1\n      pop\n        /* \"#utility.yul\":2493:2806   */\n      swap3\n      swap2\n      pop\n      pop\n      jump\t// out\n        /* \"#utility.yul\":2893:3010   */\n    tag_149:\n        /* \"#utility.yul\":3002:3003   */\n      0x00\n        /* \"#utility.yul\":2999:3000   */\n      dup1\n        /* \"#utility.yul\":2992:3004   */\n      revert\n        /* \"#utility.yul\":3139:3261   */\n    tag_151:\n        /* \"#utility.yul\":3212:3236   */\n      tag_205\n        /* \"#utility.yul\":3230:3235   */\n      dup2\n        /* \"#utility.yul\":3212:3236   */\n      tag_142\n      jump\t// in\n    tag_205:\n        /* \"#utility.yul\":3205:3210   */\n      dup2\n        /* \"#utility.yul\":3202:3237   */\n      eq\n        /* \"#utility.yul\":3192:3255   */\n      tag_206\n      jumpi\n        /* \"#utility.yul\":3251:3252   */\n      0x00\n        /* \"#utility.yul\":3248:3249   */\n      dup1\n        /* \"#utility.yul\":3241:3253   */\n      revert\n        /* \"#utility.yul\":3192:3255   */\n    tag_206:\n        /* \"#utility.yul\":3139:3261   */\n      pop\n      jump\t// out\n        /* \"#utility.yul\":3267:3406   */\n    tag_152:\n        /* \"#utility.yul\":3313:3318   */\n      0x00\n        /* \"#utility.yul\":3351:3357   */\n      dup2\n        /* \"#utility.yul\":3338:3358   */\n      calldataload\n        /* \"#utility.yul\":3329:3358   */\n      swap1\n      pop\n        /* \"#utility.yul\":3367:3400   */\n      tag_208\n        /* \"#utility.yul\":3394:3399   */\n      dup2\n        /* \"#utility.yul\":3367:3400   */\n      tag_151\n      jump\t// in\n    tag_208:\n        /* \"#utility.yul\":3267:3406   */\n      swap3\n      swap2\n      pop\n      pop\n      jump\t// out\n        /* \"#utility.yul\":3412:3741   */\n    tag_28:\n        /* \"#utility.yul\":3471:3477   */\n      0x00\n        /* \"#utility.yul\":3520:3522   */\n      0x20\n        /* \"#utility.yul\":3508:3517   */\n      dup3\n        /* \"#utility.yul\":3499:3506   */\n      dup5\n        /* \"#utility.yul\":3495:3518   */\n      sub\n        /* \"#utility.yul\":3491:3523   */\n      slt\n        /* \"#utility.yul\":3488:3607   */\n      iszero\n      tag_210\n      jumpi\n        /* \"#utility.yul\":3526:3605   */\n      tag_211\n      tag_149\n      jump\t// in\n    tag_211:\n        /* \"#utility.yul\":3488:3607   */\n    tag_210:\n        /* \"#utility.yul\":3646:3647   */\n      0x00\n        /* \"#utility.yul\":3671:3724   */\n      tag_212\n        /* \"#utility.yul\":3716:3723   */\n      dup5\n        /* \"#utility.yul\":3707:3713   */\n      dup3\n        /* \"#utility.yul\":3696:3705   */\n      dup6\n        /* \"#utility.yul\":3692:3714   */\n      add\n        /* \"#utility.yul\":3671:3724   */\n      tag_152\n      jump\t// in\n    tag_212:\n        /* \"#utility.yul\":3661:3724   */\n      swap2\n      pop\n        /* \"#utility.yul\":3617:3734   */\n      pop\n        /* \"#utility.yul\":3412:3741   */\n      swap3\n      swap2\n      pop\n      pop\n      jump\t// out\n        /* \"#utility.yul\":3747:3873   */\n    tag_153:\n        /* \"#utility.yul\":3784:3791   */\n      0x00\n        /* \"#utility.yul\":3824:3866   */\n      0xffffffffffffffffffffffffffffffffffffffff\n        /* \"#utility.yul\":3817:3822   */\n      dup3\n        /* \"#utility.yul\":3813:3867   */\n      and\n        /* \"#utility.yul\":3802:3867   */\n      swap1\n      pop\n        /* \"#utility.yul\":3747:3873   */\n      swap2\n      swap1\n      pop\n      jump\t// out\n        /* \"#utility.yul\":3879:3975   */\n    tag_154:\n        /* \"#utility.yul\":3916:3923   */\n      0x00\n        /* \"#utility.yul\":3945:3969   */\n      tag_215\n        /* \"#utility.yul\":3963:3968   */\n      dup3\n        /* \"#utility.yul\":3945:3969   */\n      tag_153\n      jump\t// in\n    tag_215:\n        /* \"#utility.yul\":3934:3969   */\n      swap1\n      pop\n        /* \"#utility.yul\":3879:3975   */\n      swap2\n      swap1\n      pop\n      jump\t// out\n        /* \"#utility.yul\":3981:4103   */\n    tag_155:\n        /* \"#utility.yul\":4054:4078   */\n      tag_217\n        /* \"#utility.yul\":4072:4077   */\n      dup2\n        /* \"#utility.yul\":4054:4078   */\n      tag_154\n      jump\t// in\n    tag_217:\n        /* \"#utility.yul\":4047:4052   */\n      dup2\n        /* \"#utility.yul\":4044:4079   */\n      eq\n        /* \"#utility.yul\":4034:4097   */\n      tag_218\n      jumpi\n        /* \"#utility.yul\":4093:4094   */\n      0x00\n        /* \"#utility.yul\":4090:4091   */\n      dup1\n        /* \"#utility.yul\":4083:4095   */\n      revert\n        /* \"#utility.yul\":4034:4097   */\n    tag_218:\n        /* \"#utility.yul\":3981:4103   */\n      pop\n      jump\t// out\n        /* \"#utility.yul\":4109:4248   */\n    tag_156:\n        /* \"#utility.yul\":4155:4160   */\n      0x00\n        /* \"#utility.yul\":4193:4199   */\n      dup2\n        /* \"#utility.yul\":4180:4200   */\n      calldataload\n        /* \"#utility.yul\":4171:4200   */\n      swap1\n      pop\n        /* \"#utility.yul\":4209:4242   */\n      tag_220\n        /* \"#utility.yul\":4236:4241   */\n      dup2\n        /* \"#utility.yul\":4209:4242   */\n      tag_155\n      jump\t// in\n    tag_220:\n        /* \"#utility.yul\":4109:4248   */\n      swap3\n      swap2\n      pop\n      pop\n      jump\t// out\n        /* \"#utility.yul\":4254:4583   */\n    tag_33:\n        /* \"#utility.yul\":4313:4319   */\n      0x00\n        /* \"#utility.yul\":4362:4364   */\n      0x20\n        /* \"#utility.yul\":4350:4359   */\n      dup3\n        /* \"#utility.yul\":4341:4348   */\n      dup5\n        /* \"#utility.yul\":4337:4360   */\n      sub\n        /* \"#utility.yul\":4333:4365   */\n      slt\n        /* \"#utility.yul\":4330:4449   */\n      iszero\n      tag_222\n      jumpi\n        /* \"#utility.yul\":4368:4447   */\n      tag_223\n      tag_149\n      jump\t// in\n    tag_223:\n        /* \"#utility.yul\":4330:4449   */\n    tag_222:\n        /* \"#utility.yul\":4488:4489   */\n      0x00\n        /* \"#utility.yul\":4513:4566   */\n      tag_224\n        /* \"#utility.yul\":4558:4565   */\n      dup5\n        /* \"#utility.yul\":4549:4555   */\n      dup3\n        /* \"#utility.yul\":4538:4547   */\n      dup6\n        /* \"#utility.yul\":4534:4556   */\n      add\n        /* \"#utility.yul\":4513:4566   */\n      tag_156\n      jump\t// in\n    tag_224:\n        /* \"#utility.yul\":4503:4566   */\n      swap2\n      pop\n        /* \"#utility.yul\":4459:4576   */\n      pop\n        /* \"#utility.yul\":4254:4583   */\n      swap3\n      swap2\n      pop\n      pop\n      jump\t// out\n        /* \"#utility.yul\":4589:4707   */\n    tag_157:\n        /* \"#utility.yul\":4676:4700   */\n      tag_226\n        /* \"#utility.yul\":4694:4699   */\n      dup2\n        /* \"#utility.yul\":4676:4700   */\n      tag_154\n      jump\t// in\n    tag_226:\n        /* \"#utility.yul\":4671:4674   */\n      dup3\n        /* \"#utility.yul\":4664:4701   */\n      mstore\n        /* \"#utility.yul\":4589:4707   */\n      pop\n      pop\n      jump\t// out\n        /* \"#utility.yul\":4713:4935   */\n    tag_40:\n        /* \"#utility.yul\":4806:4810   */\n      0x00\n        /* \"#utility.yul\":4844:4846   */\n      0x20\n        /* \"#utility.yul\":4833:4842   */\n      dup3\n        /* \"#utility.yul\":4829:4847   */\n      add\n        /* \"#utility.yul\":4821:4847   */\n      swap1\n      pop\n        /* \"#utility.yul\":4857:4928   */\n      tag_228\n        /* \"#utility.yul\":4925:4926   */\n      0x00\n        /* \"#utility.yul\":4914:4923   */\n      dup4\n        /* \"#utility.yul\":4910:4927   */\n      add\n        /* \"#utility.yul\":4901:4907   */\n      dup5\n        /* \"#utility.yul\":4857:4928   */\n      tag_157\n      jump\t// in\n    tag_228:\n        /* \"#utility.yul\":4713:4935   */\n      swap3\n      swap2\n      pop\n      pop\n      jump\t// out\n        /* \"#utility.yul\":4941:5560   */\n    tag_48:\n        /* \"#utility.yul\":5018:5024   */\n      0x00\n        /* \"#utility.yul\":5026:5032   */\n      dup1\n        /* \"#utility.yul\":5034:5040   */\n      0x00\n        /* \"#utility.yul\":5083:5085   */\n      0x60\n        /* \"#utility.yul\":5071:5080   */\n      dup5\n        /* \"#utility.yul\":5062:5069   */\n      dup7\n        /* \"#utility.yul\":5058:5081   */\n      sub\n        /* \"#utility.yul\":5054:5086   */\n      slt\n        /* \"#utility.yul\":5051:5170   */\n      iszero\n      tag_230\n      jumpi\n        /* \"#utility.yul\":5089:5168   */\n      tag_231\n      tag_149\n      jump\t// in\n    tag_231:\n        /* \"#utility.yul\":5051:5170   */\n    tag_230:\n        /* \"#utility.yul\":5209:5210   */\n      0x00\n        /* \"#utility.yul\":5234:5287   */\n      tag_232\n        /* \"#utility.yul\":5279:5286   */\n      dup7\n        /* \"#utility.yul\":5270:5276   */\n      dup3\n        /* \"#utility.yul\":5259:5268   */\n      dup8\n        /* \"#utility.yul\":5255:5277   */\n      add\n        /* \"#utility.yul\":5234:5287   */\n      tag_156\n      jump\t// in\n    tag_232:\n        /* \"#utility.yul\":5224:5287   */\n      swap4\n      pop\n        /* \"#utility.yul\":5180:5297   */\n      pop\n        /* \"#utility.yul\":5336:5338   */\n      0x20\n        /* \"#utility.yul\":5362:5415   */\n      tag_233\n        /* \"#utility.yul\":5407:5414   */\n      dup7\n        /* \"#utility.yul\":5398:5404   */\n      dup3\n        /* \"#utility.yul\":5387:5396   */\n      dup8\n        /* \"#utility.yul\":5383:5405   */\n      add\n        /* \"#utility.yul\":5362:5415   */\n      tag_152\n      jump\t// in\n    tag_233:\n        /* \"#utility.yul\":5352:5415   */\n      swap3\n      pop\n        /* \"#utility.yul\":5307:5425   */\n      pop\n        /* \"#utility.yul\":5464:5466   */\n      0x40\n        /* \"#utility.yul\":5490:5543   */\n      tag_234\n        /* \"#utility.yul\":5535:5542   */\n      dup7\n        /* \"#utility.yul\":5526:5532   */\n      dup3\n        /* \"#utility.yul\":5515:5524   */\n      dup8\n        /* \"#utility.yul\":5511:5533   */\n      add\n        /* \"#utility.yul\":5490:5543   */\n      tag_156\n      jump\t// in\n    tag_234:\n        /* \"#utility.yul\":5480:5543   */\n      swap2\n      pop\n        /* \"#utility.yul\":5435:5553   */\n      pop\n        /* \"#utility.yul\":4941:5560   */\n      swap3\n      pop\n      swap3\n      pop\n      swap3\n      jump\t// out\n        /* \"#utility.yul\":5566:5737   */\n    tag_158:\n        /* \"#utility.yul\":5706:5729   */\n      0x43616c6c6572206973206e6f74206d616e616765720000000000000000000000\n        /* \"#utility.yul\":5702:5703   */\n      0x00\n        /* \"#utility.yul\":5694:5700   */\n      dup3\n        /* \"#utility.yul\":5690:5704   */\n      add\n        /* \"#utility.yul\":5683:5730   */\n      mstore\n        /* \"#utility.yul\":5566:5737   */\n      pop\n      jump\t// out\n        /* \"#utility.yul\":5743:6109   */\n    tag_159:\n        /* \"#utility.yul\":5885:5888   */\n      0x00\n        /* \"#utility.yul\":5906:5973   */\n      tag_237\n        /* \"#utility.yul\":5970:5972   */\n      0x15\n        /* \"#utility.yul\":5965:5968   */\n      dup4\n        /* \"#utility.yul\":5906:5973   */\n      tag_139\n      jump\t// in\n    tag_237:\n        /* \"#utility.yul\":5899:5973   */\n      swap2\n      pop\n        /* \"#utility.yul\":5982:6075   */\n      tag_238\n        /* \"#utility.yul\":6071:6074   */\n      dup3\n        /* \"#utility.yul\":5982:6075   */\n      tag_158\n      jump\t// in\n    tag_238:\n        /* \"#utility.yul\":6100:6102   */\n      0x20\n        /* \"#utility.yul\":6095:6098   */\n      dup3\n        /* \"#utility.yul\":6091:6103   */\n      add\n        /* \"#utility.yul\":6084:6103   */\n      swap1\n      pop\n        /* \"#utility.yul\":5743:6109   */\n      swap2\n      swap1\n      pop\n      jump\t// out\n        /* \"#utility.yul\":6115:6534   */\n    tag_66:\n        /* \"#utility.yul\":6281:6285   */\n      0x00\n        /* \"#utility.yul\":6319:6321   */\n      0x20\n        /* \"#utility.yul\":6308:6317   */\n      dup3\n        /* \"#utility.yul\":6304:6322   */\n      add\n        /* \"#utility.yul\":6296:6322   */\n      swap1\n      pop\n        /* \"#utility.yul\":6368:6377   */\n      dup2\n        /* \"#utility.yul\":6362:6366   */\n      dup2\n        /* \"#utility.yul\":6358:6378   */\n      sub\n        /* \"#utility.yul\":6354:6355   */\n      0x00\n        /* \"#utility.yul\":6343:6352   */\n      dup4\n        /* \"#utility.yul\":6339:6356   */\n      add\n        /* \"#utility.yul\":6332:6379   */\n      mstore\n        /* \"#utility.yul\":6396:6527   */\n      tag_240\n        /* \"#utility.yul\":6522:6526   */\n      dup2\n        /* \"#utility.yul\":6396:6527   */\n      tag_159\n      jump\t// in\n    tag_240:\n        /* \"#utility.yul\":6388:6527   */\n      swap1\n      pop\n        /* \"#utility.yul\":6115:6534   */\n      swap2\n      swap1\n      pop\n      jump\t// out\n        /* \"#utility.yul\":6540:6683   */\n    tag_160:\n        /* \"#utility.yul\":6597:6602   */\n      0x00\n        /* \"#utility.yul\":6628:6634   */\n      dup2\n        /* \"#utility.yul\":6622:6635   */\n      mload\n        /* \"#utility.yul\":6613:6635   */\n      swap1\n      pop\n        /* \"#utility.yul\":6644:6677   */\n      tag_242\n        /* \"#utility.yul\":6671:6676   */\n      dup2\n        /* \"#utility.yul\":6644:6677   */\n      tag_151\n      jump\t// in\n    tag_242:\n        /* \"#utility.yul\":6540:6683   */\n      swap3\n      swap2\n      pop\n      pop\n      jump\t// out\n        /* \"#utility.yul\":6689:7040   */\n    tag_76:\n        /* \"#utility.yul\":6759:6765   */\n      0x00\n        /* \"#utility.yul\":6808:6810   */\n      0x20\n        /* \"#utility.yul\":6796:6805   */\n      dup3\n        /* \"#utility.yul\":6787:6794   */\n      dup5\n        /* \"#utility.yul\":6783:6806   */\n      sub\n        /* \"#utility.yul\":6779:6811   */\n      slt\n        /* \"#utility.yul\":6776:6895   */\n      iszero\n      tag_244\n      jumpi\n        /* \"#utility.yul\":6814:6893   */\n      tag_245\n      tag_149\n      jump\t// in\n    tag_245:\n        /* \"#utility.yul\":6776:6895   */\n    tag_244:\n        /* \"#utility.yul\":6934:6935   */\n      0x00\n        /* \"#utility.yul\":6959:7023   */\n      tag_246\n        /* \"#utility.yul\":7015:7022   */\n      dup5\n        /* \"#utility.yul\":7006:7012   */\n      dup3\n        /* \"#utility.yul\":6995:7004   */\n      dup6\n        /* \"#utility.yul\":6991:7013   */\n      add\n        /* \"#utility.yul\":6959:7023   */\n      tag_160\n      jump\t// in\n    tag_246:\n        /* \"#utility.yul\":6949:7023   */\n      swap2\n      pop\n        /* \"#utility.yul\":6905:7033   */\n      pop\n        /* \"#utility.yul\":6689:7040   */\n      swap3\n      swap2\n      pop\n      pop\n      jump\t// out\n        /* \"#utility.yul\":7046:7222   */\n    tag_161:\n        /* \"#utility.yul\":7186:7214   */\n      0x496e73756666696369656e7420746f6b656e2062616c616e6365000000000000\n        /* \"#utility.yul\":7182:7183   */\n      0x00\n        /* \"#utility.yul\":7174:7180   */\n      dup3\n        /* \"#utility.yul\":7170:7184   */\n      add\n        /* \"#utility.yul\":7163:7215   */\n      mstore\n        /* \"#utility.yul\":7046:7222   */\n      pop\n      jump\t// out\n        /* \"#utility.yul\":7228:7594   */\n    tag_162:\n        /* \"#utility.yul\":7370:7373   */\n      0x00\n        /* \"#utility.yul\":7391:7458   */\n      tag_249\n        /* \"#utility.yul\":7455:7457   */\n      0x1a\n        /* \"#utility.yul\":7450:7453   */\n      dup4\n        /* \"#utility.yul\":7391:7458   */\n      tag_139\n      jump\t// in\n    tag_249:\n        /* \"#utility.yul\":7384:7458   */\n      swap2\n      pop\n        /* \"#utility.yul\":7467:7560   */\n      tag_250\n        /* \"#utility.yul\":7556:7559   */\n      dup3\n        /* \"#utility.yul\":7467:7560   */\n      tag_161\n      jump\t// in\n    tag_250:\n        /* \"#utility.yul\":7585:7587   */\n      0x20\n        /* \"#utility.yul\":7580:7583   */\n      dup3\n        /* \"#utility.yul\":7576:7588   */\n      add\n        /* \"#utility.yul\":7569:7588   */\n      swap1\n      pop\n        /* \"#utility.yul\":7228:7594   */\n      swap2\n      swap1\n      pop\n      jump\t// out\n        /* \"#utility.yul\":7600:8019   */\n    tag_88:\n        /* \"#utility.yul\":7766:7770   */\n      0x00\n        /* \"#utility.yul\":7804:7806   */\n      0x20\n        /* \"#utility.yul\":7793:7802   */\n      dup3\n        /* \"#utility.yul\":7789:7807   */\n      add\n        /* \"#utility.yul\":7781:7807   */\n      swap1\n      pop\n        /* \"#utility.yul\":7853:7862   */\n      dup2\n        /* \"#utility.yul\":7847:7851   */\n      dup2\n        /* \"#utility.yul\":7843:7863   */\n      sub\n        /* \"#utility.yul\":7839:7840   */\n      0x00\n        /* \"#utility.yul\":7828:7837   */\n      dup4\n        /* \"#utility.yul\":7824:7841   */\n      add\n        /* \"#utility.yul\":7817:7864   */\n      mstore\n        /* \"#utility.yul\":7881:8012   */\n      tag_252\n        /* \"#utility.yul\":8007:8011   */\n      dup2\n        /* \"#utility.yul\":7881:8012   */\n      tag_162\n      jump\t// in\n    tag_252:\n        /* \"#utility.yul\":7873:8012   */\n      swap1\n      pop\n        /* \"#utility.yul\":7600:8019   */\n      swap2\n      swap1\n      pop\n      jump\t// out\n        /* \"#utility.yul\":8025:8357   */\n    tag_92:\n        /* \"#utility.yul\":8146:8150   */\n      0x00\n        /* \"#utility.yul\":8184:8186   */\n      0x40\n        /* \"#utility.yul\":8173:8182   */\n      dup3\n        /* \"#utility.yul\":8169:8187   */\n      add\n        /* \"#utility.yul\":8161:8187   */\n      swap1\n      pop\n        /* \"#utility.yul\":8197:8268   */\n      tag_254\n        /* \"#utility.yul\":8265:8266   */\n      0x00\n        /* \"#utility.yul\":8254:8263   */\n      dup4\n        /* \"#utility.yul\":8250:8267   */\n      add\n        /* \"#utility.yul\":8241:8247   */\n      dup6\n        /* \"#utility.yul\":8197:8268   */\n      tag_143\n      jump\t// in\n    tag_254:\n        /* \"#utility.yul\":8278:8350   */\n      tag_255\n        /* \"#utility.yul\":8346:8348   */\n      0x20\n        /* \"#utility.yul\":8335:8344   */\n      dup4\n        /* \"#utility.yul\":8331:8349   */\n      add\n        /* \"#utility.yul\":8322:8328   */\n      dup5\n        /* \"#utility.yul\":8278:8350   */\n      tag_157\n      jump\t// in\n    tag_255:\n        /* \"#utility.yul\":8025:8357   */\n      swap4\n      swap3\n      pop\n      pop\n      pop\n      jump\t// out\n        /* \"#utility.yul\":8363:8695   */\n    tag_102:\n        /* \"#utility.yul\":8484:8488   */\n      0x00\n        /* \"#utility.yul\":8522:8524   */\n      0x40\n        /* \"#utility.yul\":8511:8520   */\n      dup3\n        /* \"#utility.yul\":8507:8525   */\n      add\n        /* \"#utility.yul\":8499:8525   */\n      swap1\n      pop\n        /* \"#utility.yul\":8535:8606   */\n      tag_257\n        /* \"#utility.yul\":8603:8604   */\n      0x00\n        /* \"#utility.yul\":8592:8601   */\n      dup4\n        /* \"#utility.yul\":8588:8605   */\n      add\n        /* \"#utility.yul\":8579:8585   */\n      dup6\n        /* \"#utility.yul\":8535:8606   */\n      tag_157\n      jump\t// in\n    tag_257:\n        /* \"#utility.yul\":8616:8688   */\n      tag_258\n        /* \"#utility.yul\":8684:8686   */\n      0x20\n        /* \"#utility.yul\":8673:8682   */\n      dup4\n        /* \"#utility.yul\":8669:8687   */\n      add\n        /* \"#utility.yul\":8660:8666   */\n      dup5\n        /* \"#utility.yul\":8616:8688   */\n      tag_143\n      jump\t// in\n    tag_258:\n        /* \"#utility.yul\":8363:8695   */\n      swap4\n      swap3\n      pop\n      pop\n      pop\n      jump\t// out\n        /* \"#utility.yul\":8701:8791   */\n    tag_163:\n        /* \"#utility.yul\":8735:8742   */\n      0x00\n        /* \"#utility.yul\":8778:8783   */\n      dup2\n        /* \"#utility.yul\":8771:8784   */\n      iszero\n        /* \"#utility.yul\":8764:8785   */\n      iszero\n        /* \"#utility.yul\":8753:8785   */\n      swap1\n      pop\n        /* \"#utility.yul\":8701:8791   */\n      swap2\n      swap1\n      pop\n      jump\t// out\n        /* \"#utility.yul\":8797:8913   */\n    tag_164:\n        /* \"#utility.yul\":8867:8888   */\n      tag_261\n        /* \"#utility.yul\":8882:8887   */\n      dup2\n        /* \"#utility.yul\":8867:8888   */\n      tag_163\n      jump\t// in\n    tag_261:\n        /* \"#utility.yul\":8860:8865   */\n      dup2\n        /* \"#utility.yul\":8857:8889   */\n      eq\n        /* \"#utility.yul\":8847:8907   */\n      tag_262\n      jumpi\n        /* \"#utility.yul\":8903:8904   */\n      0x00\n        /* \"#utility.yul\":8900:8901   */\n      dup1\n        /* \"#utility.yul\":8893:8905   */\n      revert\n        /* \"#utility.yul\":8847:8907   */\n    tag_262:\n        /* \"#utility.yul\":8797:8913   */\n      pop\n      jump\t// out\n        /* \"#utility.yul\":8919:9056   */\n    tag_165:\n        /* \"#utility.yul\":8973:8978   */\n      0x00\n        /* \"#utility.yul\":9004:9010   */\n      dup2\n        /* \"#utility.yul\":8998:9011   */\n      mload\n        /* \"#utility.yul\":8989:9011   */\n      swap1\n      pop\n        /* \"#utility.yul\":9020:9050   */\n      tag_264\n        /* \"#utility.yul\":9044:9049   */\n      dup2\n        /* \"#utility.yul\":9020:9050   */\n      tag_164\n      jump\t// in\n    tag_264:\n        /* \"#utility.yul\":8919:9056   */\n      swap3\n      swap2\n      pop\n      pop\n      jump\t// out\n        /* \"#utility.yul\":9062:9407   */\n    tag_109:\n        /* \"#utility.yul\":9129:9135   */\n      0x00\n        /* \"#utility.yul\":9178:9180   */\n      0x20\n        /* \"#utility.yul\":9166:9175   */\n      dup3\n        /* \"#utility.yul\":9157:9164   */\n      dup5\n        /* \"#utility.yul\":9153:9176   */\n      sub\n        /* \"#utility.yul\":9149:9181   */\n      slt\n        /* \"#utility.yul\":9146:9265   */\n      iszero\n      tag_266\n      jumpi\n        /* \"#utility.yul\":9184:9263   */\n      tag_267\n      tag_149\n      jump\t// in\n    tag_267:\n        /* \"#utility.yul\":9146:9265   */\n    tag_266:\n        /* \"#utility.yul\":9304:9305   */\n      0x00\n        /* \"#utility.yul\":9329:9390   */\n      tag_268\n        /* \"#utility.yul\":9382:9389   */\n      dup5\n        /* \"#utility.yul\":9373:9379   */\n      dup3\n        /* \"#utility.yul\":9362:9371   */\n      dup6\n        /* \"#utility.yul\":9358:9380   */\n      add\n        /* \"#utility.yul\":9329:9390   */\n      tag_165\n      jump\t// in\n    tag_268:\n        /* \"#utility.yul\":9319:9390   */\n      swap2\n      pop\n        /* \"#utility.yul\":9275:9400   */\n      pop\n        /* \"#utility.yul\":9062:9407   */\n      swap3\n      swap2\n      pop\n      pop\n      jump\t// out\n        /* \"#utility.yul\":9413:9642   */\n    tag_166:\n        /* \"#utility.yul\":9553:9587   */\n      0x5361666545524332303a204552433230206f7065726174696f6e20646964206e\n        /* \"#utility.yul\":9549:9550   */\n      0x00\n        /* \"#utility.yul\":9541:9547   */\n      dup3\n        /* \"#utility.yul\":9537:9551   */\n      add\n        /* \"#utility.yul\":9530:9588   */\n      mstore\n        /* \"#utility.yul\":9622:9634   */\n      0x6f74207375636365656400000000000000000000000000000000000000000000\n        /* \"#utility.yul\":9617:9619   */\n      0x20\n        /* \"#utility.yul\":9609:9615   */\n      dup3\n        /* \"#utility.yul\":9605:9620   */\n      add\n        /* \"#utility.yul\":9598:9635   */\n      mstore\n        /* \"#utility.yul\":9413:9642   */\n      pop\n      jump\t// out\n        /* \"#utility.yul\":9648:10014   */\n    tag_167:\n        /* \"#utility.yul\":9790:9793   */\n      0x00\n        /* \"#utility.yul\":9811:9878   */\n      tag_271\n        /* \"#utility.yul\":9875:9877   */\n      0x2a\n        /* \"#utility.yul\":9870:9873   */\n      dup4\n        /* \"#utility.yul\":9811:9878   */\n      tag_139\n      jump\t// in\n    tag_271:\n        /* \"#utility.yul\":9804:9878   */\n      swap2\n      pop\n        /* \"#utility.yul\":9887:9980   */\n      tag_272\n        /* \"#utility.yul\":9976:9979   */\n      dup3\n        /* \"#utility.yul\":9887:9980   */\n      tag_166\n      jump\t// in\n    tag_272:\n        /* \"#utility.yul\":10005:10007   */\n      0x40\n        /* \"#utility.yul\":10000:10003   */\n      dup3\n        /* \"#utility.yul\":9996:10008   */\n      add\n        /* \"#utility.yul\":9989:10008   */\n      swap1\n      pop\n        /* \"#utility.yul\":9648:10014   */\n      swap2\n      swap1\n      pop\n      jump\t// out\n        /* \"#utility.yul\":10020:10439   */\n    tag_112:\n        /* \"#utility.yul\":10186:10190   */\n      0x00\n        /* \"#utility.yul\":10224:10226   */\n      0x20\n        /* \"#utility.yul\":10213:10222   */\n      dup3\n        /* \"#utility.yul\":10209:10227   */\n      add\n        /* \"#utility.yul\":10201:10227   */\n      swap1\n      pop\n        /* \"#utility.yul\":10273:10282   */\n      dup2\n        /* \"#utility.yul\":10267:10271   */\n      dup2\n        /* \"#utility.yul\":10263:10283   */\n      sub\n        /* \"#utility.yul\":10259:10260   */\n      0x00\n        /* \"#utility.yul\":10248:10257   */\n      dup4\n        /* \"#utility.yul\":10244:10261   */\n      add\n        /* \"#utility.yul\":10237:10284   */\n      mstore\n        /* \"#utility.yul\":10301:10432   */\n      tag_274\n        /* \"#utility.yul\":10427:10431   */\n      dup2\n        /* \"#utility.yul\":10301:10432   */\n      tag_167\n      jump\t// in\n    tag_274:\n        /* \"#utility.yul\":10293:10432   */\n      swap1\n      pop\n        /* \"#utility.yul\":10020:10439   */\n      swap2\n      swap1\n      pop\n      jump\t// out\n        /* \"#utility.yul\":10445:10670   */\n    tag_168:\n        /* \"#utility.yul\":10585:10619   */\n      0x416464726573733a20696e73756666696369656e742062616c616e636520666f\n        /* \"#utility.yul\":10581:10582   */\n      0x00\n        /* \"#utility.yul\":10573:10579   */\n      dup3\n        /* \"#utility.yul\":10569:10583   */\n      add\n        /* \"#utility.yul\":10562:10620   */\n      mstore\n        /* \"#utility.yul\":10654:10662   */\n      0x722063616c6c0000000000000000000000000000000000000000000000000000\n        /* \"#utility.yul\":10649:10651   */\n      0x20\n        /* \"#utility.yul\":10641:10647   */\n      dup3\n        /* \"#utility.yul\":10637:10652   */\n      add\n        /* \"#utility.yul\":10630:10663   */\n      mstore\n        /* \"#utility.yul\":10445:10670   */\n      pop\n      jump\t// out\n        /* \"#utility.yul\":10676:11042   */\n    tag_169:\n        /* \"#utility.yul\":10818:10821   */\n      0x00\n        /* \"#utility.yul\":10839:10906   */\n      tag_277\n        /* \"#utility.yul\":10903:10905   */\n      0x26\n        /* \"#utility.yul\":10898:10901   */\n      dup4\n        /* \"#utility.yul\":10839:10906   */\n      tag_139\n      jump\t// in\n    tag_277:\n        /* \"#utility.yul\":10832:10906   */\n      swap2\n      pop\n        /* \"#utility.yul\":10915:11008   */\n      tag_278\n        /* \"#utility.yul\":11004:11007   */\n      dup3\n        /* \"#utility.yul\":10915:11008   */\n      tag_168\n      jump\t// in\n    tag_278:\n        /* \"#utility.yul\":11033:11035   */\n      0x40\n        /* \"#utility.yul\":11028:11031   */\n      dup3\n        /* \"#utility.yul\":11024:11036   */\n      add\n        /* \"#utility.yul\":11017:11036   */\n      swap1\n      pop\n        /* \"#utility.yul\":10676:11042   */\n      swap2\n      swap1\n      pop\n      jump\t// out\n        /* \"#utility.yul\":11048:11467   */\n    tag_119:\n        /* \"#utility.yul\":11214:11218   */\n      0x00\n        /* \"#utility.yul\":11252:11254   */\n      0x20\n        /* \"#utility.yul\":11241:11250   */\n      dup3\n        /* \"#utility.yul\":11237:11255   */\n      add\n        /* \"#utility.yul\":11229:11255   */\n      swap1\n      pop\n        /* \"#utility.yul\":11301:11310   */\n      dup2\n        /* \"#utility.yul\":11295:11299   */\n      dup2\n        /* \"#utility.yul\":11291:11311   */\n      sub\n        /* \"#utility.yul\":11287:11288   */\n      0x00\n        /* \"#utility.yul\":11276:11285   */\n      dup4\n        /* \"#utility.yul\":11272:11289   */\n      add\n        /* \"#utility.yul\":11265:11312   */\n      mstore\n        /* \"#utility.yul\":11329:11460   */\n      tag_280\n        /* \"#utility.yul\":11455:11459   */\n      dup2\n        /* \"#utility.yul\":11329:11460   */\n      tag_169\n      jump\t// in\n    tag_280:\n        /* \"#utility.yul\":11321:11460   */\n      swap1\n      pop\n        /* \"#utility.yul\":11048:11467   */\n      swap2\n      swap1\n      pop\n      jump\t// out\n        /* \"#utility.yul\":11473:11652   */\n    tag_170:\n        /* \"#utility.yul\":11613:11644   */\n      0x416464726573733a2063616c6c20746f206e6f6e2d636f6e7472616374000000\n        /* \"#utility.yul\":11609:11610   */\n      0x00\n        /* \"#utility.yul\":11601:11607   */\n      dup3\n        /* \"#utility.yul\":11597:11611   */\n      add\n        /* \"#utility.yul\":11590:11645   */\n      mstore\n        /* \"#utility.yul\":11473:11652   */\n      pop\n      jump\t// out\n        /* \"#utility.yul\":11658:12024   */\n    tag_171:\n        /* \"#utility.yul\":11800:11803   */\n      0x00\n        /* \"#utility.yul\":11821:11888   */\n      tag_283\n        /* \"#utility.yul\":11885:11887   */\n      0x1d\n        /* \"#utility.yul\":11880:11883   */\n      dup4\n        /* \"#utility.yul\":11821:11888   */\n      tag_139\n      jump\t// in\n    tag_283:\n        /* \"#utility.yul\":11814:11888   */\n      swap2\n      pop\n        /* \"#utility.yul\":11897:11990   */\n      tag_284\n        /* \"#utility.yul\":11986:11989   */\n      dup3\n        /* \"#utility.yul\":11897:11990   */\n      tag_170\n      jump\t// in\n    tag_284:\n        /* \"#utility.yul\":12015:12017   */\n      0x20\n        /* \"#utility.yul\":12010:12013   */\n      dup3\n        /* \"#utility.yul\":12006:12018   */\n      add\n        /* \"#utility.yul\":11999:12018   */\n      swap1\n      pop\n        /* \"#utility.yul\":11658:12024   */\n      swap2\n      swap1\n      pop\n      jump\t// out\n        /* \"#utility.yul\":12030:12449   */\n    tag_124:\n        /* \"#utility.yul\":12196:12200   */\n      0x00\n        /* \"#utility.yul\":12234:12236   */\n      0x20\n        /* \"#utility.yul\":12223:12232   */\n      dup3\n        /* \"#utility.yul\":12219:12237   */\n      add\n        /* \"#utility.yul\":12211:12237   */\n      swap1\n      pop\n        /* \"#utility.yul\":12283:12292   */\n      dup2\n        /* \"#utility.yul\":12277:12281   */\n      dup2\n        /* \"#utility.yul\":12273:12293   */\n      sub\n        /* \"#utility.yul\":12269:12270   */\n      0x00\n        /* \"#utility.yul\":12258:12267   */\n      dup4\n        /* \"#utility.yul\":12254:12271   */\n      add\n        /* \"#utility.yul\":12247:12294   */\n      mstore\n        /* \"#utility.yul\":12311:12442   */\n      tag_286\n        /* \"#utility.yul\":12437:12441   */\n      dup2\n        /* \"#utility.yul\":12311:12442   */\n      tag_171\n      jump\t// in\n    tag_286:\n        /* \"#utility.yul\":12303:12442   */\n      swap1\n      pop\n        /* \"#utility.yul\":12030:12449   */\n      swap2\n      swap1\n      pop\n      jump\t// out\n        /* \"#utility.yul\":12455:12553   */\n    tag_172:\n        /* \"#utility.yul\":12506:12512   */\n      0x00\n        /* \"#utility.yul\":12540:12545   */\n      dup2\n        /* \"#utility.yul\":12534:12546   */\n      mload\n        /* \"#utility.yul\":12524:12546   */\n      swap1\n      pop\n        /* \"#utility.yul\":12455:12553   */\n      swap2\n      swap1\n      pop\n      jump\t// out\n        /* \"#utility.yul\":12559:12706   */\n    tag_173:\n        /* \"#utility.yul\":12660:12671   */\n      0x00\n        /* \"#utility.yul\":12697:12700   */\n      dup2\n        /* \"#utility.yul\":12682:12700   */\n      swap1\n      pop\n        /* \"#utility.yul\":12559:12706   */\n      swap3\n      swap2\n      pop\n      pop\n      jump\t// out\n        /* \"#utility.yul\":12712:13098   */\n    tag_174:\n        /* \"#utility.yul\":12816:12819   */\n      0x00\n        /* \"#utility.yul\":12844:12882   */\n      tag_290\n        /* \"#utility.yul\":12876:12881   */\n      dup3\n        /* \"#utility.yul\":12844:12882   */\n      tag_172\n      jump\t// in\n    tag_290:\n        /* \"#utility.yul\":12898:12986   */\n      tag_291\n        /* \"#utility.yul\":12979:12985   */\n      dup2\n        /* \"#utility.yul\":12974:12977   */\n      dup6\n        /* \"#utility.yul\":12898:12986   */\n      tag_173\n      jump\t// in\n    tag_291:\n        /* \"#utility.yul\":12891:12986   */\n      swap4\n      pop\n        /* \"#utility.yul\":12995:13060   */\n      tag_292\n        /* \"#utility.yul\":13053:13059   */\n      dup2\n        /* \"#utility.yul\":13048:13051   */\n      dup6\n        /* \"#utility.yul\":13041:13045   */\n      0x20\n        /* \"#utility.yul\":13034:13039   */\n      dup7\n        /* \"#utility.yul\":13030:13046   */\n      add\n        /* \"#utility.yul\":12995:13060   */\n      tag_145\n      jump\t// in\n    tag_292:\n        /* \"#utility.yul\":13085:13091   */\n      dup1\n        /* \"#utility.yul\":13080:13083   */\n      dup5\n        /* \"#utility.yul\":13076:13092   */\n      add\n        /* \"#utility.yul\":13069:13092   */\n      swap2\n      pop\n        /* \"#utility.yul\":12820:13098   */\n      pop\n        /* \"#utility.yul\":12712:13098   */\n      swap3\n      swap2\n      pop\n      pop\n      jump\t// out\n        /* \"#utility.yul\":13104:13375   */\n    tag_126:\n        /* \"#utility.yul\":13234:13237   */\n      0x00\n        /* \"#utility.yul\":13256:13349   */\n      tag_294\n        /* \"#utility.yul\":13345:13348   */\n      dup3\n        /* \"#utility.yul\":13336:13342   */\n      dup5\n        /* \"#utility.yul\":13256:13349   */\n      tag_174\n      jump\t// in\n    tag_294:\n        /* \"#utility.yul\":13249:13349   */\n      swap2\n      pop\n        /* \"#utility.yul\":13366:13369   */\n      dup2\n        /* \"#utility.yul\":13359:13369   */\n      swap1\n      pop\n        /* \"#utility.yul\":13104:13375   */\n      swap3\n      swap2\n      pop\n      pop\n      jump\t// out\n\n    auxdata: 0xa2646970667358221220e44fc135ef091cbde296080281e49f3417f65b29dd95cf4801c4398222dce0a964736f6c63430008100033\n}\n",
				"bytecode": {
					"linkReferences": {},
					"object": "608060405234801561001057600080fd5b50336000806101000a81548173ffffffffffffffffffffffffffffffffffffffff021916908373ffffffffffffffffffffffffffffffffffffffff160217905550611229806100606000396000f3fe60806040526004361061008a5760003560e01c806354fd4d501161005957806354fd4d50146101ed578063783b04b814610218578063a3fbbaae14610241578063b79cf13f1461026a578063d5009584146102955761012c565b806306fdde03146101315780632cd891391461015c5780633aecd0e314610185578063481c6a75146101c25761012c565b3661012c57600064e8d4a510009050803410156100dc576040517f08c379a00000000000000000000000000000000000000000000000000000000081526004016100d390610bd9565b60405180910390fd5b3373ffffffffffffffffffffffffffffffffffffffff167fe1fffcc4923d04b559f4d29a8bfc6cda04eb5b0d3c460751c2402c5c5cc9109c346040516101229190610c12565b60405180910390a2005b600080fd5b34801561013d57600080fd5b506101466102c0565b6040516101539190610cac565b60405180910390f35b34801561016857600080fd5b50610183600480360381019061017e9190610cff565b6102fd565b005b34801561019157600080fd5b506101ac60048036038101906101a79190610d8a565b610423565b6040516101b99190610c12565b60405180910390f35b3480156101ce57600080fd5b506101d76104a6565b6040516101e49190610dc6565b60405180910390f35b3480156101f957600080fd5b506102026104ca565b60405161020f9190610cac565b60405180910390f35b34801561022457600080fd5b5061023f600480360381019061023a9190610de1565b610507565b005b34801561024d57600080fd5b5061026860048036038101906102639190610d8a565b6106d7565b005b34801561027657600080fd5b5061027f610822565b60405161028c9190610c12565b60405180910390f35b3480156102a157600080fd5b506102aa61082a565b6040516102b79190610dc6565b60405180910390f35b60606040518060400160405280601781526020017f427269646765204465706f73697420436f6e7472616374000000000000000000815250905090565b60008054906101000a900473ffffffffffffffffffffffffffffffffffffffff1673ffffffffffffffffffffffffffffffffffffffff163373ffffffffffffffffffffffffffffffffffffffff161461038b576040517f08c379a000000000000000000000000000000000000000000000000000000000815260040161038290610e80565b60405180910390fd5b3373ffffffffffffffffffffffffffffffffffffffff166108fc479081150290604051600060405180830381858888f193505050501580156103d1573d6000803e3d6000fd5b503373ffffffffffffffffffffffffffffffffffffffff167fa1f8fe9881f87957d0db5ebb2883430b78d16fda15cfd81b181a595fe06a9551826040516104189190610c12565b60405180910390a250565b60008173ffffffffffffffffffffffffffffffffffffffff166370a08231306040518263ffffffff1660e01b815260040161045e9190610dc6565b602060405180830381865afa15801561047b573d6000803e3d6000fd5b505050506040513d601f19601f8201168201806040525081019061049f9190610eb5565b9050919050565b60008054906101000a900473ffffffffffffffffffffffffffffffffffffffff1681565b60606040518060400160405280600581526020017f302e312e30000000000000000000000000000000000000000000000000000000815250905090565b60008054906101000a900473ffffffffffffffffffffffffffffffffffffffff1673ffffffffffffffffffffffffffffffffffffffff163373ffffffffffffffffffffffffffffffffffffffff1614610595576040517f08c379a000000000000000000000000000000000000000000000000000000000815260040161058c90610e80565b60405180910390fd5b60008373ffffffffffffffffffffffffffffffffffffffff166370a08231306040518263ffffffff1660e01b81526004016105d09190610dc6565b602060405180830381865afa1580156105ed573d6000803e3d6000fd5b505050506040513d601f19601f820116820180604052508101906106119190610eb5565b905082811015610656576040517f08c379a000000000000000000000000000000000000000000000000000000000815260040161064d90610f2e565b60405180910390fd5b61068182848673ffffffffffffffffffffffffffffffffffffffff166108539092919063ffffffff16565b3373ffffffffffffffffffffffffffffffffffffffff167fe9001e94dcb1564a47a8ad9116dfc37603e2c82e303ac9ce65dd8747d02ce0b484866040516106c9929190610f4e565b60405180910390a250505050565b60008054906101000a900473ffffffffffffffffffffffffffffffffffffffff1673ffffffffffffffffffffffffffffffffffffffff163373ffffffffffffffffffffffffffffffffffffffff1614610765576040517f08c379a000000000000000000000000000000000000000000000000000000000815260040161075c90610e80565b60405180910390fd5b8073ffffffffffffffffffffffffffffffffffffffff1660008054906101000a900473ffffffffffffffffffffffffffffffffffffffff1673ffffffffffffffffffffffffffffffffffffffff167fc64707e618a83637fc41ad1e3aa4242bd5fdd353f3d60bc0faf40db0d7d8607860405160405180910390a3806000806101000a81548173ffffffffffffffffffffffffffffffffffffffff021916908373ffffffffffffffffffffffffffffffffffffffff16021790555050565b600047905090565b60008060009054906101000a900473ffffffffffffffffffffffffffffffffffffffff16905090565b6108d48363a9059cbb60e01b8484604051602401610872929190610f77565b604051602081830303815290604052907bffffffffffffffffffffffffffffffffffffffffffffffffffffffff19166020820180517bffffffffffffffffffffffffffffffffffffffffffffffffffffffff83818316178352505050506108d9565b505050565b600061093b826040518060400160405280602081526020017f5361666545524332303a206c6f772d6c6576656c2063616c6c206661696c65648152508573ffffffffffffffffffffffffffffffffffffffff166109a09092919063ffffffff16565b905060008151111561099b578080602001905181019061095b9190610fd8565b61099a576040517f08c379a000000000000000000000000000000000000000000000000000000000815260040161099190611077565b60405180910390fd5b5b505050565b60606109af84846000856109b8565b90509392505050565b6060824710156109fd576040517f08c379a00000000000000000000000000000000000000000000000000000000081526004016109f490611109565b60405180910390fd5b610a0685610acc565b610a45576040517f08c379a0000000000000000000000000000000000000000000000000000000008152600401610a3c90611175565b60405180910390fd5b6000808673ffffffffffffffffffffffffffffffffffffffff168587604051610a6e91906111dc565b60006040518083038185875af1925050503d8060008114610aab576040519150601f19603f3d011682016040523d82523d6000602084013e610ab0565b606091505b5091509150610ac0828286610aef565b92505050949350505050565b6000808273ffffffffffffffffffffffffffffffffffffffff163b119050919050565b60608315610aff57829050610b4f565b600083511115610b125782518084602001fd5b816040517f08c379a0000000000000000000000000000000000000000000000000000000008152600401610b469190610cac565b60405180910390fd5b9392505050565b600082825260208201905092915050565b7f596f75206e65656420746f2073656e64206174206c6561737420302e3030303060008201527f30312047454e0000000000000000000000000000000000000000000000000000602082015250565b6000610bc3602683610b56565b9150610bce82610b67565b604082019050919050565b60006020820190508181036000830152610bf281610bb6565b9050919050565b6000819050919050565b610c0c81610bf9565b82525050565b6000602082019050610c276000830184610c03565b92915050565b600081519050919050565b60005b83811015610c56578082015181840152602081019050610c3b565b60008484015250505050565b6000601f19601f8301169050919050565b6000610c7e82610c2d565b610c888185610b56565b9350610c98818560208601610c38565b610ca181610c62565b840191505092915050565b60006020820190508181036000830152610cc68184610c73565b905092915050565b600080fd5b610cdc81610bf9565b8114610ce757600080fd5b50565b600081359050610cf981610cd3565b92915050565b600060208284031215610d1557610d14610cce565b5b6000610d2384828501610cea565b91505092915050565b600073ffffffffffffffffffffffffffffffffffffffff82169050919050565b6000610d5782610d2c565b9050919050565b610d6781610d4c565b8114610d7257600080fd5b50565b600081359050610d8481610d5e565b92915050565b600060208284031215610da057610d9f610cce565b5b6000610dae84828501610d75565b91505092915050565b610dc081610d4c565b82525050565b6000602082019050610ddb6000830184610db7565b92915050565b600080600060608486031215610dfa57610df9610cce565b5b6000610e0886828701610d75565b9350506020610e1986828701610cea565b9250506040610e2a86828701610d75565b9150509250925092565b7f43616c6c6572206973206e6f74206d616e616765720000000000000000000000600082015250565b6000610e6a601583610b56565b9150610e7582610e34565b602082019050919050565b60006020820190508181036000830152610e9981610e5d565b9050919050565b600081519050610eaf81610cd3565b92915050565b600060208284031215610ecb57610eca610cce565b5b6000610ed984828501610ea0565b91505092915050565b7f496e73756666696369656e7420746f6b656e2062616c616e6365000000000000600082015250565b6000610f18601a83610b56565b9150610f2382610ee2565b602082019050919050565b60006020820190508181036000830152610f4781610f0b565b9050919050565b6000604082019050610f636000830185610c03565b610f706020830184610db7565b9392505050565b6000604082019050610f8c6000830185610db7565b610f996020830184610c03565b9392505050565b60008115159050919050565b610fb581610fa0565b8114610fc057600080fd5b50565b600081519050610fd281610fac565b92915050565b600060208284031215610fee57610fed610cce565b5b6000610ffc84828501610fc3565b91505092915050565b7f5361666545524332303a204552433230206f7065726174696f6e20646964206e60008201527f6f74207375636365656400000000000000000000000000000000000000000000602082015250565b6000611061602a83610b56565b915061106c82611005565b604082019050919050565b6000602082019050818103600083015261109081611054565b9050919050565b7f416464726573733a20696e73756666696369656e742062616c616e636520666f60008201527f722063616c6c0000000000000000000000000000000000000000000000000000602082015250565b60006110f3602683610b56565b91506110fe82611097565b604082019050919050565b60006020820190508181036000830152611122816110e6565b9050919050565b7f416464726573733a2063616c6c20746f206e6f6e2d636f6e7472616374000000600082015250565b600061115f601d83610b56565b915061116a82611129565b602082019050919050565b6000602082019050818103600083015261118e81611152565b9050919050565b600081519050919050565b600081905092915050565b60006111b682611195565b6111c081856111a0565b93506111d0818560208601610c38565b80840191505092915050565b60006111e882846111ab565b91508190509291505056fea2646970667358221220e44fc135ef091cbde296080281e49f3417f65b29dd95cf4801c4398222dce0a964736f6c63430008100033",
					"opcodes": "PUSH1 0x80 PUSH1 0x40 MSTORE CALLVALUE DUP1 ISZERO PUSH2 0x10 JUMPI PUSH1 0x0 DUP1 REVERT JUMPDEST POP CALLER PUSH1 0x0 DUP1 PUSH2 0x100 EXP DUP2 SLOAD DUP2 PUSH20 0xFFFFFFFFFFFFFFFFFFFFFFFFFFFFFFFFFFFFFFFF MUL NOT AND SWAP1 DUP4 PUSH20 0xFFFFFFFFFFFFFFFFFFFFFFFFFFFFFFFFFFFFFFFF AND MUL OR SWAP1 SSTORE POP PUSH2 0x1229 DUP1 PUSH2 0x60 PUSH1 0x0 CODECOPY PUSH1 0x0 RETURN INVALID PUSH1 0x80 PUSH1 0x40 MSTORE PUSH1 0x4 CALLDATASIZE LT PUSH2 0x8A JUMPI PUSH1 0x0 CALLDATALOAD PUSH1 0xE0 SHR DUP1 PUSH4 0x54FD4D50 GT PUSH2 0x59 JUMPI DUP1 PUSH4 0x54FD4D50 EQ PUSH2 0x1ED JUMPI DUP1 PUSH4 0x783B04B8 EQ PUSH2 0x218 JUMPI DUP1 PUSH4 0xA3FBBAAE EQ PUSH2 0x241 JUMPI DUP1 PUSH4 0xB79CF13F EQ PUSH2 0x26A JUMPI DUP1 PUSH4 0xD5009584 EQ PUSH2 0x295 JUMPI PUSH2 0x12C JUMP JUMPDEST DUP1 PUSH4 0x6FDDE03 EQ PUSH2 0x131 JUMPI DUP1 PUSH4 0x2CD89139 EQ PUSH2 0x15C JUMPI DUP1 PUSH4 0x3AECD0E3 EQ PUSH2 0x185 JUMPI DUP1 PUSH4 0x481C6A75 EQ PUSH2 0x1C2 JUMPI PUSH2 0x12C JUMP JUMPDEST CALLDATASIZE PUSH2 0x12C JUMPI PUSH1 0x0 PUSH5 0xE8D4A51000 SWAP1 POP DUP1 CALLVALUE LT ISZERO PUSH2 0xDC JUMPI PUSH1 0x40 MLOAD PUSH32 0x8C379A000000000000000000000000000000000000000000000000000000000 DUP2 MSTORE PUSH1 0x4 ADD PUSH2 0xD3 SWAP1 PUSH2 0xBD9 JUMP JUMPDEST PUSH1 0x40 MLOAD DUP1 SWAP2 SUB SWAP1 REVERT JUMPDEST CALLER PUSH20 0xFFFFFFFFFFFFFFFFFFFFFFFFFFFFFFFFFFFFFFFF AND PUSH32 0xE1FFFCC4923D04B559F4D29A8BFC6CDA04EB5B0D3C460751C2402C5C5CC9109C CALLVALUE PUSH1 0x40 MLOAD PUSH2 0x122 SWAP2 SWAP1 PUSH2 0xC12 JUMP JUMPDEST PUSH1 0x40 MLOAD DUP1 SWAP2 SUB SWAP1 LOG2 STOP JUMPDEST PUSH1 0x0 DUP1 REVERT JUMPDEST CALLVALUE DUP1 ISZERO PUSH2 0x13D JUMPI PUSH1 0x0 DUP1 REVERT JUMPDEST POP PUSH2 0x146 PUSH2 0x2C0 JUMP JUMPDEST PUSH1 0x40 MLOAD PUSH2 0x153 SWAP2 SWAP1 PUSH2 0xCAC JUMP JUMPDEST PUSH1 0x40 MLOAD DUP1 SWAP2 SUB SWAP1 RETURN JUMPDEST CALLVALUE DUP1 ISZERO PUSH2 0x168 JUMPI PUSH1 0x0 DUP1 REVERT JUMPDEST POP PUSH2 0x183 PUSH1 0x4 DUP1 CALLDATASIZE SUB DUP2 ADD SWAP1 PUSH2 0x17E SWAP2 SWAP1 PUSH2 0xCFF JUMP JUMPDEST PUSH2 0x2FD JUMP JUMPDEST STOP JUMPDEST CALLVALUE DUP1 ISZERO PUSH2 0x191 JUMPI PUSH1 0x0 DUP1 REVERT JUMPDEST POP PUSH2 0x1AC PUSH1 0x4 DUP1 CALLDATASIZE SUB DUP2 ADD SWAP1 PUSH2 0x1A7 SWAP2 SWAP1 PUSH2 0xD8A JUMP JUMPDEST PUSH2 0x423 JUMP JUMPDEST PUSH1 0x40 MLOAD PUSH2 0x1B9 SWAP2 SWAP1 PUSH2 0xC12 JUMP JUMPDEST PUSH1 0x40 MLOAD DUP1 SWAP2 SUB SWAP1 RETURN JUMPDEST CALLVALUE DUP1 ISZERO PUSH2 0x1CE JUMPI PUSH1 0x0 DUP1 REVERT JUMPDEST POP PUSH2 0x1D7 PUSH2 0x4A6 JUMP JUMPDEST PUSH1 0x40 MLOAD PUSH2 0x1E4 SWAP2 SWAP1 PUSH2 0xDC6 JUMP JUMPDEST PUSH1 0x40 MLOAD DUP1 SWAP2 SUB SWAP1 RETURN JUMPDEST CALLVALUE DUP1 ISZERO PUSH2 0x1F9 JUMPI PUSH1 0x0 DUP1 REVERT JUMPDEST POP PUSH2 0x202 PUSH2 0x4CA JUMP JUMPDEST PUSH1 0x40 MLOAD PUSH2 0x20F SWAP2 SWAP1 PUSH2 0xCAC JUMP JUMPDEST PUSH1 0x40 MLOAD DUP1 SWAP2 SUB SWAP1 RETURN JUMPDEST CALLVALUE DUP1 ISZERO PUSH2 0x224 JUMPI PUSH1 0x0 DUP1 REVERT JUMPDEST POP PUSH2 0x23F PUSH1 0x4 DUP1 CALLDATASIZE SUB DUP2 ADD SWAP1 PUSH2 0x23A SWAP2 SWAP1 PUSH2 0xDE1 JUMP JUMPDEST PUSH2 0x507 JUMP JUMPDEST STOP JUMPDEST CALLVALUE DUP1 ISZERO PUSH2 0x24D JUMPI PUSH1 0x0 DUP1 REVERT JUMPDEST POP PUSH2 0x268 PUSH1 0x4 DUP1 CALLDATASIZE SUB DUP2 ADD SWAP1 PUSH2 0x263 SWAP2 SWAP1 PUSH2 0xD8A JUMP JUMPDEST PUSH2 0x6D7 JUMP JUMPDEST STOP JUMPDEST CALLVALUE DUP1 ISZERO PUSH2 0x276 JUMPI PUSH1 0x0 DUP1 REVERT JUMPDEST POP PUSH2 0x27F PUSH2 0x822 JUMP JUMPDEST PUSH1 0x40 MLOAD PUSH2 0x28C SWAP2 SWAP1 PUSH2 0xC12 JUMP JUMPDEST PUSH1 0x40 MLOAD DUP1 SWAP2 SUB SWAP1 RETURN JUMPDEST CALLVALUE DUP1 ISZERO PUSH2 0x2A1 JUMPI PUSH1 0x0 DUP1 REVERT JUMPDEST POP PUSH2 0x2AA PUSH2 0x82A JUMP JUMPDEST PUSH1 0x40 MLOAD PUSH2 0x2B7 SWAP2 SWAP1 PUSH2 0xDC6 JUMP JUMPDEST PUSH1 0x40 MLOAD DUP1 SWAP2 SUB SWAP1 RETURN JUMPDEST PUSH1 0x60 PUSH1 0x40 MLOAD DUP1 PUSH1 0x40 ADD PUSH1 0x40 MSTORE DUP1 PUSH1 0x17 DUP2 MSTORE PUSH1 0x20 ADD PUSH32 0x427269646765204465706F73697420436F6E7472616374000000000000000000 DUP2 MSTORE POP SWAP1 POP SWAP1 JUMP JUMPDEST PUSH1 0x0 DUP1 SLOAD SWAP1 PUSH2 0x100 EXP SWAP1 DIV PUSH20 0xFFFFFFFFFFFFFFFFFFFFFFFFFFFFFFFFFFFFFFFF AND PUSH20 0xFFFFFFFFFFFFFFFFFFFFFFFFFFFFFFFFFFFFFFFF AND CALLER PUSH20 0xFFFFFFFFFFFFFFFFFFFFFFFFFFFFFFFFFFFFFFFF AND EQ PUSH2 0x38B JUMPI PUSH1 0x40 MLOAD PUSH32 0x8C379A000000000000000000000000000000000000000000000000000000000 DUP2 MSTORE PUSH1 0x4 ADD PUSH2 0x382 SWAP1 PUSH2 0xE80 JUMP JUMPDEST PUSH1 0x40 MLOAD DUP1 SWAP2 SUB SWAP1 REVERT JUMPDEST CALLER PUSH20 0xFFFFFFFFFFFFFFFFFFFFFFFFFFFFFFFFFFFFFFFF AND PUSH2 0x8FC SELFBALANCE SWAP1 DUP2 ISZERO MUL SWAP1 PUSH1 0x40 MLOAD PUSH1 0x0 PUSH1 0x40 MLOAD DUP1 DUP4 SUB DUP2 DUP6 DUP9 DUP9 CALL SWAP4 POP POP POP POP ISZERO DUP1 ISZERO PUSH2 0x3D1 JUMPI RETURNDATASIZE PUSH1 0x0 DUP1 RETURNDATACOPY RETURNDATASIZE PUSH1 0x0 REVERT JUMPDEST POP CALLER PUSH20 0xFFFFFFFFFFFFFFFFFFFFFFFFFFFFFFFFFFFFFFFF AND PUSH32 0xA1F8FE9881F87957D0DB5EBB2883430B78D16FDA15CFD81B181A595FE06A9551 DUP3 PUSH1 0x40 MLOAD PUSH2 0x418 SWAP2 SWAP1 PUSH2 0xC12 JUMP JUMPDEST PUSH1 0x40 MLOAD DUP1 SWAP2 SUB SWAP1 LOG2 POP JUMP JUMPDEST PUSH1 0x0 DUP2 PUSH20 0xFFFFFFFFFFFFFFFFFFFFFFFFFFFFFFFFFFFFFFFF AND PUSH4 0x70A08231 ADDRESS PUSH1 0x40 MLOAD DUP3 PUSH4 0xFFFFFFFF AND PUSH1 0xE0 SHL DUP2 MSTORE PUSH1 0x4 ADD PUSH2 0x45E SWAP2 SWAP1 PUSH2 0xDC6 JUMP JUMPDEST PUSH1 0x20 PUSH1 0x40 MLOAD DUP1 DUP4 SUB DUP2 DUP7 GAS STATICCALL ISZERO DUP1 ISZERO PUSH2 0x47B JUMPI RETURNDATASIZE PUSH1 0x0 DUP1 RETURNDATACOPY RETURNDATASIZE PUSH1 0x0 REVERT JUMPDEST POP POP POP POP PUSH1 0x40 MLOAD RETURNDATASIZE PUSH1 0x1F NOT PUSH1 0x1F DUP3 ADD AND DUP3 ADD DUP1 PUSH1 0x40 MSTORE POP DUP2 ADD SWAP1 PUSH2 0x49F SWAP2 SWAP1 PUSH2 0xEB5 JUMP JUMPDEST SWAP1 POP SWAP2 SWAP1 POP JUMP JUMPDEST PUSH1 0x0 DUP1 SLOAD SWAP1 PUSH2 0x100 EXP SWAP1 DIV PUSH20 0xFFFFFFFFFFFFFFFFFFFFFFFFFFFFFFFFFFFFFFFF AND DUP2 JUMP JUMPDEST PUSH1 0x60 PUSH1 0x40 MLOAD DUP1 PUSH1 0x40 ADD PUSH1 0x40 MSTORE DUP1 PUSH1 0x5 DUP2 MSTORE PUSH1 0x20 ADD PUSH32 0x302E312E30000000000000000000000000000000000000000000000000000000 DUP2 MSTORE POP SWAP1 POP SWAP1 JUMP JUMPDEST PUSH1 0x0 DUP1 SLOAD SWAP1 PUSH2 0x100 EXP SWAP1 DIV PUSH20 0xFFFFFFFFFFFFFFFFFFFFFFFFFFFFFFFFFFFFFFFF AND PUSH20 0xFFFFFFFFFFFFFFFFFFFFFFFFFFFFFFFFFFFFFFFF AND CALLER PUSH20 0xFFFFFFFFFFFFFFFFFFFFFFFFFFFFFFFFFFFFFFFF AND EQ PUSH2 0x595 JUMPI PUSH1 0x40 MLOAD PUSH32 0x8C379A000000000000000000000000000000000000000000000000000000000 DUP2 MSTORE PUSH1 0x4 ADD PUSH2 0x58C SWAP1 PUSH2 0xE80 JUMP JUMPDEST PUSH1 0x40 MLOAD DUP1 SWAP2 SUB SWAP1 REVERT JUMPDEST PUSH1 0x0 DUP4 PUSH20 0xFFFFFFFFFFFFFFFFFFFFFFFFFFFFFFFFFFFFFFFF AND PUSH4 0x70A08231 ADDRESS PUSH1 0x40 MLOAD DUP3 PUSH4 0xFFFFFFFF AND PUSH1 0xE0 SHL DUP2 MSTORE PUSH1 0x4 ADD PUSH2 0x5D0 SWAP2 SWAP1 PUSH2 0xDC6 JUMP JUMPDEST PUSH1 0x20 PUSH1 0x40 MLOAD DUP1 DUP4 SUB DUP2 DUP7 GAS STATICCALL ISZERO DUP1 ISZERO PUSH2 0x5ED JUMPI RETURNDATASIZE PUSH1 0x0 DUP1 RETURNDATACOPY RETURNDATASIZE PUSH1 0x0 REVERT JUMPDEST POP POP POP POP PUSH1 0x40 MLOAD RETURNDATASIZE PUSH1 0x1F NOT PUSH1 0x1F DUP3 ADD AND DUP3 ADD DUP1 PUSH1 0x40 MSTORE POP DUP2 ADD SWAP1 PUSH2 0x611 SWAP2 SWAP1 PUSH2 0xEB5 JUMP JUMPDEST SWAP1 POP DUP3 DUP2 LT ISZERO PUSH2 0x656 JUMPI PUSH1 0x40 MLOAD PUSH32 0x8C379A000000000000000000000000000000000000000000000000000000000 DUP2 MSTORE PUSH1 0x4 ADD PUSH2 0x64D SWAP1 PUSH2 0xF2E JUMP JUMPDEST PUSH1 0x40 MLOAD DUP1 SWAP2 SUB SWAP1 REVERT JUMPDEST PUSH2 0x681 DUP3 DUP5 DUP7 PUSH20 0xFFFFFFFFFFFFFFFFFFFFFFFFFFFFFFFFFFFFFFFF AND PUSH2 0x853 SWAP1 SWAP3 SWAP2 SWAP1 PUSH4 0xFFFFFFFF AND JUMP JUMPDEST CALLER PUSH20 0xFFFFFFFFFFFFFFFFFFFFFFFFFFFFFFFFFFFFFFFF AND PUSH32 0xE9001E94DCB1564A47A8AD9116DFC37603E2C82E303AC9CE65DD8747D02CE0B4 DUP5 DUP7 PUSH1 0x40 MLOAD PUSH2 0x6C9 SWAP3 SWAP2 SWAP1 PUSH2 0xF4E JUMP JUMPDEST PUSH1 0x40 MLOAD DUP1 SWAP2 SUB SWAP1 LOG2 POP POP POP POP JUMP JUMPDEST PUSH1 0x0 DUP1 SLOAD SWAP1 PUSH2 0x100 EXP SWAP1 DIV PUSH20 0xFFFFFFFFFFFFFFFFFFFFFFFFFFFFFFFFFFFFFFFF AND PUSH20 0xFFFFFFFFFFFFFFFFFFFFFFFFFFFFFFFFFFFFFFFF AND CALLER PUSH20 0xFFFFFFFFFFFFFFFFFFFFFFFFFFFFFFFFFFFFFFFF AND EQ PUSH2 0x765 JUMPI PUSH1 0x40 MLOAD PUSH32 0x8C379A000000000000000000000000000000000000000000000000000000000 DUP2 MSTORE PUSH1 0x4 ADD PUSH2 0x75C SWAP1 PUSH2 0xE80 JUMP JUMPDEST PUSH1 0x40 MLOAD DUP1 SWAP2 SUB SWAP1 REVERT JUMPDEST DUP1 PUSH20 0xFFFFFFFFFFFFFFFFFFFFFFFFFFFFFFFFFFFFFFFF AND PUSH1 0x0 DUP1 SLOAD SWAP1 PUSH2 0x100 EXP SWAP1 DIV PUSH20 0xFFFFFFFFFFFFFFFFFFFFFFFFFFFFFFFFFFFFFFFF AND PUSH20 0xFFFFFFFFFFFFFFFFFFFFFFFFFFFFFFFFFFFFFFFF AND PUSH32 0xC64707E618A83637FC41AD1E3AA4242BD5FDD353F3D60BC0FAF40DB0D7D86078 PUSH1 0x40 MLOAD PUSH1 0x40 MLOAD DUP1 SWAP2 SUB SWAP1 LOG3 DUP1 PUSH1 0x0 DUP1 PUSH2 0x100 EXP DUP2 SLOAD DUP2 PUSH20 0xFFFFFFFFFFFFFFFFFFFFFFFFFFFFFFFFFFFFFFFF MUL NOT AND SWAP1 DUP4 PUSH20 0xFFFFFFFFFFFFFFFFFFFFFFFFFFFFFFFFFFFFFFFF AND MUL OR SWAP1 SSTORE POP POP JUMP JUMPDEST PUSH1 0x0 SELFBALANCE SWAP1 POP SWAP1 JUMP JUMPDEST PUSH1 0x0 DUP1 PUSH1 0x0 SWAP1 SLOAD SWAP1 PUSH2 0x100 EXP SWAP1 DIV PUSH20 0xFFFFFFFFFFFFFFFFFFFFFFFFFFFFFFFFFFFFFFFF AND SWAP1 POP SWAP1 JUMP JUMPDEST PUSH2 0x8D4 DUP4 PUSH4 0xA9059CBB PUSH1 0xE0 SHL DUP5 DUP5 PUSH1 0x40 MLOAD PUSH1 0x24 ADD PUSH2 0x872 SWAP3 SWAP2 SWAP1 PUSH2 0xF77 JUMP JUMPDEST PUSH1 0x40 MLOAD PUSH1 0x20 DUP2 DUP4 SUB SUB DUP2 MSTORE SWAP1 PUSH1 0x40 MSTORE SWAP1 PUSH28 0xFFFFFFFFFFFFFFFFFFFFFFFFFFFFFFFFFFFFFFFFFFFFFFFFFFFFFFFF NOT AND PUSH1 0x20 DUP3 ADD DUP1 MLOAD PUSH28 0xFFFFFFFFFFFFFFFFFFFFFFFFFFFFFFFFFFFFFFFFFFFFFFFFFFFFFFFF DUP4 DUP2 DUP4 AND OR DUP4 MSTORE POP POP POP POP PUSH2 0x8D9 JUMP JUMPDEST POP POP POP JUMP JUMPDEST PUSH1 0x0 PUSH2 0x93B DUP3 PUSH1 0x40 MLOAD DUP1 PUSH1 0x40 ADD PUSH1 0x40 MSTORE DUP1 PUSH1 0x20 DUP2 MSTORE PUSH1 0x20 ADD PUSH32 0x5361666545524332303A206C6F772D6C6576656C2063616C6C206661696C6564 DUP2 MSTORE POP DUP6 PUSH20 0xFFFFFFFFFFFFFFFFFFFFFFFFFFFFFFFFFFFFFFFF AND PUSH2 0x9A0 SWAP1 SWAP3 SWAP2 SWAP1 PUSH4 0xFFFFFFFF AND JUMP JUMPDEST SWAP1 POP PUSH1 0x0 DUP2 MLOAD GT ISZERO PUSH2 0x99B JUMPI DUP1 DUP1 PUSH1 0x20 ADD SWAP1 MLOAD DUP2 ADD SWAP1 PUSH2 0x95B SWAP2 SWAP1 PUSH2 0xFD8 JUMP JUMPDEST PUSH2 0x99A JUMPI PUSH1 0x40 MLOAD PUSH32 0x8C379A000000000000000000000000000000000000000000000000000000000 DUP2 MSTORE PUSH1 0x4 ADD PUSH2 0x991 SWAP1 PUSH2 0x1077 JUMP JUMPDEST PUSH1 0x40 MLOAD DUP1 SWAP2 SUB SWAP1 REVERT JUMPDEST JUMPDEST POP POP POP JUMP JUMPDEST PUSH1 0x60 PUSH2 0x9AF DUP5 DUP5 PUSH1 0x0 DUP6 PUSH2 0x9B8 JUMP JUMPDEST SWAP1 POP SWAP4 SWAP3 POP POP POP JUMP JUMPDEST PUSH1 0x60 DUP3 SELFBALANCE LT ISZERO PUSH2 0x9FD JUMPI PUSH1 0x40 MLOAD PUSH32 0x8C379A000000000000000000000000000000000000000000000000000000000 DUP2 MSTORE PUSH1 0x4 ADD PUSH2 0x9F4 SWAP1 PUSH2 0x1109 JUMP JUMPDEST PUSH1 0x40 MLOAD DUP1 SWAP2 SUB SWAP1 REVERT JUMPDEST PUSH2 0xA06 DUP6 PUSH2 0xACC JUMP JUMPDEST PUSH2 0xA45 JUMPI PUSH1 0x40 MLOAD PUSH32 0x8C379A000000000000000000000000000000000000000000000000000000000 DUP2 MSTORE PUSH1 0x4 ADD PUSH2 0xA3C SWAP1 PUSH2 0x1175 JUMP JUMPDEST PUSH1 0x40 MLOAD DUP1 SWAP2 SUB SWAP1 REVERT JUMPDEST PUSH1 0x0 DUP1 DUP7 PUSH20 0xFFFFFFFFFFFFFFFFFFFFFFFFFFFFFFFFFFFFFFFF AND DUP6 DUP8 PUSH1 0x40 MLOAD PUSH2 0xA6E SWAP2 SWAP1 PUSH2 0x11DC JUMP JUMPDEST PUSH1 0x0 PUSH1 0x40 MLOAD DUP1 DUP4 SUB DUP2 DUP6 DUP8 GAS CALL SWAP3 POP POP POP RETURNDATASIZE DUP1 PUSH1 0x0 DUP2 EQ PUSH2 0xAAB JUMPI PUSH1 0x40 MLOAD SWAP2 POP PUSH1 0x1F NOT PUSH1 0x3F RETURNDATASIZE ADD AND DUP3 ADD PUSH1 0x40 MSTORE RETURNDATASIZE DUP3 MSTORE RETURNDATASIZE PUSH1 0x0 PUSH1 0x20 DUP5 ADD RETURNDATACOPY PUSH2 0xAB0 JUMP JUMPDEST PUSH1 0x60 SWAP2 POP JUMPDEST POP SWAP2 POP SWAP2 POP PUSH2 0xAC0 DUP3 DUP3 DUP7 PUSH2 0xAEF JUMP JUMPDEST SWAP3 POP POP POP SWAP5 SWAP4 POP POP POP POP JUMP JUMPDEST PUSH1 0x0 DUP1 DUP3 PUSH20 0xFFFFFFFFFFFFFFFFFFFFFFFFFFFFFFFFFFFFFFFF AND EXTCODESIZE GT SWAP1 POP SWAP2 SWAP1 POP JUMP JUMPDEST PUSH1 0x60 DUP4 ISZERO PUSH2 0xAFF JUMPI DUP3 SWAP1 POP PUSH2 0xB4F JUMP JUMPDEST PUSH1 0x0 DUP4 MLOAD GT ISZERO PUSH2 0xB12 JUMPI DUP3 MLOAD DUP1 DUP5 PUSH1 0x20 ADD REVERT JUMPDEST DUP2 PUSH1 0x40 MLOAD PUSH32 0x8C379A000000000000000000000000000000000000000000000000000000000 DUP2 MSTORE PUSH1 0x4 ADD PUSH2 0xB46 SWAP2 SWAP1 PUSH2 0xCAC JUMP JUMPDEST PUSH1 0x40 MLOAD DUP1 SWAP2 SUB SWAP1 REVERT JUMPDEST SWAP4 SWAP3 POP POP POP JUMP JUMPDEST PUSH1 0x0 DUP3 DUP3 MSTORE PUSH1 0x20 DUP3 ADD SWAP1 POP SWAP3 SWAP2 POP POP JUMP JUMPDEST PUSH32 0x596F75206E65656420746F2073656E64206174206C6561737420302E30303030 PUSH1 0x0 DUP3 ADD MSTORE PUSH32 0x30312047454E0000000000000000000000000000000000000000000000000000 PUSH1 0x20 DUP3 ADD MSTORE POP JUMP JUMPDEST PUSH1 0x0 PUSH2 0xBC3 PUSH1 0x26 DUP4 PUSH2 0xB56 JUMP JUMPDEST SWAP2 POP PUSH2 0xBCE DUP3 PUSH2 0xB67 JUMP JUMPDEST PUSH1 0x40 DUP3 ADD SWAP1 POP SWAP2 SWAP1 POP JUMP JUMPDEST PUSH1 0x0 PUSH1 0x20 DUP3 ADD SWAP1 POP DUP2 DUP2 SUB PUSH1 0x0 DUP4 ADD MSTORE PUSH2 0xBF2 DUP2 PUSH2 0xBB6 JUMP JUMPDEST SWAP1 POP SWAP2 SWAP1 POP JUMP JUMPDEST PUSH1 0x0 DUP2 SWAP1 POP SWAP2 SWAP1 POP JUMP JUMPDEST PUSH2 0xC0C DUP2 PUSH2 0xBF9 JUMP JUMPDEST DUP3 MSTORE POP POP JUMP JUMPDEST PUSH1 0x0 PUSH1 0x20 DUP3 ADD SWAP1 POP PUSH2 0xC27 PUSH1 0x0 DUP4 ADD DUP5 PUSH2 0xC03 JUMP JUMPDEST SWAP3 SWAP2 POP POP JUMP JUMPDEST PUSH1 0x0 DUP2 MLOAD SWAP1 POP SWAP2 SWAP1 POP JUMP JUMPDEST PUSH1 0x0 JUMPDEST DUP4 DUP2 LT ISZERO PUSH2 0xC56 JUMPI DUP1 DUP3 ADD MLOAD DUP2 DUP5 ADD MSTORE PUSH1 0x20 DUP2 ADD SWAP1 POP PUSH2 0xC3B JUMP JUMPDEST PUSH1 0x0 DUP5 DUP5 ADD MSTORE POP POP POP POP JUMP JUMPDEST PUSH1 0x0 PUSH1 0x1F NOT PUSH1 0x1F DUP4 ADD AND SWAP1 POP SWAP2 SWAP1 POP JUMP JUMPDEST PUSH1 0x0 PUSH2 0xC7E DUP3 PUSH2 0xC2D JUMP JUMPDEST PUSH2 0xC88 DUP2 DUP6 PUSH2 0xB56 JUMP JUMPDEST SWAP4 POP PUSH2 0xC98 DUP2 DUP6 PUSH1 0x20 DUP7 ADD PUSH2 0xC38 JUMP JUMPDEST PUSH2 0xCA1 DUP2 PUSH2 0xC62 JUMP JUMPDEST DUP5 ADD SWAP2 POP POP SWAP3 SWAP2 POP POP JUMP JUMPDEST PUSH1 0x0 PUSH1 0x20 DUP3 ADD SWAP1 POP DUP2 DUP2 SUB PUSH1 0x0 DUP4 ADD MSTORE PUSH2 0xCC6 DUP2 DUP5 PUSH2 0xC73 JUMP JUMPDEST SWAP1 POP SWAP3 SWAP2 POP POP JUMP JUMPDEST PUSH1 0x0 DUP1 REVERT JUMPDEST PUSH2 0xCDC DUP2 PUSH2 0xBF9 JUMP JUMPDEST DUP2 EQ PUSH2 0xCE7 JUMPI PUSH1 0x0 DUP1 REVERT JUMPDEST POP JUMP JUMPDEST PUSH1 0x0 DUP2 CALLDATALOAD SWAP1 POP PUSH2 0xCF9 DUP2 PUSH2 0xCD3 JUMP JUMPDEST SWAP3 SWAP2 POP POP JUMP JUMPDEST PUSH1 0x0 PUSH1 0x20 DUP3 DUP5 SUB SLT ISZERO PUSH2 0xD15 JUMPI PUSH2 0xD14 PUSH2 0xCCE JUMP JUMPDEST JUMPDEST PUSH1 0x0 PUSH2 0xD23 DUP5 DUP3 DUP6 ADD PUSH2 0xCEA JUMP JUMPDEST SWAP2 POP POP SWAP3 SWAP2 POP POP JUMP JUMPDEST PUSH1 0x0 PUSH20 0xFFFFFFFFFFFFFFFFFFFFFFFFFFFFFFFFFFFFFFFF DUP3 AND SWAP1 POP SWAP2 SWAP1 POP JUMP JUMPDEST PUSH1 0x0 PUSH2 0xD57 DUP3 PUSH2 0xD2C JUMP JUMPDEST SWAP1 POP SWAP2 SWAP1 POP JUMP JUMPDEST PUSH2 0xD67 DUP2 PUSH2 0xD4C JUMP JUMPDEST DUP2 EQ PUSH2 0xD72 JUMPI PUSH1 0x0 DUP1 REVERT JUMPDEST POP JUMP JUMPDEST PUSH1 0x0 DUP2 CALLDATALOAD SWAP1 POP PUSH2 0xD84 DUP2 PUSH2 0xD5E JUMP JUMPDEST SWAP3 SWAP2 POP POP JUMP JUMPDEST PUSH1 0x0 PUSH1 0x20 DUP3 DUP5 SUB SLT ISZERO PUSH2 0xDA0 JUMPI PUSH2 0xD9F PUSH2 0xCCE JUMP JUMPDEST JUMPDEST PUSH1 0x0 PUSH2 0xDAE DUP5 DUP3 DUP6 ADD PUSH2 0xD75 JUMP JUMPDEST SWAP2 POP POP SWAP3 SWAP2 POP POP JUMP JUMPDEST PUSH2 0xDC0 DUP2 PUSH2 0xD4C JUMP JUMPDEST DUP3 MSTORE POP POP JUMP JUMPDEST PUSH1 0x0 PUSH1 0x20 DUP3 ADD SWAP1 POP PUSH2 0xDDB PUSH1 0x0 DUP4 ADD DUP5 PUSH2 0xDB7 JUMP JUMPDEST SWAP3 SWAP2 POP POP JUMP JUMPDEST PUSH1 0x0 DUP1 PUSH1 0x0 PUSH1 0x60 DUP5 DUP7 SUB SLT ISZERO PUSH2 0xDFA JUMPI PUSH2 0xDF9 PUSH2 0xCCE JUMP JUMPDEST JUMPDEST PUSH1 0x0 PUSH2 0xE08 DUP7 DUP3 DUP8 ADD PUSH2 0xD75 JUMP JUMPDEST SWAP4 POP POP PUSH1 0x20 PUSH2 0xE19 DUP7 DUP3 DUP8 ADD PUSH2 0xCEA JUMP JUMPDEST SWAP3 POP POP PUSH1 0x40 PUSH2 0xE2A DUP7 DUP3 DUP8 ADD PUSH2 0xD75 JUMP JUMPDEST SWAP2 POP POP SWAP3 POP SWAP3 POP SWAP3 JUMP JUMPDEST PUSH32 0x43616C6C6572206973206E6F74206D616E616765720000000000000000000000 PUSH1 0x0 DUP3 ADD MSTORE POP JUMP JUMPDEST PUSH1 0x0 PUSH2 0xE6A PUSH1 0x15 DUP4 PUSH2 0xB56 JUMP JUMPDEST SWAP2 POP PUSH2 0xE75 DUP3 PUSH2 0xE34 JUMP JUMPDEST PUSH1 0x20 DUP3 ADD SWAP1 POP SWAP2 SWAP1 POP JUMP JUMPDEST PUSH1 0x0 PUSH1 0x20 DUP3 ADD SWAP1 POP DUP2 DUP2 SUB PUSH1 0x0 DUP4 ADD MSTORE PUSH2 0xE99 DUP2 PUSH2 0xE5D JUMP JUMPDEST SWAP1 POP SWAP2 SWAP1 POP JUMP JUMPDEST PUSH1 0x0 DUP2 MLOAD SWAP1 POP PUSH2 0xEAF DUP2 PUSH2 0xCD3 JUMP JUMPDEST SWAP3 SWAP2 POP POP JUMP JUMPDEST PUSH1 0x0 PUSH1 0x20 DUP3 DUP5 SUB SLT ISZERO PUSH2 0xECB JUMPI PUSH2 0xECA PUSH2 0xCCE JUMP JUMPDEST JUMPDEST PUSH1 0x0 PUSH2 0xED9 DUP5 DUP3 DUP6 ADD PUSH2 0xEA0 JUMP JUMPDEST SWAP2 POP POP SWAP3 SWAP2 POP POP JUMP JUMPDEST PUSH32 0x496E73756666696369656E7420746F6B656E2062616C616E6365000000000000 PUSH1 0x0 DUP3 ADD MSTORE POP JUMP JUMPDEST PUSH1 0x0 PUSH2 0xF18 PUSH1 0x1A DUP4 PUSH2 0xB56 JUMP JUMPDEST SWAP2 POP PUSH2 0xF23 DUP3 PUSH2 0xEE2 JUMP JUMPDEST PUSH1 0x20 DUP3 ADD SWAP1 POP SWAP2 SWAP1 POP JUMP JUMPDEST PUSH1 0x0 PUSH1 0x20 DUP3 ADD SWAP1 POP DUP2 DUP2 SUB PUSH1 0x0 DUP4 ADD MSTORE PUSH2 0xF47 DUP2 PUSH2 0xF0B JUMP JUMPDEST SWAP1 POP SWAP2 SWAP1 POP JUMP JUMPDEST PUSH1 0x0 PUSH1 0x40 DUP3 ADD SWAP1 POP PUSH2 0xF63 PUSH1 0x0 DUP4 ADD DUP6 PUSH2 0xC03 JUMP JUMPDEST PUSH2 0xF70 PUSH1 0x20 DUP4 ADD DUP5 PUSH2 0xDB7 JUMP JUMPDEST SWAP4 SWAP3 POP POP POP JUMP JUMPDEST PUSH1 0x0 PUSH1 0x40 DUP3 ADD SWAP1 POP PUSH2 0xF8C PUSH1 0x0 DUP4 ADD DUP6 PUSH2 0xDB7 JUMP JUMPDEST PUSH2 0xF99 PUSH1 0x20 DUP4 ADD DUP5 PUSH2 0xC03 JUMP JUMPDEST SWAP4 SWAP3 POP POP POP JUMP JUMPDEST PUSH1 0x0 DUP2 ISZERO ISZERO SWAP1 POP SWAP2 SWAP1 POP JUMP JUMPDEST PUSH2 0xFB5 DUP2 PUSH2 0xFA0 JUMP JUMPDEST DUP2 EQ PUSH2 0xFC0 JUMPI PUSH1 0x0 DUP1 REVERT JUMPDEST POP JUMP JUMPDEST PUSH1 0x0 DUP2 MLOAD SWAP1 POP PUSH2 0xFD2 DUP2 PUSH2 0xFAC JUMP JUMPDEST SWAP3 SWAP2 POP POP JUMP JUMPDEST PUSH1 0x0 PUSH1 0x20 DUP3 DUP5 SUB SLT ISZERO PUSH2 0xFEE JUMPI PUSH2 0xFED PUSH2 0xCCE JUMP JUMPDEST JUMPDEST PUSH1 0x0 PUSH2 0xFFC DUP5 DUP3 DUP6 ADD PUSH2 0xFC3 JUMP JUMPDEST SWAP2 POP POP SWAP3 SWAP2 POP POP JUMP JUMPDEST PUSH32 0x5361666545524332303A204552433230206F7065726174696F6E20646964206E PUSH1 0x0 DUP3 ADD MSTORE PUSH32 0x6F74207375636365656400000000000000000000000000000000000000000000 PUSH1 0x20 DUP3 ADD MSTORE POP JUMP JUMPDEST PUSH1 0x0 PUSH2 0x1061 PUSH1 0x2A DUP4 PUSH2 0xB56 JUMP JUMPDEST SWAP2 POP PUSH2 0x106C DUP3 PUSH2 0x1005 JUMP JUMPDEST PUSH1 0x40 DUP3 ADD SWAP1 POP SWAP2 SWAP1 POP JUMP JUMPDEST PUSH1 0x0 PUSH1 0x20 DUP3 ADD SWAP1 POP DUP2 DUP2 SUB PUSH1 0x0 DUP4 ADD MSTORE PUSH2 0x1090 DUP2 PUSH2 0x1054 JUMP JUMPDEST SWAP1 POP SWAP2 SWAP1 POP JUMP JUMPDEST PUSH32 0x416464726573733A20696E73756666696369656E742062616C616E636520666F PUSH1 0x0 DUP3 ADD MSTORE PUSH32 0x722063616C6C0000000000000000000000000000000000000000000000000000 PUSH1 0x20 DUP3 ADD MSTORE POP JUMP JUMPDEST PUSH1 0x0 PUSH2 0x10F3 PUSH1 0x26 DUP4 PUSH2 0xB56 JUMP JUMPDEST SWAP2 POP PUSH2 0x10FE DUP3 PUSH2 0x1097 JUMP JUMPDEST PUSH1 0x40 DUP3 ADD SWAP1 POP SWAP2 SWAP1 POP JUMP JUMPDEST PUSH1 0x0 PUSH1 0x20 DUP3 ADD SWAP1 POP DUP2 DUP2 SUB PUSH1 0x0 DUP4 ADD MSTORE PUSH2 0x1122 DUP2 PUSH2 0x10E6 JUMP JUMPDEST SWAP1 POP SWAP2 SWAP1 POP JUMP JUMPDEST PUSH32 0x416464726573733A2063616C6C20746F206E6F6E2D636F6E7472616374000000 PUSH1 0x0 DUP3 ADD MSTORE POP JUMP JUMPDEST PUSH1 0x0 PUSH2 0x115F PUSH1 0x1D DUP4 PUSH2 0xB56 JUMP JUMPDEST SWAP2 POP PUSH2 0x116A DUP3 PUSH2 0x1129 JUMP JUMPDEST PUSH1 0x20 DUP3 ADD SWAP1 POP SWAP2 SWAP1 POP JUMP JUMPDEST PUSH1 0x0 PUSH1 0x20 DUP3 ADD SWAP1 POP DUP2 DUP2 SUB PUSH1 0x0 DUP4 ADD MSTORE PUSH2 0x118E DUP2 PUSH2 0x1152 JUMP JUMPDEST SWAP1 POP SWAP2 SWAP1 POP JUMP JUMPDEST PUSH1 0x0 DUP2 MLOAD SWAP1 POP SWAP2 SWAP1 POP JUMP JUMPDEST PUSH1 0x0 DUP2 SWAP1 POP SWAP3 SWAP2 POP POP JUMP JUMPDEST PUSH1 0x0 PUSH2 0x11B6 DUP3 PUSH2 0x1195 JUMP JUMPDEST PUSH2 0x11C0 DUP2 DUP6 PUSH2 0x11A0 JUMP JUMPDEST SWAP4 POP PUSH2 0x11D0 DUP2 DUP6 PUSH1 0x20 DUP7 ADD PUSH2 0xC38 JUMP JUMPDEST DUP1 DUP5 ADD SWAP2 POP POP SWAP3 SWAP2 POP POP JUMP JUMPDEST PUSH1 0x0 PUSH2 0x11E8 DUP3 DUP5 PUSH2 0x11AB JUMP JUMPDEST SWAP2 POP DUP2 SWAP1 POP SWAP3 SWAP2 POP POP JUMP INVALID LOG2 PUSH5 0x6970667358 0x22 SLT KECCAK256 0xE4 0x4F 0xC1 CALLDATALOAD 0xEF MULMOD SHR 0xBD 0xE2 SWAP7 ADDMOD MUL DUP2 0xE4 SWAP16 CALLVALUE OR 0xF6 JUMPDEST 0x29 0xDD SWAP6 0xCF BASEFEE ADD 0xC4 CODECOPY DUP3 0x22 0xDC 0xE0 0xA9 PUSH5 0x736F6C6343 STOP ADDMOD LT STOP CALLER "
				},
				"gasEstimates": {
					"creation": {
						"codeDepositCost": "929800",
						"executionCost": "25234",
						"totalCost": "955034"
					},
					"external": {
						"bridgeGenTransfer(uint256)": "infinite",
						"bridgeTokenTransfer(address,uint256,address)": "infinite",
						"changeManager(address)": "30611",
						"getGenBalance()": "405",
						"getManager()": "2610",
						"getTokenBalance(address)": "infinite",
						"manager()": "2578",
						"name()": "infinite",
						"version()": "infinite"
					}
				},
				"methodIdentifiers": {
					"bridgeGenTransfer(uint256)": "2cd89139",
					"bridgeTokenTransfer(address,uint256,address)": "783b04b8",
					"changeManager(address)": "a3fbbaae",
					"getGenBalance()": "b79cf13f",
					"getManager()": "d5009584",
					"getTokenBalance(address)": "3aecd0e3",
					"manager()": "481c6a75",
					"name()": "06fdde03",
					"version()": "54fd4d50"
				}
			},
			"storageLayout": {
				"storage": [
					{
						"astId": 699,
						"contract": "Users/ben/Documents/GitHub/gen-bridge/contracts/BridgeDeposit.sol:EscrowPaymentSplitter",
						"label": "manager",
						"offset": 0,
						"slot": "0",
						"type": "t_address"
					}
				],
				"types": {
					"t_address": {
						"encoding": "inplace",
						"label": "address",
						"numberOfBytes": "20"
					}
				}
			},
			"userdoc": {
				"kind": "user",
				"methods": {},
				"version": 1
			}
		}
	}
}