{
	"Users/ben/Documents/GitHub/gen-bridge/contracts/Bridge.sol": {
		"Bridge": {
			"abi": [
				{
					"inputs": [],
					"stateMutability": "nonpayable",
					"type": "constructor"
				},
				{
					"anonymous": false,
					"inputs": [
						{
							"indexed": true,
							"internalType": "address",
							"name": "userAddress",
							"type": "address"
						},
						{
							"indexed": false,
							"internalType": "uint256",
							"name": "lockAmount",
							"type": "uint256"
						},
						{
							"indexed": false,
							"internalType": "string",
							"name": "fromChain",
							"type": "string"
						},
						{
							"indexed": false,
							"internalType": "address",
							"name": "fromTokenAddress",
							"type": "address"
						},
						{
							"indexed": false,
							"internalType": "string",
							"name": "toChain",
							"type": "string"
						},
						{
							"indexed": false,
							"internalType": "address",
							"name": "toTokenAddress",
							"type": "address"
						}
					],
					"name": "CompleteReport",
					"type": "event"
				},
				{
					"anonymous": false,
					"inputs": [
						{
							"indexed": true,
							"internalType": "address",
							"name": "oldManager",
							"type": "address"
						},
						{
							"indexed": true,
							"internalType": "address",
							"name": "newManager",
							"type": "address"
						}
					],
					"name": "ManagerSet",
					"type": "event"
				},
				{
					"inputs": [
						{
							"internalType": "address",
							"name": "newManager",
							"type": "address"
						}
					],
					"name": "changeManager",
					"outputs": [],
					"stateMutability": "nonpayable",
					"type": "function"
				},
				{
					"inputs": [
						{
							"internalType": "string",
							"name": "a",
							"type": "string"
						},
						{
							"internalType": "string",
							"name": "b",
							"type": "string"
						}
					],
					"name": "compareStrings",
					"outputs": [
						{
							"internalType": "bool",
							"name": "",
							"type": "bool"
						}
					],
					"stateMutability": "view",
					"type": "function"
				},
				{
					"inputs": [
						{
							"internalType": "bytes32",
							"name": "",
							"type": "bytes32"
						}
					],
					"name": "completedKeyMap",
					"outputs": [
						{
							"internalType": "bool",
							"name": "",
							"type": "bool"
						}
					],
					"stateMutability": "view",
					"type": "function"
				},
				{
					"inputs": [
						{
							"internalType": "address",
							"name": "_rewardAddress",
							"type": "address"
						},
						{
							"internalType": "string",
							"name": "_name",
							"type": "string"
						},
						{
							"internalType": "string",
							"name": "_website",
							"type": "string"
						},
						{
							"internalType": "string",
							"name": "_description",
							"type": "string"
						},
						{
							"internalType": "uint256",
							"name": "_commissionRate",
							"type": "uint256"
						},
						{
							"internalType": "uint256",
							"name": "_maximumCommission",
							"type": "uint256"
						}
					],
					"name": "createGateKeeper",
					"outputs": [],
					"stateMutability": "nonpayable",
					"type": "function"
				},
				{
					"inputs": [
						{
							"internalType": "bytes32",
							"name": "_txhash",
							"type": "bytes32"
						},
						{
							"internalType": "address",
							"name": "_userAddress",
							"type": "address"
						},
						{
							"internalType": "uint256",
							"name": "_lockAmount",
							"type": "uint256"
						},
						{
							"internalType": "string",
							"name": "_fromChain",
							"type": "string"
						},
						{
							"internalType": "address",
							"name": "_fromTokenAddress",
							"type": "address"
						},
						{
							"internalType": "string",
							"name": "_toChain",
							"type": "string"
						},
						{
							"internalType": "address",
							"name": "_toTokenAddress",
							"type": "address"
						}
					],
					"name": "createReport",
					"outputs": [],
					"stateMutability": "nonpayable",
					"type": "function"
				},
				{
					"inputs": [],
					"name": "deleteGateKeeper",
					"outputs": [],
					"stateMutability": "nonpayable",
					"type": "function"
				},
				{
					"inputs": [
						{
							"internalType": "address",
							"name": "",
							"type": "address"
						}
					],
					"name": "gateKeeperMap",
					"outputs": [
						{
							"internalType": "address",
							"name": "nodeAddress",
							"type": "address"
						},
						{
							"internalType": "address",
							"name": "rewardAddress",
							"type": "address"
						},
						{
							"internalType": "string",
							"name": "name",
							"type": "string"
						},
						{
							"internalType": "string",
							"name": "website",
							"type": "string"
						},
						{
							"internalType": "string",
							"name": "description",
							"type": "string"
						},
						{
							"internalType": "uint256",
							"name": "commissionRate",
							"type": "uint256"
						},
						{
							"internalType": "uint256",
							"name": "maximumCommission",
							"type": "uint256"
						},
						{
							"internalType": "bool",
							"name": "valid",
							"type": "bool"
						}
					],
					"stateMutability": "view",
					"type": "function"
				},
				{
					"inputs": [
						{
							"internalType": "bytes32",
							"name": "_txhash",
							"type": "bytes32"
						}
					],
					"name": "getCompletedReport",
					"outputs": [
						{
							"internalType": "bool",
							"name": "",
							"type": "bool"
						}
					],
					"stateMutability": "view",
					"type": "function"
				},
				{
					"inputs": [],
					"name": "getLatestReport",
					"outputs": [
						{
							"internalType": "uint256",
							"name": "",
							"type": "uint256"
						}
					],
					"stateMutability": "view",
					"type": "function"
				},
				{
					"inputs": [],
					"name": "getManager",
					"outputs": [
						{
							"internalType": "address",
							"name": "",
							"type": "address"
						}
					],
					"stateMutability": "view",
					"type": "function"
				},
				{
					"inputs": [],
					"name": "manager",
					"outputs": [
						{
							"internalType": "address",
							"name": "",
							"type": "address"
						}
					],
					"stateMutability": "view",
					"type": "function"
				},
				{
					"inputs": [],
					"name": "name",
					"outputs": [
						{
							"internalType": "string",
							"name": "",
							"type": "string"
						}
					],
					"stateMutability": "pure",
					"type": "function"
				},
				{
					"inputs": [
						{
							"internalType": "bytes32",
							"name": "",
							"type": "bytes32"
						},
						{
							"internalType": "address",
							"name": "",
							"type": "address"
						}
					],
					"name": "reportKeyMap",
					"outputs": [
						{
							"internalType": "bool",
							"name": "",
							"type": "bool"
						}
					],
					"stateMutability": "view",
					"type": "function"
				},
				{
					"inputs": [
						{
							"internalType": "bytes32",
							"name": "",
							"type": "bytes32"
						},
						{
							"internalType": "uint256",
							"name": "",
							"type": "uint256"
						}
					],
					"name": "reportMap",
					"outputs": [
						{
							"internalType": "address",
							"name": "gateKeeperAdminAddress",
							"type": "address"
						},
						{
							"internalType": "address",
							"name": "userAddress",
							"type": "address"
						},
						{
							"internalType": "uint256",
							"name": "lockAmount",
							"type": "uint256"
						},
						{
							"internalType": "string",
							"name": "fromChain",
							"type": "string"
						},
						{
							"internalType": "address",
							"name": "fromTokenAddress",
							"type": "address"
						},
						{
							"internalType": "string",
							"name": "toChain",
							"type": "string"
						},
						{
							"internalType": "address",
							"name": "toTokenAddress",
							"type": "address"
						}
					],
					"stateMutability": "view",
					"type": "function"
				},
				{
					"inputs": [
						{
							"internalType": "bytes32",
							"name": "_txhash",
							"type": "bytes32"
						}
					],
					"name": "setCompletedReport",
					"outputs": [],
					"stateMutability": "nonpayable",
					"type": "function"
				},
				{
					"inputs": [
						{
							"internalType": "address",
							"name": "_rewardAddress",
							"type": "address"
						},
						{
							"internalType": "string",
							"name": "_name",
							"type": "string"
						},
						{
							"internalType": "string",
							"name": "_website",
							"type": "string"
						},
						{
							"internalType": "string",
							"name": "_description",
							"type": "string"
						},
						{
							"internalType": "uint256",
							"name": "_commissionRate",
							"type": "uint256"
						},
						{
							"internalType": "uint256",
							"name": "_maximumCommission",
							"type": "uint256"
						}
					],
					"name": "updateGateKeeper",
					"outputs": [],
					"stateMutability": "nonpayable",
					"type": "function"
				},
				{
					"inputs": [],
					"name": "version",
					"outputs": [
						{
							"internalType": "string",
							"name": "",
							"type": "string"
						}
					],
					"stateMutability": "pure",
					"type": "function"
				}
			],
			"devdoc": {
				"kind": "dev",
				"methods": {},
				"version": 1
			},
			"evm": {
				"assembly": "    /* \"Users/ben/Documents/GitHub/gen-bridge/contracts/Bridge.sol\":141:5786  contract Bridge {... */\n  mstore(0x40, 0x80)\n    /* \"Users/ben/Documents/GitHub/gen-bridge/contracts/Bridge.sol\":243:295  constructor() { ... */\n  callvalue\n  dup1\n  iszero\n  tag_1\n  jumpi\n  0x00\n  dup1\n  revert\ntag_1:\n  pop\n    /* \"Users/ben/Documents/GitHub/gen-bridge/contracts/Bridge.sol\":278:288  msg.sender */\n  caller\n    /* \"Users/ben/Documents/GitHub/gen-bridge/contracts/Bridge.sol\":268:275  manager */\n  0x01\n  0x00\n    /* \"Users/ben/Documents/GitHub/gen-bridge/contracts/Bridge.sol\":268:288  manager = msg.sender */\n  0x0100\n  exp\n  dup2\n  sload\n  dup2\n  0xffffffffffffffffffffffffffffffffffffffff\n  mul\n  not\n  and\n  swap1\n  dup4\n  0xffffffffffffffffffffffffffffffffffffffff\n  and\n  mul\n  or\n  swap1\n  sstore\n  pop\n    /* \"Users/ben/Documents/GitHub/gen-bridge/contracts/Bridge.sol\":141:5786  contract Bridge {... */\n  dataSize(sub_0)\n  dup1\n  dataOffset(sub_0)\n  0x00\n  codecopy\n  0x00\n  return\nstop\n\nsub_0: assembly {\n        /* \"Users/ben/Documents/GitHub/gen-bridge/contracts/Bridge.sol\":141:5786  contract Bridge {... */\n      mstore(0x40, 0x80)\n      callvalue\n      dup1\n      iszero\n      tag_1\n      jumpi\n      0x00\n      dup1\n      revert\n    tag_1:\n      pop\n      jumpi(tag_2, lt(calldatasize, 0x04))\n      shr(0xe0, calldataload(0x00))\n      dup1\n      0xa3fbbaae\n      gt\n      tag_20\n      jumpi\n      dup1\n      0xc5b374a9\n      gt\n      tag_21\n      jumpi\n      dup1\n      0xc5b374a9\n      eq\n      tag_15\n      jumpi\n      dup1\n      0xd011883c\n      eq\n      tag_16\n      jumpi\n      dup1\n      0xd5009584\n      eq\n      tag_17\n      jumpi\n      dup1\n      0xd8164f46\n      eq\n      tag_18\n      jumpi\n      dup1\n      0xfef201f3\n      eq\n      tag_19\n      jumpi\n      jump(tag_2)\n    tag_21:\n      dup1\n      0xa3fbbaae\n      eq\n      tag_11\n      jumpi\n      dup1\n      0xb5d7af7c\n      eq\n      tag_12\n      jumpi\n      dup1\n      0xbed34bba\n      eq\n      tag_13\n      jumpi\n      dup1\n      0xc4352a41\n      eq\n      tag_14\n      jumpi\n      jump(tag_2)\n    tag_20:\n      dup1\n      0x54fd4d50\n      gt\n      tag_22\n      jumpi\n      dup1\n      0x54fd4d50\n      eq\n      tag_7\n      jumpi\n      dup1\n      0x683856d4\n      eq\n      tag_8\n      jumpi\n      dup1\n      0x89ff3abf\n      eq\n      tag_9\n      jumpi\n      dup1\n      0xa378d97c\n      eq\n      tag_10\n      jumpi\n      jump(tag_2)\n    tag_22:\n      dup1\n      0x06fdde03\n      eq\n      tag_3\n      jumpi\n      dup1\n      0x349dd800\n      eq\n      tag_4\n      jumpi\n      dup1\n      0x414970a4\n      eq\n      tag_5\n      jumpi\n      dup1\n      0x481c6a75\n      eq\n      tag_6\n      jumpi\n    tag_2:\n      0x00\n      dup1\n      revert\n        /* \"Users/ben/Documents/GitHub/gen-bridge/contracts/Bridge.sol\":393:488  function name() public pure returns (string memory) {... */\n    tag_3:\n      tag_23\n      tag_24\n      jump\t// in\n    tag_23:\n      mload(0x40)\n      tag_25\n      swap2\n      swap1\n      tag_26\n      jump\t// in\n    tag_25:\n      mload(0x40)\n      dup1\n      swap2\n      sub\n      swap1\n      return\n        /* \"Users/ben/Documents/GitHub/gen-bridge/contracts/Bridge.sol\":3664:3728  mapping(bytes32 => mapping(address => bool)) public reportKeyMap */\n    tag_4:\n      tag_27\n      0x04\n      dup1\n      calldatasize\n      sub\n      dup2\n      add\n      swap1\n      tag_28\n      swap2\n      swap1\n      tag_29\n      jump\t// in\n    tag_28:\n      tag_30\n      jump\t// in\n    tag_27:\n      mload(0x40)\n      tag_31\n      swap2\n      swap1\n      tag_32\n      jump\t// in\n    tag_31:\n      mload(0x40)\n      dup1\n      swap2\n      sub\n      swap1\n      return\n        /* \"Users/ben/Documents/GitHub/gen-bridge/contracts/Bridge.sol\":3146:3310  function deleteGateKeeper() public {... */\n    tag_5:\n      tag_33\n      tag_34\n      jump\t// in\n    tag_33:\n      stop\n        /* \"Users/ben/Documents/GitHub/gen-bridge/contracts/Bridge.sol\":214:236  address public manager */\n    tag_6:\n      tag_35\n      tag_36\n      jump\t// in\n    tag_35:\n      mload(0x40)\n      tag_37\n      swap2\n      swap1\n      tag_38\n      jump\t// in\n    tag_37:\n      mload(0x40)\n      dup1\n      swap2\n      sub\n      swap1\n      return\n        /* \"Users/ben/Documents/GitHub/gen-bridge/contracts/Bridge.sol\":301:387  function version() public pure returns (string memory) {... */\n    tag_7:\n      tag_39\n      tag_40\n      jump\t// in\n    tag_39:\n      mload(0x40)\n      tag_41\n      swap2\n      swap1\n      tag_26\n      jump\t// in\n    tag_41:\n      mload(0x40)\n      dup1\n      swap2\n      sub\n      swap1\n      return\n        /* \"Users/ben/Documents/GitHub/gen-bridge/contracts/Bridge.sol\":5409:5570  function getCompletedReport(bytes32 _txhash) public view returns (bool) {... */\n    tag_8:\n      tag_42\n      0x04\n      dup1\n      calldatasize\n      sub\n      dup2\n      add\n      swap1\n      tag_43\n      swap2\n      swap1\n      tag_44\n      jump\t// in\n    tag_43:\n      tag_45\n      jump\t// in\n    tag_42:\n      mload(0x40)\n      tag_46\n      swap2\n      swap1\n      tag_32\n      jump\t// in\n    tag_46:\n      mload(0x40)\n      dup1\n      swap2\n      sub\n      swap1\n      return\n        /* \"Users/ben/Documents/GitHub/gen-bridge/contracts/Bridge.sol\":4870:5403  function setCompletedReport(bytes32 _txhash) public isManager {... */\n    tag_9:\n      tag_47\n      0x04\n      dup1\n      calldatasize\n      sub\n      dup2\n      add\n      swap1\n      tag_48\n      swap2\n      swap1\n      tag_44\n      jump\t// in\n    tag_48:\n      tag_49\n      jump\t// in\n    tag_47:\n      stop\n        /* \"Users/ben/Documents/GitHub/gen-bridge/contracts/Bridge.sol\":1618:1669  mapping(address => GateKeeper) public gateKeeperMap */\n    tag_10:\n      tag_50\n      0x04\n      dup1\n      calldatasize\n      sub\n      dup2\n      add\n      swap1\n      tag_51\n      swap2\n      swap1\n      tag_52\n      jump\t// in\n    tag_51:\n      tag_53\n      jump\t// in\n    tag_50:\n      mload(0x40)\n      tag_54\n      swap9\n      swap8\n      swap7\n      swap6\n      swap5\n      swap4\n      swap3\n      swap2\n      swap1\n      tag_55\n      jump\t// in\n    tag_54:\n      mload(0x40)\n      dup1\n      swap2\n      sub\n      swap1\n      return\n        /* \"Users/ben/Documents/GitHub/gen-bridge/contracts/Bridge.sol\":1378:1521  function changeManager(address newManager) public isManager {... */\n    tag_11:\n      tag_56\n      0x04\n      dup1\n      calldatasize\n      sub\n      dup2\n      add\n      swap1\n      tag_57\n      swap2\n      swap1\n      tag_52\n      jump\t// in\n    tag_57:\n      tag_58\n      jump\t// in\n    tag_56:\n      stop\n        /* \"Users/ben/Documents/GitHub/gen-bridge/contracts/Bridge.sol\":3837:3884  mapping(bytes32 => bool) public completedKeyMap */\n    tag_12:\n      tag_59\n      0x04\n      dup1\n      calldatasize\n      sub\n      dup2\n      add\n      swap1\n      tag_60\n      swap2\n      swap1\n      tag_44\n      jump\t// in\n    tag_60:\n      tag_61\n      jump\t// in\n    tag_59:\n      mload(0x40)\n      tag_62\n      swap2\n      swap1\n      tag_32\n      jump\t// in\n    tag_62:\n      mload(0x40)\n      dup1\n      swap2\n      sub\n      swap1\n      return\n        /* \"Users/ben/Documents/GitHub/gen-bridge/contracts/Bridge.sol\":494:673  function compareStrings(string memory a, string memory b) public view returns (bool) {... */\n    tag_13:\n      tag_63\n      0x04\n      dup1\n      calldatasize\n      sub\n      dup2\n      add\n      swap1\n      tag_64\n      swap2\n      swap1\n      tag_65\n      jump\t// in\n    tag_64:\n      tag_66\n      jump\t// in\n    tag_63:\n      mload(0x40)\n      tag_67\n      swap2\n      swap1\n      tag_32\n      jump\t// in\n    tag_67:\n      mload(0x40)\n      dup1\n      swap2\n      sub\n      swap1\n      return\n        /* \"Users/ben/Documents/GitHub/gen-bridge/contracts/Bridge.sol\":3925:4752  function createReport(... */\n    tag_14:\n      tag_68\n      0x04\n      dup1\n      calldatasize\n      sub\n      dup2\n      add\n      swap1\n      tag_69\n      swap2\n      swap1\n      tag_70\n      jump\t// in\n    tag_69:\n      tag_71\n      jump\t// in\n    tag_68:\n      stop\n        /* \"Users/ben/Documents/GitHub/gen-bridge/contracts/Bridge.sol\":2552:3140  function updateGateKeeper(... */\n    tag_15:\n      tag_72\n      0x04\n      dup1\n      calldatasize\n      sub\n      dup2\n      add\n      swap1\n      tag_73\n      swap2\n      swap1\n      tag_74\n      jump\t// in\n    tag_73:\n      tag_75\n      jump\t// in\n    tag_72:\n      stop\n        /* \"Users/ben/Documents/GitHub/gen-bridge/contracts/Bridge.sol\":1926:2546  function createGateKeeper(... */\n    tag_16:\n      tag_76\n      0x04\n      dup1\n      calldatasize\n      sub\n      dup2\n      add\n      swap1\n      tag_77\n      swap2\n      swap1\n      tag_74\n      jump\t// in\n    tag_77:\n      tag_78\n      jump\t// in\n    tag_76:\n      stop\n        /* \"Users/ben/Documents/GitHub/gen-bridge/contracts/Bridge.sol\":1527:1612  function getManager() external view returns (address) {... */\n    tag_17:\n      tag_79\n      tag_80\n      jump\t// in\n    tag_79:\n      mload(0x40)\n      tag_81\n      swap2\n      swap1\n      tag_38\n      jump\t// in\n    tag_81:\n      mload(0x40)\n      dup1\n      swap2\n      sub\n      swap1\n      return\n        /* \"Users/ben/Documents/GitHub/gen-bridge/contracts/Bridge.sol\":3335:3380  mapping(bytes32 => Report[]) public reportMap */\n    tag_18:\n      tag_82\n      0x04\n      dup1\n      calldatasize\n      sub\n      dup2\n      add\n      swap1\n      tag_83\n      swap2\n      swap1\n      tag_84\n      jump\t// in\n    tag_83:\n      tag_85\n      jump\t// in\n    tag_82:\n      mload(0x40)\n      tag_86\n      swap8\n      swap7\n      swap6\n      swap5\n      swap4\n      swap3\n      swap2\n      swap1\n      tag_87\n      jump\t// in\n    tag_86:\n      mload(0x40)\n      dup1\n      swap2\n      sub\n      swap1\n      return\n        /* \"Users/ben/Documents/GitHub/gen-bridge/contracts/Bridge.sol\":4758:4864  function getLatestReport() public view returns (uint256) {... */\n    tag_19:\n      tag_88\n      tag_89\n      jump\t// in\n    tag_88:\n      mload(0x40)\n      tag_90\n      swap2\n      swap1\n      tag_91\n      jump\t// in\n    tag_90:\n      mload(0x40)\n      dup1\n      swap2\n      sub\n      swap1\n      return\n        /* \"Users/ben/Documents/GitHub/gen-bridge/contracts/Bridge.sol\":393:488  function name() public pure returns (string memory) {... */\n    tag_24:\n        /* \"Users/ben/Documents/GitHub/gen-bridge/contracts/Bridge.sol\":430:443  string memory */\n      0x60\n        /* \"Users/ben/Documents/GitHub/gen-bridge/contracts/Bridge.sol\":455:481  return \"Generation Bridge\" */\n      mload(0x40)\n      dup1\n      0x40\n      add\n      0x40\n      mstore\n      dup1\n      0x11\n      dup2\n      mstore\n      0x20\n      add\n      0x47656e65726174696f6e20427269646765000000000000000000000000000000\n      dup2\n      mstore\n      pop\n      swap1\n      pop\n        /* \"Users/ben/Documents/GitHub/gen-bridge/contracts/Bridge.sol\":393:488  function name() public pure returns (string memory) {... */\n      swap1\n      jump\t// out\n        /* \"Users/ben/Documents/GitHub/gen-bridge/contracts/Bridge.sol\":3664:3728  mapping(bytes32 => mapping(address => bool)) public reportKeyMap */\n    tag_30:\n      mstore(0x20, 0x04)\n      dup2\n      0x00\n      mstore\n      mstore(0x20, keccak256(0x00, 0x40))\n      dup1\n      0x00\n      mstore\n      keccak256(0x00, 0x40)\n      0x00\n      swap2\n      pop\n      swap2\n      pop\n      swap1\n      sload\n      swap1\n      0x0100\n      exp\n      swap1\n      div\n      0xff\n      and\n      dup2\n      jump\t// out\n        /* \"Users/ben/Documents/GitHub/gen-bridge/contracts/Bridge.sol\":3146:3310  function deleteGateKeeper() public {... */\n    tag_34:\n        /* \"Users/ben/Documents/GitHub/gen-bridge/contracts/Bridge.sol\":3199:3212  gateKeeperMap */\n      0x02\n        /* \"Users/ben/Documents/GitHub/gen-bridge/contracts/Bridge.sol\":3199:3224  gateKeeperMap[msg.sender] */\n      0x00\n        /* \"Users/ben/Documents/GitHub/gen-bridge/contracts/Bridge.sol\":3213:3223  msg.sender */\n      caller\n        /* \"Users/ben/Documents/GitHub/gen-bridge/contracts/Bridge.sol\":3199:3224  gateKeeperMap[msg.sender] */\n      0xffffffffffffffffffffffffffffffffffffffff\n      and\n      0xffffffffffffffffffffffffffffffffffffffff\n      and\n      dup2\n      mstore\n      0x20\n      add\n      swap1\n      dup2\n      mstore\n      0x20\n      add\n      0x00\n      keccak256\n        /* \"Users/ben/Documents/GitHub/gen-bridge/contracts/Bridge.sol\":3199:3230  gateKeeperMap[msg.sender].valid */\n      0x07\n      add\n      0x00\n      swap1\n      sload\n      swap1\n      0x0100\n      exp\n      swap1\n      div\n      0xff\n      and\n        /* \"Users/ben/Documents/GitHub/gen-bridge/contracts/Bridge.sol\":3191:3260  require(gateKeeperMap[msg.sender].valid, \"The Gate Keeper Not found\") */\n      tag_94\n      jumpi\n      mload(0x40)\n      0x08c379a000000000000000000000000000000000000000000000000000000000\n      dup2\n      mstore\n      0x04\n      add\n      tag_95\n      swap1\n      tag_96\n      jump\t// in\n    tag_95:\n      mload(0x40)\n      dup1\n      swap2\n      sub\n      swap1\n      revert\n    tag_94:\n        /* \"Users/ben/Documents/GitHub/gen-bridge/contracts/Bridge.sol\":3278:3291  gateKeeperMap */\n      0x02\n        /* \"Users/ben/Documents/GitHub/gen-bridge/contracts/Bridge.sol\":3278:3303  gateKeeperMap[msg.sender] */\n      0x00\n        /* \"Users/ben/Documents/GitHub/gen-bridge/contracts/Bridge.sol\":3292:3302  msg.sender */\n      caller\n        /* \"Users/ben/Documents/GitHub/gen-bridge/contracts/Bridge.sol\":3278:3303  gateKeeperMap[msg.sender] */\n      0xffffffffffffffffffffffffffffffffffffffff\n      and\n      0xffffffffffffffffffffffffffffffffffffffff\n      and\n      dup2\n      mstore\n      0x20\n      add\n      swap1\n      dup2\n      mstore\n      0x20\n      add\n      0x00\n      keccak256\n      0x00\n        /* \"Users/ben/Documents/GitHub/gen-bridge/contracts/Bridge.sol\":3271:3303  delete gateKeeperMap[msg.sender] */\n      dup1\n      dup3\n      add\n      exp(0x0100, 0x00)\n      dup2\n      sload\n      swap1\n      0xffffffffffffffffffffffffffffffffffffffff\n      mul\n      not\n      and\n      swap1\n      sstore\n      0x01\n      dup3\n      add\n      exp(0x0100, 0x00)\n      dup2\n      sload\n      swap1\n      0xffffffffffffffffffffffffffffffffffffffff\n      mul\n      not\n      and\n      swap1\n      sstore\n      0x02\n      dup3\n      add\n      0x00\n      tag_97\n      swap2\n      swap1\n      tag_98\n      jump\t// in\n    tag_97:\n      0x03\n      dup3\n      add\n      0x00\n      tag_99\n      swap2\n      swap1\n      tag_98\n      jump\t// in\n    tag_99:\n      0x04\n      dup3\n      add\n      0x00\n      tag_100\n      swap2\n      swap1\n      tag_98\n      jump\t// in\n    tag_100:\n      0x05\n      dup3\n      add\n      0x00\n      swap1\n      sstore\n      0x06\n      dup3\n      add\n      0x00\n      swap1\n      sstore\n      0x07\n      dup3\n      add\n      exp(0x0100, 0x00)\n      dup2\n      sload\n      swap1\n      0xff\n      mul\n      not\n      and\n      swap1\n      sstore\n      pop\n      pop\n        /* \"Users/ben/Documents/GitHub/gen-bridge/contracts/Bridge.sol\":3146:3310  function deleteGateKeeper() public {... */\n      jump\t// out\n        /* \"Users/ben/Documents/GitHub/gen-bridge/contracts/Bridge.sol\":214:236  address public manager */\n    tag_36:\n      0x01\n      0x00\n      swap1\n      sload\n      swap1\n      0x0100\n      exp\n      swap1\n      div\n      0xffffffffffffffffffffffffffffffffffffffff\n      and\n      dup2\n      jump\t// out\n        /* \"Users/ben/Documents/GitHub/gen-bridge/contracts/Bridge.sol\":301:387  function version() public pure returns (string memory) {... */\n    tag_40:\n        /* \"Users/ben/Documents/GitHub/gen-bridge/contracts/Bridge.sol\":341:354  string memory */\n      0x60\n        /* \"Users/ben/Documents/GitHub/gen-bridge/contracts/Bridge.sol\":366:380  return \"0.1.0\" */\n      mload(0x40)\n      dup1\n      0x40\n      add\n      0x40\n      mstore\n      dup1\n      0x05\n      dup2\n      mstore\n      0x20\n      add\n      0x302e312e30000000000000000000000000000000000000000000000000000000\n      dup2\n      mstore\n      pop\n      swap1\n      pop\n        /* \"Users/ben/Documents/GitHub/gen-bridge/contracts/Bridge.sol\":301:387  function version() public pure returns (string memory) {... */\n      swap1\n      jump\t// out\n        /* \"Users/ben/Documents/GitHub/gen-bridge/contracts/Bridge.sol\":5409:5570  function getCompletedReport(bytes32 _txhash) public view returns (bool) {... */\n    tag_45:\n        /* \"Users/ben/Documents/GitHub/gen-bridge/contracts/Bridge.sol\":5475:5479  bool */\n      0x00\n        /* \"Users/ben/Documents/GitHub/gen-bridge/contracts/Bridge.sol\":5539:5554  completedKeyMap */\n      0x06\n        /* \"Users/ben/Documents/GitHub/gen-bridge/contracts/Bridge.sol\":5539:5563  completedKeyMap[_txhash] */\n      0x00\n        /* \"Users/ben/Documents/GitHub/gen-bridge/contracts/Bridge.sol\":5555:5562  _txhash */\n      dup4\n        /* \"Users/ben/Documents/GitHub/gen-bridge/contracts/Bridge.sol\":5539:5563  completedKeyMap[_txhash] */\n      dup2\n      mstore\n      0x20\n      add\n      swap1\n      dup2\n      mstore\n      0x20\n      add\n      0x00\n      keccak256\n      0x00\n      swap1\n      sload\n      swap1\n      0x0100\n      exp\n      swap1\n      div\n      0xff\n      and\n        /* \"Users/ben/Documents/GitHub/gen-bridge/contracts/Bridge.sol\":5532:5563  return completedKeyMap[_txhash] */\n      swap1\n      pop\n        /* \"Users/ben/Documents/GitHub/gen-bridge/contracts/Bridge.sol\":5409:5570  function getCompletedReport(bytes32 _txhash) public view returns (bool) {... */\n      swap2\n      swap1\n      pop\n      jump\t// out\n        /* \"Users/ben/Documents/GitHub/gen-bridge/contracts/Bridge.sol\":4870:5403  function setCompletedReport(bytes32 _txhash) public isManager {... */\n    tag_49:\n        /* \"Users/ben/Documents/GitHub/gen-bridge/contracts/Bridge.sol\":1317:1324  manager */\n      0x01\n      0x00\n      swap1\n      sload\n      swap1\n      0x0100\n      exp\n      swap1\n      div\n      0xffffffffffffffffffffffffffffffffffffffff\n      and\n        /* \"Users/ben/Documents/GitHub/gen-bridge/contracts/Bridge.sol\":1303:1324  msg.sender == manager */\n      0xffffffffffffffffffffffffffffffffffffffff\n      and\n        /* \"Users/ben/Documents/GitHub/gen-bridge/contracts/Bridge.sol\":1303:1313  msg.sender */\n      caller\n        /* \"Users/ben/Documents/GitHub/gen-bridge/contracts/Bridge.sol\":1303:1324  msg.sender == manager */\n      0xffffffffffffffffffffffffffffffffffffffff\n      and\n      eq\n        /* \"Users/ben/Documents/GitHub/gen-bridge/contracts/Bridge.sol\":1295:1350  require(msg.sender == manager, \"Caller is not manager\") */\n      tag_104\n      jumpi\n      mload(0x40)\n      0x08c379a000000000000000000000000000000000000000000000000000000000\n      dup2\n      mstore\n      0x04\n      add\n      tag_105\n      swap1\n      tag_106\n      jump\t// in\n    tag_105:\n      mload(0x40)\n      dup1\n      swap2\n      sub\n      swap1\n      revert\n    tag_104:\n        /* \"Users/ben/Documents/GitHub/gen-bridge/contracts/Bridge.sol\":4951:4966  completedKeyMap */\n      0x06\n        /* \"Users/ben/Documents/GitHub/gen-bridge/contracts/Bridge.sol\":4951:4975  completedKeyMap[_txhash] */\n      0x00\n        /* \"Users/ben/Documents/GitHub/gen-bridge/contracts/Bridge.sol\":4967:4974  _txhash */\n      dup3\n        /* \"Users/ben/Documents/GitHub/gen-bridge/contracts/Bridge.sol\":4951:4975  completedKeyMap[_txhash] */\n      dup2\n      mstore\n      0x20\n      add\n      swap1\n      dup2\n      mstore\n      0x20\n      add\n      0x00\n      keccak256\n      0x00\n      swap1\n      sload\n      swap1\n      0x0100\n      exp\n      swap1\n      div\n      0xff\n      and\n        /* \"Users/ben/Documents/GitHub/gen-bridge/contracts/Bridge.sol\":4950:4975  !completedKeyMap[_txhash] */\n      iszero\n        /* \"Users/ben/Documents/GitHub/gen-bridge/contracts/Bridge.sol\":4942:5020  require(!completedKeyMap[_txhash], \"Only one time call is allowed for txhash\") */\n      tag_108\n      jumpi\n      mload(0x40)\n      0x08c379a000000000000000000000000000000000000000000000000000000000\n      dup2\n      mstore\n      0x04\n      add\n      tag_109\n      swap1\n      tag_110\n      jump\t// in\n    tag_109:\n      mload(0x40)\n      dup1\n      swap2\n      sub\n      swap1\n      revert\n    tag_108:\n        /* \"Users/ben/Documents/GitHub/gen-bridge/contracts/Bridge.sol\":5057:5061  true */\n      0x01\n        /* \"Users/ben/Documents/GitHub/gen-bridge/contracts/Bridge.sol\":5030:5045  completedKeyMap */\n      0x06\n        /* \"Users/ben/Documents/GitHub/gen-bridge/contracts/Bridge.sol\":5030:5054  completedKeyMap[_txhash] */\n      0x00\n        /* \"Users/ben/Documents/GitHub/gen-bridge/contracts/Bridge.sol\":5046:5053  _txhash */\n      dup4\n        /* \"Users/ben/Documents/GitHub/gen-bridge/contracts/Bridge.sol\":5030:5054  completedKeyMap[_txhash] */\n      dup2\n      mstore\n      0x20\n      add\n      swap1\n      dup2\n      mstore\n      0x20\n      add\n      0x00\n      keccak256\n      0x00\n        /* \"Users/ben/Documents/GitHub/gen-bridge/contracts/Bridge.sol\":5030:5061  completedKeyMap[_txhash] = true */\n      0x0100\n      exp\n      dup2\n      sload\n      dup2\n      0xff\n      mul\n      not\n      and\n      swap1\n      dup4\n      iszero\n      iszero\n      mul\n      or\n      swap1\n      sstore\n      pop\n        /* \"Users/ben/Documents/GitHub/gen-bridge/contracts/Bridge.sol\":5106:5115  reportMap */\n      0x03\n        /* \"Users/ben/Documents/GitHub/gen-bridge/contracts/Bridge.sol\":5106:5124  reportMap[_txhash] */\n      0x00\n        /* \"Users/ben/Documents/GitHub/gen-bridge/contracts/Bridge.sol\":5116:5123  _txhash */\n      dup3\n        /* \"Users/ben/Documents/GitHub/gen-bridge/contracts/Bridge.sol\":5106:5124  reportMap[_txhash] */\n      dup2\n      mstore\n      0x20\n      add\n      swap1\n      dup2\n      mstore\n      0x20\n      add\n      0x00\n      keccak256\n        /* \"Users/ben/Documents/GitHub/gen-bridge/contracts/Bridge.sol\":5126:5127  0 */\n      0x00\n        /* \"Users/ben/Documents/GitHub/gen-bridge/contracts/Bridge.sol\":5105:5128  (reportMap[_txhash])[0] */\n      dup2\n      sload\n      dup2\n      lt\n      tag_111\n      jumpi\n      tag_112\n      tag_113\n      jump\t// in\n    tag_112:\n    tag_111:\n      swap1\n      0x00\n      mstore\n      keccak256(0x00, 0x20)\n      swap1\n      0x07\n      mul\n      add\n        /* \"Users/ben/Documents/GitHub/gen-bridge/contracts/Bridge.sol\":5105:5140  (reportMap[_txhash])[0].userAddress */\n      0x01\n      add\n      0x00\n      swap1\n      sload\n      swap1\n      0x0100\n      exp\n      swap1\n      div\n      0xffffffffffffffffffffffffffffffffffffffff\n      and\n        /* \"Users/ben/Documents/GitHub/gen-bridge/contracts/Bridge.sol\":5077:5396  CompleteReport(... */\n      0xffffffffffffffffffffffffffffffffffffffff\n      and\n      0x9b5fcf7abf3265364998b0894b4faf37d58ced2b3a1de20b112db1bcf4cd68ab\n        /* \"Users/ben/Documents/GitHub/gen-bridge/contracts/Bridge.sol\":5155:5164  reportMap */\n      0x03\n        /* \"Users/ben/Documents/GitHub/gen-bridge/contracts/Bridge.sol\":5155:5173  reportMap[_txhash] */\n      0x00\n        /* \"Users/ben/Documents/GitHub/gen-bridge/contracts/Bridge.sol\":5165:5172  _txhash */\n      dup5\n        /* \"Users/ben/Documents/GitHub/gen-bridge/contracts/Bridge.sol\":5155:5173  reportMap[_txhash] */\n      dup2\n      mstore\n      0x20\n      add\n      swap1\n      dup2\n      mstore\n      0x20\n      add\n      0x00\n      keccak256\n        /* \"Users/ben/Documents/GitHub/gen-bridge/contracts/Bridge.sol\":5175:5176  0 */\n      0x00\n        /* \"Users/ben/Documents/GitHub/gen-bridge/contracts/Bridge.sol\":5154:5177  (reportMap[_txhash])[0] */\n      dup2\n      sload\n      dup2\n      lt\n      tag_115\n      jumpi\n      tag_116\n      tag_113\n      jump\t// in\n    tag_116:\n    tag_115:\n      swap1\n      0x00\n      mstore\n      keccak256(0x00, 0x20)\n      swap1\n      0x07\n      mul\n      add\n        /* \"Users/ben/Documents/GitHub/gen-bridge/contracts/Bridge.sol\":5154:5188  (reportMap[_txhash])[0].lockAmount */\n      0x02\n      add\n      sload\n        /* \"Users/ben/Documents/GitHub/gen-bridge/contracts/Bridge.sol\":5203:5212  reportMap */\n      0x03\n        /* \"Users/ben/Documents/GitHub/gen-bridge/contracts/Bridge.sol\":5203:5221  reportMap[_txhash] */\n      0x00\n        /* \"Users/ben/Documents/GitHub/gen-bridge/contracts/Bridge.sol\":5213:5220  _txhash */\n      dup6\n        /* \"Users/ben/Documents/GitHub/gen-bridge/contracts/Bridge.sol\":5203:5221  reportMap[_txhash] */\n      dup2\n      mstore\n      0x20\n      add\n      swap1\n      dup2\n      mstore\n      0x20\n      add\n      0x00\n      keccak256\n        /* \"Users/ben/Documents/GitHub/gen-bridge/contracts/Bridge.sol\":5223:5224  0 */\n      0x00\n        /* \"Users/ben/Documents/GitHub/gen-bridge/contracts/Bridge.sol\":5202:5225  (reportMap[_txhash])[0] */\n      dup2\n      sload\n      dup2\n      lt\n      tag_118\n      jumpi\n      tag_119\n      tag_113\n      jump\t// in\n    tag_119:\n    tag_118:\n      swap1\n      0x00\n      mstore\n      keccak256(0x00, 0x20)\n      swap1\n      0x07\n      mul\n      add\n        /* \"Users/ben/Documents/GitHub/gen-bridge/contracts/Bridge.sol\":5202:5235  (reportMap[_txhash])[0].fromChain */\n      0x03\n      add\n        /* \"Users/ben/Documents/GitHub/gen-bridge/contracts/Bridge.sol\":5250:5259  reportMap */\n      0x03\n        /* \"Users/ben/Documents/GitHub/gen-bridge/contracts/Bridge.sol\":5250:5268  reportMap[_txhash] */\n      0x00\n        /* \"Users/ben/Documents/GitHub/gen-bridge/contracts/Bridge.sol\":5260:5267  _txhash */\n      dup7\n        /* \"Users/ben/Documents/GitHub/gen-bridge/contracts/Bridge.sol\":5250:5268  reportMap[_txhash] */\n      dup2\n      mstore\n      0x20\n      add\n      swap1\n      dup2\n      mstore\n      0x20\n      add\n      0x00\n      keccak256\n        /* \"Users/ben/Documents/GitHub/gen-bridge/contracts/Bridge.sol\":5270:5271  0 */\n      0x00\n        /* \"Users/ben/Documents/GitHub/gen-bridge/contracts/Bridge.sol\":5249:5272  (reportMap[_txhash])[0] */\n      dup2\n      sload\n      dup2\n      lt\n      tag_121\n      jumpi\n      tag_122\n      tag_113\n      jump\t// in\n    tag_122:\n    tag_121:\n      swap1\n      0x00\n      mstore\n      keccak256(0x00, 0x20)\n      swap1\n      0x07\n      mul\n      add\n        /* \"Users/ben/Documents/GitHub/gen-bridge/contracts/Bridge.sol\":5249:5289  (reportMap[_txhash])[0].fromTokenAddress */\n      0x04\n      add\n      0x00\n      swap1\n      sload\n      swap1\n      0x0100\n      exp\n      swap1\n      div\n      0xffffffffffffffffffffffffffffffffffffffff\n      and\n        /* \"Users/ben/Documents/GitHub/gen-bridge/contracts/Bridge.sol\":5304:5313  reportMap */\n      0x03\n        /* \"Users/ben/Documents/GitHub/gen-bridge/contracts/Bridge.sol\":5304:5322  reportMap[_txhash] */\n      0x00\n        /* \"Users/ben/Documents/GitHub/gen-bridge/contracts/Bridge.sol\":5314:5321  _txhash */\n      dup8\n        /* \"Users/ben/Documents/GitHub/gen-bridge/contracts/Bridge.sol\":5304:5322  reportMap[_txhash] */\n      dup2\n      mstore\n      0x20\n      add\n      swap1\n      dup2\n      mstore\n      0x20\n      add\n      0x00\n      keccak256\n        /* \"Users/ben/Documents/GitHub/gen-bridge/contracts/Bridge.sol\":5324:5325  0 */\n      0x00\n        /* \"Users/ben/Documents/GitHub/gen-bridge/contracts/Bridge.sol\":5303:5326  (reportMap[_txhash])[0] */\n      dup2\n      sload\n      dup2\n      lt\n      tag_124\n      jumpi\n      tag_125\n      tag_113\n      jump\t// in\n    tag_125:\n    tag_124:\n      swap1\n      0x00\n      mstore\n      keccak256(0x00, 0x20)\n      swap1\n      0x07\n      mul\n      add\n        /* \"Users/ben/Documents/GitHub/gen-bridge/contracts/Bridge.sol\":5303:5334  (reportMap[_txhash])[0].toChain */\n      0x05\n      add\n        /* \"Users/ben/Documents/GitHub/gen-bridge/contracts/Bridge.sol\":5349:5358  reportMap */\n      0x03\n        /* \"Users/ben/Documents/GitHub/gen-bridge/contracts/Bridge.sol\":5349:5367  reportMap[_txhash] */\n      0x00\n        /* \"Users/ben/Documents/GitHub/gen-bridge/contracts/Bridge.sol\":5359:5366  _txhash */\n      dup9\n        /* \"Users/ben/Documents/GitHub/gen-bridge/contracts/Bridge.sol\":5349:5367  reportMap[_txhash] */\n      dup2\n      mstore\n      0x20\n      add\n      swap1\n      dup2\n      mstore\n      0x20\n      add\n      0x00\n      keccak256\n        /* \"Users/ben/Documents/GitHub/gen-bridge/contracts/Bridge.sol\":5369:5370  0 */\n      0x00\n        /* \"Users/ben/Documents/GitHub/gen-bridge/contracts/Bridge.sol\":5348:5371  (reportMap[_txhash])[0] */\n      dup2\n      sload\n      dup2\n      lt\n      tag_127\n      jumpi\n      tag_128\n      tag_113\n      jump\t// in\n    tag_128:\n    tag_127:\n      swap1\n      0x00\n      mstore\n      keccak256(0x00, 0x20)\n      swap1\n      0x07\n      mul\n      add\n        /* \"Users/ben/Documents/GitHub/gen-bridge/contracts/Bridge.sol\":5348:5386  (reportMap[_txhash])[0].toTokenAddress */\n      0x06\n      add\n      0x00\n      swap1\n      sload\n      swap1\n      0x0100\n      exp\n      swap1\n      div\n      0xffffffffffffffffffffffffffffffffffffffff\n      and\n        /* \"Users/ben/Documents/GitHub/gen-bridge/contracts/Bridge.sol\":5077:5396  CompleteReport(... */\n      mload(0x40)\n      tag_130\n      swap6\n      swap5\n      swap4\n      swap3\n      swap2\n      swap1\n      tag_131\n      jump\t// in\n    tag_130:\n      mload(0x40)\n      dup1\n      swap2\n      sub\n      swap1\n      log2\n        /* \"Users/ben/Documents/GitHub/gen-bridge/contracts/Bridge.sol\":4870:5403  function setCompletedReport(bytes32 _txhash) public isManager {... */\n      pop\n      jump\t// out\n        /* \"Users/ben/Documents/GitHub/gen-bridge/contracts/Bridge.sol\":1618:1669  mapping(address => GateKeeper) public gateKeeperMap */\n    tag_53:\n      mstore(0x20, 0x02)\n      dup1\n      0x00\n      mstore\n      keccak256(0x00, 0x40)\n      0x00\n      swap2\n      pop\n      swap1\n      pop\n      dup1\n      0x00\n      add\n      0x00\n      swap1\n      sload\n      swap1\n      0x0100\n      exp\n      swap1\n      div\n      0xffffffffffffffffffffffffffffffffffffffff\n      and\n      swap1\n      dup1\n      0x01\n      add\n      0x00\n      swap1\n      sload\n      swap1\n      0x0100\n      exp\n      swap1\n      div\n      0xffffffffffffffffffffffffffffffffffffffff\n      and\n      swap1\n      dup1\n      0x02\n      add\n      dup1\n      sload\n      tag_132\n      swap1\n      tag_133\n      jump\t// in\n    tag_132:\n      dup1\n      0x1f\n      add\n      0x20\n      dup1\n      swap2\n      div\n      mul\n      0x20\n      add\n      mload(0x40)\n      swap1\n      dup2\n      add\n      0x40\n      mstore\n      dup1\n      swap3\n      swap2\n      swap1\n      dup2\n      dup2\n      mstore\n      0x20\n      add\n      dup3\n      dup1\n      sload\n      tag_134\n      swap1\n      tag_133\n      jump\t// in\n    tag_134:\n      dup1\n      iszero\n      tag_135\n      jumpi\n      dup1\n      0x1f\n      lt\n      tag_136\n      jumpi\n      0x0100\n      dup1\n      dup4\n      sload\n      div\n      mul\n      dup4\n      mstore\n      swap2\n      0x20\n      add\n      swap2\n      jump(tag_135)\n    tag_136:\n      dup3\n      add\n      swap2\n      swap1\n      0x00\n      mstore\n      keccak256(0x00, 0x20)\n      swap1\n    tag_137:\n      dup2\n      sload\n      dup2\n      mstore\n      swap1\n      0x01\n      add\n      swap1\n      0x20\n      add\n      dup1\n      dup4\n      gt\n      tag_137\n      jumpi\n      dup3\n      swap1\n      sub\n      0x1f\n      and\n      dup3\n      add\n      swap2\n    tag_135:\n      pop\n      pop\n      pop\n      pop\n      pop\n      swap1\n      dup1\n      0x03\n      add\n      dup1\n      sload\n      tag_138\n      swap1\n      tag_133\n      jump\t// in\n    tag_138:\n      dup1\n      0x1f\n      add\n      0x20\n      dup1\n      swap2\n      div\n      mul\n      0x20\n      add\n      mload(0x40)\n      swap1\n      dup2\n      add\n      0x40\n      mstore\n      dup1\n      swap3\n      swap2\n      swap1\n      dup2\n      dup2\n      mstore\n      0x20\n      add\n      dup3\n      dup1\n      sload\n      tag_139\n      swap1\n      tag_133\n      jump\t// in\n    tag_139:\n      dup1\n      iszero\n      tag_140\n      jumpi\n      dup1\n      0x1f\n      lt\n      tag_141\n      jumpi\n      0x0100\n      dup1\n      dup4\n      sload\n      div\n      mul\n      dup4\n      mstore\n      swap2\n      0x20\n      add\n      swap2\n      jump(tag_140)\n    tag_141:\n      dup3\n      add\n      swap2\n      swap1\n      0x00\n      mstore\n      keccak256(0x00, 0x20)\n      swap1\n    tag_142:\n      dup2\n      sload\n      dup2\n      mstore\n      swap1\n      0x01\n      add\n      swap1\n      0x20\n      add\n      dup1\n      dup4\n      gt\n      tag_142\n      jumpi\n      dup3\n      swap1\n      sub\n      0x1f\n      and\n      dup3\n      add\n      swap2\n    tag_140:\n      pop\n      pop\n      pop\n      pop\n      pop\n      swap1\n      dup1\n      0x04\n      add\n      dup1\n      sload\n      tag_143\n      swap1\n      tag_133\n      jump\t// in\n    tag_143:\n      dup1\n      0x1f\n      add\n      0x20\n      dup1\n      swap2\n      div\n      mul\n      0x20\n      add\n      mload(0x40)\n      swap1\n      dup2\n      add\n      0x40\n      mstore\n      dup1\n      swap3\n      swap2\n      swap1\n      dup2\n      dup2\n      mstore\n      0x20\n      add\n      dup3\n      dup1\n      sload\n      tag_144\n      swap1\n      tag_133\n      jump\t// in\n    tag_144:\n      dup1\n      iszero\n      tag_145\n      jumpi\n      dup1\n      0x1f\n      lt\n      tag_146\n      jumpi\n      0x0100\n      dup1\n      dup4\n      sload\n      div\n      mul\n      dup4\n      mstore\n      swap2\n      0x20\n      add\n      swap2\n      jump(tag_145)\n    tag_146:\n      dup3\n      add\n      swap2\n      swap1\n      0x00\n      mstore\n      keccak256(0x00, 0x20)\n      swap1\n    tag_147:\n      dup2\n      sload\n      dup2\n      mstore\n      swap1\n      0x01\n      add\n      swap1\n      0x20\n      add\n      dup1\n      dup4\n      gt\n      tag_147\n      jumpi\n      dup3\n      swap1\n      sub\n      0x1f\n      and\n      dup3\n      add\n      swap2\n    tag_145:\n      pop\n      pop\n      pop\n      pop\n      pop\n      swap1\n      dup1\n      0x05\n      add\n      sload\n      swap1\n      dup1\n      0x06\n      add\n      sload\n      swap1\n      dup1\n      0x07\n      add\n      0x00\n      swap1\n      sload\n      swap1\n      0x0100\n      exp\n      swap1\n      div\n      0xff\n      and\n      swap1\n      pop\n      dup9\n      jump\t// out\n        /* \"Users/ben/Documents/GitHub/gen-bridge/contracts/Bridge.sol\":1378:1521  function changeManager(address newManager) public isManager {... */\n    tag_58:\n        /* \"Users/ben/Documents/GitHub/gen-bridge/contracts/Bridge.sol\":1317:1324  manager */\n      0x01\n      0x00\n      swap1\n      sload\n      swap1\n      0x0100\n      exp\n      swap1\n      div\n      0xffffffffffffffffffffffffffffffffffffffff\n      and\n        /* \"Users/ben/Documents/GitHub/gen-bridge/contracts/Bridge.sol\":1303:1324  msg.sender == manager */\n      0xffffffffffffffffffffffffffffffffffffffff\n      and\n        /* \"Users/ben/Documents/GitHub/gen-bridge/contracts/Bridge.sol\":1303:1313  msg.sender */\n      caller\n        /* \"Users/ben/Documents/GitHub/gen-bridge/contracts/Bridge.sol\":1303:1324  msg.sender == manager */\n      0xffffffffffffffffffffffffffffffffffffffff\n      and\n      eq\n        /* \"Users/ben/Documents/GitHub/gen-bridge/contracts/Bridge.sol\":1295:1350  require(msg.sender == manager, \"Caller is not manager\") */\n      tag_149\n      jumpi\n      mload(0x40)\n      0x08c379a000000000000000000000000000000000000000000000000000000000\n      dup2\n      mstore\n      0x04\n      add\n      tag_150\n      swap1\n      tag_106\n      jump\t// in\n    tag_150:\n      mload(0x40)\n      dup1\n      swap2\n      sub\n      swap1\n      revert\n    tag_149:\n        /* \"Users/ben/Documents/GitHub/gen-bridge/contracts/Bridge.sol\":1473:1483  newManager */\n      dup1\n        /* \"Users/ben/Documents/GitHub/gen-bridge/contracts/Bridge.sol\":1453:1484  ManagerSet(manager, newManager) */\n      0xffffffffffffffffffffffffffffffffffffffff\n      and\n        /* \"Users/ben/Documents/GitHub/gen-bridge/contracts/Bridge.sol\":1464:1471  manager */\n      0x01\n      0x00\n      swap1\n      sload\n      swap1\n      0x0100\n      exp\n      swap1\n      div\n      0xffffffffffffffffffffffffffffffffffffffff\n      and\n        /* \"Users/ben/Documents/GitHub/gen-bridge/contracts/Bridge.sol\":1453:1484  ManagerSet(manager, newManager) */\n      0xffffffffffffffffffffffffffffffffffffffff\n      and\n      0xc64707e618a83637fc41ad1e3aa4242bd5fdd353f3d60bc0faf40db0d7d86078\n      mload(0x40)\n      mload(0x40)\n      dup1\n      swap2\n      sub\n      swap1\n      log3\n        /* \"Users/ben/Documents/GitHub/gen-bridge/contracts/Bridge.sol\":1504:1514  newManager */\n      dup1\n        /* \"Users/ben/Documents/GitHub/gen-bridge/contracts/Bridge.sol\":1494:1501  manager */\n      0x01\n      0x00\n        /* \"Users/ben/Documents/GitHub/gen-bridge/contracts/Bridge.sol\":1494:1514  manager = newManager */\n      0x0100\n      exp\n      dup2\n      sload\n      dup2\n      0xffffffffffffffffffffffffffffffffffffffff\n      mul\n      not\n      and\n      swap1\n      dup4\n      0xffffffffffffffffffffffffffffffffffffffff\n      and\n      mul\n      or\n      swap1\n      sstore\n      pop\n        /* \"Users/ben/Documents/GitHub/gen-bridge/contracts/Bridge.sol\":1378:1521  function changeManager(address newManager) public isManager {... */\n      pop\n      jump\t// out\n        /* \"Users/ben/Documents/GitHub/gen-bridge/contracts/Bridge.sol\":3837:3884  mapping(bytes32 => bool) public completedKeyMap */\n    tag_61:\n      mstore(0x20, 0x06)\n      dup1\n      0x00\n      mstore\n      keccak256(0x00, 0x40)\n      0x00\n      swap2\n      pop\n      sload\n      swap1\n      0x0100\n      exp\n      swap1\n      div\n      0xff\n      and\n      dup2\n      jump\t// out\n        /* \"Users/ben/Documents/GitHub/gen-bridge/contracts/Bridge.sol\":494:673  function compareStrings(string memory a, string memory b) public view returns (bool) {... */\n    tag_66:\n        /* \"Users/ben/Documents/GitHub/gen-bridge/contracts/Bridge.sol\":573:577  bool */\n      0x00\n        /* \"Users/ben/Documents/GitHub/gen-bridge/contracts/Bridge.sol\":661:662  b */\n      dup2\n        /* \"Users/ben/Documents/GitHub/gen-bridge/contracts/Bridge.sol\":643:664  abi.encodePacked((b)) */\n      add(0x20, mload(0x40))\n      tag_153\n      swap2\n      swap1\n      tag_154\n      jump\t// in\n    tag_153:\n      mload(0x40)\n      0x20\n      dup2\n      dup4\n      sub\n      sub\n      dup2\n      mstore\n      swap1\n      0x40\n      mstore\n        /* \"Users/ben/Documents/GitHub/gen-bridge/contracts/Bridge.sol\":633:665  keccak256(abi.encodePacked((b))) */\n      dup1\n      mload\n      swap1\n      0x20\n      add\n      keccak256\n        /* \"Users/ben/Documents/GitHub/gen-bridge/contracts/Bridge.sol\":625:626  a */\n      dup4\n        /* \"Users/ben/Documents/GitHub/gen-bridge/contracts/Bridge.sol\":607:628  abi.encodePacked((a)) */\n      add(0x20, mload(0x40))\n      tag_155\n      swap2\n      swap1\n      tag_154\n      jump\t// in\n    tag_155:\n      mload(0x40)\n      0x20\n      dup2\n      dup4\n      sub\n      sub\n      dup2\n      mstore\n      swap1\n      0x40\n      mstore\n        /* \"Users/ben/Documents/GitHub/gen-bridge/contracts/Bridge.sol\":597:629  keccak256(abi.encodePacked((a))) */\n      dup1\n      mload\n      swap1\n      0x20\n      add\n      keccak256\n        /* \"Users/ben/Documents/GitHub/gen-bridge/contracts/Bridge.sol\":597:665  keccak256(abi.encodePacked((a))) == keccak256(abi.encodePacked((b))) */\n      eq\n        /* \"Users/ben/Documents/GitHub/gen-bridge/contracts/Bridge.sol\":589:666  return (keccak256(abi.encodePacked((a))) == keccak256(abi.encodePacked((b)))) */\n      swap1\n      pop\n        /* \"Users/ben/Documents/GitHub/gen-bridge/contracts/Bridge.sol\":494:673  function compareStrings(string memory a, string memory b) public view returns (bool) {... */\n      swap3\n      swap2\n      pop\n      pop\n      jump\t// out\n        /* \"Users/ben/Documents/GitHub/gen-bridge/contracts/Bridge.sol\":3925:4752  function createReport(... */\n    tag_71:\n        /* \"Users/ben/Documents/GitHub/gen-bridge/contracts/Bridge.sol\":4196:4209  gateKeeperMap */\n      0x02\n        /* \"Users/ben/Documents/GitHub/gen-bridge/contracts/Bridge.sol\":4196:4221  gateKeeperMap[msg.sender] */\n      0x00\n        /* \"Users/ben/Documents/GitHub/gen-bridge/contracts/Bridge.sol\":4210:4220  msg.sender */\n      caller\n        /* \"Users/ben/Documents/GitHub/gen-bridge/contracts/Bridge.sol\":4196:4221  gateKeeperMap[msg.sender] */\n      0xffffffffffffffffffffffffffffffffffffffff\n      and\n      0xffffffffffffffffffffffffffffffffffffffff\n      and\n      dup2\n      mstore\n      0x20\n      add\n      swap1\n      dup2\n      mstore\n      0x20\n      add\n      0x00\n      keccak256\n        /* \"Users/ben/Documents/GitHub/gen-bridge/contracts/Bridge.sol\":4196:4227  gateKeeperMap[msg.sender].valid */\n      0x07\n      add\n      0x00\n      swap1\n      sload\n      swap1\n      0x0100\n      exp\n      swap1\n      div\n      0xff\n      and\n        /* \"Users/ben/Documents/GitHub/gen-bridge/contracts/Bridge.sol\":4188:4257  require(gateKeeperMap[msg.sender].valid, \"The Gate Keeper Not found\") */\n      tag_157\n      jumpi\n      mload(0x40)\n      0x08c379a000000000000000000000000000000000000000000000000000000000\n      dup2\n      mstore\n      0x04\n      add\n      tag_158\n      swap1\n      tag_96\n      jump\t// in\n    tag_158:\n      mload(0x40)\n      dup1\n      swap2\n      sub\n      swap1\n      revert\n    tag_157:\n        /* \"Users/ben/Documents/GitHub/gen-bridge/contracts/Bridge.sol\":4278:4290  reportKeyMap */\n      0x04\n        /* \"Users/ben/Documents/GitHub/gen-bridge/contracts/Bridge.sol\":4278:4299  reportKeyMap[_txhash] */\n      0x00\n        /* \"Users/ben/Documents/GitHub/gen-bridge/contracts/Bridge.sol\":4291:4298  _txhash */\n      dup9\n        /* \"Users/ben/Documents/GitHub/gen-bridge/contracts/Bridge.sol\":4278:4299  reportKeyMap[_txhash] */\n      dup2\n      mstore\n      0x20\n      add\n      swap1\n      dup2\n      mstore\n      0x20\n      add\n      0x00\n      keccak256\n        /* \"Users/ben/Documents/GitHub/gen-bridge/contracts/Bridge.sol\":4277:4312  (reportKeyMap[_txhash])[msg.sender] */\n      0x00\n        /* \"Users/ben/Documents/GitHub/gen-bridge/contracts/Bridge.sol\":4301:4311  msg.sender */\n      caller\n        /* \"Users/ben/Documents/GitHub/gen-bridge/contracts/Bridge.sol\":4277:4312  (reportKeyMap[_txhash])[msg.sender] */\n      0xffffffffffffffffffffffffffffffffffffffff\n      and\n      0xffffffffffffffffffffffffffffffffffffffff\n      and\n      dup2\n      mstore\n      0x20\n      add\n      swap1\n      dup2\n      mstore\n      0x20\n      add\n      0x00\n      keccak256\n      0x00\n      swap1\n      sload\n      swap1\n      0x0100\n      exp\n      swap1\n      div\n      0xff\n      and\n        /* \"Users/ben/Documents/GitHub/gen-bridge/contracts/Bridge.sol\":4276:4312  !(reportKeyMap[_txhash])[msg.sender] */\n      iszero\n        /* \"Users/ben/Documents/GitHub/gen-bridge/contracts/Bridge.sol\":4268:4366  require(!(reportKeyMap[_txhash])[msg.sender], \"Only one time call is allowed by each Gate Keeper\") */\n      tag_159\n      jumpi\n      mload(0x40)\n      0x08c379a000000000000000000000000000000000000000000000000000000000\n      dup2\n      mstore\n      0x04\n      add\n      tag_160\n      swap1\n      tag_161\n      jump\t// in\n    tag_160:\n      mload(0x40)\n      dup1\n      swap2\n      sub\n      swap1\n      revert\n    tag_159:\n        /* \"Users/ben/Documents/GitHub/gen-bridge/contracts/Bridge.sol\":4414:4418  true */\n      0x01\n        /* \"Users/ben/Documents/GitHub/gen-bridge/contracts/Bridge.sol\":4377:4389  reportKeyMap */\n      0x04\n        /* \"Users/ben/Documents/GitHub/gen-bridge/contracts/Bridge.sol\":4377:4398  reportKeyMap[_txhash] */\n      0x00\n        /* \"Users/ben/Documents/GitHub/gen-bridge/contracts/Bridge.sol\":4390:4397  _txhash */\n      dup10\n        /* \"Users/ben/Documents/GitHub/gen-bridge/contracts/Bridge.sol\":4377:4398  reportKeyMap[_txhash] */\n      dup2\n      mstore\n      0x20\n      add\n      swap1\n      dup2\n      mstore\n      0x20\n      add\n      0x00\n      keccak256\n        /* \"Users/ben/Documents/GitHub/gen-bridge/contracts/Bridge.sol\":4376:4411  (reportKeyMap[_txhash])[msg.sender] */\n      0x00\n        /* \"Users/ben/Documents/GitHub/gen-bridge/contracts/Bridge.sol\":4400:4410  msg.sender */\n      caller\n        /* \"Users/ben/Documents/GitHub/gen-bridge/contracts/Bridge.sol\":4376:4411  (reportKeyMap[_txhash])[msg.sender] */\n      0xffffffffffffffffffffffffffffffffffffffff\n      and\n      0xffffffffffffffffffffffffffffffffffffffff\n      and\n      dup2\n      mstore\n      0x20\n      add\n      swap1\n      dup2\n      mstore\n      0x20\n      add\n      0x00\n      keccak256\n      0x00\n        /* \"Users/ben/Documents/GitHub/gen-bridge/contracts/Bridge.sol\":4376:4418  (reportKeyMap[_txhash])[msg.sender] = true */\n      0x0100\n      exp\n      dup2\n      sload\n      dup2\n      0xff\n      mul\n      not\n      and\n      swap1\n      dup4\n      iszero\n      iszero\n      mul\n      or\n      swap1\n      sstore\n      pop\n        /* \"Users/ben/Documents/GitHub/gen-bridge/contracts/Bridge.sol\":4429:4443  reportedTxhash */\n      0x05\n        /* \"Users/ben/Documents/GitHub/gen-bridge/contracts/Bridge.sol\":4449:4456  _txhash */\n      dup8\n        /* \"Users/ben/Documents/GitHub/gen-bridge/contracts/Bridge.sol\":4429:4457  reportedTxhash.push(_txhash) */\n      swap1\n      dup1\n      0x01\n      dup2\n      sload\n      add\n      dup1\n      dup3\n      sstore\n      dup1\n      swap2\n      pop\n      pop\n      0x01\n      swap1\n      sub\n      swap1\n      0x00\n      mstore\n      keccak256(0x00, 0x20)\n      add\n      0x00\n      swap1\n      swap2\n      swap1\n      swap2\n      swap1\n      swap2\n      pop\n      sstore\n        /* \"Users/ben/Documents/GitHub/gen-bridge/contracts/Bridge.sol\":4468:4477  reportMap */\n      0x03\n        /* \"Users/ben/Documents/GitHub/gen-bridge/contracts/Bridge.sol\":4468:4486  reportMap[_txhash] */\n      0x00\n        /* \"Users/ben/Documents/GitHub/gen-bridge/contracts/Bridge.sol\":4478:4485  _txhash */\n      dup9\n        /* \"Users/ben/Documents/GitHub/gen-bridge/contracts/Bridge.sol\":4468:4486  reportMap[_txhash] */\n      dup2\n      mstore\n      0x20\n      add\n      swap1\n      dup2\n      mstore\n      0x20\n      add\n      0x00\n      keccak256\n        /* \"Users/ben/Documents/GitHub/gen-bridge/contracts/Bridge.sol\":4505:4735  Report (... */\n      mload(0x40)\n      dup1\n      0xe0\n      add\n      0x40\n      mstore\n      dup1\n        /* \"Users/ben/Documents/GitHub/gen-bridge/contracts/Bridge.sol\":4530:4540  msg.sender */\n      caller\n        /* \"Users/ben/Documents/GitHub/gen-bridge/contracts/Bridge.sol\":4505:4735  Report (... */\n      0xffffffffffffffffffffffffffffffffffffffff\n      and\n      dup2\n      mstore\n      0x20\n      add\n        /* \"Users/ben/Documents/GitHub/gen-bridge/contracts/Bridge.sol\":4558:4570  _userAddress */\n      dup9\n        /* \"Users/ben/Documents/GitHub/gen-bridge/contracts/Bridge.sol\":4505:4735  Report (... */\n      0xffffffffffffffffffffffffffffffffffffffff\n      and\n      dup2\n      mstore\n      0x20\n      add\n        /* \"Users/ben/Documents/GitHub/gen-bridge/contracts/Bridge.sol\":4588:4599  _lockAmount */\n      dup8\n        /* \"Users/ben/Documents/GitHub/gen-bridge/contracts/Bridge.sol\":4505:4735  Report (... */\n      dup2\n      mstore\n      0x20\n      add\n        /* \"Users/ben/Documents/GitHub/gen-bridge/contracts/Bridge.sol\":4617:4627  _fromChain */\n      dup7\n        /* \"Users/ben/Documents/GitHub/gen-bridge/contracts/Bridge.sol\":4505:4735  Report (... */\n      dup2\n      mstore\n      0x20\n      add\n        /* \"Users/ben/Documents/GitHub/gen-bridge/contracts/Bridge.sol\":4645:4662  _fromTokenAddress */\n      dup6\n        /* \"Users/ben/Documents/GitHub/gen-bridge/contracts/Bridge.sol\":4505:4735  Report (... */\n      0xffffffffffffffffffffffffffffffffffffffff\n      and\n      dup2\n      mstore\n      0x20\n      add\n        /* \"Users/ben/Documents/GitHub/gen-bridge/contracts/Bridge.sol\":4680:4688  _toChain */\n      dup5\n        /* \"Users/ben/Documents/GitHub/gen-bridge/contracts/Bridge.sol\":4505:4735  Report (... */\n      dup2\n      mstore\n      0x20\n      add\n        /* \"Users/ben/Documents/GitHub/gen-bridge/contracts/Bridge.sol\":4706:4721  _toTokenAddress */\n      dup4\n        /* \"Users/ben/Documents/GitHub/gen-bridge/contracts/Bridge.sol\":4505:4735  Report (... */\n      0xffffffffffffffffffffffffffffffffffffffff\n      and\n      dup2\n      mstore\n      pop\n        /* \"Users/ben/Documents/GitHub/gen-bridge/contracts/Bridge.sol\":4468:4745  reportMap[_txhash].push(... */\n      swap1\n      dup1\n      0x01\n      dup2\n      sload\n      add\n      dup1\n      dup3\n      sstore\n      dup1\n      swap2\n      pop\n      pop\n      0x01\n      swap1\n      sub\n      swap1\n      0x00\n      mstore\n      keccak256(0x00, 0x20)\n      swap1\n      0x07\n      mul\n      add\n      0x00\n      swap1\n      swap2\n      swap1\n      swap2\n      swap1\n      swap2\n      pop\n      0x00\n      dup3\n      add\n      mload\n      dup2\n      0x00\n      add\n      exp(0x0100, 0x00)\n      dup2\n      sload\n      dup2\n      0xffffffffffffffffffffffffffffffffffffffff\n      mul\n      not\n      and\n      swap1\n      dup4\n      0xffffffffffffffffffffffffffffffffffffffff\n      and\n      mul\n      or\n      swap1\n      sstore\n      pop\n      0x20\n      dup3\n      add\n      mload\n      dup2\n      0x01\n      add\n      exp(0x0100, 0x00)\n      dup2\n      sload\n      dup2\n      0xffffffffffffffffffffffffffffffffffffffff\n      mul\n      not\n      and\n      swap1\n      dup4\n      0xffffffffffffffffffffffffffffffffffffffff\n      and\n      mul\n      or\n      swap1\n      sstore\n      pop\n      0x40\n      dup3\n      add\n      mload\n      dup2\n      0x02\n      add\n      sstore\n      0x60\n      dup3\n      add\n      mload\n      dup2\n      0x03\n      add\n      swap1\n      dup2\n      tag_164\n      swap2\n      swap1\n      tag_165\n      jump\t// in\n    tag_164:\n      pop\n      0x80\n      dup3\n      add\n      mload\n      dup2\n      0x04\n      add\n      exp(0x0100, 0x00)\n      dup2\n      sload\n      dup2\n      0xffffffffffffffffffffffffffffffffffffffff\n      mul\n      not\n      and\n      swap1\n      dup4\n      0xffffffffffffffffffffffffffffffffffffffff\n      and\n      mul\n      or\n      swap1\n      sstore\n      pop\n      0xa0\n      dup3\n      add\n      mload\n      dup2\n      0x05\n      add\n      swap1\n      dup2\n      tag_166\n      swap2\n      swap1\n      tag_165\n      jump\t// in\n    tag_166:\n      pop\n      0xc0\n      dup3\n      add\n      mload\n      dup2\n      0x06\n      add\n      exp(0x0100, 0x00)\n      dup2\n      sload\n      dup2\n      0xffffffffffffffffffffffffffffffffffffffff\n      mul\n      not\n      and\n      swap1\n      dup4\n      0xffffffffffffffffffffffffffffffffffffffff\n      and\n      mul\n      or\n      swap1\n      sstore\n      pop\n      pop\n      pop\n        /* \"Users/ben/Documents/GitHub/gen-bridge/contracts/Bridge.sol\":3925:4752  function createReport(... */\n      pop\n      pop\n      pop\n      pop\n      pop\n      pop\n      pop\n      jump\t// out\n        /* \"Users/ben/Documents/GitHub/gen-bridge/contracts/Bridge.sol\":2552:3140  function updateGateKeeper(... */\n    tag_75:\n        /* \"Users/ben/Documents/GitHub/gen-bridge/contracts/Bridge.sol\":2807:2820  gateKeeperMap */\n      0x02\n        /* \"Users/ben/Documents/GitHub/gen-bridge/contracts/Bridge.sol\":2807:2832  gateKeeperMap[msg.sender] */\n      0x00\n        /* \"Users/ben/Documents/GitHub/gen-bridge/contracts/Bridge.sol\":2821:2831  msg.sender */\n      caller\n        /* \"Users/ben/Documents/GitHub/gen-bridge/contracts/Bridge.sol\":2807:2832  gateKeeperMap[msg.sender] */\n      0xffffffffffffffffffffffffffffffffffffffff\n      and\n      0xffffffffffffffffffffffffffffffffffffffff\n      and\n      dup2\n      mstore\n      0x20\n      add\n      swap1\n      dup2\n      mstore\n      0x20\n      add\n      0x00\n      keccak256\n        /* \"Users/ben/Documents/GitHub/gen-bridge/contracts/Bridge.sol\":2807:2838  gateKeeperMap[msg.sender].valid */\n      0x07\n      add\n      0x00\n      swap1\n      sload\n      swap1\n      0x0100\n      exp\n      swap1\n      div\n      0xff\n      and\n        /* \"Users/ben/Documents/GitHub/gen-bridge/contracts/Bridge.sol\":2799:2868  require(gateKeeperMap[msg.sender].valid, \"The Gate Keeper Not found\") */\n      tag_168\n      jumpi\n      mload(0x40)\n      0x08c379a000000000000000000000000000000000000000000000000000000000\n      dup2\n      mstore\n      0x04\n      add\n      tag_169\n      swap1\n      tag_96\n      jump\t// in\n    tag_169:\n      mload(0x40)\n      dup1\n      swap2\n      sub\n      swap1\n      revert\n    tag_168:\n        /* \"Users/ben/Documents/GitHub/gen-bridge/contracts/Bridge.sol\":2915:3133  GateKeeper(... */\n      mload(0x40)\n      dup1\n      0x0100\n      add\n      0x40\n      mstore\n      dup1\n        /* \"Users/ben/Documents/GitHub/gen-bridge/contracts/Bridge.sol\":2939:2949  msg.sender */\n      caller\n        /* \"Users/ben/Documents/GitHub/gen-bridge/contracts/Bridge.sol\":2915:3133  GateKeeper(... */\n      0xffffffffffffffffffffffffffffffffffffffff\n      and\n      dup2\n      mstore\n      0x20\n      add\n        /* \"Users/ben/Documents/GitHub/gen-bridge/contracts/Bridge.sol\":2963:2977  _rewardAddress */\n      dup8\n        /* \"Users/ben/Documents/GitHub/gen-bridge/contracts/Bridge.sol\":2915:3133  GateKeeper(... */\n      0xffffffffffffffffffffffffffffffffffffffff\n      and\n      dup2\n      mstore\n      0x20\n      add\n        /* \"Users/ben/Documents/GitHub/gen-bridge/contracts/Bridge.sol\":2991:2996  _name */\n      dup7\n        /* \"Users/ben/Documents/GitHub/gen-bridge/contracts/Bridge.sol\":2915:3133  GateKeeper(... */\n      dup2\n      mstore\n      0x20\n      add\n        /* \"Users/ben/Documents/GitHub/gen-bridge/contracts/Bridge.sol\":3010:3018  _website */\n      dup6\n        /* \"Users/ben/Documents/GitHub/gen-bridge/contracts/Bridge.sol\":2915:3133  GateKeeper(... */\n      dup2\n      mstore\n      0x20\n      add\n        /* \"Users/ben/Documents/GitHub/gen-bridge/contracts/Bridge.sol\":3032:3044  _description */\n      dup5\n        /* \"Users/ben/Documents/GitHub/gen-bridge/contracts/Bridge.sol\":2915:3133  GateKeeper(... */\n      dup2\n      mstore\n      0x20\n      add\n        /* \"Users/ben/Documents/GitHub/gen-bridge/contracts/Bridge.sol\":3058:3073  _commissionRate */\n      dup4\n        /* \"Users/ben/Documents/GitHub/gen-bridge/contracts/Bridge.sol\":2915:3133  GateKeeper(... */\n      dup2\n      mstore\n      0x20\n      add\n        /* \"Users/ben/Documents/GitHub/gen-bridge/contracts/Bridge.sol\":3087:3105  _maximumCommission */\n      dup3\n        /* \"Users/ben/Documents/GitHub/gen-bridge/contracts/Bridge.sol\":2915:3133  GateKeeper(... */\n      dup2\n      mstore\n      0x20\n      add\n        /* \"Users/ben/Documents/GitHub/gen-bridge/contracts/Bridge.sol\":3119:3123  true */\n      0x01\n        /* \"Users/ben/Documents/GitHub/gen-bridge/contracts/Bridge.sol\":2915:3133  GateKeeper(... */\n      iszero\n      iszero\n      dup2\n      mstore\n      pop\n        /* \"Users/ben/Documents/GitHub/gen-bridge/contracts/Bridge.sol\":2887:2900  gateKeeperMap */\n      0x02\n        /* \"Users/ben/Documents/GitHub/gen-bridge/contracts/Bridge.sol\":2887:2912  gateKeeperMap[msg.sender] */\n      0x00\n        /* \"Users/ben/Documents/GitHub/gen-bridge/contracts/Bridge.sol\":2901:2911  msg.sender */\n      caller\n        /* \"Users/ben/Documents/GitHub/gen-bridge/contracts/Bridge.sol\":2887:2912  gateKeeperMap[msg.sender] */\n      0xffffffffffffffffffffffffffffffffffffffff\n      and\n      0xffffffffffffffffffffffffffffffffffffffff\n      and\n      dup2\n      mstore\n      0x20\n      add\n      swap1\n      dup2\n      mstore\n      0x20\n      add\n      0x00\n      keccak256\n        /* \"Users/ben/Documents/GitHub/gen-bridge/contracts/Bridge.sol\":2887:3133  gateKeeperMap[msg.sender] = GateKeeper(... */\n      0x00\n      dup3\n      add\n      mload\n      dup2\n      0x00\n      add\n      exp(0x0100, 0x00)\n      dup2\n      sload\n      dup2\n      0xffffffffffffffffffffffffffffffffffffffff\n      mul\n      not\n      and\n      swap1\n      dup4\n      0xffffffffffffffffffffffffffffffffffffffff\n      and\n      mul\n      or\n      swap1\n      sstore\n      pop\n      0x20\n      dup3\n      add\n      mload\n      dup2\n      0x01\n      add\n      exp(0x0100, 0x00)\n      dup2\n      sload\n      dup2\n      0xffffffffffffffffffffffffffffffffffffffff\n      mul\n      not\n      and\n      swap1\n      dup4\n      0xffffffffffffffffffffffffffffffffffffffff\n      and\n      mul\n      or\n      swap1\n      sstore\n      pop\n      0x40\n      dup3\n      add\n      mload\n      dup2\n      0x02\n      add\n      swap1\n      dup2\n      tag_170\n      swap2\n      swap1\n      tag_165\n      jump\t// in\n    tag_170:\n      pop\n      0x60\n      dup3\n      add\n      mload\n      dup2\n      0x03\n      add\n      swap1\n      dup2\n      tag_171\n      swap2\n      swap1\n      tag_165\n      jump\t// in\n    tag_171:\n      pop\n      0x80\n      dup3\n      add\n      mload\n      dup2\n      0x04\n      add\n      swap1\n      dup2\n      tag_172\n      swap2\n      swap1\n      tag_165\n      jump\t// in\n    tag_172:\n      pop\n      0xa0\n      dup3\n      add\n      mload\n      dup2\n      0x05\n      add\n      sstore\n      0xc0\n      dup3\n      add\n      mload\n      dup2\n      0x06\n      add\n      sstore\n      0xe0\n      dup3\n      add\n      mload\n      dup2\n      0x07\n      add\n      exp(0x0100, 0x00)\n      dup2\n      sload\n      dup2\n      0xff\n      mul\n      not\n      and\n      swap1\n      dup4\n      iszero\n      iszero\n      mul\n      or\n      swap1\n      sstore\n      pop\n      swap1\n      pop\n      pop\n        /* \"Users/ben/Documents/GitHub/gen-bridge/contracts/Bridge.sol\":2552:3140  function updateGateKeeper(... */\n      pop\n      pop\n      pop\n      pop\n      pop\n      pop\n      jump\t// out\n        /* \"Users/ben/Documents/GitHub/gen-bridge/contracts/Bridge.sol\":1926:2546  function createGateKeeper(... */\n    tag_78:\n        /* \"Users/ben/Documents/GitHub/gen-bridge/contracts/Bridge.sol\":2224:2237  gateKeeperMap */\n      0x02\n        /* \"Users/ben/Documents/GitHub/gen-bridge/contracts/Bridge.sol\":2224:2249  gateKeeperMap[msg.sender] */\n      0x00\n        /* \"Users/ben/Documents/GitHub/gen-bridge/contracts/Bridge.sol\":2238:2248  msg.sender */\n      caller\n        /* \"Users/ben/Documents/GitHub/gen-bridge/contracts/Bridge.sol\":2224:2249  gateKeeperMap[msg.sender] */\n      0xffffffffffffffffffffffffffffffffffffffff\n      and\n      0xffffffffffffffffffffffffffffffffffffffff\n      and\n      dup2\n      mstore\n      0x20\n      add\n      swap1\n      dup2\n      mstore\n      0x20\n      add\n      0x00\n      keccak256\n        /* \"Users/ben/Documents/GitHub/gen-bridge/contracts/Bridge.sol\":2224:2255  gateKeeperMap[msg.sender].valid */\n      0x07\n      add\n      0x00\n      swap1\n      sload\n      swap1\n      0x0100\n      exp\n      swap1\n      div\n      0xff\n      and\n        /* \"Users/ben/Documents/GitHub/gen-bridge/contracts/Bridge.sol\":2223:2255  !gateKeeperMap[msg.sender].valid */\n      iszero\n        /* \"Users/ben/Documents/GitHub/gen-bridge/contracts/Bridge.sol\":2215:2274  require(!gateKeeperMap[msg.sender].valid, \"Already exists\") */\n      tag_174\n      jumpi\n      mload(0x40)\n      0x08c379a000000000000000000000000000000000000000000000000000000000\n      dup2\n      mstore\n      0x04\n      add\n      tag_175\n      swap1\n      tag_176\n      jump\t// in\n    tag_175:\n      mload(0x40)\n      dup1\n      swap2\n      sub\n      swap1\n      revert\n    tag_174:\n        /* \"Users/ben/Documents/GitHub/gen-bridge/contracts/Bridge.sol\":2321:2539  GateKeeper(... */\n      mload(0x40)\n      dup1\n      0x0100\n      add\n      0x40\n      mstore\n      dup1\n        /* \"Users/ben/Documents/GitHub/gen-bridge/contracts/Bridge.sol\":2345:2355  msg.sender */\n      caller\n        /* \"Users/ben/Documents/GitHub/gen-bridge/contracts/Bridge.sol\":2321:2539  GateKeeper(... */\n      0xffffffffffffffffffffffffffffffffffffffff\n      and\n      dup2\n      mstore\n      0x20\n      add\n        /* \"Users/ben/Documents/GitHub/gen-bridge/contracts/Bridge.sol\":2369:2383  _rewardAddress */\n      dup8\n        /* \"Users/ben/Documents/GitHub/gen-bridge/contracts/Bridge.sol\":2321:2539  GateKeeper(... */\n      0xffffffffffffffffffffffffffffffffffffffff\n      and\n      dup2\n      mstore\n      0x20\n      add\n        /* \"Users/ben/Documents/GitHub/gen-bridge/contracts/Bridge.sol\":2397:2402  _name */\n      dup7\n        /* \"Users/ben/Documents/GitHub/gen-bridge/contracts/Bridge.sol\":2321:2539  GateKeeper(... */\n      dup2\n      mstore\n      0x20\n      add\n        /* \"Users/ben/Documents/GitHub/gen-bridge/contracts/Bridge.sol\":2416:2424  _website */\n      dup6\n        /* \"Users/ben/Documents/GitHub/gen-bridge/contracts/Bridge.sol\":2321:2539  GateKeeper(... */\n      dup2\n      mstore\n      0x20\n      add\n        /* \"Users/ben/Documents/GitHub/gen-bridge/contracts/Bridge.sol\":2438:2450  _description */\n      dup5\n        /* \"Users/ben/Documents/GitHub/gen-bridge/contracts/Bridge.sol\":2321:2539  GateKeeper(... */\n      dup2\n      mstore\n      0x20\n      add\n        /* \"Users/ben/Documents/GitHub/gen-bridge/contracts/Bridge.sol\":2464:2479  _commissionRate */\n      dup4\n        /* \"Users/ben/Documents/GitHub/gen-bridge/contracts/Bridge.sol\":2321:2539  GateKeeper(... */\n      dup2\n      mstore\n      0x20\n      add\n        /* \"Users/ben/Documents/GitHub/gen-bridge/contracts/Bridge.sol\":2493:2511  _maximumCommission */\n      dup3\n        /* \"Users/ben/Documents/GitHub/gen-bridge/contracts/Bridge.sol\":2321:2539  GateKeeper(... */\n      dup2\n      mstore\n      0x20\n      add\n        /* \"Users/ben/Documents/GitHub/gen-bridge/contracts/Bridge.sol\":2525:2529  true */\n      0x01\n        /* \"Users/ben/Documents/GitHub/gen-bridge/contracts/Bridge.sol\":2321:2539  GateKeeper(... */\n      iszero\n      iszero\n      dup2\n      mstore\n      pop\n        /* \"Users/ben/Documents/GitHub/gen-bridge/contracts/Bridge.sol\":2293:2306  gateKeeperMap */\n      0x02\n        /* \"Users/ben/Documents/GitHub/gen-bridge/contracts/Bridge.sol\":2293:2318  gateKeeperMap[msg.sender] */\n      0x00\n        /* \"Users/ben/Documents/GitHub/gen-bridge/contracts/Bridge.sol\":2307:2317  msg.sender */\n      caller\n        /* \"Users/ben/Documents/GitHub/gen-bridge/contracts/Bridge.sol\":2293:2318  gateKeeperMap[msg.sender] */\n      0xffffffffffffffffffffffffffffffffffffffff\n      and\n      0xffffffffffffffffffffffffffffffffffffffff\n      and\n      dup2\n      mstore\n      0x20\n      add\n      swap1\n      dup2\n      mstore\n      0x20\n      add\n      0x00\n      keccak256\n        /* \"Users/ben/Documents/GitHub/gen-bridge/contracts/Bridge.sol\":2293:2539  gateKeeperMap[msg.sender] = GateKeeper(... */\n      0x00\n      dup3\n      add\n      mload\n      dup2\n      0x00\n      add\n      exp(0x0100, 0x00)\n      dup2\n      sload\n      dup2\n      0xffffffffffffffffffffffffffffffffffffffff\n      mul\n      not\n      and\n      swap1\n      dup4\n      0xffffffffffffffffffffffffffffffffffffffff\n      and\n      mul\n      or\n      swap1\n      sstore\n      pop\n      0x20\n      dup3\n      add\n      mload\n      dup2\n      0x01\n      add\n      exp(0x0100, 0x00)\n      dup2\n      sload\n      dup2\n      0xffffffffffffffffffffffffffffffffffffffff\n      mul\n      not\n      and\n      swap1\n      dup4\n      0xffffffffffffffffffffffffffffffffffffffff\n      and\n      mul\n      or\n      swap1\n      sstore\n      pop\n      0x40\n      dup3\n      add\n      mload\n      dup2\n      0x02\n      add\n      swap1\n      dup2\n      tag_177\n      swap2\n      swap1\n      tag_165\n      jump\t// in\n    tag_177:\n      pop\n      0x60\n      dup3\n      add\n      mload\n      dup2\n      0x03\n      add\n      swap1\n      dup2\n      tag_178\n      swap2\n      swap1\n      tag_165\n      jump\t// in\n    tag_178:\n      pop\n      0x80\n      dup3\n      add\n      mload\n      dup2\n      0x04\n      add\n      swap1\n      dup2\n      tag_179\n      swap2\n      swap1\n      tag_165\n      jump\t// in\n    tag_179:\n      pop\n      0xa0\n      dup3\n      add\n      mload\n      dup2\n      0x05\n      add\n      sstore\n      0xc0\n      dup3\n      add\n      mload\n      dup2\n      0x06\n      add\n      sstore\n      0xe0\n      dup3\n      add\n      mload\n      dup2\n      0x07\n      add\n      exp(0x0100, 0x00)\n      dup2\n      sload\n      dup2\n      0xff\n      mul\n      not\n      and\n      swap1\n      dup4\n      iszero\n      iszero\n      mul\n      or\n      swap1\n      sstore\n      pop\n      swap1\n      pop\n      pop\n        /* \"Users/ben/Documents/GitHub/gen-bridge/contracts/Bridge.sol\":1926:2546  function createGateKeeper(... */\n      pop\n      pop\n      pop\n      pop\n      pop\n      pop\n      jump\t// out\n        /* \"Users/ben/Documents/GitHub/gen-bridge/contracts/Bridge.sol\":1527:1612  function getManager() external view returns (address) {... */\n    tag_80:\n        /* \"Users/ben/Documents/GitHub/gen-bridge/contracts/Bridge.sol\":1572:1579  address */\n      0x00\n        /* \"Users/ben/Documents/GitHub/gen-bridge/contracts/Bridge.sol\":1598:1605  manager */\n      0x01\n      0x00\n      swap1\n      sload\n      swap1\n      0x0100\n      exp\n      swap1\n      div\n      0xffffffffffffffffffffffffffffffffffffffff\n      and\n        /* \"Users/ben/Documents/GitHub/gen-bridge/contracts/Bridge.sol\":1591:1605  return manager */\n      swap1\n      pop\n        /* \"Users/ben/Documents/GitHub/gen-bridge/contracts/Bridge.sol\":1527:1612  function getManager() external view returns (address) {... */\n      swap1\n      jump\t// out\n        /* \"Users/ben/Documents/GitHub/gen-bridge/contracts/Bridge.sol\":3335:3380  mapping(bytes32 => Report[]) public reportMap */\n    tag_85:\n      mstore(0x20, 0x03)\n      dup2\n      0x00\n      mstore\n      keccak256(0x00, 0x40)\n      dup2\n      dup2\n      sload\n      dup2\n      lt\n      tag_181\n      jumpi\n      0x00\n      dup1\n      revert\n    tag_181:\n      swap1\n      0x00\n      mstore\n      keccak256(0x00, 0x20)\n      swap1\n      0x07\n      mul\n      add\n      0x00\n      swap2\n      pop\n      swap2\n      pop\n      pop\n      dup1\n      0x00\n      add\n      0x00\n      swap1\n      sload\n      swap1\n      0x0100\n      exp\n      swap1\n      div\n      0xffffffffffffffffffffffffffffffffffffffff\n      and\n      swap1\n      dup1\n      0x01\n      add\n      0x00\n      swap1\n      sload\n      swap1\n      0x0100\n      exp\n      swap1\n      div\n      0xffffffffffffffffffffffffffffffffffffffff\n      and\n      swap1\n      dup1\n      0x02\n      add\n      sload\n      swap1\n      dup1\n      0x03\n      add\n      dup1\n      sload\n      tag_183\n      swap1\n      tag_133\n      jump\t// in\n    tag_183:\n      dup1\n      0x1f\n      add\n      0x20\n      dup1\n      swap2\n      div\n      mul\n      0x20\n      add\n      mload(0x40)\n      swap1\n      dup2\n      add\n      0x40\n      mstore\n      dup1\n      swap3\n      swap2\n      swap1\n      dup2\n      dup2\n      mstore\n      0x20\n      add\n      dup3\n      dup1\n      sload\n      tag_184\n      swap1\n      tag_133\n      jump\t// in\n    tag_184:\n      dup1\n      iszero\n      tag_185\n      jumpi\n      dup1\n      0x1f\n      lt\n      tag_186\n      jumpi\n      0x0100\n      dup1\n      dup4\n      sload\n      div\n      mul\n      dup4\n      mstore\n      swap2\n      0x20\n      add\n      swap2\n      jump(tag_185)\n    tag_186:\n      dup3\n      add\n      swap2\n      swap1\n      0x00\n      mstore\n      keccak256(0x00, 0x20)\n      swap1\n    tag_187:\n      dup2\n      sload\n      dup2\n      mstore\n      swap1\n      0x01\n      add\n      swap1\n      0x20\n      add\n      dup1\n      dup4\n      gt\n      tag_187\n      jumpi\n      dup3\n      swap1\n      sub\n      0x1f\n      and\n      dup3\n      add\n      swap2\n    tag_185:\n      pop\n      pop\n      pop\n      pop\n      pop\n      swap1\n      dup1\n      0x04\n      add\n      0x00\n      swap1\n      sload\n      swap1\n      0x0100\n      exp\n      swap1\n      div\n      0xffffffffffffffffffffffffffffffffffffffff\n      and\n      swap1\n      dup1\n      0x05\n      add\n      dup1\n      sload\n      tag_188\n      swap1\n      tag_133\n      jump\t// in\n    tag_188:\n      dup1\n      0x1f\n      add\n      0x20\n      dup1\n      swap2\n      div\n      mul\n      0x20\n      add\n      mload(0x40)\n      swap1\n      dup2\n      add\n      0x40\n      mstore\n      dup1\n      swap3\n      swap2\n      swap1\n      dup2\n      dup2\n      mstore\n      0x20\n      add\n      dup3\n      dup1\n      sload\n      tag_189\n      swap1\n      tag_133\n      jump\t// in\n    tag_189:\n      dup1\n      iszero\n      tag_190\n      jumpi\n      dup1\n      0x1f\n      lt\n      tag_191\n      jumpi\n      0x0100\n      dup1\n      dup4\n      sload\n      div\n      mul\n      dup4\n      mstore\n      swap2\n      0x20\n      add\n      swap2\n      jump(tag_190)\n    tag_191:\n      dup3\n      add\n      swap2\n      swap1\n      0x00\n      mstore\n      keccak256(0x00, 0x20)\n      swap1\n    tag_192:\n      dup2\n      sload\n      dup2\n      mstore\n      swap1\n      0x01\n      add\n      swap1\n      0x20\n      add\n      dup1\n      dup4\n      gt\n      tag_192\n      jumpi\n      dup3\n      swap1\n      sub\n      0x1f\n      and\n      dup3\n      add\n      swap2\n    tag_190:\n      pop\n      pop\n      pop\n      pop\n      pop\n      swap1\n      dup1\n      0x06\n      add\n      0x00\n      swap1\n      sload\n      swap1\n      0x0100\n      exp\n      swap1\n      div\n      0xffffffffffffffffffffffffffffffffffffffff\n      and\n      swap1\n      pop\n      dup8\n      jump\t// out\n        /* \"Users/ben/Documents/GitHub/gen-bridge/contracts/Bridge.sol\":4758:4864  function getLatestReport() public view returns (uint256) {... */\n    tag_89:\n        /* \"Users/ben/Documents/GitHub/gen-bridge/contracts/Bridge.sol\":4806:4813  uint256 */\n      0x00\n        /* \"Users/ben/Documents/GitHub/gen-bridge/contracts/Bridge.sol\":4856:4857  1 */\n      0x01\n        /* \"Users/ben/Documents/GitHub/gen-bridge/contracts/Bridge.sol\":4832:4846  reportedTxhash */\n      0x05\n        /* \"Users/ben/Documents/GitHub/gen-bridge/contracts/Bridge.sol\":4832:4853  reportedTxhash.length */\n      dup1\n      sload\n      swap1\n      pop\n        /* \"Users/ben/Documents/GitHub/gen-bridge/contracts/Bridge.sol\":4832:4857  reportedTxhash.length - 1 */\n      tag_194\n      swap2\n      swap1\n      tag_195\n      jump\t// in\n    tag_194:\n        /* \"Users/ben/Documents/GitHub/gen-bridge/contracts/Bridge.sol\":4825:4857  return reportedTxhash.length - 1 */\n      swap1\n      pop\n        /* \"Users/ben/Documents/GitHub/gen-bridge/contracts/Bridge.sol\":4758:4864  function getLatestReport() public view returns (uint256) {... */\n      swap1\n      jump\t// out\n    tag_98:\n      pop\n      dup1\n      sload\n      tag_196\n      swap1\n      tag_133\n      jump\t// in\n    tag_196:\n      0x00\n      dup3\n      sstore\n      dup1\n      0x1f\n      lt\n      tag_198\n      jumpi\n      pop\n      jump(tag_197)\n    tag_198:\n      0x1f\n      add\n      0x20\n      swap1\n      div\n      swap1\n      0x00\n      mstore\n      keccak256(0x00, 0x20)\n      swap1\n      dup2\n      add\n      swap1\n      tag_199\n      swap2\n      swap1\n      tag_200\n      jump\t// in\n    tag_199:\n    tag_197:\n      pop\n      jump\t// out\n    tag_200:\n    tag_201:\n      dup1\n      dup3\n      gt\n      iszero\n      tag_202\n      jumpi\n      0x00\n      dup2\n      0x00\n      swap1\n      sstore\n      pop\n      0x01\n      add\n      jump(tag_201)\n    tag_202:\n      pop\n      swap1\n      jump\t// out\n        /* \"#utility.yul\":7:106   */\n    tag_203:\n        /* \"#utility.yul\":59:65   */\n      0x00\n        /* \"#utility.yul\":93:98   */\n      dup2\n        /* \"#utility.yul\":87:99   */\n      mload\n        /* \"#utility.yul\":77:99   */\n      swap1\n      pop\n        /* \"#utility.yul\":7:106   */\n      swap2\n      swap1\n      pop\n      jump\t// out\n        /* \"#utility.yul\":112:281   */\n    tag_204:\n        /* \"#utility.yul\":196:207   */\n      0x00\n        /* \"#utility.yul\":230:236   */\n      dup3\n        /* \"#utility.yul\":225:228   */\n      dup3\n        /* \"#utility.yul\":218:237   */\n      mstore\n        /* \"#utility.yul\":270:274   */\n      0x20\n        /* \"#utility.yul\":265:268   */\n      dup3\n        /* \"#utility.yul\":261:275   */\n      add\n        /* \"#utility.yul\":246:275   */\n      swap1\n      pop\n        /* \"#utility.yul\":112:281   */\n      swap3\n      swap2\n      pop\n      pop\n      jump\t// out\n        /* \"#utility.yul\":287:533   */\n    tag_205:\n        /* \"#utility.yul\":368:369   */\n      0x00\n        /* \"#utility.yul\":378:491   */\n    tag_268:\n        /* \"#utility.yul\":392:398   */\n      dup4\n        /* \"#utility.yul\":389:390   */\n      dup2\n        /* \"#utility.yul\":386:399   */\n      lt\n        /* \"#utility.yul\":378:491   */\n      iszero\n      tag_270\n      jumpi\n        /* \"#utility.yul\":477:478   */\n      dup1\n        /* \"#utility.yul\":472:475   */\n      dup3\n        /* \"#utility.yul\":468:479   */\n      add\n        /* \"#utility.yul\":462:480   */\n      mload\n        /* \"#utility.yul\":458:459   */\n      dup2\n        /* \"#utility.yul\":453:456   */\n      dup5\n        /* \"#utility.yul\":449:460   */\n      add\n        /* \"#utility.yul\":442:481   */\n      mstore\n        /* \"#utility.yul\":414:416   */\n      0x20\n        /* \"#utility.yul\":411:412   */\n      dup2\n        /* \"#utility.yul\":407:417   */\n      add\n        /* \"#utility.yul\":402:417   */\n      swap1\n      pop\n        /* \"#utility.yul\":378:491   */\n      jump(tag_268)\n    tag_270:\n        /* \"#utility.yul\":525:526   */\n      0x00\n        /* \"#utility.yul\":516:522   */\n      dup5\n        /* \"#utility.yul\":511:514   */\n      dup5\n        /* \"#utility.yul\":507:523   */\n      add\n        /* \"#utility.yul\":500:527   */\n      mstore\n        /* \"#utility.yul\":349:533   */\n      pop\n        /* \"#utility.yul\":287:533   */\n      pop\n      pop\n      pop\n      jump\t// out\n        /* \"#utility.yul\":539:641   */\n    tag_206:\n        /* \"#utility.yul\":580:586   */\n      0x00\n        /* \"#utility.yul\":631:633   */\n      0x1f\n        /* \"#utility.yul\":627:634   */\n      not\n        /* \"#utility.yul\":622:624   */\n      0x1f\n        /* \"#utility.yul\":615:620   */\n      dup4\n        /* \"#utility.yul\":611:625   */\n      add\n        /* \"#utility.yul\":607:635   */\n      and\n        /* \"#utility.yul\":597:635   */\n      swap1\n      pop\n        /* \"#utility.yul\":539:641   */\n      swap2\n      swap1\n      pop\n      jump\t// out\n        /* \"#utility.yul\":647:1024   */\n    tag_207:\n        /* \"#utility.yul\":735:738   */\n      0x00\n        /* \"#utility.yul\":763:802   */\n      tag_273\n        /* \"#utility.yul\":796:801   */\n      dup3\n        /* \"#utility.yul\":763:802   */\n      tag_203\n      jump\t// in\n    tag_273:\n        /* \"#utility.yul\":818:889   */\n      tag_274\n        /* \"#utility.yul\":882:888   */\n      dup2\n        /* \"#utility.yul\":877:880   */\n      dup6\n        /* \"#utility.yul\":818:889   */\n      tag_204\n      jump\t// in\n    tag_274:\n        /* \"#utility.yul\":811:889   */\n      swap4\n      pop\n        /* \"#utility.yul\":898:963   */\n      tag_275\n        /* \"#utility.yul\":956:962   */\n      dup2\n        /* \"#utility.yul\":951:954   */\n      dup6\n        /* \"#utility.yul\":944:948   */\n      0x20\n        /* \"#utility.yul\":937:942   */\n      dup7\n        /* \"#utility.yul\":933:949   */\n      add\n        /* \"#utility.yul\":898:963   */\n      tag_205\n      jump\t// in\n    tag_275:\n        /* \"#utility.yul\":988:1017   */\n      tag_276\n        /* \"#utility.yul\":1010:1016   */\n      dup2\n        /* \"#utility.yul\":988:1017   */\n      tag_206\n      jump\t// in\n    tag_276:\n        /* \"#utility.yul\":983:986   */\n      dup5\n        /* \"#utility.yul\":979:1018   */\n      add\n        /* \"#utility.yul\":972:1018   */\n      swap2\n      pop\n        /* \"#utility.yul\":739:1024   */\n      pop\n        /* \"#utility.yul\":647:1024   */\n      swap3\n      swap2\n      pop\n      pop\n      jump\t// out\n        /* \"#utility.yul\":1030:1343   */\n    tag_26:\n        /* \"#utility.yul\":1143:1147   */\n      0x00\n        /* \"#utility.yul\":1181:1183   */\n      0x20\n        /* \"#utility.yul\":1170:1179   */\n      dup3\n        /* \"#utility.yul\":1166:1184   */\n      add\n        /* \"#utility.yul\":1158:1184   */\n      swap1\n      pop\n        /* \"#utility.yul\":1230:1239   */\n      dup2\n        /* \"#utility.yul\":1224:1228   */\n      dup2\n        /* \"#utility.yul\":1220:1240   */\n      sub\n        /* \"#utility.yul\":1216:1217   */\n      0x00\n        /* \"#utility.yul\":1205:1214   */\n      dup4\n        /* \"#utility.yul\":1201:1218   */\n      add\n        /* \"#utility.yul\":1194:1241   */\n      mstore\n        /* \"#utility.yul\":1258:1336   */\n      tag_278\n        /* \"#utility.yul\":1331:1335   */\n      dup2\n        /* \"#utility.yul\":1322:1328   */\n      dup5\n        /* \"#utility.yul\":1258:1336   */\n      tag_207\n      jump\t// in\n    tag_278:\n        /* \"#utility.yul\":1250:1336   */\n      swap1\n      pop\n        /* \"#utility.yul\":1030:1343   */\n      swap3\n      swap2\n      pop\n      pop\n      jump\t// out\n        /* \"#utility.yul\":1349:1424   */\n    tag_208:\n        /* \"#utility.yul\":1382:1388   */\n      0x00\n        /* \"#utility.yul\":1415:1417   */\n      0x40\n        /* \"#utility.yul\":1409:1418   */\n      mload\n        /* \"#utility.yul\":1399:1418   */\n      swap1\n      pop\n        /* \"#utility.yul\":1349:1424   */\n      swap1\n      jump\t// out\n        /* \"#utility.yul\":1430:1547   */\n    tag_209:\n        /* \"#utility.yul\":1539:1540   */\n      0x00\n        /* \"#utility.yul\":1536:1537   */\n      dup1\n        /* \"#utility.yul\":1529:1541   */\n      revert\n        /* \"#utility.yul\":1553:1670   */\n    tag_210:\n        /* \"#utility.yul\":1662:1663   */\n      0x00\n        /* \"#utility.yul\":1659:1660   */\n      dup1\n        /* \"#utility.yul\":1652:1664   */\n      revert\n        /* \"#utility.yul\":1676:1753   */\n    tag_211:\n        /* \"#utility.yul\":1713:1720   */\n      0x00\n        /* \"#utility.yul\":1742:1747   */\n      dup2\n        /* \"#utility.yul\":1731:1747   */\n      swap1\n      pop\n        /* \"#utility.yul\":1676:1753   */\n      swap2\n      swap1\n      pop\n      jump\t// out\n        /* \"#utility.yul\":1759:1881   */\n    tag_212:\n        /* \"#utility.yul\":1832:1856   */\n      tag_284\n        /* \"#utility.yul\":1850:1855   */\n      dup2\n        /* \"#utility.yul\":1832:1856   */\n      tag_211\n      jump\t// in\n    tag_284:\n        /* \"#utility.yul\":1825:1830   */\n      dup2\n        /* \"#utility.yul\":1822:1857   */\n      eq\n        /* \"#utility.yul\":1812:1875   */\n      tag_285\n      jumpi\n        /* \"#utility.yul\":1871:1872   */\n      0x00\n        /* \"#utility.yul\":1868:1869   */\n      dup1\n        /* \"#utility.yul\":1861:1873   */\n      revert\n        /* \"#utility.yul\":1812:1875   */\n    tag_285:\n        /* \"#utility.yul\":1759:1881   */\n      pop\n      jump\t// out\n        /* \"#utility.yul\":1887:2026   */\n    tag_213:\n        /* \"#utility.yul\":1933:1938   */\n      0x00\n        /* \"#utility.yul\":1971:1977   */\n      dup2\n        /* \"#utility.yul\":1958:1978   */\n      calldataload\n        /* \"#utility.yul\":1949:1978   */\n      swap1\n      pop\n        /* \"#utility.yul\":1987:2020   */\n      tag_287\n        /* \"#utility.yul\":2014:2019   */\n      dup2\n        /* \"#utility.yul\":1987:2020   */\n      tag_212\n      jump\t// in\n    tag_287:\n        /* \"#utility.yul\":1887:2026   */\n      swap3\n      swap2\n      pop\n      pop\n      jump\t// out\n        /* \"#utility.yul\":2032:2158   */\n    tag_214:\n        /* \"#utility.yul\":2069:2076   */\n      0x00\n        /* \"#utility.yul\":2109:2151   */\n      0xffffffffffffffffffffffffffffffffffffffff\n        /* \"#utility.yul\":2102:2107   */\n      dup3\n        /* \"#utility.yul\":2098:2152   */\n      and\n        /* \"#utility.yul\":2087:2152   */\n      swap1\n      pop\n        /* \"#utility.yul\":2032:2158   */\n      swap2\n      swap1\n      pop\n      jump\t// out\n        /* \"#utility.yul\":2164:2260   */\n    tag_215:\n        /* \"#utility.yul\":2201:2208   */\n      0x00\n        /* \"#utility.yul\":2230:2254   */\n      tag_290\n        /* \"#utility.yul\":2248:2253   */\n      dup3\n        /* \"#utility.yul\":2230:2254   */\n      tag_214\n      jump\t// in\n    tag_290:\n        /* \"#utility.yul\":2219:2254   */\n      swap1\n      pop\n        /* \"#utility.yul\":2164:2260   */\n      swap2\n      swap1\n      pop\n      jump\t// out\n        /* \"#utility.yul\":2266:2388   */\n    tag_216:\n        /* \"#utility.yul\":2339:2363   */\n      tag_292\n        /* \"#utility.yul\":2357:2362   */\n      dup2\n        /* \"#utility.yul\":2339:2363   */\n      tag_215\n      jump\t// in\n    tag_292:\n        /* \"#utility.yul\":2332:2337   */\n      dup2\n        /* \"#utility.yul\":2329:2364   */\n      eq\n        /* \"#utility.yul\":2319:2382   */\n      tag_293\n      jumpi\n        /* \"#utility.yul\":2378:2379   */\n      0x00\n        /* \"#utility.yul\":2375:2376   */\n      dup1\n        /* \"#utility.yul\":2368:2380   */\n      revert\n        /* \"#utility.yul\":2319:2382   */\n    tag_293:\n        /* \"#utility.yul\":2266:2388   */\n      pop\n      jump\t// out\n        /* \"#utility.yul\":2394:2533   */\n    tag_217:\n        /* \"#utility.yul\":2440:2445   */\n      0x00\n        /* \"#utility.yul\":2478:2484   */\n      dup2\n        /* \"#utility.yul\":2465:2485   */\n      calldataload\n        /* \"#utility.yul\":2456:2485   */\n      swap1\n      pop\n        /* \"#utility.yul\":2494:2527   */\n      tag_295\n        /* \"#utility.yul\":2521:2526   */\n      dup2\n        /* \"#utility.yul\":2494:2527   */\n      tag_216\n      jump\t// in\n    tag_295:\n        /* \"#utility.yul\":2394:2533   */\n      swap3\n      swap2\n      pop\n      pop\n      jump\t// out\n        /* \"#utility.yul\":2539:3013   */\n    tag_29:\n        /* \"#utility.yul\":2607:2613   */\n      0x00\n        /* \"#utility.yul\":2615:2621   */\n      dup1\n        /* \"#utility.yul\":2664:2666   */\n      0x40\n        /* \"#utility.yul\":2652:2661   */\n      dup4\n        /* \"#utility.yul\":2643:2650   */\n      dup6\n        /* \"#utility.yul\":2639:2662   */\n      sub\n        /* \"#utility.yul\":2635:2667   */\n      slt\n        /* \"#utility.yul\":2632:2751   */\n      iszero\n      tag_297\n      jumpi\n        /* \"#utility.yul\":2670:2749   */\n      tag_298\n      tag_209\n      jump\t// in\n    tag_298:\n        /* \"#utility.yul\":2632:2751   */\n    tag_297:\n        /* \"#utility.yul\":2790:2791   */\n      0x00\n        /* \"#utility.yul\":2815:2868   */\n      tag_299\n        /* \"#utility.yul\":2860:2867   */\n      dup6\n        /* \"#utility.yul\":2851:2857   */\n      dup3\n        /* \"#utility.yul\":2840:2849   */\n      dup7\n        /* \"#utility.yul\":2836:2858   */\n      add\n        /* \"#utility.yul\":2815:2868   */\n      tag_213\n      jump\t// in\n    tag_299:\n        /* \"#utility.yul\":2805:2868   */\n      swap3\n      pop\n        /* \"#utility.yul\":2761:2878   */\n      pop\n        /* \"#utility.yul\":2917:2919   */\n      0x20\n        /* \"#utility.yul\":2943:2996   */\n      tag_300\n        /* \"#utility.yul\":2988:2995   */\n      dup6\n        /* \"#utility.yul\":2979:2985   */\n      dup3\n        /* \"#utility.yul\":2968:2977   */\n      dup7\n        /* \"#utility.yul\":2964:2986   */\n      add\n        /* \"#utility.yul\":2943:2996   */\n      tag_217\n      jump\t// in\n    tag_300:\n        /* \"#utility.yul\":2933:2996   */\n      swap2\n      pop\n        /* \"#utility.yul\":2888:3006   */\n      pop\n        /* \"#utility.yul\":2539:3013   */\n      swap3\n      pop\n      swap3\n      swap1\n      pop\n      jump\t// out\n        /* \"#utility.yul\":3019:3109   */\n    tag_218:\n        /* \"#utility.yul\":3053:3060   */\n      0x00\n        /* \"#utility.yul\":3096:3101   */\n      dup2\n        /* \"#utility.yul\":3089:3102   */\n      iszero\n        /* \"#utility.yul\":3082:3103   */\n      iszero\n        /* \"#utility.yul\":3071:3103   */\n      swap1\n      pop\n        /* \"#utility.yul\":3019:3109   */\n      swap2\n      swap1\n      pop\n      jump\t// out\n        /* \"#utility.yul\":3115:3224   */\n    tag_219:\n        /* \"#utility.yul\":3196:3217   */\n      tag_303\n        /* \"#utility.yul\":3211:3216   */\n      dup2\n        /* \"#utility.yul\":3196:3217   */\n      tag_218\n      jump\t// in\n    tag_303:\n        /* \"#utility.yul\":3191:3194   */\n      dup3\n        /* \"#utility.yul\":3184:3218   */\n      mstore\n        /* \"#utility.yul\":3115:3224   */\n      pop\n      pop\n      jump\t// out\n        /* \"#utility.yul\":3230:3440   */\n    tag_32:\n        /* \"#utility.yul\":3317:3321   */\n      0x00\n        /* \"#utility.yul\":3355:3357   */\n      0x20\n        /* \"#utility.yul\":3344:3353   */\n      dup3\n        /* \"#utility.yul\":3340:3358   */\n      add\n        /* \"#utility.yul\":3332:3358   */\n      swap1\n      pop\n        /* \"#utility.yul\":3368:3433   */\n      tag_305\n        /* \"#utility.yul\":3430:3431   */\n      0x00\n        /* \"#utility.yul\":3419:3428   */\n      dup4\n        /* \"#utility.yul\":3415:3432   */\n      add\n        /* \"#utility.yul\":3406:3412   */\n      dup5\n        /* \"#utility.yul\":3368:3433   */\n      tag_219\n      jump\t// in\n    tag_305:\n        /* \"#utility.yul\":3230:3440   */\n      swap3\n      swap2\n      pop\n      pop\n      jump\t// out\n        /* \"#utility.yul\":3446:3564   */\n    tag_220:\n        /* \"#utility.yul\":3533:3557   */\n      tag_307\n        /* \"#utility.yul\":3551:3556   */\n      dup2\n        /* \"#utility.yul\":3533:3557   */\n      tag_215\n      jump\t// in\n    tag_307:\n        /* \"#utility.yul\":3528:3531   */\n      dup3\n        /* \"#utility.yul\":3521:3558   */\n      mstore\n        /* \"#utility.yul\":3446:3564   */\n      pop\n      pop\n      jump\t// out\n        /* \"#utility.yul\":3570:3792   */\n    tag_38:\n        /* \"#utility.yul\":3663:3667   */\n      0x00\n        /* \"#utility.yul\":3701:3703   */\n      0x20\n        /* \"#utility.yul\":3690:3699   */\n      dup3\n        /* \"#utility.yul\":3686:3704   */\n      add\n        /* \"#utility.yul\":3678:3704   */\n      swap1\n      pop\n        /* \"#utility.yul\":3714:3785   */\n      tag_309\n        /* \"#utility.yul\":3782:3783   */\n      0x00\n        /* \"#utility.yul\":3771:3780   */\n      dup4\n        /* \"#utility.yul\":3767:3784   */\n      add\n        /* \"#utility.yul\":3758:3764   */\n      dup5\n        /* \"#utility.yul\":3714:3785   */\n      tag_220\n      jump\t// in\n    tag_309:\n        /* \"#utility.yul\":3570:3792   */\n      swap3\n      swap2\n      pop\n      pop\n      jump\t// out\n        /* \"#utility.yul\":3798:4127   */\n    tag_44:\n        /* \"#utility.yul\":3857:3863   */\n      0x00\n        /* \"#utility.yul\":3906:3908   */\n      0x20\n        /* \"#utility.yul\":3894:3903   */\n      dup3\n        /* \"#utility.yul\":3885:3892   */\n      dup5\n        /* \"#utility.yul\":3881:3904   */\n      sub\n        /* \"#utility.yul\":3877:3909   */\n      slt\n        /* \"#utility.yul\":3874:3993   */\n      iszero\n      tag_311\n      jumpi\n        /* \"#utility.yul\":3912:3991   */\n      tag_312\n      tag_209\n      jump\t// in\n    tag_312:\n        /* \"#utility.yul\":3874:3993   */\n    tag_311:\n        /* \"#utility.yul\":4032:4033   */\n      0x00\n        /* \"#utility.yul\":4057:4110   */\n      tag_313\n        /* \"#utility.yul\":4102:4109   */\n      dup5\n        /* \"#utility.yul\":4093:4099   */\n      dup3\n        /* \"#utility.yul\":4082:4091   */\n      dup6\n        /* \"#utility.yul\":4078:4100   */\n      add\n        /* \"#utility.yul\":4057:4110   */\n      tag_213\n      jump\t// in\n    tag_313:\n        /* \"#utility.yul\":4047:4110   */\n      swap2\n      pop\n        /* \"#utility.yul\":4003:4120   */\n      pop\n        /* \"#utility.yul\":3798:4127   */\n      swap3\n      swap2\n      pop\n      pop\n      jump\t// out\n        /* \"#utility.yul\":4133:4462   */\n    tag_52:\n        /* \"#utility.yul\":4192:4198   */\n      0x00\n        /* \"#utility.yul\":4241:4243   */\n      0x20\n        /* \"#utility.yul\":4229:4238   */\n      dup3\n        /* \"#utility.yul\":4220:4227   */\n      dup5\n        /* \"#utility.yul\":4216:4239   */\n      sub\n        /* \"#utility.yul\":4212:4244   */\n      slt\n        /* \"#utility.yul\":4209:4328   */\n      iszero\n      tag_315\n      jumpi\n        /* \"#utility.yul\":4247:4326   */\n      tag_316\n      tag_209\n      jump\t// in\n    tag_316:\n        /* \"#utility.yul\":4209:4328   */\n    tag_315:\n        /* \"#utility.yul\":4367:4368   */\n      0x00\n        /* \"#utility.yul\":4392:4445   */\n      tag_317\n        /* \"#utility.yul\":4437:4444   */\n      dup5\n        /* \"#utility.yul\":4428:4434   */\n      dup3\n        /* \"#utility.yul\":4417:4426   */\n      dup6\n        /* \"#utility.yul\":4413:4435   */\n      add\n        /* \"#utility.yul\":4392:4445   */\n      tag_217\n      jump\t// in\n    tag_317:\n        /* \"#utility.yul\":4382:4445   */\n      swap2\n      pop\n        /* \"#utility.yul\":4338:4455   */\n      pop\n        /* \"#utility.yul\":4133:4462   */\n      swap3\n      swap2\n      pop\n      pop\n      jump\t// out\n        /* \"#utility.yul\":4468:4545   */\n    tag_221:\n        /* \"#utility.yul\":4505:4512   */\n      0x00\n        /* \"#utility.yul\":4534:4539   */\n      dup2\n        /* \"#utility.yul\":4523:4539   */\n      swap1\n      pop\n        /* \"#utility.yul\":4468:4545   */\n      swap2\n      swap1\n      pop\n      jump\t// out\n        /* \"#utility.yul\":4551:4669   */\n    tag_222:\n        /* \"#utility.yul\":4638:4662   */\n      tag_320\n        /* \"#utility.yul\":4656:4661   */\n      dup2\n        /* \"#utility.yul\":4638:4662   */\n      tag_221\n      jump\t// in\n    tag_320:\n        /* \"#utility.yul\":4633:4636   */\n      dup3\n        /* \"#utility.yul\":4626:4663   */\n      mstore\n        /* \"#utility.yul\":4551:4669   */\n      pop\n      pop\n      jump\t// out\n        /* \"#utility.yul\":4675:5933   */\n    tag_55:\n        /* \"#utility.yul\":5018:5022   */\n      0x00\n        /* \"#utility.yul\":5056:5059   */\n      0x0100\n        /* \"#utility.yul\":5045:5054   */\n      dup3\n        /* \"#utility.yul\":5041:5060   */\n      add\n        /* \"#utility.yul\":5033:5060   */\n      swap1\n      pop\n        /* \"#utility.yul\":5070:5141   */\n      tag_322\n        /* \"#utility.yul\":5138:5139   */\n      0x00\n        /* \"#utility.yul\":5127:5136   */\n      dup4\n        /* \"#utility.yul\":5123:5140   */\n      add\n        /* \"#utility.yul\":5114:5120   */\n      dup12\n        /* \"#utility.yul\":5070:5141   */\n      tag_220\n      jump\t// in\n    tag_322:\n        /* \"#utility.yul\":5151:5223   */\n      tag_323\n        /* \"#utility.yul\":5219:5221   */\n      0x20\n        /* \"#utility.yul\":5208:5217   */\n      dup4\n        /* \"#utility.yul\":5204:5222   */\n      add\n        /* \"#utility.yul\":5195:5201   */\n      dup11\n        /* \"#utility.yul\":5151:5223   */\n      tag_220\n      jump\t// in\n    tag_323:\n        /* \"#utility.yul\":5270:5279   */\n      dup2\n        /* \"#utility.yul\":5264:5268   */\n      dup2\n        /* \"#utility.yul\":5260:5280   */\n      sub\n        /* \"#utility.yul\":5255:5257   */\n      0x40\n        /* \"#utility.yul\":5244:5253   */\n      dup4\n        /* \"#utility.yul\":5240:5258   */\n      add\n        /* \"#utility.yul\":5233:5281   */\n      mstore\n        /* \"#utility.yul\":5298:5376   */\n      tag_324\n        /* \"#utility.yul\":5371:5375   */\n      dup2\n        /* \"#utility.yul\":5362:5368   */\n      dup10\n        /* \"#utility.yul\":5298:5376   */\n      tag_207\n      jump\t// in\n    tag_324:\n        /* \"#utility.yul\":5290:5376   */\n      swap1\n      pop\n        /* \"#utility.yul\":5423:5432   */\n      dup2\n        /* \"#utility.yul\":5417:5421   */\n      dup2\n        /* \"#utility.yul\":5413:5433   */\n      sub\n        /* \"#utility.yul\":5408:5410   */\n      0x60\n        /* \"#utility.yul\":5397:5406   */\n      dup4\n        /* \"#utility.yul\":5393:5411   */\n      add\n        /* \"#utility.yul\":5386:5434   */\n      mstore\n        /* \"#utility.yul\":5451:5529   */\n      tag_325\n        /* \"#utility.yul\":5524:5528   */\n      dup2\n        /* \"#utility.yul\":5515:5521   */\n      dup9\n        /* \"#utility.yul\":5451:5529   */\n      tag_207\n      jump\t// in\n    tag_325:\n        /* \"#utility.yul\":5443:5529   */\n      swap1\n      pop\n        /* \"#utility.yul\":5577:5586   */\n      dup2\n        /* \"#utility.yul\":5571:5575   */\n      dup2\n        /* \"#utility.yul\":5567:5587   */\n      sub\n        /* \"#utility.yul\":5561:5564   */\n      0x80\n        /* \"#utility.yul\":5550:5559   */\n      dup4\n        /* \"#utility.yul\":5546:5565   */\n      add\n        /* \"#utility.yul\":5539:5588   */\n      mstore\n        /* \"#utility.yul\":5605:5683   */\n      tag_326\n        /* \"#utility.yul\":5678:5682   */\n      dup2\n        /* \"#utility.yul\":5669:5675   */\n      dup8\n        /* \"#utility.yul\":5605:5683   */\n      tag_207\n      jump\t// in\n    tag_326:\n        /* \"#utility.yul\":5597:5683   */\n      swap1\n      pop\n        /* \"#utility.yul\":5693:5766   */\n      tag_327\n        /* \"#utility.yul\":5761:5764   */\n      0xa0\n        /* \"#utility.yul\":5750:5759   */\n      dup4\n        /* \"#utility.yul\":5746:5765   */\n      add\n        /* \"#utility.yul\":5737:5743   */\n      dup7\n        /* \"#utility.yul\":5693:5766   */\n      tag_222\n      jump\t// in\n    tag_327:\n        /* \"#utility.yul\":5776:5849   */\n      tag_328\n        /* \"#utility.yul\":5844:5847   */\n      0xc0\n        /* \"#utility.yul\":5833:5842   */\n      dup4\n        /* \"#utility.yul\":5829:5848   */\n      add\n        /* \"#utility.yul\":5820:5826   */\n      dup6\n        /* \"#utility.yul\":5776:5849   */\n      tag_222\n      jump\t// in\n    tag_328:\n        /* \"#utility.yul\":5859:5926   */\n      tag_329\n        /* \"#utility.yul\":5921:5924   */\n      0xe0\n        /* \"#utility.yul\":5910:5919   */\n      dup4\n        /* \"#utility.yul\":5906:5925   */\n      add\n        /* \"#utility.yul\":5897:5903   */\n      dup5\n        /* \"#utility.yul\":5859:5926   */\n      tag_219\n      jump\t// in\n    tag_329:\n        /* \"#utility.yul\":4675:5933   */\n      swap10\n      swap9\n      pop\n      pop\n      pop\n      pop\n      pop\n      pop\n      pop\n      pop\n      pop\n      jump\t// out\n        /* \"#utility.yul\":5939:6056   */\n    tag_223:\n        /* \"#utility.yul\":6048:6049   */\n      0x00\n        /* \"#utility.yul\":6045:6046   */\n      dup1\n        /* \"#utility.yul\":6038:6050   */\n      revert\n        /* \"#utility.yul\":6062:6179   */\n    tag_224:\n        /* \"#utility.yul\":6171:6172   */\n      0x00\n        /* \"#utility.yul\":6168:6169   */\n      dup1\n        /* \"#utility.yul\":6161:6173   */\n      revert\n        /* \"#utility.yul\":6185:6365   */\n    tag_225:\n        /* \"#utility.yul\":6233:6310   */\n      0x4e487b7100000000000000000000000000000000000000000000000000000000\n        /* \"#utility.yul\":6230:6231   */\n      0x00\n        /* \"#utility.yul\":6223:6311   */\n      mstore\n        /* \"#utility.yul\":6330:6334   */\n      0x41\n        /* \"#utility.yul\":6327:6328   */\n      0x04\n        /* \"#utility.yul\":6320:6335   */\n      mstore\n        /* \"#utility.yul\":6354:6358   */\n      0x24\n        /* \"#utility.yul\":6351:6352   */\n      0x00\n        /* \"#utility.yul\":6344:6359   */\n      revert\n        /* \"#utility.yul\":6371:6652   */\n    tag_226:\n        /* \"#utility.yul\":6454:6481   */\n      tag_334\n        /* \"#utility.yul\":6476:6480   */\n      dup3\n        /* \"#utility.yul\":6454:6481   */\n      tag_206\n      jump\t// in\n    tag_334:\n        /* \"#utility.yul\":6446:6452   */\n      dup2\n        /* \"#utility.yul\":6442:6482   */\n      add\n        /* \"#utility.yul\":6584:6590   */\n      dup2\n        /* \"#utility.yul\":6572:6582   */\n      dup2\n        /* \"#utility.yul\":6569:6591   */\n      lt\n        /* \"#utility.yul\":6548:6566   */\n      0xffffffffffffffff\n        /* \"#utility.yul\":6536:6546   */\n      dup3\n        /* \"#utility.yul\":6533:6567   */\n      gt\n        /* \"#utility.yul\":6530:6592   */\n      or\n        /* \"#utility.yul\":6527:6615   */\n      iszero\n      tag_335\n      jumpi\n        /* \"#utility.yul\":6595:6613   */\n      tag_336\n      tag_225\n      jump\t// in\n    tag_336:\n        /* \"#utility.yul\":6527:6615   */\n    tag_335:\n        /* \"#utility.yul\":6635:6645   */\n      dup1\n        /* \"#utility.yul\":6631:6633   */\n      0x40\n        /* \"#utility.yul\":6624:6646   */\n      mstore\n        /* \"#utility.yul\":6414:6652   */\n      pop\n        /* \"#utility.yul\":6371:6652   */\n      pop\n      pop\n      jump\t// out\n        /* \"#utility.yul\":6658:6787   */\n    tag_227:\n        /* \"#utility.yul\":6692:6698   */\n      0x00\n        /* \"#utility.yul\":6719:6739   */\n      tag_338\n      tag_208\n      jump\t// in\n    tag_338:\n        /* \"#utility.yul\":6709:6739   */\n      swap1\n      pop\n        /* \"#utility.yul\":6748:6781   */\n      tag_339\n        /* \"#utility.yul\":6776:6780   */\n      dup3\n        /* \"#utility.yul\":6768:6774   */\n      dup3\n        /* \"#utility.yul\":6748:6781   */\n      tag_226\n      jump\t// in\n    tag_339:\n        /* \"#utility.yul\":6658:6787   */\n      swap2\n      swap1\n      pop\n      jump\t// out\n        /* \"#utility.yul\":6793:7101   */\n    tag_228:\n        /* \"#utility.yul\":6855:6859   */\n      0x00\n        /* \"#utility.yul\":6945:6963   */\n      0xffffffffffffffff\n        /* \"#utility.yul\":6937:6943   */\n      dup3\n        /* \"#utility.yul\":6934:6964   */\n      gt\n        /* \"#utility.yul\":6931:6987   */\n      iszero\n      tag_341\n      jumpi\n        /* \"#utility.yul\":6967:6985   */\n      tag_342\n      tag_225\n      jump\t// in\n    tag_342:\n        /* \"#utility.yul\":6931:6987   */\n    tag_341:\n        /* \"#utility.yul\":7005:7034   */\n      tag_343\n        /* \"#utility.yul\":7027:7033   */\n      dup3\n        /* \"#utility.yul\":7005:7034   */\n      tag_206\n      jump\t// in\n    tag_343:\n        /* \"#utility.yul\":6997:7034   */\n      swap1\n      pop\n        /* \"#utility.yul\":7089:7093   */\n      0x20\n        /* \"#utility.yul\":7083:7087   */\n      dup2\n        /* \"#utility.yul\":7079:7094   */\n      add\n        /* \"#utility.yul\":7071:7094   */\n      swap1\n      pop\n        /* \"#utility.yul\":6793:7101   */\n      swap2\n      swap1\n      pop\n      jump\t// out\n        /* \"#utility.yul\":7107:7253   */\n    tag_229:\n        /* \"#utility.yul\":7204:7210   */\n      dup3\n        /* \"#utility.yul\":7199:7202   */\n      dup2\n        /* \"#utility.yul\":7194:7197   */\n      dup4\n        /* \"#utility.yul\":7181:7211   */\n      calldatacopy\n        /* \"#utility.yul\":7245:7246   */\n      0x00\n        /* \"#utility.yul\":7236:7242   */\n      dup4\n        /* \"#utility.yul\":7231:7234   */\n      dup4\n        /* \"#utility.yul\":7227:7243   */\n      add\n        /* \"#utility.yul\":7220:7247   */\n      mstore\n        /* \"#utility.yul\":7107:7253   */\n      pop\n      pop\n      pop\n      jump\t// out\n        /* \"#utility.yul\":7259:7684   */\n    tag_230:\n        /* \"#utility.yul\":7337:7342   */\n      0x00\n        /* \"#utility.yul\":7362:7428   */\n      tag_346\n        /* \"#utility.yul\":7378:7427   */\n      tag_347\n        /* \"#utility.yul\":7420:7426   */\n      dup5\n        /* \"#utility.yul\":7378:7427   */\n      tag_228\n      jump\t// in\n    tag_347:\n        /* \"#utility.yul\":7362:7428   */\n      tag_227\n      jump\t// in\n    tag_346:\n        /* \"#utility.yul\":7353:7428   */\n      swap1\n      pop\n        /* \"#utility.yul\":7451:7457   */\n      dup3\n        /* \"#utility.yul\":7444:7449   */\n      dup2\n        /* \"#utility.yul\":7437:7458   */\n      mstore\n        /* \"#utility.yul\":7489:7493   */\n      0x20\n        /* \"#utility.yul\":7482:7487   */\n      dup2\n        /* \"#utility.yul\":7478:7494   */\n      add\n        /* \"#utility.yul\":7527:7530   */\n      dup5\n        /* \"#utility.yul\":7518:7524   */\n      dup5\n        /* \"#utility.yul\":7513:7516   */\n      dup5\n        /* \"#utility.yul\":7509:7525   */\n      add\n        /* \"#utility.yul\":7506:7531   */\n      gt\n        /* \"#utility.yul\":7503:7615   */\n      iszero\n      tag_348\n      jumpi\n        /* \"#utility.yul\":7534:7613   */\n      tag_349\n      tag_224\n      jump\t// in\n    tag_349:\n        /* \"#utility.yul\":7503:7615   */\n    tag_348:\n        /* \"#utility.yul\":7624:7678   */\n      tag_350\n        /* \"#utility.yul\":7671:7677   */\n      dup5\n        /* \"#utility.yul\":7666:7669   */\n      dup3\n        /* \"#utility.yul\":7661:7664   */\n      dup6\n        /* \"#utility.yul\":7624:7678   */\n      tag_229\n      jump\t// in\n    tag_350:\n        /* \"#utility.yul\":7343:7684   */\n      pop\n        /* \"#utility.yul\":7259:7684   */\n      swap4\n      swap3\n      pop\n      pop\n      pop\n      jump\t// out\n        /* \"#utility.yul\":7704:8044   */\n    tag_231:\n        /* \"#utility.yul\":7760:7765   */\n      0x00\n        /* \"#utility.yul\":7809:7812   */\n      dup3\n        /* \"#utility.yul\":7802:7806   */\n      0x1f\n        /* \"#utility.yul\":7794:7800   */\n      dup4\n        /* \"#utility.yul\":7790:7807   */\n      add\n        /* \"#utility.yul\":7786:7813   */\n      slt\n        /* \"#utility.yul\":7776:7898   */\n      tag_352\n      jumpi\n        /* \"#utility.yul\":7817:7896   */\n      tag_353\n      tag_223\n      jump\t// in\n    tag_353:\n        /* \"#utility.yul\":7776:7898   */\n    tag_352:\n        /* \"#utility.yul\":7934:7940   */\n      dup2\n        /* \"#utility.yul\":7921:7941   */\n      calldataload\n        /* \"#utility.yul\":7959:8038   */\n      tag_354\n        /* \"#utility.yul\":8034:8037   */\n      dup5\n        /* \"#utility.yul\":8026:8032   */\n      dup3\n        /* \"#utility.yul\":8019:8023   */\n      0x20\n        /* \"#utility.yul\":8011:8017   */\n      dup7\n        /* \"#utility.yul\":8007:8024   */\n      add\n        /* \"#utility.yul\":7959:8038   */\n      tag_230\n      jump\t// in\n    tag_354:\n        /* \"#utility.yul\":7950:8038   */\n      swap2\n      pop\n        /* \"#utility.yul\":7766:8044   */\n      pop\n        /* \"#utility.yul\":7704:8044   */\n      swap3\n      swap2\n      pop\n      pop\n      jump\t// out\n        /* \"#utility.yul\":8050:8884   */\n    tag_65:\n        /* \"#utility.yul\":8138:8144   */\n      0x00\n        /* \"#utility.yul\":8146:8152   */\n      dup1\n        /* \"#utility.yul\":8195:8197   */\n      0x40\n        /* \"#utility.yul\":8183:8192   */\n      dup4\n        /* \"#utility.yul\":8174:8181   */\n      dup6\n        /* \"#utility.yul\":8170:8193   */\n      sub\n        /* \"#utility.yul\":8166:8198   */\n      slt\n        /* \"#utility.yul\":8163:8282   */\n      iszero\n      tag_356\n      jumpi\n        /* \"#utility.yul\":8201:8280   */\n      tag_357\n      tag_209\n      jump\t// in\n    tag_357:\n        /* \"#utility.yul\":8163:8282   */\n    tag_356:\n        /* \"#utility.yul\":8349:8350   */\n      0x00\n        /* \"#utility.yul\":8338:8347   */\n      dup4\n        /* \"#utility.yul\":8334:8351   */\n      add\n        /* \"#utility.yul\":8321:8352   */\n      calldataload\n        /* \"#utility.yul\":8379:8397   */\n      0xffffffffffffffff\n        /* \"#utility.yul\":8371:8377   */\n      dup2\n        /* \"#utility.yul\":8368:8398   */\n      gt\n        /* \"#utility.yul\":8365:8482   */\n      iszero\n      tag_358\n      jumpi\n        /* \"#utility.yul\":8401:8480   */\n      tag_359\n      tag_210\n      jump\t// in\n    tag_359:\n        /* \"#utility.yul\":8365:8482   */\n    tag_358:\n        /* \"#utility.yul\":8506:8569   */\n      tag_360\n        /* \"#utility.yul\":8561:8568   */\n      dup6\n        /* \"#utility.yul\":8552:8558   */\n      dup3\n        /* \"#utility.yul\":8541:8550   */\n      dup7\n        /* \"#utility.yul\":8537:8559   */\n      add\n        /* \"#utility.yul\":8506:8569   */\n      tag_231\n      jump\t// in\n    tag_360:\n        /* \"#utility.yul\":8496:8569   */\n      swap3\n      pop\n        /* \"#utility.yul\":8292:8579   */\n      pop\n        /* \"#utility.yul\":8646:8648   */\n      0x20\n        /* \"#utility.yul\":8635:8644   */\n      dup4\n        /* \"#utility.yul\":8631:8649   */\n      add\n        /* \"#utility.yul\":8618:8650   */\n      calldataload\n        /* \"#utility.yul\":8677:8695   */\n      0xffffffffffffffff\n        /* \"#utility.yul\":8669:8675   */\n      dup2\n        /* \"#utility.yul\":8666:8696   */\n      gt\n        /* \"#utility.yul\":8663:8780   */\n      iszero\n      tag_361\n      jumpi\n        /* \"#utility.yul\":8699:8778   */\n      tag_362\n      tag_210\n      jump\t// in\n    tag_362:\n        /* \"#utility.yul\":8663:8780   */\n    tag_361:\n        /* \"#utility.yul\":8804:8867   */\n      tag_363\n        /* \"#utility.yul\":8859:8866   */\n      dup6\n        /* \"#utility.yul\":8850:8856   */\n      dup3\n        /* \"#utility.yul\":8839:8848   */\n      dup7\n        /* \"#utility.yul\":8835:8857   */\n      add\n        /* \"#utility.yul\":8804:8867   */\n      tag_231\n      jump\t// in\n    tag_363:\n        /* \"#utility.yul\":8794:8867   */\n      swap2\n      pop\n        /* \"#utility.yul\":8589:8877   */\n      pop\n        /* \"#utility.yul\":8050:8884   */\n      swap3\n      pop\n      swap3\n      swap1\n      pop\n      jump\t// out\n        /* \"#utility.yul\":8890:9012   */\n    tag_232:\n        /* \"#utility.yul\":8963:8987   */\n      tag_365\n        /* \"#utility.yul\":8981:8986   */\n      dup2\n        /* \"#utility.yul\":8963:8987   */\n      tag_221\n      jump\t// in\n    tag_365:\n        /* \"#utility.yul\":8956:8961   */\n      dup2\n        /* \"#utility.yul\":8953:8988   */\n      eq\n        /* \"#utility.yul\":8943:9006   */\n      tag_366\n      jumpi\n        /* \"#utility.yul\":9002:9003   */\n      0x00\n        /* \"#utility.yul\":8999:9000   */\n      dup1\n        /* \"#utility.yul\":8992:9004   */\n      revert\n        /* \"#utility.yul\":8943:9006   */\n    tag_366:\n        /* \"#utility.yul\":8890:9012   */\n      pop\n      jump\t// out\n        /* \"#utility.yul\":9018:9157   */\n    tag_233:\n        /* \"#utility.yul\":9064:9069   */\n      0x00\n        /* \"#utility.yul\":9102:9108   */\n      dup2\n        /* \"#utility.yul\":9089:9109   */\n      calldataload\n        /* \"#utility.yul\":9080:9109   */\n      swap1\n      pop\n        /* \"#utility.yul\":9118:9151   */\n      tag_368\n        /* \"#utility.yul\":9145:9150   */\n      dup2\n        /* \"#utility.yul\":9118:9151   */\n      tag_232\n      jump\t// in\n    tag_368:\n        /* \"#utility.yul\":9018:9157   */\n      swap3\n      swap2\n      pop\n      pop\n      jump\t// out\n        /* \"#utility.yul\":9163:10726   */\n    tag_70:\n        /* \"#utility.yul\":9296:9302   */\n      0x00\n        /* \"#utility.yul\":9304:9310   */\n      dup1\n        /* \"#utility.yul\":9312:9318   */\n      0x00\n        /* \"#utility.yul\":9320:9326   */\n      dup1\n        /* \"#utility.yul\":9328:9334   */\n      0x00\n        /* \"#utility.yul\":9336:9342   */\n      dup1\n        /* \"#utility.yul\":9344:9350   */\n      0x00\n        /* \"#utility.yul\":9393:9396   */\n      0xe0\n        /* \"#utility.yul\":9381:9390   */\n      dup9\n        /* \"#utility.yul\":9372:9379   */\n      dup11\n        /* \"#utility.yul\":9368:9391   */\n      sub\n        /* \"#utility.yul\":9364:9397   */\n      slt\n        /* \"#utility.yul\":9361:9481   */\n      iszero\n      tag_370\n      jumpi\n        /* \"#utility.yul\":9400:9479   */\n      tag_371\n      tag_209\n      jump\t// in\n    tag_371:\n        /* \"#utility.yul\":9361:9481   */\n    tag_370:\n        /* \"#utility.yul\":9520:9521   */\n      0x00\n        /* \"#utility.yul\":9545:9598   */\n      tag_372\n        /* \"#utility.yul\":9590:9597   */\n      dup11\n        /* \"#utility.yul\":9581:9587   */\n      dup3\n        /* \"#utility.yul\":9570:9579   */\n      dup12\n        /* \"#utility.yul\":9566:9588   */\n      add\n        /* \"#utility.yul\":9545:9598   */\n      tag_213\n      jump\t// in\n    tag_372:\n        /* \"#utility.yul\":9535:9598   */\n      swap8\n      pop\n        /* \"#utility.yul\":9491:9608   */\n      pop\n        /* \"#utility.yul\":9647:9649   */\n      0x20\n        /* \"#utility.yul\":9673:9726   */\n      tag_373\n        /* \"#utility.yul\":9718:9725   */\n      dup11\n        /* \"#utility.yul\":9709:9715   */\n      dup3\n        /* \"#utility.yul\":9698:9707   */\n      dup12\n        /* \"#utility.yul\":9694:9716   */\n      add\n        /* \"#utility.yul\":9673:9726   */\n      tag_217\n      jump\t// in\n    tag_373:\n        /* \"#utility.yul\":9663:9726   */\n      swap7\n      pop\n        /* \"#utility.yul\":9618:9736   */\n      pop\n        /* \"#utility.yul\":9775:9777   */\n      0x40\n        /* \"#utility.yul\":9801:9854   */\n      tag_374\n        /* \"#utility.yul\":9846:9853   */\n      dup11\n        /* \"#utility.yul\":9837:9843   */\n      dup3\n        /* \"#utility.yul\":9826:9835   */\n      dup12\n        /* \"#utility.yul\":9822:9844   */\n      add\n        /* \"#utility.yul\":9801:9854   */\n      tag_233\n      jump\t// in\n    tag_374:\n        /* \"#utility.yul\":9791:9854   */\n      swap6\n      pop\n        /* \"#utility.yul\":9746:9864   */\n      pop\n        /* \"#utility.yul\":9931:9933   */\n      0x60\n        /* \"#utility.yul\":9920:9929   */\n      dup9\n        /* \"#utility.yul\":9916:9934   */\n      add\n        /* \"#utility.yul\":9903:9935   */\n      calldataload\n        /* \"#utility.yul\":9962:9980   */\n      0xffffffffffffffff\n        /* \"#utility.yul\":9954:9960   */\n      dup2\n        /* \"#utility.yul\":9951:9981   */\n      gt\n        /* \"#utility.yul\":9948:10065   */\n      iszero\n      tag_375\n      jumpi\n        /* \"#utility.yul\":9984:10063   */\n      tag_376\n      tag_210\n      jump\t// in\n    tag_376:\n        /* \"#utility.yul\":9948:10065   */\n    tag_375:\n        /* \"#utility.yul\":10089:10152   */\n      tag_377\n        /* \"#utility.yul\":10144:10151   */\n      dup11\n        /* \"#utility.yul\":10135:10141   */\n      dup3\n        /* \"#utility.yul\":10124:10133   */\n      dup12\n        /* \"#utility.yul\":10120:10142   */\n      add\n        /* \"#utility.yul\":10089:10152   */\n      tag_231\n      jump\t// in\n    tag_377:\n        /* \"#utility.yul\":10079:10152   */\n      swap5\n      pop\n        /* \"#utility.yul\":9874:10162   */\n      pop\n        /* \"#utility.yul\":10201:10204   */\n      0x80\n        /* \"#utility.yul\":10228:10281   */\n      tag_378\n        /* \"#utility.yul\":10273:10280   */\n      dup11\n        /* \"#utility.yul\":10264:10270   */\n      dup3\n        /* \"#utility.yul\":10253:10262   */\n      dup12\n        /* \"#utility.yul\":10249:10271   */\n      add\n        /* \"#utility.yul\":10228:10281   */\n      tag_217\n      jump\t// in\n    tag_378:\n        /* \"#utility.yul\":10218:10281   */\n      swap4\n      pop\n        /* \"#utility.yul\":10172:10291   */\n      pop\n        /* \"#utility.yul\":10358:10361   */\n      0xa0\n        /* \"#utility.yul\":10347:10356   */\n      dup9\n        /* \"#utility.yul\":10343:10362   */\n      add\n        /* \"#utility.yul\":10330:10363   */\n      calldataload\n        /* \"#utility.yul\":10390:10408   */\n      0xffffffffffffffff\n        /* \"#utility.yul\":10382:10388   */\n      dup2\n        /* \"#utility.yul\":10379:10409   */\n      gt\n        /* \"#utility.yul\":10376:10493   */\n      iszero\n      tag_379\n      jumpi\n        /* \"#utility.yul\":10412:10491   */\n      tag_380\n      tag_210\n      jump\t// in\n    tag_380:\n        /* \"#utility.yul\":10376:10493   */\n    tag_379:\n        /* \"#utility.yul\":10517:10580   */\n      tag_381\n        /* \"#utility.yul\":10572:10579   */\n      dup11\n        /* \"#utility.yul\":10563:10569   */\n      dup3\n        /* \"#utility.yul\":10552:10561   */\n      dup12\n        /* \"#utility.yul\":10548:10570   */\n      add\n        /* \"#utility.yul\":10517:10580   */\n      tag_231\n      jump\t// in\n    tag_381:\n        /* \"#utility.yul\":10507:10580   */\n      swap3\n      pop\n        /* \"#utility.yul\":10301:10590   */\n      pop\n        /* \"#utility.yul\":10629:10632   */\n      0xc0\n        /* \"#utility.yul\":10656:10709   */\n      tag_382\n        /* \"#utility.yul\":10701:10708   */\n      dup11\n        /* \"#utility.yul\":10692:10698   */\n      dup3\n        /* \"#utility.yul\":10681:10690   */\n      dup12\n        /* \"#utility.yul\":10677:10699   */\n      add\n        /* \"#utility.yul\":10656:10709   */\n      tag_217\n      jump\t// in\n    tag_382:\n        /* \"#utility.yul\":10646:10709   */\n      swap2\n      pop\n        /* \"#utility.yul\":10600:10719   */\n      pop\n        /* \"#utility.yul\":9163:10726   */\n      swap3\n      swap6\n      swap9\n      swap2\n      swap5\n      swap8\n      pop\n      swap3\n      swap6\n      pop\n      jump\t// out\n        /* \"#utility.yul\":10732:12329   */\n    tag_74:\n        /* \"#utility.yul\":10866:10872   */\n      0x00\n        /* \"#utility.yul\":10874:10880   */\n      dup1\n        /* \"#utility.yul\":10882:10888   */\n      0x00\n        /* \"#utility.yul\":10890:10896   */\n      dup1\n        /* \"#utility.yul\":10898:10904   */\n      0x00\n        /* \"#utility.yul\":10906:10912   */\n      dup1\n        /* \"#utility.yul\":10955:10958   */\n      0xc0\n        /* \"#utility.yul\":10943:10952   */\n      dup8\n        /* \"#utility.yul\":10934:10941   */\n      dup10\n        /* \"#utility.yul\":10930:10953   */\n      sub\n        /* \"#utility.yul\":10926:10959   */\n      slt\n        /* \"#utility.yul\":10923:11043   */\n      iszero\n      tag_384\n      jumpi\n        /* \"#utility.yul\":10962:11041   */\n      tag_385\n      tag_209\n      jump\t// in\n    tag_385:\n        /* \"#utility.yul\":10923:11043   */\n    tag_384:\n        /* \"#utility.yul\":11082:11083   */\n      0x00\n        /* \"#utility.yul\":11107:11160   */\n      tag_386\n        /* \"#utility.yul\":11152:11159   */\n      dup10\n        /* \"#utility.yul\":11143:11149   */\n      dup3\n        /* \"#utility.yul\":11132:11141   */\n      dup11\n        /* \"#utility.yul\":11128:11150   */\n      add\n        /* \"#utility.yul\":11107:11160   */\n      tag_217\n      jump\t// in\n    tag_386:\n        /* \"#utility.yul\":11097:11160   */\n      swap7\n      pop\n        /* \"#utility.yul\":11053:11170   */\n      pop\n        /* \"#utility.yul\":11237:11239   */\n      0x20\n        /* \"#utility.yul\":11226:11235   */\n      dup8\n        /* \"#utility.yul\":11222:11240   */\n      add\n        /* \"#utility.yul\":11209:11241   */\n      calldataload\n        /* \"#utility.yul\":11268:11286   */\n      0xffffffffffffffff\n        /* \"#utility.yul\":11260:11266   */\n      dup2\n        /* \"#utility.yul\":11257:11287   */\n      gt\n        /* \"#utility.yul\":11254:11371   */\n      iszero\n      tag_387\n      jumpi\n        /* \"#utility.yul\":11290:11369   */\n      tag_388\n      tag_210\n      jump\t// in\n    tag_388:\n        /* \"#utility.yul\":11254:11371   */\n    tag_387:\n        /* \"#utility.yul\":11395:11458   */\n      tag_389\n        /* \"#utility.yul\":11450:11457   */\n      dup10\n        /* \"#utility.yul\":11441:11447   */\n      dup3\n        /* \"#utility.yul\":11430:11439   */\n      dup11\n        /* \"#utility.yul\":11426:11448   */\n      add\n        /* \"#utility.yul\":11395:11458   */\n      tag_231\n      jump\t// in\n    tag_389:\n        /* \"#utility.yul\":11385:11458   */\n      swap6\n      pop\n        /* \"#utility.yul\":11180:11468   */\n      pop\n        /* \"#utility.yul\":11535:11537   */\n      0x40\n        /* \"#utility.yul\":11524:11533   */\n      dup8\n        /* \"#utility.yul\":11520:11538   */\n      add\n        /* \"#utility.yul\":11507:11539   */\n      calldataload\n        /* \"#utility.yul\":11566:11584   */\n      0xffffffffffffffff\n        /* \"#utility.yul\":11558:11564   */\n      dup2\n        /* \"#utility.yul\":11555:11585   */\n      gt\n        /* \"#utility.yul\":11552:11669   */\n      iszero\n      tag_390\n      jumpi\n        /* \"#utility.yul\":11588:11667   */\n      tag_391\n      tag_210\n      jump\t// in\n    tag_391:\n        /* \"#utility.yul\":11552:11669   */\n    tag_390:\n        /* \"#utility.yul\":11693:11756   */\n      tag_392\n        /* \"#utility.yul\":11748:11755   */\n      dup10\n        /* \"#utility.yul\":11739:11745   */\n      dup3\n        /* \"#utility.yul\":11728:11737   */\n      dup11\n        /* \"#utility.yul\":11724:11746   */\n      add\n        /* \"#utility.yul\":11693:11756   */\n      tag_231\n      jump\t// in\n    tag_392:\n        /* \"#utility.yul\":11683:11756   */\n      swap5\n      pop\n        /* \"#utility.yul\":11478:11766   */\n      pop\n        /* \"#utility.yul\":11833:11835   */\n      0x60\n        /* \"#utility.yul\":11822:11831   */\n      dup8\n        /* \"#utility.yul\":11818:11836   */\n      add\n        /* \"#utility.yul\":11805:11837   */\n      calldataload\n        /* \"#utility.yul\":11864:11882   */\n      0xffffffffffffffff\n        /* \"#utility.yul\":11856:11862   */\n      dup2\n        /* \"#utility.yul\":11853:11883   */\n      gt\n        /* \"#utility.yul\":11850:11967   */\n      iszero\n      tag_393\n      jumpi\n        /* \"#utility.yul\":11886:11965   */\n      tag_394\n      tag_210\n      jump\t// in\n    tag_394:\n        /* \"#utility.yul\":11850:11967   */\n    tag_393:\n        /* \"#utility.yul\":11991:12054   */\n      tag_395\n        /* \"#utility.yul\":12046:12053   */\n      dup10\n        /* \"#utility.yul\":12037:12043   */\n      dup3\n        /* \"#utility.yul\":12026:12035   */\n      dup11\n        /* \"#utility.yul\":12022:12044   */\n      add\n        /* \"#utility.yul\":11991:12054   */\n      tag_231\n      jump\t// in\n    tag_395:\n        /* \"#utility.yul\":11981:12054   */\n      swap4\n      pop\n        /* \"#utility.yul\":11776:12064   */\n      pop\n        /* \"#utility.yul\":12103:12106   */\n      0x80\n        /* \"#utility.yul\":12130:12183   */\n      tag_396\n        /* \"#utility.yul\":12175:12182   */\n      dup10\n        /* \"#utility.yul\":12166:12172   */\n      dup3\n        /* \"#utility.yul\":12155:12164   */\n      dup11\n        /* \"#utility.yul\":12151:12173   */\n      add\n        /* \"#utility.yul\":12130:12183   */\n      tag_233\n      jump\t// in\n    tag_396:\n        /* \"#utility.yul\":12120:12183   */\n      swap3\n      pop\n        /* \"#utility.yul\":12074:12193   */\n      pop\n        /* \"#utility.yul\":12232:12235   */\n      0xa0\n        /* \"#utility.yul\":12259:12312   */\n      tag_397\n        /* \"#utility.yul\":12304:12311   */\n      dup10\n        /* \"#utility.yul\":12295:12301   */\n      dup3\n        /* \"#utility.yul\":12284:12293   */\n      dup11\n        /* \"#utility.yul\":12280:12302   */\n      add\n        /* \"#utility.yul\":12259:12312   */\n      tag_233\n      jump\t// in\n    tag_397:\n        /* \"#utility.yul\":12249:12312   */\n      swap2\n      pop\n        /* \"#utility.yul\":12203:12322   */\n      pop\n        /* \"#utility.yul\":10732:12329   */\n      swap3\n      swap6\n      pop\n      swap3\n      swap6\n      pop\n      swap3\n      swap6\n      jump\t// out\n        /* \"#utility.yul\":12335:12809   */\n    tag_84:\n        /* \"#utility.yul\":12403:12409   */\n      0x00\n        /* \"#utility.yul\":12411:12417   */\n      dup1\n        /* \"#utility.yul\":12460:12462   */\n      0x40\n        /* \"#utility.yul\":12448:12457   */\n      dup4\n        /* \"#utility.yul\":12439:12446   */\n      dup6\n        /* \"#utility.yul\":12435:12458   */\n      sub\n        /* \"#utility.yul\":12431:12463   */\n      slt\n        /* \"#utility.yul\":12428:12547   */\n      iszero\n      tag_399\n      jumpi\n        /* \"#utility.yul\":12466:12545   */\n      tag_400\n      tag_209\n      jump\t// in\n    tag_400:\n        /* \"#utility.yul\":12428:12547   */\n    tag_399:\n        /* \"#utility.yul\":12586:12587   */\n      0x00\n        /* \"#utility.yul\":12611:12664   */\n      tag_401\n        /* \"#utility.yul\":12656:12663   */\n      dup6\n        /* \"#utility.yul\":12647:12653   */\n      dup3\n        /* \"#utility.yul\":12636:12645   */\n      dup7\n        /* \"#utility.yul\":12632:12654   */\n      add\n        /* \"#utility.yul\":12611:12664   */\n      tag_213\n      jump\t// in\n    tag_401:\n        /* \"#utility.yul\":12601:12664   */\n      swap3\n      pop\n        /* \"#utility.yul\":12557:12674   */\n      pop\n        /* \"#utility.yul\":12713:12715   */\n      0x20\n        /* \"#utility.yul\":12739:12792   */\n      tag_402\n        /* \"#utility.yul\":12784:12791   */\n      dup6\n        /* \"#utility.yul\":12775:12781   */\n      dup3\n        /* \"#utility.yul\":12764:12773   */\n      dup7\n        /* \"#utility.yul\":12760:12782   */\n      add\n        /* \"#utility.yul\":12739:12792   */\n      tag_233\n      jump\t// in\n    tag_402:\n        /* \"#utility.yul\":12729:12792   */\n      swap2\n      pop\n        /* \"#utility.yul\":12684:12802   */\n      pop\n        /* \"#utility.yul\":12335:12809   */\n      swap3\n      pop\n      swap3\n      swap1\n      pop\n      jump\t// out\n        /* \"#utility.yul\":12815:13883   */\n    tag_87:\n        /* \"#utility.yul\":13116:13120   */\n      0x00\n        /* \"#utility.yul\":13154:13157   */\n      0xe0\n        /* \"#utility.yul\":13143:13152   */\n      dup3\n        /* \"#utility.yul\":13139:13158   */\n      add\n        /* \"#utility.yul\":13131:13158   */\n      swap1\n      pop\n        /* \"#utility.yul\":13168:13239   */\n      tag_404\n        /* \"#utility.yul\":13236:13237   */\n      0x00\n        /* \"#utility.yul\":13225:13234   */\n      dup4\n        /* \"#utility.yul\":13221:13238   */\n      add\n        /* \"#utility.yul\":13212:13218   */\n      dup11\n        /* \"#utility.yul\":13168:13239   */\n      tag_220\n      jump\t// in\n    tag_404:\n        /* \"#utility.yul\":13249:13321   */\n      tag_405\n        /* \"#utility.yul\":13317:13319   */\n      0x20\n        /* \"#utility.yul\":13306:13315   */\n      dup4\n        /* \"#utility.yul\":13302:13320   */\n      add\n        /* \"#utility.yul\":13293:13299   */\n      dup10\n        /* \"#utility.yul\":13249:13321   */\n      tag_220\n      jump\t// in\n    tag_405:\n        /* \"#utility.yul\":13331:13403   */\n      tag_406\n        /* \"#utility.yul\":13399:13401   */\n      0x40\n        /* \"#utility.yul\":13388:13397   */\n      dup4\n        /* \"#utility.yul\":13384:13402   */\n      add\n        /* \"#utility.yul\":13375:13381   */\n      dup9\n        /* \"#utility.yul\":13331:13403   */\n      tag_222\n      jump\t// in\n    tag_406:\n        /* \"#utility.yul\":13450:13459   */\n      dup2\n        /* \"#utility.yul\":13444:13448   */\n      dup2\n        /* \"#utility.yul\":13440:13460   */\n      sub\n        /* \"#utility.yul\":13435:13437   */\n      0x60\n        /* \"#utility.yul\":13424:13433   */\n      dup4\n        /* \"#utility.yul\":13420:13438   */\n      add\n        /* \"#utility.yul\":13413:13461   */\n      mstore\n        /* \"#utility.yul\":13478:13556   */\n      tag_407\n        /* \"#utility.yul\":13551:13555   */\n      dup2\n        /* \"#utility.yul\":13542:13548   */\n      dup8\n        /* \"#utility.yul\":13478:13556   */\n      tag_207\n      jump\t// in\n    tag_407:\n        /* \"#utility.yul\":13470:13556   */\n      swap1\n      pop\n        /* \"#utility.yul\":13566:13639   */\n      tag_408\n        /* \"#utility.yul\":13634:13637   */\n      0x80\n        /* \"#utility.yul\":13623:13632   */\n      dup4\n        /* \"#utility.yul\":13619:13638   */\n      add\n        /* \"#utility.yul\":13610:13616   */\n      dup7\n        /* \"#utility.yul\":13566:13639   */\n      tag_220\n      jump\t// in\n    tag_408:\n        /* \"#utility.yul\":13687:13696   */\n      dup2\n        /* \"#utility.yul\":13681:13685   */\n      dup2\n        /* \"#utility.yul\":13677:13697   */\n      sub\n        /* \"#utility.yul\":13671:13674   */\n      0xa0\n        /* \"#utility.yul\":13660:13669   */\n      dup4\n        /* \"#utility.yul\":13656:13675   */\n      add\n        /* \"#utility.yul\":13649:13698   */\n      mstore\n        /* \"#utility.yul\":13715:13793   */\n      tag_409\n        /* \"#utility.yul\":13788:13792   */\n      dup2\n        /* \"#utility.yul\":13779:13785   */\n      dup6\n        /* \"#utility.yul\":13715:13793   */\n      tag_207\n      jump\t// in\n    tag_409:\n        /* \"#utility.yul\":13707:13793   */\n      swap1\n      pop\n        /* \"#utility.yul\":13803:13876   */\n      tag_410\n        /* \"#utility.yul\":13871:13874   */\n      0xc0\n        /* \"#utility.yul\":13860:13869   */\n      dup4\n        /* \"#utility.yul\":13856:13875   */\n      add\n        /* \"#utility.yul\":13847:13853   */\n      dup5\n        /* \"#utility.yul\":13803:13876   */\n      tag_220\n      jump\t// in\n    tag_410:\n        /* \"#utility.yul\":12815:13883   */\n      swap9\n      swap8\n      pop\n      pop\n      pop\n      pop\n      pop\n      pop\n      pop\n      pop\n      jump\t// out\n        /* \"#utility.yul\":13889:14111   */\n    tag_91:\n        /* \"#utility.yul\":13982:13986   */\n      0x00\n        /* \"#utility.yul\":14020:14022   */\n      0x20\n        /* \"#utility.yul\":14009:14018   */\n      dup3\n        /* \"#utility.yul\":14005:14023   */\n      add\n        /* \"#utility.yul\":13997:14023   */\n      swap1\n      pop\n        /* \"#utility.yul\":14033:14104   */\n      tag_412\n        /* \"#utility.yul\":14101:14102   */\n      0x00\n        /* \"#utility.yul\":14090:14099   */\n      dup4\n        /* \"#utility.yul\":14086:14103   */\n      add\n        /* \"#utility.yul\":14077:14083   */\n      dup5\n        /* \"#utility.yul\":14033:14104   */\n      tag_222\n      jump\t// in\n    tag_412:\n        /* \"#utility.yul\":13889:14111   */\n      swap3\n      swap2\n      pop\n      pop\n      jump\t// out\n        /* \"#utility.yul\":14117:14292   */\n    tag_234:\n        /* \"#utility.yul\":14257:14284   */\n      0x5468652047617465204b6565706572204e6f7420666f756e6400000000000000\n        /* \"#utility.yul\":14253:14254   */\n      0x00\n        /* \"#utility.yul\":14245:14251   */\n      dup3\n        /* \"#utility.yul\":14241:14255   */\n      add\n        /* \"#utility.yul\":14234:14285   */\n      mstore\n        /* \"#utility.yul\":14117:14292   */\n      pop\n      jump\t// out\n        /* \"#utility.yul\":14298:14664   */\n    tag_235:\n        /* \"#utility.yul\":14440:14443   */\n      0x00\n        /* \"#utility.yul\":14461:14528   */\n      tag_415\n        /* \"#utility.yul\":14525:14527   */\n      0x19\n        /* \"#utility.yul\":14520:14523   */\n      dup4\n        /* \"#utility.yul\":14461:14528   */\n      tag_204\n      jump\t// in\n    tag_415:\n        /* \"#utility.yul\":14454:14528   */\n      swap2\n      pop\n        /* \"#utility.yul\":14537:14630   */\n      tag_416\n        /* \"#utility.yul\":14626:14629   */\n      dup3\n        /* \"#utility.yul\":14537:14630   */\n      tag_234\n      jump\t// in\n    tag_416:\n        /* \"#utility.yul\":14655:14657   */\n      0x20\n        /* \"#utility.yul\":14650:14653   */\n      dup3\n        /* \"#utility.yul\":14646:14658   */\n      add\n        /* \"#utility.yul\":14639:14658   */\n      swap1\n      pop\n        /* \"#utility.yul\":14298:14664   */\n      swap2\n      swap1\n      pop\n      jump\t// out\n        /* \"#utility.yul\":14670:15089   */\n    tag_96:\n        /* \"#utility.yul\":14836:14840   */\n      0x00\n        /* \"#utility.yul\":14874:14876   */\n      0x20\n        /* \"#utility.yul\":14863:14872   */\n      dup3\n        /* \"#utility.yul\":14859:14877   */\n      add\n        /* \"#utility.yul\":14851:14877   */\n      swap1\n      pop\n        /* \"#utility.yul\":14923:14932   */\n      dup2\n        /* \"#utility.yul\":14917:14921   */\n      dup2\n        /* \"#utility.yul\":14913:14933   */\n      sub\n        /* \"#utility.yul\":14909:14910   */\n      0x00\n        /* \"#utility.yul\":14898:14907   */\n      dup4\n        /* \"#utility.yul\":14894:14911   */\n      add\n        /* \"#utility.yul\":14887:14934   */\n      mstore\n        /* \"#utility.yul\":14951:15082   */\n      tag_418\n        /* \"#utility.yul\":15077:15081   */\n      dup2\n        /* \"#utility.yul\":14951:15082   */\n      tag_235\n      jump\t// in\n    tag_418:\n        /* \"#utility.yul\":14943:15082   */\n      swap1\n      pop\n        /* \"#utility.yul\":14670:15089   */\n      swap2\n      swap1\n      pop\n      jump\t// out\n        /* \"#utility.yul\":15095:15266   */\n    tag_236:\n        /* \"#utility.yul\":15235:15258   */\n      0x43616c6c6572206973206e6f74206d616e616765720000000000000000000000\n        /* \"#utility.yul\":15231:15232   */\n      0x00\n        /* \"#utility.yul\":15223:15229   */\n      dup3\n        /* \"#utility.yul\":15219:15233   */\n      add\n        /* \"#utility.yul\":15212:15259   */\n      mstore\n        /* \"#utility.yul\":15095:15266   */\n      pop\n      jump\t// out\n        /* \"#utility.yul\":15272:15638   */\n    tag_237:\n        /* \"#utility.yul\":15414:15417   */\n      0x00\n        /* \"#utility.yul\":15435:15502   */\n      tag_421\n        /* \"#utility.yul\":15499:15501   */\n      0x15\n        /* \"#utility.yul\":15494:15497   */\n      dup4\n        /* \"#utility.yul\":15435:15502   */\n      tag_204\n      jump\t// in\n    tag_421:\n        /* \"#utility.yul\":15428:15502   */\n      swap2\n      pop\n        /* \"#utility.yul\":15511:15604   */\n      tag_422\n        /* \"#utility.yul\":15600:15603   */\n      dup3\n        /* \"#utility.yul\":15511:15604   */\n      tag_236\n      jump\t// in\n    tag_422:\n        /* \"#utility.yul\":15629:15631   */\n      0x20\n        /* \"#utility.yul\":15624:15627   */\n      dup3\n        /* \"#utility.yul\":15620:15632   */\n      add\n        /* \"#utility.yul\":15613:15632   */\n      swap1\n      pop\n        /* \"#utility.yul\":15272:15638   */\n      swap2\n      swap1\n      pop\n      jump\t// out\n        /* \"#utility.yul\":15644:16063   */\n    tag_106:\n        /* \"#utility.yul\":15810:15814   */\n      0x00\n        /* \"#utility.yul\":15848:15850   */\n      0x20\n        /* \"#utility.yul\":15837:15846   */\n      dup3\n        /* \"#utility.yul\":15833:15851   */\n      add\n        /* \"#utility.yul\":15825:15851   */\n      swap1\n      pop\n        /* \"#utility.yul\":15897:15906   */\n      dup2\n        /* \"#utility.yul\":15891:15895   */\n      dup2\n        /* \"#utility.yul\":15887:15907   */\n      sub\n        /* \"#utility.yul\":15883:15884   */\n      0x00\n        /* \"#utility.yul\":15872:15881   */\n      dup4\n        /* \"#utility.yul\":15868:15885   */\n      add\n        /* \"#utility.yul\":15861:15908   */\n      mstore\n        /* \"#utility.yul\":15925:16056   */\n      tag_424\n        /* \"#utility.yul\":16051:16055   */\n      dup2\n        /* \"#utility.yul\":15925:16056   */\n      tag_237\n      jump\t// in\n    tag_424:\n        /* \"#utility.yul\":15917:16056   */\n      swap1\n      pop\n        /* \"#utility.yul\":15644:16063   */\n      swap2\n      swap1\n      pop\n      jump\t// out\n        /* \"#utility.yul\":16069:16296   */\n    tag_238:\n        /* \"#utility.yul\":16209:16243   */\n      0x4f6e6c79206f6e652074696d652063616c6c20697320616c6c6f77656420666f\n        /* \"#utility.yul\":16205:16206   */\n      0x00\n        /* \"#utility.yul\":16197:16203   */\n      dup3\n        /* \"#utility.yul\":16193:16207   */\n      add\n        /* \"#utility.yul\":16186:16244   */\n      mstore\n        /* \"#utility.yul\":16278:16288   */\n      0x7220747868617368000000000000000000000000000000000000000000000000\n        /* \"#utility.yul\":16273:16275   */\n      0x20\n        /* \"#utility.yul\":16265:16271   */\n      dup3\n        /* \"#utility.yul\":16261:16276   */\n      add\n        /* \"#utility.yul\":16254:16289   */\n      mstore\n        /* \"#utility.yul\":16069:16296   */\n      pop\n      jump\t// out\n        /* \"#utility.yul\":16302:16668   */\n    tag_239:\n        /* \"#utility.yul\":16444:16447   */\n      0x00\n        /* \"#utility.yul\":16465:16532   */\n      tag_427\n        /* \"#utility.yul\":16529:16531   */\n      0x28\n        /* \"#utility.yul\":16524:16527   */\n      dup4\n        /* \"#utility.yul\":16465:16532   */\n      tag_204\n      jump\t// in\n    tag_427:\n        /* \"#utility.yul\":16458:16532   */\n      swap2\n      pop\n        /* \"#utility.yul\":16541:16634   */\n      tag_428\n        /* \"#utility.yul\":16630:16633   */\n      dup3\n        /* \"#utility.yul\":16541:16634   */\n      tag_238\n      jump\t// in\n    tag_428:\n        /* \"#utility.yul\":16659:16661   */\n      0x40\n        /* \"#utility.yul\":16654:16657   */\n      dup3\n        /* \"#utility.yul\":16650:16662   */\n      add\n        /* \"#utility.yul\":16643:16662   */\n      swap1\n      pop\n        /* \"#utility.yul\":16302:16668   */\n      swap2\n      swap1\n      pop\n      jump\t// out\n        /* \"#utility.yul\":16674:17093   */\n    tag_110:\n        /* \"#utility.yul\":16840:16844   */\n      0x00\n        /* \"#utility.yul\":16878:16880   */\n      0x20\n        /* \"#utility.yul\":16867:16876   */\n      dup3\n        /* \"#utility.yul\":16863:16881   */\n      add\n        /* \"#utility.yul\":16855:16881   */\n      swap1\n      pop\n        /* \"#utility.yul\":16927:16936   */\n      dup2\n        /* \"#utility.yul\":16921:16925   */\n      dup2\n        /* \"#utility.yul\":16917:16937   */\n      sub\n        /* \"#utility.yul\":16913:16914   */\n      0x00\n        /* \"#utility.yul\":16902:16911   */\n      dup4\n        /* \"#utility.yul\":16898:16915   */\n      add\n        /* \"#utility.yul\":16891:16938   */\n      mstore\n        /* \"#utility.yul\":16955:17086   */\n      tag_430\n        /* \"#utility.yul\":17081:17085   */\n      dup2\n        /* \"#utility.yul\":16955:17086   */\n      tag_239\n      jump\t// in\n    tag_430:\n        /* \"#utility.yul\":16947:17086   */\n      swap1\n      pop\n        /* \"#utility.yul\":16674:17093   */\n      swap2\n      swap1\n      pop\n      jump\t// out\n        /* \"#utility.yul\":17099:17279   */\n    tag_113:\n        /* \"#utility.yul\":17147:17224   */\n      0x4e487b7100000000000000000000000000000000000000000000000000000000\n        /* \"#utility.yul\":17144:17145   */\n      0x00\n        /* \"#utility.yul\":17137:17225   */\n      mstore\n        /* \"#utility.yul\":17244:17248   */\n      0x32\n        /* \"#utility.yul\":17241:17242   */\n      0x04\n        /* \"#utility.yul\":17234:17249   */\n      mstore\n        /* \"#utility.yul\":17268:17272   */\n      0x24\n        /* \"#utility.yul\":17265:17266   */\n      0x00\n        /* \"#utility.yul\":17258:17273   */\n      revert\n        /* \"#utility.yul\":17285:17465   */\n    tag_240:\n        /* \"#utility.yul\":17333:17410   */\n      0x4e487b7100000000000000000000000000000000000000000000000000000000\n        /* \"#utility.yul\":17330:17331   */\n      0x00\n        /* \"#utility.yul\":17323:17411   */\n      mstore\n        /* \"#utility.yul\":17430:17434   */\n      0x22\n        /* \"#utility.yul\":17427:17428   */\n      0x04\n        /* \"#utility.yul\":17420:17435   */\n      mstore\n        /* \"#utility.yul\":17454:17458   */\n      0x24\n        /* \"#utility.yul\":17451:17452   */\n      0x00\n        /* \"#utility.yul\":17444:17459   */\n      revert\n        /* \"#utility.yul\":17471:17791   */\n    tag_133:\n        /* \"#utility.yul\":17515:17521   */\n      0x00\n        /* \"#utility.yul\":17552:17553   */\n      0x02\n        /* \"#utility.yul\":17546:17550   */\n      dup3\n        /* \"#utility.yul\":17542:17554   */\n      div\n        /* \"#utility.yul\":17532:17554   */\n      swap1\n      pop\n        /* \"#utility.yul\":17599:17600   */\n      0x01\n        /* \"#utility.yul\":17593:17597   */\n      dup3\n        /* \"#utility.yul\":17589:17601   */\n      and\n        /* \"#utility.yul\":17620:17638   */\n      dup1\n        /* \"#utility.yul\":17610:17691   */\n      tag_434\n      jumpi\n        /* \"#utility.yul\":17676:17680   */\n      0x7f\n        /* \"#utility.yul\":17668:17674   */\n      dup3\n        /* \"#utility.yul\":17664:17681   */\n      and\n        /* \"#utility.yul\":17654:17681   */\n      swap2\n      pop\n        /* \"#utility.yul\":17610:17691   */\n    tag_434:\n        /* \"#utility.yul\":17738:17740   */\n      0x20\n        /* \"#utility.yul\":17730:17736   */\n      dup3\n        /* \"#utility.yul\":17727:17741   */\n      lt\n        /* \"#utility.yul\":17707:17725   */\n      dup2\n        /* \"#utility.yul\":17704:17742   */\n      sub\n        /* \"#utility.yul\":17701:17785   */\n      tag_435\n      jumpi\n        /* \"#utility.yul\":17757:17775   */\n      tag_436\n      tag_240\n      jump\t// in\n    tag_436:\n        /* \"#utility.yul\":17701:17785   */\n    tag_435:\n        /* \"#utility.yul\":17522:17791   */\n      pop\n        /* \"#utility.yul\":17471:17791   */\n      swap2\n      swap1\n      pop\n      jump\t// out\n        /* \"#utility.yul\":17797:17938   */\n    tag_241:\n        /* \"#utility.yul\":17846:17850   */\n      0x00\n        /* \"#utility.yul\":17869:17872   */\n      dup2\n        /* \"#utility.yul\":17861:17872   */\n      swap1\n      pop\n        /* \"#utility.yul\":17892:17895   */\n      dup2\n        /* \"#utility.yul\":17889:17890   */\n      0x00\n        /* \"#utility.yul\":17882:17896   */\n      mstore\n        /* \"#utility.yul\":17926:17930   */\n      0x20\n        /* \"#utility.yul\":17923:17924   */\n      0x00\n        /* \"#utility.yul\":17913:17931   */\n      keccak256\n        /* \"#utility.yul\":17905:17931   */\n      swap1\n      pop\n        /* \"#utility.yul\":17797:17938   */\n      swap2\n      swap1\n      pop\n      jump\t// out\n        /* \"#utility.yul\":17968:18799   */\n    tag_242:\n        /* \"#utility.yul\":18053:18056   */\n      0x00\n        /* \"#utility.yul\":18090:18095   */\n      dup2\n        /* \"#utility.yul\":18084:18096   */\n      sload\n        /* \"#utility.yul\":18119:18155   */\n      tag_439\n        /* \"#utility.yul\":18145:18154   */\n      dup2\n        /* \"#utility.yul\":18119:18155   */\n      tag_133\n      jump\t// in\n    tag_439:\n        /* \"#utility.yul\":18171:18242   */\n      tag_440\n        /* \"#utility.yul\":18235:18241   */\n      dup2\n        /* \"#utility.yul\":18230:18233   */\n      dup7\n        /* \"#utility.yul\":18171:18242   */\n      tag_204\n      jump\t// in\n    tag_440:\n        /* \"#utility.yul\":18164:18242   */\n      swap5\n      pop\n        /* \"#utility.yul\":18273:18274   */\n      0x01\n        /* \"#utility.yul\":18262:18271   */\n      dup3\n        /* \"#utility.yul\":18258:18275   */\n      and\n        /* \"#utility.yul\":18289:18290   */\n      0x00\n        /* \"#utility.yul\":18284:18448   */\n      dup2\n      eq\n      tag_442\n      jumpi\n        /* \"#utility.yul\":18462:18463   */\n      0x01\n        /* \"#utility.yul\":18457:18793   */\n      dup2\n      eq\n      tag_443\n      jumpi\n        /* \"#utility.yul\":18251:18793   */\n      jump(tag_441)\n        /* \"#utility.yul\":18284:18448   */\n    tag_442:\n        /* \"#utility.yul\":18368:18372   */\n      0xff\n        /* \"#utility.yul\":18364:18373   */\n      not\n        /* \"#utility.yul\":18353:18362   */\n      dup4\n        /* \"#utility.yul\":18349:18374   */\n      and\n        /* \"#utility.yul\":18344:18347   */\n      dup7\n        /* \"#utility.yul\":18337:18375   */\n      mstore\n        /* \"#utility.yul\":18428:18434   */\n      dup2\n        /* \"#utility.yul\":18421:18435   */\n      iszero\n        /* \"#utility.yul\":18414:18436   */\n      iszero\n        /* \"#utility.yul\":18408:18412   */\n      0x20\n        /* \"#utility.yul\":18404:18437   */\n      mul\n        /* \"#utility.yul\":18399:18402   */\n      dup7\n        /* \"#utility.yul\":18395:18438   */\n      add\n        /* \"#utility.yul\":18388:18438   */\n      swap4\n      pop\n        /* \"#utility.yul\":18284:18448   */\n      jump(tag_441)\n        /* \"#utility.yul\":18457:18793   */\n    tag_443:\n        /* \"#utility.yul\":18524:18562   */\n      tag_444\n        /* \"#utility.yul\":18556:18561   */\n      dup6\n        /* \"#utility.yul\":18524:18562   */\n      tag_241\n      jump\t// in\n    tag_444:\n        /* \"#utility.yul\":18584:18585   */\n      0x00\n        /* \"#utility.yul\":18598:18752   */\n    tag_445:\n        /* \"#utility.yul\":18612:18618   */\n      dup4\n        /* \"#utility.yul\":18609:18610   */\n      dup2\n        /* \"#utility.yul\":18606:18619   */\n      lt\n        /* \"#utility.yul\":18598:18752   */\n      iszero\n      tag_447\n      jumpi\n        /* \"#utility.yul\":18686:18693   */\n      dup2\n        /* \"#utility.yul\":18680:18694   */\n      sload\n        /* \"#utility.yul\":18676:18677   */\n      dup2\n        /* \"#utility.yul\":18671:18674   */\n      dup10\n        /* \"#utility.yul\":18667:18678   */\n      add\n        /* \"#utility.yul\":18660:18695   */\n      mstore\n        /* \"#utility.yul\":18736:18737   */\n      0x01\n        /* \"#utility.yul\":18727:18734   */\n      dup3\n        /* \"#utility.yul\":18723:18738   */\n      add\n        /* \"#utility.yul\":18712:18738   */\n      swap2\n      pop\n        /* \"#utility.yul\":18634:18638   */\n      0x20\n        /* \"#utility.yul\":18631:18632   */\n      dup2\n        /* \"#utility.yul\":18627:18639   */\n      add\n        /* \"#utility.yul\":18622:18639   */\n      swap1\n      pop\n        /* \"#utility.yul\":18598:18752   */\n      jump(tag_445)\n    tag_447:\n        /* \"#utility.yul\":18781:18782   */\n      dup1\n        /* \"#utility.yul\":18776:18779   */\n      dup9\n        /* \"#utility.yul\":18772:18783   */\n      add\n        /* \"#utility.yul\":18765:18783   */\n      swap6\n      pop\n        /* \"#utility.yul\":18464:18793   */\n      pop\n      pop\n        /* \"#utility.yul\":18251:18793   */\n    tag_441:\n      pop\n        /* \"#utility.yul\":18057:18799   */\n      pop\n      pop\n        /* \"#utility.yul\":17968:18799   */\n      swap3\n      swap2\n      pop\n      pop\n      jump\t// out\n        /* \"#utility.yul\":18805:19639   */\n    tag_131:\n        /* \"#utility.yul\":19044:19048   */\n      0x00\n        /* \"#utility.yul\":19082:19085   */\n      0xa0\n        /* \"#utility.yul\":19071:19080   */\n      dup3\n        /* \"#utility.yul\":19067:19086   */\n      add\n        /* \"#utility.yul\":19059:19086   */\n      swap1\n      pop\n        /* \"#utility.yul\":19096:19167   */\n      tag_449\n        /* \"#utility.yul\":19164:19165   */\n      0x00\n        /* \"#utility.yul\":19153:19162   */\n      dup4\n        /* \"#utility.yul\":19149:19166   */\n      add\n        /* \"#utility.yul\":19140:19146   */\n      dup9\n        /* \"#utility.yul\":19096:19167   */\n      tag_222\n      jump\t// in\n    tag_449:\n        /* \"#utility.yul\":19214:19223   */\n      dup2\n        /* \"#utility.yul\":19208:19212   */\n      dup2\n        /* \"#utility.yul\":19204:19224   */\n      sub\n        /* \"#utility.yul\":19199:19201   */\n      0x20\n        /* \"#utility.yul\":19188:19197   */\n      dup4\n        /* \"#utility.yul\":19184:19202   */\n      add\n        /* \"#utility.yul\":19177:19225   */\n      mstore\n        /* \"#utility.yul\":19242:19317   */\n      tag_450\n        /* \"#utility.yul\":19312:19316   */\n      dup2\n        /* \"#utility.yul\":19303:19309   */\n      dup8\n        /* \"#utility.yul\":19242:19317   */\n      tag_242\n      jump\t// in\n    tag_450:\n        /* \"#utility.yul\":19234:19317   */\n      swap1\n      pop\n        /* \"#utility.yul\":19327:19399   */\n      tag_451\n        /* \"#utility.yul\":19395:19397   */\n      0x40\n        /* \"#utility.yul\":19384:19393   */\n      dup4\n        /* \"#utility.yul\":19380:19398   */\n      add\n        /* \"#utility.yul\":19371:19377   */\n      dup7\n        /* \"#utility.yul\":19327:19399   */\n      tag_220\n      jump\t// in\n    tag_451:\n        /* \"#utility.yul\":19446:19455   */\n      dup2\n        /* \"#utility.yul\":19440:19444   */\n      dup2\n        /* \"#utility.yul\":19436:19456   */\n      sub\n        /* \"#utility.yul\":19431:19433   */\n      0x60\n        /* \"#utility.yul\":19420:19429   */\n      dup4\n        /* \"#utility.yul\":19416:19434   */\n      add\n        /* \"#utility.yul\":19409:19457   */\n      mstore\n        /* \"#utility.yul\":19474:19549   */\n      tag_452\n        /* \"#utility.yul\":19544:19548   */\n      dup2\n        /* \"#utility.yul\":19535:19541   */\n      dup6\n        /* \"#utility.yul\":19474:19549   */\n      tag_242\n      jump\t// in\n    tag_452:\n        /* \"#utility.yul\":19466:19549   */\n      swap1\n      pop\n        /* \"#utility.yul\":19559:19632   */\n      tag_453\n        /* \"#utility.yul\":19627:19630   */\n      0x80\n        /* \"#utility.yul\":19616:19625   */\n      dup4\n        /* \"#utility.yul\":19612:19631   */\n      add\n        /* \"#utility.yul\":19603:19609   */\n      dup5\n        /* \"#utility.yul\":19559:19632   */\n      tag_220\n      jump\t// in\n    tag_453:\n        /* \"#utility.yul\":18805:19639   */\n      swap7\n      swap6\n      pop\n      pop\n      pop\n      pop\n      pop\n      pop\n      jump\t// out\n        /* \"#utility.yul\":19645:19793   */\n    tag_243:\n        /* \"#utility.yul\":19747:19758   */\n      0x00\n        /* \"#utility.yul\":19784:19787   */\n      dup2\n        /* \"#utility.yul\":19769:19787   */\n      swap1\n      pop\n        /* \"#utility.yul\":19645:19793   */\n      swap3\n      swap2\n      pop\n      pop\n      jump\t// out\n        /* \"#utility.yul\":19799:20189   */\n    tag_244:\n        /* \"#utility.yul\":19905:19908   */\n      0x00\n        /* \"#utility.yul\":19933:19972   */\n      tag_456\n        /* \"#utility.yul\":19966:19971   */\n      dup3\n        /* \"#utility.yul\":19933:19972   */\n      tag_203\n      jump\t// in\n    tag_456:\n        /* \"#utility.yul\":19988:20077   */\n      tag_457\n        /* \"#utility.yul\":20070:20076   */\n      dup2\n        /* \"#utility.yul\":20065:20068   */\n      dup6\n        /* \"#utility.yul\":19988:20077   */\n      tag_243\n      jump\t// in\n    tag_457:\n        /* \"#utility.yul\":19981:20077   */\n      swap4\n      pop\n        /* \"#utility.yul\":20086:20151   */\n      tag_458\n        /* \"#utility.yul\":20144:20150   */\n      dup2\n        /* \"#utility.yul\":20139:20142   */\n      dup6\n        /* \"#utility.yul\":20132:20136   */\n      0x20\n        /* \"#utility.yul\":20125:20130   */\n      dup7\n        /* \"#utility.yul\":20121:20137   */\n      add\n        /* \"#utility.yul\":20086:20151   */\n      tag_205\n      jump\t// in\n    tag_458:\n        /* \"#utility.yul\":20176:20182   */\n      dup1\n        /* \"#utility.yul\":20171:20174   */\n      dup5\n        /* \"#utility.yul\":20167:20183   */\n      add\n        /* \"#utility.yul\":20160:20183   */\n      swap2\n      pop\n        /* \"#utility.yul\":19909:20189   */\n      pop\n        /* \"#utility.yul\":19799:20189   */\n      swap3\n      swap2\n      pop\n      pop\n      jump\t// out\n        /* \"#utility.yul\":20195:20470   */\n    tag_154:\n        /* \"#utility.yul\":20327:20330   */\n      0x00\n        /* \"#utility.yul\":20349:20444   */\n      tag_460\n        /* \"#utility.yul\":20440:20443   */\n      dup3\n        /* \"#utility.yul\":20431:20437   */\n      dup5\n        /* \"#utility.yul\":20349:20444   */\n      tag_244\n      jump\t// in\n    tag_460:\n        /* \"#utility.yul\":20342:20444   */\n      swap2\n      pop\n        /* \"#utility.yul\":20461:20464   */\n      dup2\n        /* \"#utility.yul\":20454:20464   */\n      swap1\n      pop\n        /* \"#utility.yul\":20195:20470   */\n      swap3\n      swap2\n      pop\n      pop\n      jump\t// out\n        /* \"#utility.yul\":20476:20712   */\n    tag_245:\n        /* \"#utility.yul\":20616:20650   */\n      0x4f6e6c79206f6e652074696d652063616c6c20697320616c6c6f776564206279\n        /* \"#utility.yul\":20612:20613   */\n      0x00\n        /* \"#utility.yul\":20604:20610   */\n      dup3\n        /* \"#utility.yul\":20600:20614   */\n      add\n        /* \"#utility.yul\":20593:20651   */\n      mstore\n        /* \"#utility.yul\":20685:20704   */\n      0x20656163682047617465204b6565706572000000000000000000000000000000\n        /* \"#utility.yul\":20680:20682   */\n      0x20\n        /* \"#utility.yul\":20672:20678   */\n      dup3\n        /* \"#utility.yul\":20668:20683   */\n      add\n        /* \"#utility.yul\":20661:20705   */\n      mstore\n        /* \"#utility.yul\":20476:20712   */\n      pop\n      jump\t// out\n        /* \"#utility.yul\":20718:21084   */\n    tag_246:\n        /* \"#utility.yul\":20860:20863   */\n      0x00\n        /* \"#utility.yul\":20881:20948   */\n      tag_463\n        /* \"#utility.yul\":20945:20947   */\n      0x31\n        /* \"#utility.yul\":20940:20943   */\n      dup4\n        /* \"#utility.yul\":20881:20948   */\n      tag_204\n      jump\t// in\n    tag_463:\n        /* \"#utility.yul\":20874:20948   */\n      swap2\n      pop\n        /* \"#utility.yul\":20957:21050   */\n      tag_464\n        /* \"#utility.yul\":21046:21049   */\n      dup3\n        /* \"#utility.yul\":20957:21050   */\n      tag_245\n      jump\t// in\n    tag_464:\n        /* \"#utility.yul\":21075:21077   */\n      0x40\n        /* \"#utility.yul\":21070:21073   */\n      dup3\n        /* \"#utility.yul\":21066:21078   */\n      add\n        /* \"#utility.yul\":21059:21078   */\n      swap1\n      pop\n        /* \"#utility.yul\":20718:21084   */\n      swap2\n      swap1\n      pop\n      jump\t// out\n        /* \"#utility.yul\":21090:21509   */\n    tag_161:\n        /* \"#utility.yul\":21256:21260   */\n      0x00\n        /* \"#utility.yul\":21294:21296   */\n      0x20\n        /* \"#utility.yul\":21283:21292   */\n      dup3\n        /* \"#utility.yul\":21279:21297   */\n      add\n        /* \"#utility.yul\":21271:21297   */\n      swap1\n      pop\n        /* \"#utility.yul\":21343:21352   */\n      dup2\n        /* \"#utility.yul\":21337:21341   */\n      dup2\n        /* \"#utility.yul\":21333:21353   */\n      sub\n        /* \"#utility.yul\":21329:21330   */\n      0x00\n        /* \"#utility.yul\":21318:21327   */\n      dup4\n        /* \"#utility.yul\":21314:21331   */\n      add\n        /* \"#utility.yul\":21307:21354   */\n      mstore\n        /* \"#utility.yul\":21371:21502   */\n      tag_466\n        /* \"#utility.yul\":21497:21501   */\n      dup2\n        /* \"#utility.yul\":21371:21502   */\n      tag_246\n      jump\t// in\n    tag_466:\n        /* \"#utility.yul\":21363:21502   */\n      swap1\n      pop\n        /* \"#utility.yul\":21090:21509   */\n      swap2\n      swap1\n      pop\n      jump\t// out\n        /* \"#utility.yul\":21515:21608   */\n    tag_247:\n        /* \"#utility.yul\":21552:21558   */\n      0x00\n        /* \"#utility.yul\":21599:21601   */\n      0x20\n        /* \"#utility.yul\":21594:21596   */\n      0x1f\n        /* \"#utility.yul\":21587:21592   */\n      dup4\n        /* \"#utility.yul\":21583:21597   */\n      add\n        /* \"#utility.yul\":21579:21602   */\n      div\n        /* \"#utility.yul\":21569:21602   */\n      swap1\n      pop\n        /* \"#utility.yul\":21515:21608   */\n      swap2\n      swap1\n      pop\n      jump\t// out\n        /* \"#utility.yul\":21614:21721   */\n    tag_248:\n        /* \"#utility.yul\":21658:21666   */\n      0x00\n        /* \"#utility.yul\":21708:21713   */\n      dup3\n        /* \"#utility.yul\":21702:21706   */\n      dup3\n        /* \"#utility.yul\":21698:21714   */\n      shl\n        /* \"#utility.yul\":21677:21714   */\n      swap1\n      pop\n        /* \"#utility.yul\":21614:21721   */\n      swap3\n      swap2\n      pop\n      pop\n      jump\t// out\n        /* \"#utility.yul\":21727:22120   */\n    tag_249:\n        /* \"#utility.yul\":21796:21802   */\n      0x00\n        /* \"#utility.yul\":21846:21847   */\n      0x08\n        /* \"#utility.yul\":21834:21844   */\n      dup4\n        /* \"#utility.yul\":21830:21848   */\n      mul\n        /* \"#utility.yul\":21869:21966   */\n      tag_470\n        /* \"#utility.yul\":21899:21965   */\n      0xffffffffffffffffffffffffffffffffffffffffffffffffffffffffffffffff\n        /* \"#utility.yul\":21888:21897   */\n      dup3\n        /* \"#utility.yul\":21869:21966   */\n      tag_248\n      jump\t// in\n    tag_470:\n        /* \"#utility.yul\":21987:22026   */\n      tag_471\n        /* \"#utility.yul\":22017:22025   */\n      dup7\n        /* \"#utility.yul\":22006:22015   */\n      dup4\n        /* \"#utility.yul\":21987:22026   */\n      tag_248\n      jump\t// in\n    tag_471:\n        /* \"#utility.yul\":21975:22026   */\n      swap6\n      pop\n        /* \"#utility.yul\":22059:22063   */\n      dup1\n        /* \"#utility.yul\":22055:22064   */\n      not\n        /* \"#utility.yul\":22048:22053   */\n      dup5\n        /* \"#utility.yul\":22044:22065   */\n      and\n        /* \"#utility.yul\":22035:22065   */\n      swap4\n      pop\n        /* \"#utility.yul\":22108:22112   */\n      dup1\n        /* \"#utility.yul\":22098:22106   */\n      dup7\n        /* \"#utility.yul\":22094:22113   */\n      and\n        /* \"#utility.yul\":22087:22092   */\n      dup5\n        /* \"#utility.yul\":22084:22114   */\n      or\n        /* \"#utility.yul\":22074:22114   */\n      swap3\n      pop\n        /* \"#utility.yul\":21803:22120   */\n      pop\n      pop\n        /* \"#utility.yul\":21727:22120   */\n      swap4\n      swap3\n      pop\n      pop\n      pop\n      jump\t// out\n        /* \"#utility.yul\":22126:22186   */\n    tag_250:\n        /* \"#utility.yul\":22154:22157   */\n      0x00\n        /* \"#utility.yul\":22175:22180   */\n      dup2\n        /* \"#utility.yul\":22168:22180   */\n      swap1\n      pop\n        /* \"#utility.yul\":22126:22186   */\n      swap2\n      swap1\n      pop\n      jump\t// out\n        /* \"#utility.yul\":22192:22334   */\n    tag_251:\n        /* \"#utility.yul\":22242:22251   */\n      0x00\n        /* \"#utility.yul\":22275:22328   */\n      tag_474\n        /* \"#utility.yul\":22293:22327   */\n      tag_475\n        /* \"#utility.yul\":22302:22326   */\n      tag_476\n        /* \"#utility.yul\":22320:22325   */\n      dup5\n        /* \"#utility.yul\":22302:22326   */\n      tag_221\n      jump\t// in\n    tag_476:\n        /* \"#utility.yul\":22293:22327   */\n      tag_250\n      jump\t// in\n    tag_475:\n        /* \"#utility.yul\":22275:22328   */\n      tag_221\n      jump\t// in\n    tag_474:\n        /* \"#utility.yul\":22262:22328   */\n      swap1\n      pop\n        /* \"#utility.yul\":22192:22334   */\n      swap2\n      swap1\n      pop\n      jump\t// out\n        /* \"#utility.yul\":22340:22415   */\n    tag_252:\n        /* \"#utility.yul\":22383:22386   */\n      0x00\n        /* \"#utility.yul\":22404:22409   */\n      dup2\n        /* \"#utility.yul\":22397:22409   */\n      swap1\n      pop\n        /* \"#utility.yul\":22340:22415   */\n      swap2\n      swap1\n      pop\n      jump\t// out\n        /* \"#utility.yul\":22421:22690   */\n    tag_253:\n        /* \"#utility.yul\":22531:22570   */\n      tag_479\n        /* \"#utility.yul\":22562:22569   */\n      dup4\n        /* \"#utility.yul\":22531:22570   */\n      tag_251\n      jump\t// in\n    tag_479:\n        /* \"#utility.yul\":22592:22683   */\n      tag_480\n        /* \"#utility.yul\":22641:22682   */\n      tag_481\n        /* \"#utility.yul\":22665:22681   */\n      dup3\n        /* \"#utility.yul\":22641:22682   */\n      tag_252\n      jump\t// in\n    tag_481:\n        /* \"#utility.yul\":22633:22639   */\n      dup5\n        /* \"#utility.yul\":22626:22630   */\n      dup5\n        /* \"#utility.yul\":22620:22631   */\n      sload\n        /* \"#utility.yul\":22592:22683   */\n      tag_249\n      jump\t// in\n    tag_480:\n        /* \"#utility.yul\":22586:22590   */\n      dup3\n        /* \"#utility.yul\":22579:22684   */\n      sstore\n        /* \"#utility.yul\":22497:22690   */\n      pop\n        /* \"#utility.yul\":22421:22690   */\n      pop\n      pop\n      pop\n      jump\t// out\n        /* \"#utility.yul\":22696:22769   */\n    tag_254:\n        /* \"#utility.yul\":22741:22744   */\n      0x00\n        /* \"#utility.yul\":22696:22769   */\n      swap1\n      jump\t// out\n        /* \"#utility.yul\":22775:22964   */\n    tag_255:\n        /* \"#utility.yul\":22852:22884   */\n      tag_484\n      tag_254\n      jump\t// in\n    tag_484:\n        /* \"#utility.yul\":22893:22958   */\n      tag_485\n        /* \"#utility.yul\":22951:22957   */\n      dup2\n        /* \"#utility.yul\":22943:22949   */\n      dup5\n        /* \"#utility.yul\":22937:22941   */\n      dup5\n        /* \"#utility.yul\":22893:22958   */\n      tag_253\n      jump\t// in\n    tag_485:\n        /* \"#utility.yul\":22828:22964   */\n      pop\n        /* \"#utility.yul\":22775:22964   */\n      pop\n      pop\n      jump\t// out\n        /* \"#utility.yul\":22970:23156   */\n    tag_256:\n        /* \"#utility.yul\":23030:23150   */\n    tag_487:\n        /* \"#utility.yul\":23047:23050   */\n      dup2\n        /* \"#utility.yul\":23040:23045   */\n      dup2\n        /* \"#utility.yul\":23037:23051   */\n      lt\n        /* \"#utility.yul\":23030:23150   */\n      iszero\n      tag_489\n      jumpi\n        /* \"#utility.yul\":23101:23140   */\n      tag_490\n        /* \"#utility.yul\":23138:23139   */\n      0x00\n        /* \"#utility.yul\":23131:23136   */\n      dup3\n        /* \"#utility.yul\":23101:23140   */\n      tag_255\n      jump\t// in\n    tag_490:\n        /* \"#utility.yul\":23074:23075   */\n      0x01\n        /* \"#utility.yul\":23067:23072   */\n      dup2\n        /* \"#utility.yul\":23063:23076   */\n      add\n        /* \"#utility.yul\":23054:23076   */\n      swap1\n      pop\n        /* \"#utility.yul\":23030:23150   */\n      jump(tag_487)\n    tag_489:\n        /* \"#utility.yul\":22970:23156   */\n      pop\n      pop\n      jump\t// out\n        /* \"#utility.yul\":23162:23705   */\n    tag_257:\n        /* \"#utility.yul\":23263:23265   */\n      0x1f\n        /* \"#utility.yul\":23258:23261   */\n      dup3\n        /* \"#utility.yul\":23255:23266   */\n      gt\n        /* \"#utility.yul\":23252:23698   */\n      iszero\n      tag_492\n      jumpi\n        /* \"#utility.yul\":23297:23335   */\n      tag_493\n        /* \"#utility.yul\":23329:23334   */\n      dup2\n        /* \"#utility.yul\":23297:23335   */\n      tag_241\n      jump\t// in\n    tag_493:\n        /* \"#utility.yul\":23381:23410   */\n      tag_494\n        /* \"#utility.yul\":23399:23409   */\n      dup5\n        /* \"#utility.yul\":23381:23410   */\n      tag_247\n      jump\t// in\n    tag_494:\n        /* \"#utility.yul\":23371:23379   */\n      dup2\n        /* \"#utility.yul\":23367:23411   */\n      add\n        /* \"#utility.yul\":23564:23566   */\n      0x20\n        /* \"#utility.yul\":23552:23562   */\n      dup6\n        /* \"#utility.yul\":23549:23567   */\n      lt\n        /* \"#utility.yul\":23546:23595   */\n      iszero\n      tag_495\n      jumpi\n        /* \"#utility.yul\":23585:23593   */\n      dup2\n        /* \"#utility.yul\":23570:23593   */\n      swap1\n      pop\n        /* \"#utility.yul\":23546:23595   */\n    tag_495:\n        /* \"#utility.yul\":23608:23688   */\n      tag_496\n        /* \"#utility.yul\":23664:23686   */\n      tag_497\n        /* \"#utility.yul\":23682:23685   */\n      dup6\n        /* \"#utility.yul\":23664:23686   */\n      tag_247\n      jump\t// in\n    tag_497:\n        /* \"#utility.yul\":23654:23662   */\n      dup4\n        /* \"#utility.yul\":23650:23687   */\n      add\n        /* \"#utility.yul\":23637:23648   */\n      dup3\n        /* \"#utility.yul\":23608:23688   */\n      tag_256\n      jump\t// in\n    tag_496:\n        /* \"#utility.yul\":23267:23698   */\n      pop\n      pop\n        /* \"#utility.yul\":23252:23698   */\n    tag_492:\n        /* \"#utility.yul\":23162:23705   */\n      pop\n      pop\n      pop\n      jump\t// out\n        /* \"#utility.yul\":23711:23828   */\n    tag_258:\n        /* \"#utility.yul\":23765:23773   */\n      0x00\n        /* \"#utility.yul\":23815:23820   */\n      dup3\n        /* \"#utility.yul\":23809:23813   */\n      dup3\n        /* \"#utility.yul\":23805:23821   */\n      shr\n        /* \"#utility.yul\":23784:23821   */\n      swap1\n      pop\n        /* \"#utility.yul\":23711:23828   */\n      swap3\n      swap2\n      pop\n      pop\n      jump\t// out\n        /* \"#utility.yul\":23834:24003   */\n    tag_259:\n        /* \"#utility.yul\":23878:23884   */\n      0x00\n        /* \"#utility.yul\":23911:23962   */\n      tag_500\n        /* \"#utility.yul\":23959:23960   */\n      0x00\n        /* \"#utility.yul\":23955:23961   */\n      not\n        /* \"#utility.yul\":23947:23952   */\n      dup5\n        /* \"#utility.yul\":23944:23945   */\n      0x08\n        /* \"#utility.yul\":23940:23953   */\n      mul\n        /* \"#utility.yul\":23911:23962   */\n      tag_258\n      jump\t// in\n    tag_500:\n        /* \"#utility.yul\":23907:23963   */\n      not\n        /* \"#utility.yul\":23992:23996   */\n      dup1\n        /* \"#utility.yul\":23986:23990   */\n      dup4\n        /* \"#utility.yul\":23982:23997   */\n      and\n        /* \"#utility.yul\":23972:23997   */\n      swap2\n      pop\n        /* \"#utility.yul\":23885:24003   */\n      pop\n        /* \"#utility.yul\":23834:24003   */\n      swap3\n      swap2\n      pop\n      pop\n      jump\t// out\n        /* \"#utility.yul\":24008:24303   */\n    tag_260:\n        /* \"#utility.yul\":24084:24088   */\n      0x00\n        /* \"#utility.yul\":24230:24259   */\n      tag_502\n        /* \"#utility.yul\":24255:24258   */\n      dup4\n        /* \"#utility.yul\":24249:24253   */\n      dup4\n        /* \"#utility.yul\":24230:24259   */\n      tag_259\n      jump\t// in\n    tag_502:\n        /* \"#utility.yul\":24222:24259   */\n      swap2\n      pop\n        /* \"#utility.yul\":24292:24295   */\n      dup3\n        /* \"#utility.yul\":24289:24290   */\n      0x02\n        /* \"#utility.yul\":24285:24296   */\n      mul\n        /* \"#utility.yul\":24279:24283   */\n      dup3\n        /* \"#utility.yul\":24276:24297   */\n      or\n        /* \"#utility.yul\":24268:24297   */\n      swap1\n      pop\n        /* \"#utility.yul\":24008:24303   */\n      swap3\n      swap2\n      pop\n      pop\n      jump\t// out\n        /* \"#utility.yul\":24308:25703   */\n    tag_165:\n        /* \"#utility.yul\":24425:24462   */\n      tag_504\n        /* \"#utility.yul\":24458:24461   */\n      dup3\n        /* \"#utility.yul\":24425:24462   */\n      tag_203\n      jump\t// in\n    tag_504:\n        /* \"#utility.yul\":24527:24545   */\n      0xffffffffffffffff\n        /* \"#utility.yul\":24519:24525   */\n      dup2\n        /* \"#utility.yul\":24516:24546   */\n      gt\n        /* \"#utility.yul\":24513:24569   */\n      iszero\n      tag_505\n      jumpi\n        /* \"#utility.yul\":24549:24567   */\n      tag_506\n      tag_225\n      jump\t// in\n    tag_506:\n        /* \"#utility.yul\":24513:24569   */\n    tag_505:\n        /* \"#utility.yul\":24593:24631   */\n      tag_507\n        /* \"#utility.yul\":24625:24629   */\n      dup3\n        /* \"#utility.yul\":24619:24630   */\n      sload\n        /* \"#utility.yul\":24593:24631   */\n      tag_133\n      jump\t// in\n    tag_507:\n        /* \"#utility.yul\":24678:24745   */\n      tag_508\n        /* \"#utility.yul\":24738:24744   */\n      dup3\n        /* \"#utility.yul\":24730:24736   */\n      dup3\n        /* \"#utility.yul\":24724:24728   */\n      dup6\n        /* \"#utility.yul\":24678:24745   */\n      tag_257\n      jump\t// in\n    tag_508:\n        /* \"#utility.yul\":24772:24773   */\n      0x00\n        /* \"#utility.yul\":24796:24800   */\n      0x20\n        /* \"#utility.yul\":24783:24800   */\n      swap1\n      pop\n        /* \"#utility.yul\":24828:24830   */\n      0x1f\n        /* \"#utility.yul\":24820:24826   */\n      dup4\n        /* \"#utility.yul\":24817:24831   */\n      gt\n        /* \"#utility.yul\":24845:24846   */\n      0x01\n        /* \"#utility.yul\":24840:25458   */\n      dup2\n      eq\n      tag_510\n      jumpi\n        /* \"#utility.yul\":25502:25503   */\n      0x00\n        /* \"#utility.yul\":25519:25525   */\n      dup5\n        /* \"#utility.yul\":25516:25593   */\n      iszero\n      tag_511\n      jumpi\n        /* \"#utility.yul\":25568:25577   */\n      dup3\n        /* \"#utility.yul\":25563:25566   */\n      dup8\n        /* \"#utility.yul\":25559:25578   */\n      add\n        /* \"#utility.yul\":25553:25579   */\n      mload\n        /* \"#utility.yul\":25544:25579   */\n      swap1\n      pop\n        /* \"#utility.yul\":25516:25593   */\n    tag_511:\n        /* \"#utility.yul\":25619:25686   */\n      tag_512\n        /* \"#utility.yul\":25679:25685   */\n      dup6\n        /* \"#utility.yul\":25672:25677   */\n      dup3\n        /* \"#utility.yul\":25619:25686   */\n      tag_260\n      jump\t// in\n    tag_512:\n        /* \"#utility.yul\":25613:25617   */\n      dup7\n        /* \"#utility.yul\":25606:25687   */\n      sstore\n        /* \"#utility.yul\":25475:25697   */\n      pop\n        /* \"#utility.yul\":24810:25697   */\n      jump(tag_509)\n        /* \"#utility.yul\":24840:25458   */\n    tag_510:\n        /* \"#utility.yul\":24892:24896   */\n      0x1f\n        /* \"#utility.yul\":24888:24897   */\n      not\n        /* \"#utility.yul\":24880:24886   */\n      dup5\n        /* \"#utility.yul\":24876:24898   */\n      and\n        /* \"#utility.yul\":24926:24963   */\n      tag_513\n        /* \"#utility.yul\":24958:24962   */\n      dup7\n        /* \"#utility.yul\":24926:24963   */\n      tag_241\n      jump\t// in\n    tag_513:\n        /* \"#utility.yul\":24985:24986   */\n      0x00\n        /* \"#utility.yul\":24999:25207   */\n    tag_514:\n        /* \"#utility.yul\":25013:25020   */\n      dup3\n        /* \"#utility.yul\":25010:25011   */\n      dup2\n        /* \"#utility.yul\":25007:25021   */\n      lt\n        /* \"#utility.yul\":24999:25207   */\n      iszero\n      tag_516\n      jumpi\n        /* \"#utility.yul\":25092:25101   */\n      dup5\n        /* \"#utility.yul\":25087:25090   */\n      dup10\n        /* \"#utility.yul\":25083:25102   */\n      add\n        /* \"#utility.yul\":25077:25103   */\n      mload\n        /* \"#utility.yul\":25069:25075   */\n      dup3\n        /* \"#utility.yul\":25062:25104   */\n      sstore\n        /* \"#utility.yul\":25143:25144   */\n      0x01\n        /* \"#utility.yul\":25135:25141   */\n      dup3\n        /* \"#utility.yul\":25131:25145   */\n      add\n        /* \"#utility.yul\":25121:25145   */\n      swap2\n      pop\n        /* \"#utility.yul\":25190:25192   */\n      0x20\n        /* \"#utility.yul\":25179:25188   */\n      dup6\n        /* \"#utility.yul\":25175:25193   */\n      add\n        /* \"#utility.yul\":25162:25193   */\n      swap5\n      pop\n        /* \"#utility.yul\":25036:25040   */\n      0x20\n        /* \"#utility.yul\":25033:25034   */\n      dup2\n        /* \"#utility.yul\":25029:25041   */\n      add\n        /* \"#utility.yul\":25024:25041   */\n      swap1\n      pop\n        /* \"#utility.yul\":24999:25207   */\n      jump(tag_514)\n    tag_516:\n        /* \"#utility.yul\":25235:25241   */\n      dup7\n        /* \"#utility.yul\":25226:25233   */\n      dup4\n        /* \"#utility.yul\":25223:25242   */\n      lt\n        /* \"#utility.yul\":25220:25399   */\n      iszero\n      tag_517\n      jumpi\n        /* \"#utility.yul\":25293:25302   */\n      dup5\n        /* \"#utility.yul\":25288:25291   */\n      dup10\n        /* \"#utility.yul\":25284:25303   */\n      add\n        /* \"#utility.yul\":25278:25304   */\n      mload\n        /* \"#utility.yul\":25336:25384   */\n      tag_518\n        /* \"#utility.yul\":25378:25382   */\n      0x1f\n        /* \"#utility.yul\":25370:25376   */\n      dup10\n        /* \"#utility.yul\":25366:25383   */\n      and\n        /* \"#utility.yul\":25355:25364   */\n      dup3\n        /* \"#utility.yul\":25336:25384   */\n      tag_259\n      jump\t// in\n    tag_518:\n        /* \"#utility.yul\":25328:25334   */\n      dup4\n        /* \"#utility.yul\":25321:25385   */\n      sstore\n        /* \"#utility.yul\":25243:25399   */\n      pop\n        /* \"#utility.yul\":25220:25399   */\n    tag_517:\n        /* \"#utility.yul\":25445:25446   */\n      0x01\n        /* \"#utility.yul\":25441:25442   */\n      0x02\n        /* \"#utility.yul\":25433:25439   */\n      dup9\n        /* \"#utility.yul\":25429:25443   */\n      mul\n        /* \"#utility.yul\":25425:25447   */\n      add\n        /* \"#utility.yul\":25419:25423   */\n      dup9\n        /* \"#utility.yul\":25412:25448   */\n      sstore\n        /* \"#utility.yul\":24847:25458   */\n      pop\n      pop\n      pop\n        /* \"#utility.yul\":24810:25697   */\n    tag_509:\n      pop\n        /* \"#utility.yul\":24400:25703   */\n      pop\n      pop\n      pop\n        /* \"#utility.yul\":24308:25703   */\n      pop\n      pop\n      jump\t// out\n        /* \"#utility.yul\":25709:25873   */\n    tag_261:\n        /* \"#utility.yul\":25849:25865   */\n      0x416c726561647920657869737473000000000000000000000000000000000000\n        /* \"#utility.yul\":25845:25846   */\n      0x00\n        /* \"#utility.yul\":25837:25843   */\n      dup3\n        /* \"#utility.yul\":25833:25847   */\n      add\n        /* \"#utility.yul\":25826:25866   */\n      mstore\n        /* \"#utility.yul\":25709:25873   */\n      pop\n      jump\t// out\n        /* \"#utility.yul\":25879:26245   */\n    tag_262:\n        /* \"#utility.yul\":26021:26024   */\n      0x00\n        /* \"#utility.yul\":26042:26109   */\n      tag_521\n        /* \"#utility.yul\":26106:26108   */\n      0x0e\n        /* \"#utility.yul\":26101:26104   */\n      dup4\n        /* \"#utility.yul\":26042:26109   */\n      tag_204\n      jump\t// in\n    tag_521:\n        /* \"#utility.yul\":26035:26109   */\n      swap2\n      pop\n        /* \"#utility.yul\":26118:26211   */\n      tag_522\n        /* \"#utility.yul\":26207:26210   */\n      dup3\n        /* \"#utility.yul\":26118:26211   */\n      tag_261\n      jump\t// in\n    tag_522:\n        /* \"#utility.yul\":26236:26238   */\n      0x20\n        /* \"#utility.yul\":26231:26234   */\n      dup3\n        /* \"#utility.yul\":26227:26239   */\n      add\n        /* \"#utility.yul\":26220:26239   */\n      swap1\n      pop\n        /* \"#utility.yul\":25879:26245   */\n      swap2\n      swap1\n      pop\n      jump\t// out\n        /* \"#utility.yul\":26251:26670   */\n    tag_176:\n        /* \"#utility.yul\":26417:26421   */\n      0x00\n        /* \"#utility.yul\":26455:26457   */\n      0x20\n        /* \"#utility.yul\":26444:26453   */\n      dup3\n        /* \"#utility.yul\":26440:26458   */\n      add\n        /* \"#utility.yul\":26432:26458   */\n      swap1\n      pop\n        /* \"#utility.yul\":26504:26513   */\n      dup2\n        /* \"#utility.yul\":26498:26502   */\n      dup2\n        /* \"#utility.yul\":26494:26514   */\n      sub\n        /* \"#utility.yul\":26490:26491   */\n      0x00\n        /* \"#utility.yul\":26479:26488   */\n      dup4\n        /* \"#utility.yul\":26475:26492   */\n      add\n        /* \"#utility.yul\":26468:26515   */\n      mstore\n        /* \"#utility.yul\":26532:26663   */\n      tag_524\n        /* \"#utility.yul\":26658:26662   */\n      dup2\n        /* \"#utility.yul\":26532:26663   */\n      tag_262\n      jump\t// in\n    tag_524:\n        /* \"#utility.yul\":26524:26663   */\n      swap1\n      pop\n        /* \"#utility.yul\":26251:26670   */\n      swap2\n      swap1\n      pop\n      jump\t// out\n        /* \"#utility.yul\":26676:26856   */\n    tag_263:\n        /* \"#utility.yul\":26724:26801   */\n      0x4e487b7100000000000000000000000000000000000000000000000000000000\n        /* \"#utility.yul\":26721:26722   */\n      0x00\n        /* \"#utility.yul\":26714:26802   */\n      mstore\n        /* \"#utility.yul\":26821:26825   */\n      0x11\n        /* \"#utility.yul\":26818:26819   */\n      0x04\n        /* \"#utility.yul\":26811:26826   */\n      mstore\n        /* \"#utility.yul\":26845:26849   */\n      0x24\n        /* \"#utility.yul\":26842:26843   */\n      0x00\n        /* \"#utility.yul\":26835:26850   */\n      revert\n        /* \"#utility.yul\":26862:27056   */\n    tag_195:\n        /* \"#utility.yul\":26902:26906   */\n      0x00\n        /* \"#utility.yul\":26922:26942   */\n      tag_527\n        /* \"#utility.yul\":26940:26941   */\n      dup3\n        /* \"#utility.yul\":26922:26942   */\n      tag_221\n      jump\t// in\n    tag_527:\n        /* \"#utility.yul\":26917:26942   */\n      swap2\n      pop\n        /* \"#utility.yul\":26956:26976   */\n      tag_528\n        /* \"#utility.yul\":26974:26975   */\n      dup4\n        /* \"#utility.yul\":26956:26976   */\n      tag_221\n      jump\t// in\n    tag_528:\n        /* \"#utility.yul\":26951:26976   */\n      swap3\n      pop\n        /* \"#utility.yul\":27000:27001   */\n      dup3\n        /* \"#utility.yul\":26997:26998   */\n      dup3\n        /* \"#utility.yul\":26993:27002   */\n      sub\n        /* \"#utility.yul\":26985:27002   */\n      swap1\n      pop\n        /* \"#utility.yul\":27024:27025   */\n      dup2\n        /* \"#utility.yul\":27018:27022   */\n      dup2\n        /* \"#utility.yul\":27015:27026   */\n      gt\n        /* \"#utility.yul\":27012:27049   */\n      iszero\n      tag_529\n      jumpi\n        /* \"#utility.yul\":27029:27047   */\n      tag_530\n      tag_263\n      jump\t// in\n    tag_530:\n        /* \"#utility.yul\":27012:27049   */\n    tag_529:\n        /* \"#utility.yul\":26862:27056   */\n      swap3\n      swap2\n      pop\n      pop\n      jump\t// out\n\n    auxdata: 0xa2646970667358221220828ab360f5b8931d04e6b24a2d37065888fd570b0d32277259865cf8cada7f5e64736f6c63430008100033\n}\n",
				"bytecode": {
					"linkReferences": {},
					"object": "608060405234801561001057600080fd5b5033600160006101000a81548173ffffffffffffffffffffffffffffffffffffffff021916908373ffffffffffffffffffffffffffffffffffffffff16021790555061269c806100616000396000f3fe608060405234801561001057600080fd5b506004361061010b5760003560e01c8063a3fbbaae116100a2578063c5b374a911610071578063c5b374a9146102bf578063d011883c146102db578063d5009584146102f7578063d8164f4614610315578063fef201f31461034b5761010b565b8063a3fbbaae14610227578063b5d7af7c14610243578063bed34bba14610273578063c4352a41146102a35761010b565b806354fd4d50116100de57806354fd4d5014610186578063683856d4146101a457806389ff3abf146101d4578063a378d97c146101f05761010b565b806306fdde0314610110578063349dd8001461012e578063414970a41461015e578063481c6a7514610168575b600080fd5b610118610369565b604051610125919061187a565b60405180910390f35b61014860048036038101906101439190611944565b6103a6565b604051610155919061199f565b60405180910390f35b6101666103d5565b005b61017061054a565b60405161017d91906119c9565b60405180910390f35b61018e610570565b60405161019b919061187a565b60405180910390f35b6101be60048036038101906101b991906119e4565b6105ad565b6040516101cb919061199f565b60405180910390f35b6101ee60048036038101906101e991906119e4565b6105d7565b005b61020a60048036038101906102059190611a11565b6108f5565b60405161021e989796959493929190611a57565b60405180910390f35b610241600480360381019061023c9190611a11565b610b22565b005b61025d600480360381019061025891906119e4565b610c72565b60405161026a919061199f565b60405180910390f35b61028d60048036038101906102889190611c1f565b610c92565b60405161029a919061199f565b60405180910390f35b6102bd60048036038101906102b89190611cc3565b610ceb565b005b6102d960048036038101906102d49190611d9d565b6110ce565b005b6102f560048036038101906102f09190611d9d565b611314565b005b6102ff61155b565b60405161030c91906119c9565b60405180910390f35b61032f600480360381019061032a9190611e7e565b611585565b6040516103429796959493929190611ebe565b60405180910390f35b610353611774565b6040516103609190611f3b565b60405180910390f35b60606040518060400160405280601181526020017f47656e65726174696f6e20427269646765000000000000000000000000000000815250905090565b60046020528160005260406000206020528060005260406000206000915091509054906101000a900460ff1681565b600260003373ffffffffffffffffffffffffffffffffffffffff1673ffffffffffffffffffffffffffffffffffffffff16815260200190815260200160002060070160009054906101000a900460ff16610464576040517f08c379a000000000000000000000000000000000000000000000000000000000815260040161045b90611fa2565b60405180910390fd5b600260003373ffffffffffffffffffffffffffffffffffffffff1673ffffffffffffffffffffffffffffffffffffffff168152602001908152602001600020600080820160006101000a81549073ffffffffffffffffffffffffffffffffffffffff02191690556001820160006101000a81549073ffffffffffffffffffffffffffffffffffffffff0219169055600282016000610502919061178d565b600382016000610512919061178d565b600482016000610522919061178d565b600582016000905560068201600090556007820160006101000a81549060ff02191690555050565b600160009054906101000a900473ffffffffffffffffffffffffffffffffffffffff1681565b60606040518060400160405280600581526020017f302e312e30000000000000000000000000000000000000000000000000000000815250905090565b60006006600083815260200190815260200160002060009054906101000a900460ff169050919050565b600160009054906101000a900473ffffffffffffffffffffffffffffffffffffffff1673ffffffffffffffffffffffffffffffffffffffff163373ffffffffffffffffffffffffffffffffffffffff1614610667576040517f08c379a000000000000000000000000000000000000000000000000000000000815260040161065e9061200e565b60405180910390fd5b6006600082815260200190815260200160002060009054906101000a900460ff16156106c8576040517f08c379a00000000000000000000000000000000000000000000000000000000081526004016106bf906120a0565b60405180910390fd5b60016006600083815260200190815260200160002060006101000a81548160ff0219169083151502179055506003600082815260200190815260200160002060008154811061071a576107196120c0565b5b906000526020600020906007020160010160009054906101000a900473ffffffffffffffffffffffffffffffffffffffff1673ffffffffffffffffffffffffffffffffffffffff167f9b5fcf7abf3265364998b0894b4faf37d58ced2b3a1de20b112db1bcf4cd68ab600360008481526020019081526020016000206000815481106107a9576107a86120c0565b5b906000526020600020906007020160020154600360008581526020019081526020016000206000815481106107e1576107e06120c0565b5b906000526020600020906007020160030160036000868152602001908152602001600020600081548110610818576108176120c0565b5b906000526020600020906007020160040160009054906101000a900473ffffffffffffffffffffffffffffffffffffffff16600360008781526020019081526020016000206000815481106108705761086f6120c0565b5b9060005260206000209060070201600501600360008881526020019081526020016000206000815481106108a7576108a66120c0565b5b906000526020600020906007020160060160009054906101000a900473ffffffffffffffffffffffffffffffffffffffff166040516108ea9594939291906121e8565b60405180910390a250565b60026020528060005260406000206000915090508060000160009054906101000a900473ffffffffffffffffffffffffffffffffffffffff16908060010160009054906101000a900473ffffffffffffffffffffffffffffffffffffffff16908060020180546109649061211e565b80601f01602080910402602001604051908101604052809291908181526020018280546109909061211e565b80156109dd5780601f106109b2576101008083540402835291602001916109dd565b820191906000526020600020905b8154815290600101906020018083116109c057829003601f168201915b5050505050908060030180546109f29061211e565b80601f0160208091040260200160405190810160405280929190818152602001828054610a1e9061211e565b8015610a6b5780601f10610a4057610100808354040283529160200191610a6b565b820191906000526020600020905b815481529060010190602001808311610a4e57829003601f168201915b505050505090806004018054610a809061211e565b80601f0160208091040260200160405190810160405280929190818152602001828054610aac9061211e565b8015610af95780601f10610ace57610100808354040283529160200191610af9565b820191906000526020600020905b815481529060010190602001808311610adc57829003601f168201915b5050505050908060050154908060060154908060070160009054906101000a900460ff16905088565b600160009054906101000a900473ffffffffffffffffffffffffffffffffffffffff1673ffffffffffffffffffffffffffffffffffffffff163373ffffffffffffffffffffffffffffffffffffffff1614610bb2576040517f08c379a0000000000000000000000000000000000000000000000000000000008152600401610ba99061200e565b60405180910390fd5b8073ffffffffffffffffffffffffffffffffffffffff16600160009054906101000a900473ffffffffffffffffffffffffffffffffffffffff1673ffffffffffffffffffffffffffffffffffffffff167fc64707e618a83637fc41ad1e3aa4242bd5fdd353f3d60bc0faf40db0d7d8607860405160405180910390a380600160006101000a81548173ffffffffffffffffffffffffffffffffffffffff021916908373ffffffffffffffffffffffffffffffffffffffff16021790555050565b60066020528060005260406000206000915054906101000a900460ff1681565b600081604051602001610ca59190612285565b6040516020818303038152906040528051906020012083604051602001610ccc9190612285565b6040516020818303038152906040528051906020012014905092915050565b600260003373ffffffffffffffffffffffffffffffffffffffff1673ffffffffffffffffffffffffffffffffffffffff16815260200190815260200160002060070160009054906101000a900460ff16610d7a576040517f08c379a0000000000000000000000000000000000000000000000000000000008152600401610d7190611fa2565b60405180910390fd5b6004600088815260200190815260200160002060003373ffffffffffffffffffffffffffffffffffffffff1673ffffffffffffffffffffffffffffffffffffffff16815260200190815260200160002060009054906101000a900460ff1615610e18576040517f08c379a0000000000000000000000000000000000000000000000000000000008152600401610e0f9061230e565b60405180910390fd5b60016004600089815260200190815260200160002060003373ffffffffffffffffffffffffffffffffffffffff1673ffffffffffffffffffffffffffffffffffffffff16815260200190815260200160002060006101000a81548160ff0219169083151502179055506005879080600181540180825580915050600190039060005260206000200160009091909190915055600360008881526020019081526020016000206040518060e001604052803373ffffffffffffffffffffffffffffffffffffffff1681526020018873ffffffffffffffffffffffffffffffffffffffff1681526020018781526020018681526020018573ffffffffffffffffffffffffffffffffffffffff1681526020018481526020018373ffffffffffffffffffffffffffffffffffffffff16815250908060018154018082558091505060019003906000526020600020906007020160009091909190915060008201518160000160006101000a81548173ffffffffffffffffffffffffffffffffffffffff021916908373ffffffffffffffffffffffffffffffffffffffff16021790555060208201518160010160006101000a81548173ffffffffffffffffffffffffffffffffffffffff021916908373ffffffffffffffffffffffffffffffffffffffff16021790555060408201518160020155606082015181600301908161101e91906124c5565b5060808201518160040160006101000a81548173ffffffffffffffffffffffffffffffffffffffff021916908373ffffffffffffffffffffffffffffffffffffffff16021790555060a082015181600501908161107b91906124c5565b5060c08201518160060160006101000a81548173ffffffffffffffffffffffffffffffffffffffff021916908373ffffffffffffffffffffffffffffffffffffffff160217905550505050505050505050565b600260003373ffffffffffffffffffffffffffffffffffffffff1673ffffffffffffffffffffffffffffffffffffffff16815260200190815260200160002060070160009054906101000a900460ff1661115d576040517f08c379a000000000000000000000000000000000000000000000000000000000815260040161115490611fa2565b60405180910390fd5b6040518061010001604052803373ffffffffffffffffffffffffffffffffffffffff1681526020018773ffffffffffffffffffffffffffffffffffffffff16815260200186815260200185815260200184815260200183815260200182815260200160011515815250600260003373ffffffffffffffffffffffffffffffffffffffff1673ffffffffffffffffffffffffffffffffffffffff16815260200190815260200160002060008201518160000160006101000a81548173ffffffffffffffffffffffffffffffffffffffff021916908373ffffffffffffffffffffffffffffffffffffffff16021790555060208201518160010160006101000a81548173ffffffffffffffffffffffffffffffffffffffff021916908373ffffffffffffffffffffffffffffffffffffffff16021790555060408201518160020190816112a891906124c5565b5060608201518160030190816112be91906124c5565b5060808201518160040190816112d491906124c5565b5060a0820151816005015560c0820151816006015560e08201518160070160006101000a81548160ff021916908315150217905550905050505050505050565b600260003373ffffffffffffffffffffffffffffffffffffffff1673ffffffffffffffffffffffffffffffffffffffff16815260200190815260200160002060070160009054906101000a900460ff16156113a4576040517f08c379a000000000000000000000000000000000000000000000000000000000815260040161139b906125e3565b60405180910390fd5b6040518061010001604052803373ffffffffffffffffffffffffffffffffffffffff1681526020018773ffffffffffffffffffffffffffffffffffffffff16815260200186815260200185815260200184815260200183815260200182815260200160011515815250600260003373ffffffffffffffffffffffffffffffffffffffff1673ffffffffffffffffffffffffffffffffffffffff16815260200190815260200160002060008201518160000160006101000a81548173ffffffffffffffffffffffffffffffffffffffff021916908373ffffffffffffffffffffffffffffffffffffffff16021790555060208201518160010160006101000a81548173ffffffffffffffffffffffffffffffffffffffff021916908373ffffffffffffffffffffffffffffffffffffffff16021790555060408201518160020190816114ef91906124c5565b50606082015181600301908161150591906124c5565b50608082015181600401908161151b91906124c5565b5060a0820151816005015560c0820151816006015560e08201518160070160006101000a81548160ff021916908315150217905550905050505050505050565b6000600160009054906101000a900473ffffffffffffffffffffffffffffffffffffffff16905090565b600360205281600052604060002081815481106115a157600080fd5b9060005260206000209060070201600091509150508060000160009054906101000a900473ffffffffffffffffffffffffffffffffffffffff16908060010160009054906101000a900473ffffffffffffffffffffffffffffffffffffffff16908060020154908060030180546116179061211e565b80601f01602080910402602001604051908101604052809291908181526020018280546116439061211e565b80156116905780601f1061166557610100808354040283529160200191611690565b820191906000526020600020905b81548152906001019060200180831161167357829003601f168201915b5050505050908060040160009054906101000a900473ffffffffffffffffffffffffffffffffffffffff16908060050180546116cb9061211e565b80601f01602080910402602001604051908101604052809291908181526020018280546116f79061211e565b80156117445780601f1061171957610100808354040283529160200191611744565b820191906000526020600020905b81548152906001019060200180831161172757829003601f168201915b5050505050908060060160009054906101000a900473ffffffffffffffffffffffffffffffffffffffff16905087565b600060016005805490506117889190612632565b905090565b5080546117999061211e565b6000825580601f106117ab57506117ca565b601f0160209004906000526020600020908101906117c991906117cd565b5b50565b5b808211156117e65760008160009055506001016117ce565b5090565b600081519050919050565b600082825260208201905092915050565b60005b83811015611824578082015181840152602081019050611809565b60008484015250505050565b6000601f19601f8301169050919050565b600061184c826117ea565b61185681856117f5565b9350611866818560208601611806565b61186f81611830565b840191505092915050565b600060208201905081810360008301526118948184611841565b905092915050565b6000604051905090565b600080fd5b600080fd5b6000819050919050565b6118c3816118b0565b81146118ce57600080fd5b50565b6000813590506118e0816118ba565b92915050565b600073ffffffffffffffffffffffffffffffffffffffff82169050919050565b6000611911826118e6565b9050919050565b61192181611906565b811461192c57600080fd5b50565b60008135905061193e81611918565b92915050565b6000806040838503121561195b5761195a6118a6565b5b6000611969858286016118d1565b925050602061197a8582860161192f565b9150509250929050565b60008115159050919050565b61199981611984565b82525050565b60006020820190506119b46000830184611990565b92915050565b6119c381611906565b82525050565b60006020820190506119de60008301846119ba565b92915050565b6000602082840312156119fa576119f96118a6565b5b6000611a08848285016118d1565b91505092915050565b600060208284031215611a2757611a266118a6565b5b6000611a358482850161192f565b91505092915050565b6000819050919050565b611a5181611a3e565b82525050565b600061010082019050611a6d600083018b6119ba565b611a7a602083018a6119ba565b8181036040830152611a8c8189611841565b90508181036060830152611aa08188611841565b90508181036080830152611ab48187611841565b9050611ac360a0830186611a48565b611ad060c0830185611a48565b611add60e0830184611990565b9998505050505050505050565b600080fd5b600080fd5b7f4e487b7100000000000000000000000000000000000000000000000000000000600052604160045260246000fd5b611b2c82611830565b810181811067ffffffffffffffff82111715611b4b57611b4a611af4565b5b80604052505050565b6000611b5e61189c565b9050611b6a8282611b23565b919050565b600067ffffffffffffffff821115611b8a57611b89611af4565b5b611b9382611830565b9050602081019050919050565b82818337600083830152505050565b6000611bc2611bbd84611b6f565b611b54565b905082815260208101848484011115611bde57611bdd611aef565b5b611be9848285611ba0565b509392505050565b600082601f830112611c0657611c05611aea565b5b8135611c16848260208601611baf565b91505092915050565b60008060408385031215611c3657611c356118a6565b5b600083013567ffffffffffffffff811115611c5457611c536118ab565b5b611c6085828601611bf1565b925050602083013567ffffffffffffffff811115611c8157611c806118ab565b5b611c8d85828601611bf1565b9150509250929050565b611ca081611a3e565b8114611cab57600080fd5b50565b600081359050611cbd81611c97565b92915050565b600080600080600080600060e0888a031215611ce257611ce16118a6565b5b6000611cf08a828b016118d1565b9750506020611d018a828b0161192f565b9650506040611d128a828b01611cae565b955050606088013567ffffffffffffffff811115611d3357611d326118ab565b5b611d3f8a828b01611bf1565b9450506080611d508a828b0161192f565b93505060a088013567ffffffffffffffff811115611d7157611d706118ab565b5b611d7d8a828b01611bf1565b92505060c0611d8e8a828b0161192f565b91505092959891949750929550565b60008060008060008060c08789031215611dba57611db96118a6565b5b6000611dc889828a0161192f565b965050602087013567ffffffffffffffff811115611de957611de86118ab565b5b611df589828a01611bf1565b955050604087013567ffffffffffffffff811115611e1657611e156118ab565b5b611e2289828a01611bf1565b945050606087013567ffffffffffffffff811115611e4357611e426118ab565b5b611e4f89828a01611bf1565b9350506080611e6089828a01611cae565b92505060a0611e7189828a01611cae565b9150509295509295509295565b60008060408385031215611e9557611e946118a6565b5b6000611ea3858286016118d1565b9250506020611eb485828601611cae565b9150509250929050565b600060e082019050611ed3600083018a6119ba565b611ee060208301896119ba565b611eed6040830188611a48565b8181036060830152611eff8187611841565b9050611f0e60808301866119ba565b81810360a0830152611f208185611841565b9050611f2f60c08301846119ba565b98975050505050505050565b6000602082019050611f506000830184611a48565b92915050565b7f5468652047617465204b6565706572204e6f7420666f756e6400000000000000600082015250565b6000611f8c6019836117f5565b9150611f9782611f56565b602082019050919050565b60006020820190508181036000830152611fbb81611f7f565b9050919050565b7f43616c6c6572206973206e6f74206d616e616765720000000000000000000000600082015250565b6000611ff86015836117f5565b915061200382611fc2565b602082019050919050565b6000602082019050818103600083015261202781611feb565b9050919050565b7f4f6e6c79206f6e652074696d652063616c6c20697320616c6c6f77656420666f60008201527f7220747868617368000000000000000000000000000000000000000000000000602082015250565b600061208a6028836117f5565b91506120958261202e565b604082019050919050565b600060208201905081810360008301526120b98161207d565b9050919050565b7f4e487b7100000000000000000000000000000000000000000000000000000000600052603260045260246000fd5b7f4e487b7100000000000000000000000000000000000000000000000000000000600052602260045260246000fd5b6000600282049050600182168061213657607f821691505b602082108103612149576121486120ef565b5b50919050565b60008190508160005260206000209050919050565b600081546121718161211e565b61217b81866117f5565b9450600182166000811461219657600181146121ac576121df565b60ff1983168652811515602002860193506121df565b6121b58561214f565b60005b838110156121d7578154818901526001820191506020810190506121b8565b808801955050505b50505092915050565b600060a0820190506121fd6000830188611a48565b818103602083015261220f8187612164565b905061221e60408301866119ba565b81810360608301526122308185612164565b905061223f60808301846119ba565b9695505050505050565b600081905092915050565b600061225f826117ea565b6122698185612249565b9350612279818560208601611806565b80840191505092915050565b60006122918284612254565b915081905092915050565b7f4f6e6c79206f6e652074696d652063616c6c20697320616c6c6f77656420627960008201527f20656163682047617465204b6565706572000000000000000000000000000000602082015250565b60006122f86031836117f5565b91506123038261229c565b604082019050919050565b60006020820190508181036000830152612327816122eb565b9050919050565b60006020601f8301049050919050565b600082821b905092915050565b60006008830261237b7fffffffffffffffffffffffffffffffffffffffffffffffffffffffffffffffff8261233e565b612385868361233e565b95508019841693508086168417925050509392505050565b6000819050919050565b60006123c26123bd6123b884611a3e565b61239d565b611a3e565b9050919050565b6000819050919050565b6123dc836123a7565b6123f06123e8826123c9565b84845461234b565b825550505050565b600090565b6124056123f8565b6124108184846123d3565b505050565b5b81811015612434576124296000826123fd565b600181019050612416565b5050565b601f8211156124795761244a8161214f565b6124538461232e565b81016020851015612462578190505b61247661246e8561232e565b830182612415565b50505b505050565b600082821c905092915050565b600061249c6000198460080261247e565b1980831691505092915050565b60006124b5838361248b565b9150826002028217905092915050565b6124ce826117ea565b67ffffffffffffffff8111156124e7576124e6611af4565b5b6124f1825461211e565b6124fc828285612438565b600060209050601f83116001811461252f576000841561251d578287015190505b61252785826124a9565b86555061258f565b601f19841661253d8661214f565b60005b8281101561256557848901518255600182019150602085019450602081019050612540565b86831015612582578489015161257e601f89168261248b565b8355505b6001600288020188555050505b505050505050565b7f416c726561647920657869737473000000000000000000000000000000000000600082015250565b60006125cd600e836117f5565b91506125d882612597565b602082019050919050565b600060208201905081810360008301526125fc816125c0565b9050919050565b7f4e487b7100000000000000000000000000000000000000000000000000000000600052601160045260246000fd5b600061263d82611a3e565b915061264883611a3e565b92508282039050818111156126605761265f612603565b5b9291505056fea2646970667358221220828ab360f5b8931d04e6b24a2d37065888fd570b0d32277259865cf8cada7f5e64736f6c63430008100033",
					"opcodes": "PUSH1 0x80 PUSH1 0x40 MSTORE CALLVALUE DUP1 ISZERO PUSH2 0x10 JUMPI PUSH1 0x0 DUP1 REVERT JUMPDEST POP CALLER PUSH1 0x1 PUSH1 0x0 PUSH2 0x100 EXP DUP2 SLOAD DUP2 PUSH20 0xFFFFFFFFFFFFFFFFFFFFFFFFFFFFFFFFFFFFFFFF MUL NOT AND SWAP1 DUP4 PUSH20 0xFFFFFFFFFFFFFFFFFFFFFFFFFFFFFFFFFFFFFFFF AND MUL OR SWAP1 SSTORE POP PUSH2 0x269C DUP1 PUSH2 0x61 PUSH1 0x0 CODECOPY PUSH1 0x0 RETURN INVALID PUSH1 0x80 PUSH1 0x40 MSTORE CALLVALUE DUP1 ISZERO PUSH2 0x10 JUMPI PUSH1 0x0 DUP1 REVERT JUMPDEST POP PUSH1 0x4 CALLDATASIZE LT PUSH2 0x10B JUMPI PUSH1 0x0 CALLDATALOAD PUSH1 0xE0 SHR DUP1 PUSH4 0xA3FBBAAE GT PUSH2 0xA2 JUMPI DUP1 PUSH4 0xC5B374A9 GT PUSH2 0x71 JUMPI DUP1 PUSH4 0xC5B374A9 EQ PUSH2 0x2BF JUMPI DUP1 PUSH4 0xD011883C EQ PUSH2 0x2DB JUMPI DUP1 PUSH4 0xD5009584 EQ PUSH2 0x2F7 JUMPI DUP1 PUSH4 0xD8164F46 EQ PUSH2 0x315 JUMPI DUP1 PUSH4 0xFEF201F3 EQ PUSH2 0x34B JUMPI PUSH2 0x10B JUMP JUMPDEST DUP1 PUSH4 0xA3FBBAAE EQ PUSH2 0x227 JUMPI DUP1 PUSH4 0xB5D7AF7C EQ PUSH2 0x243 JUMPI DUP1 PUSH4 0xBED34BBA EQ PUSH2 0x273 JUMPI DUP1 PUSH4 0xC4352A41 EQ PUSH2 0x2A3 JUMPI PUSH2 0x10B JUMP JUMPDEST DUP1 PUSH4 0x54FD4D50 GT PUSH2 0xDE JUMPI DUP1 PUSH4 0x54FD4D50 EQ PUSH2 0x186 JUMPI DUP1 PUSH4 0x683856D4 EQ PUSH2 0x1A4 JUMPI DUP1 PUSH4 0x89FF3ABF EQ PUSH2 0x1D4 JUMPI DUP1 PUSH4 0xA378D97C EQ PUSH2 0x1F0 JUMPI PUSH2 0x10B JUMP JUMPDEST DUP1 PUSH4 0x6FDDE03 EQ PUSH2 0x110 JUMPI DUP1 PUSH4 0x349DD800 EQ PUSH2 0x12E JUMPI DUP1 PUSH4 0x414970A4 EQ PUSH2 0x15E JUMPI DUP1 PUSH4 0x481C6A75 EQ PUSH2 0x168 JUMPI JUMPDEST PUSH1 0x0 DUP1 REVERT JUMPDEST PUSH2 0x118 PUSH2 0x369 JUMP JUMPDEST PUSH1 0x40 MLOAD PUSH2 0x125 SWAP2 SWAP1 PUSH2 0x187A JUMP JUMPDEST PUSH1 0x40 MLOAD DUP1 SWAP2 SUB SWAP1 RETURN JUMPDEST PUSH2 0x148 PUSH1 0x4 DUP1 CALLDATASIZE SUB DUP2 ADD SWAP1 PUSH2 0x143 SWAP2 SWAP1 PUSH2 0x1944 JUMP JUMPDEST PUSH2 0x3A6 JUMP JUMPDEST PUSH1 0x40 MLOAD PUSH2 0x155 SWAP2 SWAP1 PUSH2 0x199F JUMP JUMPDEST PUSH1 0x40 MLOAD DUP1 SWAP2 SUB SWAP1 RETURN JUMPDEST PUSH2 0x166 PUSH2 0x3D5 JUMP JUMPDEST STOP JUMPDEST PUSH2 0x170 PUSH2 0x54A JUMP JUMPDEST PUSH1 0x40 MLOAD PUSH2 0x17D SWAP2 SWAP1 PUSH2 0x19C9 JUMP JUMPDEST PUSH1 0x40 MLOAD DUP1 SWAP2 SUB SWAP1 RETURN JUMPDEST PUSH2 0x18E PUSH2 0x570 JUMP JUMPDEST PUSH1 0x40 MLOAD PUSH2 0x19B SWAP2 SWAP1 PUSH2 0x187A JUMP JUMPDEST PUSH1 0x40 MLOAD DUP1 SWAP2 SUB SWAP1 RETURN JUMPDEST PUSH2 0x1BE PUSH1 0x4 DUP1 CALLDATASIZE SUB DUP2 ADD SWAP1 PUSH2 0x1B9 SWAP2 SWAP1 PUSH2 0x19E4 JUMP JUMPDEST PUSH2 0x5AD JUMP JUMPDEST PUSH1 0x40 MLOAD PUSH2 0x1CB SWAP2 SWAP1 PUSH2 0x199F JUMP JUMPDEST PUSH1 0x40 MLOAD DUP1 SWAP2 SUB SWAP1 RETURN JUMPDEST PUSH2 0x1EE PUSH1 0x4 DUP1 CALLDATASIZE SUB DUP2 ADD SWAP1 PUSH2 0x1E9 SWAP2 SWAP1 PUSH2 0x19E4 JUMP JUMPDEST PUSH2 0x5D7 JUMP JUMPDEST STOP JUMPDEST PUSH2 0x20A PUSH1 0x4 DUP1 CALLDATASIZE SUB DUP2 ADD SWAP1 PUSH2 0x205 SWAP2 SWAP1 PUSH2 0x1A11 JUMP JUMPDEST PUSH2 0x8F5 JUMP JUMPDEST PUSH1 0x40 MLOAD PUSH2 0x21E SWAP9 SWAP8 SWAP7 SWAP6 SWAP5 SWAP4 SWAP3 SWAP2 SWAP1 PUSH2 0x1A57 JUMP JUMPDEST PUSH1 0x40 MLOAD DUP1 SWAP2 SUB SWAP1 RETURN JUMPDEST PUSH2 0x241 PUSH1 0x4 DUP1 CALLDATASIZE SUB DUP2 ADD SWAP1 PUSH2 0x23C SWAP2 SWAP1 PUSH2 0x1A11 JUMP JUMPDEST PUSH2 0xB22 JUMP JUMPDEST STOP JUMPDEST PUSH2 0x25D PUSH1 0x4 DUP1 CALLDATASIZE SUB DUP2 ADD SWAP1 PUSH2 0x258 SWAP2 SWAP1 PUSH2 0x19E4 JUMP JUMPDEST PUSH2 0xC72 JUMP JUMPDEST PUSH1 0x40 MLOAD PUSH2 0x26A SWAP2 SWAP1 PUSH2 0x199F JUMP JUMPDEST PUSH1 0x40 MLOAD DUP1 SWAP2 SUB SWAP1 RETURN JUMPDEST PUSH2 0x28D PUSH1 0x4 DUP1 CALLDATASIZE SUB DUP2 ADD SWAP1 PUSH2 0x288 SWAP2 SWAP1 PUSH2 0x1C1F JUMP JUMPDEST PUSH2 0xC92 JUMP JUMPDEST PUSH1 0x40 MLOAD PUSH2 0x29A SWAP2 SWAP1 PUSH2 0x199F JUMP JUMPDEST PUSH1 0x40 MLOAD DUP1 SWAP2 SUB SWAP1 RETURN JUMPDEST PUSH2 0x2BD PUSH1 0x4 DUP1 CALLDATASIZE SUB DUP2 ADD SWAP1 PUSH2 0x2B8 SWAP2 SWAP1 PUSH2 0x1CC3 JUMP JUMPDEST PUSH2 0xCEB JUMP JUMPDEST STOP JUMPDEST PUSH2 0x2D9 PUSH1 0x4 DUP1 CALLDATASIZE SUB DUP2 ADD SWAP1 PUSH2 0x2D4 SWAP2 SWAP1 PUSH2 0x1D9D JUMP JUMPDEST PUSH2 0x10CE JUMP JUMPDEST STOP JUMPDEST PUSH2 0x2F5 PUSH1 0x4 DUP1 CALLDATASIZE SUB DUP2 ADD SWAP1 PUSH2 0x2F0 SWAP2 SWAP1 PUSH2 0x1D9D JUMP JUMPDEST PUSH2 0x1314 JUMP JUMPDEST STOP JUMPDEST PUSH2 0x2FF PUSH2 0x155B JUMP JUMPDEST PUSH1 0x40 MLOAD PUSH2 0x30C SWAP2 SWAP1 PUSH2 0x19C9 JUMP JUMPDEST PUSH1 0x40 MLOAD DUP1 SWAP2 SUB SWAP1 RETURN JUMPDEST PUSH2 0x32F PUSH1 0x4 DUP1 CALLDATASIZE SUB DUP2 ADD SWAP1 PUSH2 0x32A SWAP2 SWAP1 PUSH2 0x1E7E JUMP JUMPDEST PUSH2 0x1585 JUMP JUMPDEST PUSH1 0x40 MLOAD PUSH2 0x342 SWAP8 SWAP7 SWAP6 SWAP5 SWAP4 SWAP3 SWAP2 SWAP1 PUSH2 0x1EBE JUMP JUMPDEST PUSH1 0x40 MLOAD DUP1 SWAP2 SUB SWAP1 RETURN JUMPDEST PUSH2 0x353 PUSH2 0x1774 JUMP JUMPDEST PUSH1 0x40 MLOAD PUSH2 0x360 SWAP2 SWAP1 PUSH2 0x1F3B JUMP JUMPDEST PUSH1 0x40 MLOAD DUP1 SWAP2 SUB SWAP1 RETURN JUMPDEST PUSH1 0x60 PUSH1 0x40 MLOAD DUP1 PUSH1 0x40 ADD PUSH1 0x40 MSTORE DUP1 PUSH1 0x11 DUP2 MSTORE PUSH1 0x20 ADD PUSH32 0x47656E65726174696F6E20427269646765000000000000000000000000000000 DUP2 MSTORE POP SWAP1 POP SWAP1 JUMP JUMPDEST PUSH1 0x4 PUSH1 0x20 MSTORE DUP2 PUSH1 0x0 MSTORE PUSH1 0x40 PUSH1 0x0 KECCAK256 PUSH1 0x20 MSTORE DUP1 PUSH1 0x0 MSTORE PUSH1 0x40 PUSH1 0x0 KECCAK256 PUSH1 0x0 SWAP2 POP SWAP2 POP SWAP1 SLOAD SWAP1 PUSH2 0x100 EXP SWAP1 DIV PUSH1 0xFF AND DUP2 JUMP JUMPDEST PUSH1 0x2 PUSH1 0x0 CALLER PUSH20 0xFFFFFFFFFFFFFFFFFFFFFFFFFFFFFFFFFFFFFFFF AND PUSH20 0xFFFFFFFFFFFFFFFFFFFFFFFFFFFFFFFFFFFFFFFF AND DUP2 MSTORE PUSH1 0x20 ADD SWAP1 DUP2 MSTORE PUSH1 0x20 ADD PUSH1 0x0 KECCAK256 PUSH1 0x7 ADD PUSH1 0x0 SWAP1 SLOAD SWAP1 PUSH2 0x100 EXP SWAP1 DIV PUSH1 0xFF AND PUSH2 0x464 JUMPI PUSH1 0x40 MLOAD PUSH32 0x8C379A000000000000000000000000000000000000000000000000000000000 DUP2 MSTORE PUSH1 0x4 ADD PUSH2 0x45B SWAP1 PUSH2 0x1FA2 JUMP JUMPDEST PUSH1 0x40 MLOAD DUP1 SWAP2 SUB SWAP1 REVERT JUMPDEST PUSH1 0x2 PUSH1 0x0 CALLER PUSH20 0xFFFFFFFFFFFFFFFFFFFFFFFFFFFFFFFFFFFFFFFF AND PUSH20 0xFFFFFFFFFFFFFFFFFFFFFFFFFFFFFFFFFFFFFFFF AND DUP2 MSTORE PUSH1 0x20 ADD SWAP1 DUP2 MSTORE PUSH1 0x20 ADD PUSH1 0x0 KECCAK256 PUSH1 0x0 DUP1 DUP3 ADD PUSH1 0x0 PUSH2 0x100 EXP DUP2 SLOAD SWAP1 PUSH20 0xFFFFFFFFFFFFFFFFFFFFFFFFFFFFFFFFFFFFFFFF MUL NOT AND SWAP1 SSTORE PUSH1 0x1 DUP3 ADD PUSH1 0x0 PUSH2 0x100 EXP DUP2 SLOAD SWAP1 PUSH20 0xFFFFFFFFFFFFFFFFFFFFFFFFFFFFFFFFFFFFFFFF MUL NOT AND SWAP1 SSTORE PUSH1 0x2 DUP3 ADD PUSH1 0x0 PUSH2 0x502 SWAP2 SWAP1 PUSH2 0x178D JUMP JUMPDEST PUSH1 0x3 DUP3 ADD PUSH1 0x0 PUSH2 0x512 SWAP2 SWAP1 PUSH2 0x178D JUMP JUMPDEST PUSH1 0x4 DUP3 ADD PUSH1 0x0 PUSH2 0x522 SWAP2 SWAP1 PUSH2 0x178D JUMP JUMPDEST PUSH1 0x5 DUP3 ADD PUSH1 0x0 SWAP1 SSTORE PUSH1 0x6 DUP3 ADD PUSH1 0x0 SWAP1 SSTORE PUSH1 0x7 DUP3 ADD PUSH1 0x0 PUSH2 0x100 EXP DUP2 SLOAD SWAP1 PUSH1 0xFF MUL NOT AND SWAP1 SSTORE POP POP JUMP JUMPDEST PUSH1 0x1 PUSH1 0x0 SWAP1 SLOAD SWAP1 PUSH2 0x100 EXP SWAP1 DIV PUSH20 0xFFFFFFFFFFFFFFFFFFFFFFFFFFFFFFFFFFFFFFFF AND DUP2 JUMP JUMPDEST PUSH1 0x60 PUSH1 0x40 MLOAD DUP1 PUSH1 0x40 ADD PUSH1 0x40 MSTORE DUP1 PUSH1 0x5 DUP2 MSTORE PUSH1 0x20 ADD PUSH32 0x302E312E30000000000000000000000000000000000000000000000000000000 DUP2 MSTORE POP SWAP1 POP SWAP1 JUMP JUMPDEST PUSH1 0x0 PUSH1 0x6 PUSH1 0x0 DUP4 DUP2 MSTORE PUSH1 0x20 ADD SWAP1 DUP2 MSTORE PUSH1 0x20 ADD PUSH1 0x0 KECCAK256 PUSH1 0x0 SWAP1 SLOAD SWAP1 PUSH2 0x100 EXP SWAP1 DIV PUSH1 0xFF AND SWAP1 POP SWAP2 SWAP1 POP JUMP JUMPDEST PUSH1 0x1 PUSH1 0x0 SWAP1 SLOAD SWAP1 PUSH2 0x100 EXP SWAP1 DIV PUSH20 0xFFFFFFFFFFFFFFFFFFFFFFFFFFFFFFFFFFFFFFFF AND PUSH20 0xFFFFFFFFFFFFFFFFFFFFFFFFFFFFFFFFFFFFFFFF AND CALLER PUSH20 0xFFFFFFFFFFFFFFFFFFFFFFFFFFFFFFFFFFFFFFFF AND EQ PUSH2 0x667 JUMPI PUSH1 0x40 MLOAD PUSH32 0x8C379A000000000000000000000000000000000000000000000000000000000 DUP2 MSTORE PUSH1 0x4 ADD PUSH2 0x65E SWAP1 PUSH2 0x200E JUMP JUMPDEST PUSH1 0x40 MLOAD DUP1 SWAP2 SUB SWAP1 REVERT JUMPDEST PUSH1 0x6 PUSH1 0x0 DUP3 DUP2 MSTORE PUSH1 0x20 ADD SWAP1 DUP2 MSTORE PUSH1 0x20 ADD PUSH1 0x0 KECCAK256 PUSH1 0x0 SWAP1 SLOAD SWAP1 PUSH2 0x100 EXP SWAP1 DIV PUSH1 0xFF AND ISZERO PUSH2 0x6C8 JUMPI PUSH1 0x40 MLOAD PUSH32 0x8C379A000000000000000000000000000000000000000000000000000000000 DUP2 MSTORE PUSH1 0x4 ADD PUSH2 0x6BF SWAP1 PUSH2 0x20A0 JUMP JUMPDEST PUSH1 0x40 MLOAD DUP1 SWAP2 SUB SWAP1 REVERT JUMPDEST PUSH1 0x1 PUSH1 0x6 PUSH1 0x0 DUP4 DUP2 MSTORE PUSH1 0x20 ADD SWAP1 DUP2 MSTORE PUSH1 0x20 ADD PUSH1 0x0 KECCAK256 PUSH1 0x0 PUSH2 0x100 EXP DUP2 SLOAD DUP2 PUSH1 0xFF MUL NOT AND SWAP1 DUP4 ISZERO ISZERO MUL OR SWAP1 SSTORE POP PUSH1 0x3 PUSH1 0x0 DUP3 DUP2 MSTORE PUSH1 0x20 ADD SWAP1 DUP2 MSTORE PUSH1 0x20 ADD PUSH1 0x0 KECCAK256 PUSH1 0x0 DUP2 SLOAD DUP2 LT PUSH2 0x71A JUMPI PUSH2 0x719 PUSH2 0x20C0 JUMP JUMPDEST JUMPDEST SWAP1 PUSH1 0x0 MSTORE PUSH1 0x20 PUSH1 0x0 KECCAK256 SWAP1 PUSH1 0x7 MUL ADD PUSH1 0x1 ADD PUSH1 0x0 SWAP1 SLOAD SWAP1 PUSH2 0x100 EXP SWAP1 DIV PUSH20 0xFFFFFFFFFFFFFFFFFFFFFFFFFFFFFFFFFFFFFFFF AND PUSH20 0xFFFFFFFFFFFFFFFFFFFFFFFFFFFFFFFFFFFFFFFF AND PUSH32 0x9B5FCF7ABF3265364998B0894B4FAF37D58CED2B3A1DE20B112DB1BCF4CD68AB PUSH1 0x3 PUSH1 0x0 DUP5 DUP2 MSTORE PUSH1 0x20 ADD SWAP1 DUP2 MSTORE PUSH1 0x20 ADD PUSH1 0x0 KECCAK256 PUSH1 0x0 DUP2 SLOAD DUP2 LT PUSH2 0x7A9 JUMPI PUSH2 0x7A8 PUSH2 0x20C0 JUMP JUMPDEST JUMPDEST SWAP1 PUSH1 0x0 MSTORE PUSH1 0x20 PUSH1 0x0 KECCAK256 SWAP1 PUSH1 0x7 MUL ADD PUSH1 0x2 ADD SLOAD PUSH1 0x3 PUSH1 0x0 DUP6 DUP2 MSTORE PUSH1 0x20 ADD SWAP1 DUP2 MSTORE PUSH1 0x20 ADD PUSH1 0x0 KECCAK256 PUSH1 0x0 DUP2 SLOAD DUP2 LT PUSH2 0x7E1 JUMPI PUSH2 0x7E0 PUSH2 0x20C0 JUMP JUMPDEST JUMPDEST SWAP1 PUSH1 0x0 MSTORE PUSH1 0x20 PUSH1 0x0 KECCAK256 SWAP1 PUSH1 0x7 MUL ADD PUSH1 0x3 ADD PUSH1 0x3 PUSH1 0x0 DUP7 DUP2 MSTORE PUSH1 0x20 ADD SWAP1 DUP2 MSTORE PUSH1 0x20 ADD PUSH1 0x0 KECCAK256 PUSH1 0x0 DUP2 SLOAD DUP2 LT PUSH2 0x818 JUMPI PUSH2 0x817 PUSH2 0x20C0 JUMP JUMPDEST JUMPDEST SWAP1 PUSH1 0x0 MSTORE PUSH1 0x20 PUSH1 0x0 KECCAK256 SWAP1 PUSH1 0x7 MUL ADD PUSH1 0x4 ADD PUSH1 0x0 SWAP1 SLOAD SWAP1 PUSH2 0x100 EXP SWAP1 DIV PUSH20 0xFFFFFFFFFFFFFFFFFFFFFFFFFFFFFFFFFFFFFFFF AND PUSH1 0x3 PUSH1 0x0 DUP8 DUP2 MSTORE PUSH1 0x20 ADD SWAP1 DUP2 MSTORE PUSH1 0x20 ADD PUSH1 0x0 KECCAK256 PUSH1 0x0 DUP2 SLOAD DUP2 LT PUSH2 0x870 JUMPI PUSH2 0x86F PUSH2 0x20C0 JUMP JUMPDEST JUMPDEST SWAP1 PUSH1 0x0 MSTORE PUSH1 0x20 PUSH1 0x0 KECCAK256 SWAP1 PUSH1 0x7 MUL ADD PUSH1 0x5 ADD PUSH1 0x3 PUSH1 0x0 DUP9 DUP2 MSTORE PUSH1 0x20 ADD SWAP1 DUP2 MSTORE PUSH1 0x20 ADD PUSH1 0x0 KECCAK256 PUSH1 0x0 DUP2 SLOAD DUP2 LT PUSH2 0x8A7 JUMPI PUSH2 0x8A6 PUSH2 0x20C0 JUMP JUMPDEST JUMPDEST SWAP1 PUSH1 0x0 MSTORE PUSH1 0x20 PUSH1 0x0 KECCAK256 SWAP1 PUSH1 0x7 MUL ADD PUSH1 0x6 ADD PUSH1 0x0 SWAP1 SLOAD SWAP1 PUSH2 0x100 EXP SWAP1 DIV PUSH20 0xFFFFFFFFFFFFFFFFFFFFFFFFFFFFFFFFFFFFFFFF AND PUSH1 0x40 MLOAD PUSH2 0x8EA SWAP6 SWAP5 SWAP4 SWAP3 SWAP2 SWAP1 PUSH2 0x21E8 JUMP JUMPDEST PUSH1 0x40 MLOAD DUP1 SWAP2 SUB SWAP1 LOG2 POP JUMP JUMPDEST PUSH1 0x2 PUSH1 0x20 MSTORE DUP1 PUSH1 0x0 MSTORE PUSH1 0x40 PUSH1 0x0 KECCAK256 PUSH1 0x0 SWAP2 POP SWAP1 POP DUP1 PUSH1 0x0 ADD PUSH1 0x0 SWAP1 SLOAD SWAP1 PUSH2 0x100 EXP SWAP1 DIV PUSH20 0xFFFFFFFFFFFFFFFFFFFFFFFFFFFFFFFFFFFFFFFF AND SWAP1 DUP1 PUSH1 0x1 ADD PUSH1 0x0 SWAP1 SLOAD SWAP1 PUSH2 0x100 EXP SWAP1 DIV PUSH20 0xFFFFFFFFFFFFFFFFFFFFFFFFFFFFFFFFFFFFFFFF AND SWAP1 DUP1 PUSH1 0x2 ADD DUP1 SLOAD PUSH2 0x964 SWAP1 PUSH2 0x211E JUMP JUMPDEST DUP1 PUSH1 0x1F ADD PUSH1 0x20 DUP1 SWAP2 DIV MUL PUSH1 0x20 ADD PUSH1 0x40 MLOAD SWAP1 DUP2 ADD PUSH1 0x40 MSTORE DUP1 SWAP3 SWAP2 SWAP1 DUP2 DUP2 MSTORE PUSH1 0x20 ADD DUP3 DUP1 SLOAD PUSH2 0x990 SWAP1 PUSH2 0x211E JUMP JUMPDEST DUP1 ISZERO PUSH2 0x9DD JUMPI DUP1 PUSH1 0x1F LT PUSH2 0x9B2 JUMPI PUSH2 0x100 DUP1 DUP4 SLOAD DIV MUL DUP4 MSTORE SWAP2 PUSH1 0x20 ADD SWAP2 PUSH2 0x9DD JUMP JUMPDEST DUP3 ADD SWAP2 SWAP1 PUSH1 0x0 MSTORE PUSH1 0x20 PUSH1 0x0 KECCAK256 SWAP1 JUMPDEST DUP2 SLOAD DUP2 MSTORE SWAP1 PUSH1 0x1 ADD SWAP1 PUSH1 0x20 ADD DUP1 DUP4 GT PUSH2 0x9C0 JUMPI DUP3 SWAP1 SUB PUSH1 0x1F AND DUP3 ADD SWAP2 JUMPDEST POP POP POP POP POP SWAP1 DUP1 PUSH1 0x3 ADD DUP1 SLOAD PUSH2 0x9F2 SWAP1 PUSH2 0x211E JUMP JUMPDEST DUP1 PUSH1 0x1F ADD PUSH1 0x20 DUP1 SWAP2 DIV MUL PUSH1 0x20 ADD PUSH1 0x40 MLOAD SWAP1 DUP2 ADD PUSH1 0x40 MSTORE DUP1 SWAP3 SWAP2 SWAP1 DUP2 DUP2 MSTORE PUSH1 0x20 ADD DUP3 DUP1 SLOAD PUSH2 0xA1E SWAP1 PUSH2 0x211E JUMP JUMPDEST DUP1 ISZERO PUSH2 0xA6B JUMPI DUP1 PUSH1 0x1F LT PUSH2 0xA40 JUMPI PUSH2 0x100 DUP1 DUP4 SLOAD DIV MUL DUP4 MSTORE SWAP2 PUSH1 0x20 ADD SWAP2 PUSH2 0xA6B JUMP JUMPDEST DUP3 ADD SWAP2 SWAP1 PUSH1 0x0 MSTORE PUSH1 0x20 PUSH1 0x0 KECCAK256 SWAP1 JUMPDEST DUP2 SLOAD DUP2 MSTORE SWAP1 PUSH1 0x1 ADD SWAP1 PUSH1 0x20 ADD DUP1 DUP4 GT PUSH2 0xA4E JUMPI DUP3 SWAP1 SUB PUSH1 0x1F AND DUP3 ADD SWAP2 JUMPDEST POP POP POP POP POP SWAP1 DUP1 PUSH1 0x4 ADD DUP1 SLOAD PUSH2 0xA80 SWAP1 PUSH2 0x211E JUMP JUMPDEST DUP1 PUSH1 0x1F ADD PUSH1 0x20 DUP1 SWAP2 DIV MUL PUSH1 0x20 ADD PUSH1 0x40 MLOAD SWAP1 DUP2 ADD PUSH1 0x40 MSTORE DUP1 SWAP3 SWAP2 SWAP1 DUP2 DUP2 MSTORE PUSH1 0x20 ADD DUP3 DUP1 SLOAD PUSH2 0xAAC SWAP1 PUSH2 0x211E JUMP JUMPDEST DUP1 ISZERO PUSH2 0xAF9 JUMPI DUP1 PUSH1 0x1F LT PUSH2 0xACE JUMPI PUSH2 0x100 DUP1 DUP4 SLOAD DIV MUL DUP4 MSTORE SWAP2 PUSH1 0x20 ADD SWAP2 PUSH2 0xAF9 JUMP JUMPDEST DUP3 ADD SWAP2 SWAP1 PUSH1 0x0 MSTORE PUSH1 0x20 PUSH1 0x0 KECCAK256 SWAP1 JUMPDEST DUP2 SLOAD DUP2 MSTORE SWAP1 PUSH1 0x1 ADD SWAP1 PUSH1 0x20 ADD DUP1 DUP4 GT PUSH2 0xADC JUMPI DUP3 SWAP1 SUB PUSH1 0x1F AND DUP3 ADD SWAP2 JUMPDEST POP POP POP POP POP SWAP1 DUP1 PUSH1 0x5 ADD SLOAD SWAP1 DUP1 PUSH1 0x6 ADD SLOAD SWAP1 DUP1 PUSH1 0x7 ADD PUSH1 0x0 SWAP1 SLOAD SWAP1 PUSH2 0x100 EXP SWAP1 DIV PUSH1 0xFF AND SWAP1 POP DUP9 JUMP JUMPDEST PUSH1 0x1 PUSH1 0x0 SWAP1 SLOAD SWAP1 PUSH2 0x100 EXP SWAP1 DIV PUSH20 0xFFFFFFFFFFFFFFFFFFFFFFFFFFFFFFFFFFFFFFFF AND PUSH20 0xFFFFFFFFFFFFFFFFFFFFFFFFFFFFFFFFFFFFFFFF AND CALLER PUSH20 0xFFFFFFFFFFFFFFFFFFFFFFFFFFFFFFFFFFFFFFFF AND EQ PUSH2 0xBB2 JUMPI PUSH1 0x40 MLOAD PUSH32 0x8C379A000000000000000000000000000000000000000000000000000000000 DUP2 MSTORE PUSH1 0x4 ADD PUSH2 0xBA9 SWAP1 PUSH2 0x200E JUMP JUMPDEST PUSH1 0x40 MLOAD DUP1 SWAP2 SUB SWAP1 REVERT JUMPDEST DUP1 PUSH20 0xFFFFFFFFFFFFFFFFFFFFFFFFFFFFFFFFFFFFFFFF AND PUSH1 0x1 PUSH1 0x0 SWAP1 SLOAD SWAP1 PUSH2 0x100 EXP SWAP1 DIV PUSH20 0xFFFFFFFFFFFFFFFFFFFFFFFFFFFFFFFFFFFFFFFF AND PUSH20 0xFFFFFFFFFFFFFFFFFFFFFFFFFFFFFFFFFFFFFFFF AND PUSH32 0xC64707E618A83637FC41AD1E3AA4242BD5FDD353F3D60BC0FAF40DB0D7D86078 PUSH1 0x40 MLOAD PUSH1 0x40 MLOAD DUP1 SWAP2 SUB SWAP1 LOG3 DUP1 PUSH1 0x1 PUSH1 0x0 PUSH2 0x100 EXP DUP2 SLOAD DUP2 PUSH20 0xFFFFFFFFFFFFFFFFFFFFFFFFFFFFFFFFFFFFFFFF MUL NOT AND SWAP1 DUP4 PUSH20 0xFFFFFFFFFFFFFFFFFFFFFFFFFFFFFFFFFFFFFFFF AND MUL OR SWAP1 SSTORE POP POP JUMP JUMPDEST PUSH1 0x6 PUSH1 0x20 MSTORE DUP1 PUSH1 0x0 MSTORE PUSH1 0x40 PUSH1 0x0 KECCAK256 PUSH1 0x0 SWAP2 POP SLOAD SWAP1 PUSH2 0x100 EXP SWAP1 DIV PUSH1 0xFF AND DUP2 JUMP JUMPDEST PUSH1 0x0 DUP2 PUSH1 0x40 MLOAD PUSH1 0x20 ADD PUSH2 0xCA5 SWAP2 SWAP1 PUSH2 0x2285 JUMP JUMPDEST PUSH1 0x40 MLOAD PUSH1 0x20 DUP2 DUP4 SUB SUB DUP2 MSTORE SWAP1 PUSH1 0x40 MSTORE DUP1 MLOAD SWAP1 PUSH1 0x20 ADD KECCAK256 DUP4 PUSH1 0x40 MLOAD PUSH1 0x20 ADD PUSH2 0xCCC SWAP2 SWAP1 PUSH2 0x2285 JUMP JUMPDEST PUSH1 0x40 MLOAD PUSH1 0x20 DUP2 DUP4 SUB SUB DUP2 MSTORE SWAP1 PUSH1 0x40 MSTORE DUP1 MLOAD SWAP1 PUSH1 0x20 ADD KECCAK256 EQ SWAP1 POP SWAP3 SWAP2 POP POP JUMP JUMPDEST PUSH1 0x2 PUSH1 0x0 CALLER PUSH20 0xFFFFFFFFFFFFFFFFFFFFFFFFFFFFFFFFFFFFFFFF AND PUSH20 0xFFFFFFFFFFFFFFFFFFFFFFFFFFFFFFFFFFFFFFFF AND DUP2 MSTORE PUSH1 0x20 ADD SWAP1 DUP2 MSTORE PUSH1 0x20 ADD PUSH1 0x0 KECCAK256 PUSH1 0x7 ADD PUSH1 0x0 SWAP1 SLOAD SWAP1 PUSH2 0x100 EXP SWAP1 DIV PUSH1 0xFF AND PUSH2 0xD7A JUMPI PUSH1 0x40 MLOAD PUSH32 0x8C379A000000000000000000000000000000000000000000000000000000000 DUP2 MSTORE PUSH1 0x4 ADD PUSH2 0xD71 SWAP1 PUSH2 0x1FA2 JUMP JUMPDEST PUSH1 0x40 MLOAD DUP1 SWAP2 SUB SWAP1 REVERT JUMPDEST PUSH1 0x4 PUSH1 0x0 DUP9 DUP2 MSTORE PUSH1 0x20 ADD SWAP1 DUP2 MSTORE PUSH1 0x20 ADD PUSH1 0x0 KECCAK256 PUSH1 0x0 CALLER PUSH20 0xFFFFFFFFFFFFFFFFFFFFFFFFFFFFFFFFFFFFFFFF AND PUSH20 0xFFFFFFFFFFFFFFFFFFFFFFFFFFFFFFFFFFFFFFFF AND DUP2 MSTORE PUSH1 0x20 ADD SWAP1 DUP2 MSTORE PUSH1 0x20 ADD PUSH1 0x0 KECCAK256 PUSH1 0x0 SWAP1 SLOAD SWAP1 PUSH2 0x100 EXP SWAP1 DIV PUSH1 0xFF AND ISZERO PUSH2 0xE18 JUMPI PUSH1 0x40 MLOAD PUSH32 0x8C379A000000000000000000000000000000000000000000000000000000000 DUP2 MSTORE PUSH1 0x4 ADD PUSH2 0xE0F SWAP1 PUSH2 0x230E JUMP JUMPDEST PUSH1 0x40 MLOAD DUP1 SWAP2 SUB SWAP1 REVERT JUMPDEST PUSH1 0x1 PUSH1 0x4 PUSH1 0x0 DUP10 DUP2 MSTORE PUSH1 0x20 ADD SWAP1 DUP2 MSTORE PUSH1 0x20 ADD PUSH1 0x0 KECCAK256 PUSH1 0x0 CALLER PUSH20 0xFFFFFFFFFFFFFFFFFFFFFFFFFFFFFFFFFFFFFFFF AND PUSH20 0xFFFFFFFFFFFFFFFFFFFFFFFFFFFFFFFFFFFFFFFF AND DUP2 MSTORE PUSH1 0x20 ADD SWAP1 DUP2 MSTORE PUSH1 0x20 ADD PUSH1 0x0 KECCAK256 PUSH1 0x0 PUSH2 0x100 EXP DUP2 SLOAD DUP2 PUSH1 0xFF MUL NOT AND SWAP1 DUP4 ISZERO ISZERO MUL OR SWAP1 SSTORE POP PUSH1 0x5 DUP8 SWAP1 DUP1 PUSH1 0x1 DUP2 SLOAD ADD DUP1 DUP3 SSTORE DUP1 SWAP2 POP POP PUSH1 0x1 SWAP1 SUB SWAP1 PUSH1 0x0 MSTORE PUSH1 0x20 PUSH1 0x0 KECCAK256 ADD PUSH1 0x0 SWAP1 SWAP2 SWAP1 SWAP2 SWAP1 SWAP2 POP SSTORE PUSH1 0x3 PUSH1 0x0 DUP9 DUP2 MSTORE PUSH1 0x20 ADD SWAP1 DUP2 MSTORE PUSH1 0x20 ADD PUSH1 0x0 KECCAK256 PUSH1 0x40 MLOAD DUP1 PUSH1 0xE0 ADD PUSH1 0x40 MSTORE DUP1 CALLER PUSH20 0xFFFFFFFFFFFFFFFFFFFFFFFFFFFFFFFFFFFFFFFF AND DUP2 MSTORE PUSH1 0x20 ADD DUP9 PUSH20 0xFFFFFFFFFFFFFFFFFFFFFFFFFFFFFFFFFFFFFFFF AND DUP2 MSTORE PUSH1 0x20 ADD DUP8 DUP2 MSTORE PUSH1 0x20 ADD DUP7 DUP2 MSTORE PUSH1 0x20 ADD DUP6 PUSH20 0xFFFFFFFFFFFFFFFFFFFFFFFFFFFFFFFFFFFFFFFF AND DUP2 MSTORE PUSH1 0x20 ADD DUP5 DUP2 MSTORE PUSH1 0x20 ADD DUP4 PUSH20 0xFFFFFFFFFFFFFFFFFFFFFFFFFFFFFFFFFFFFFFFF AND DUP2 MSTORE POP SWAP1 DUP1 PUSH1 0x1 DUP2 SLOAD ADD DUP1 DUP3 SSTORE DUP1 SWAP2 POP POP PUSH1 0x1 SWAP1 SUB SWAP1 PUSH1 0x0 MSTORE PUSH1 0x20 PUSH1 0x0 KECCAK256 SWAP1 PUSH1 0x7 MUL ADD PUSH1 0x0 SWAP1 SWAP2 SWAP1 SWAP2 SWAP1 SWAP2 POP PUSH1 0x0 DUP3 ADD MLOAD DUP2 PUSH1 0x0 ADD PUSH1 0x0 PUSH2 0x100 EXP DUP2 SLOAD DUP2 PUSH20 0xFFFFFFFFFFFFFFFFFFFFFFFFFFFFFFFFFFFFFFFF MUL NOT AND SWAP1 DUP4 PUSH20 0xFFFFFFFFFFFFFFFFFFFFFFFFFFFFFFFFFFFFFFFF AND MUL OR SWAP1 SSTORE POP PUSH1 0x20 DUP3 ADD MLOAD DUP2 PUSH1 0x1 ADD PUSH1 0x0 PUSH2 0x100 EXP DUP2 SLOAD DUP2 PUSH20 0xFFFFFFFFFFFFFFFFFFFFFFFFFFFFFFFFFFFFFFFF MUL NOT AND SWAP1 DUP4 PUSH20 0xFFFFFFFFFFFFFFFFFFFFFFFFFFFFFFFFFFFFFFFF AND MUL OR SWAP1 SSTORE POP PUSH1 0x40 DUP3 ADD MLOAD DUP2 PUSH1 0x2 ADD SSTORE PUSH1 0x60 DUP3 ADD MLOAD DUP2 PUSH1 0x3 ADD SWAP1 DUP2 PUSH2 0x101E SWAP2 SWAP1 PUSH2 0x24C5 JUMP JUMPDEST POP PUSH1 0x80 DUP3 ADD MLOAD DUP2 PUSH1 0x4 ADD PUSH1 0x0 PUSH2 0x100 EXP DUP2 SLOAD DUP2 PUSH20 0xFFFFFFFFFFFFFFFFFFFFFFFFFFFFFFFFFFFFFFFF MUL NOT AND SWAP1 DUP4 PUSH20 0xFFFFFFFFFFFFFFFFFFFFFFFFFFFFFFFFFFFFFFFF AND MUL OR SWAP1 SSTORE POP PUSH1 0xA0 DUP3 ADD MLOAD DUP2 PUSH1 0x5 ADD SWAP1 DUP2 PUSH2 0x107B SWAP2 SWAP1 PUSH2 0x24C5 JUMP JUMPDEST POP PUSH1 0xC0 DUP3 ADD MLOAD DUP2 PUSH1 0x6 ADD PUSH1 0x0 PUSH2 0x100 EXP DUP2 SLOAD DUP2 PUSH20 0xFFFFFFFFFFFFFFFFFFFFFFFFFFFFFFFFFFFFFFFF MUL NOT AND SWAP1 DUP4 PUSH20 0xFFFFFFFFFFFFFFFFFFFFFFFFFFFFFFFFFFFFFFFF AND MUL OR SWAP1 SSTORE POP POP POP POP POP POP POP POP POP POP JUMP JUMPDEST PUSH1 0x2 PUSH1 0x0 CALLER PUSH20 0xFFFFFFFFFFFFFFFFFFFFFFFFFFFFFFFFFFFFFFFF AND PUSH20 0xFFFFFFFFFFFFFFFFFFFFFFFFFFFFFFFFFFFFFFFF AND DUP2 MSTORE PUSH1 0x20 ADD SWAP1 DUP2 MSTORE PUSH1 0x20 ADD PUSH1 0x0 KECCAK256 PUSH1 0x7 ADD PUSH1 0x0 SWAP1 SLOAD SWAP1 PUSH2 0x100 EXP SWAP1 DIV PUSH1 0xFF AND PUSH2 0x115D JUMPI PUSH1 0x40 MLOAD PUSH32 0x8C379A000000000000000000000000000000000000000000000000000000000 DUP2 MSTORE PUSH1 0x4 ADD PUSH2 0x1154 SWAP1 PUSH2 0x1FA2 JUMP JUMPDEST PUSH1 0x40 MLOAD DUP1 SWAP2 SUB SWAP1 REVERT JUMPDEST PUSH1 0x40 MLOAD DUP1 PUSH2 0x100 ADD PUSH1 0x40 MSTORE DUP1 CALLER PUSH20 0xFFFFFFFFFFFFFFFFFFFFFFFFFFFFFFFFFFFFFFFF AND DUP2 MSTORE PUSH1 0x20 ADD DUP8 PUSH20 0xFFFFFFFFFFFFFFFFFFFFFFFFFFFFFFFFFFFFFFFF AND DUP2 MSTORE PUSH1 0x20 ADD DUP7 DUP2 MSTORE PUSH1 0x20 ADD DUP6 DUP2 MSTORE PUSH1 0x20 ADD DUP5 DUP2 MSTORE PUSH1 0x20 ADD DUP4 DUP2 MSTORE PUSH1 0x20 ADD DUP3 DUP2 MSTORE PUSH1 0x20 ADD PUSH1 0x1 ISZERO ISZERO DUP2 MSTORE POP PUSH1 0x2 PUSH1 0x0 CALLER PUSH20 0xFFFFFFFFFFFFFFFFFFFFFFFFFFFFFFFFFFFFFFFF AND PUSH20 0xFFFFFFFFFFFFFFFFFFFFFFFFFFFFFFFFFFFFFFFF AND DUP2 MSTORE PUSH1 0x20 ADD SWAP1 DUP2 MSTORE PUSH1 0x20 ADD PUSH1 0x0 KECCAK256 PUSH1 0x0 DUP3 ADD MLOAD DUP2 PUSH1 0x0 ADD PUSH1 0x0 PUSH2 0x100 EXP DUP2 SLOAD DUP2 PUSH20 0xFFFFFFFFFFFFFFFFFFFFFFFFFFFFFFFFFFFFFFFF MUL NOT AND SWAP1 DUP4 PUSH20 0xFFFFFFFFFFFFFFFFFFFFFFFFFFFFFFFFFFFFFFFF AND MUL OR SWAP1 SSTORE POP PUSH1 0x20 DUP3 ADD MLOAD DUP2 PUSH1 0x1 ADD PUSH1 0x0 PUSH2 0x100 EXP DUP2 SLOAD DUP2 PUSH20 0xFFFFFFFFFFFFFFFFFFFFFFFFFFFFFFFFFFFFFFFF MUL NOT AND SWAP1 DUP4 PUSH20 0xFFFFFFFFFFFFFFFFFFFFFFFFFFFFFFFFFFFFFFFF AND MUL OR SWAP1 SSTORE POP PUSH1 0x40 DUP3 ADD MLOAD DUP2 PUSH1 0x2 ADD SWAP1 DUP2 PUSH2 0x12A8 SWAP2 SWAP1 PUSH2 0x24C5 JUMP JUMPDEST POP PUSH1 0x60 DUP3 ADD MLOAD DUP2 PUSH1 0x3 ADD SWAP1 DUP2 PUSH2 0x12BE SWAP2 SWAP1 PUSH2 0x24C5 JUMP JUMPDEST POP PUSH1 0x80 DUP3 ADD MLOAD DUP2 PUSH1 0x4 ADD SWAP1 DUP2 PUSH2 0x12D4 SWAP2 SWAP1 PUSH2 0x24C5 JUMP JUMPDEST POP PUSH1 0xA0 DUP3 ADD MLOAD DUP2 PUSH1 0x5 ADD SSTORE PUSH1 0xC0 DUP3 ADD MLOAD DUP2 PUSH1 0x6 ADD SSTORE PUSH1 0xE0 DUP3 ADD MLOAD DUP2 PUSH1 0x7 ADD PUSH1 0x0 PUSH2 0x100 EXP DUP2 SLOAD DUP2 PUSH1 0xFF MUL NOT AND SWAP1 DUP4 ISZERO ISZERO MUL OR SWAP1 SSTORE POP SWAP1 POP POP POP POP POP POP POP POP JUMP JUMPDEST PUSH1 0x2 PUSH1 0x0 CALLER PUSH20 0xFFFFFFFFFFFFFFFFFFFFFFFFFFFFFFFFFFFFFFFF AND PUSH20 0xFFFFFFFFFFFFFFFFFFFFFFFFFFFFFFFFFFFFFFFF AND DUP2 MSTORE PUSH1 0x20 ADD SWAP1 DUP2 MSTORE PUSH1 0x20 ADD PUSH1 0x0 KECCAK256 PUSH1 0x7 ADD PUSH1 0x0 SWAP1 SLOAD SWAP1 PUSH2 0x100 EXP SWAP1 DIV PUSH1 0xFF AND ISZERO PUSH2 0x13A4 JUMPI PUSH1 0x40 MLOAD PUSH32 0x8C379A000000000000000000000000000000000000000000000000000000000 DUP2 MSTORE PUSH1 0x4 ADD PUSH2 0x139B SWAP1 PUSH2 0x25E3 JUMP JUMPDEST PUSH1 0x40 MLOAD DUP1 SWAP2 SUB SWAP1 REVERT JUMPDEST PUSH1 0x40 MLOAD DUP1 PUSH2 0x100 ADD PUSH1 0x40 MSTORE DUP1 CALLER PUSH20 0xFFFFFFFFFFFFFFFFFFFFFFFFFFFFFFFFFFFFFFFF AND DUP2 MSTORE PUSH1 0x20 ADD DUP8 PUSH20 0xFFFFFFFFFFFFFFFFFFFFFFFFFFFFFFFFFFFFFFFF AND DUP2 MSTORE PUSH1 0x20 ADD DUP7 DUP2 MSTORE PUSH1 0x20 ADD DUP6 DUP2 MSTORE PUSH1 0x20 ADD DUP5 DUP2 MSTORE PUSH1 0x20 ADD DUP4 DUP2 MSTORE PUSH1 0x20 ADD DUP3 DUP2 MSTORE PUSH1 0x20 ADD PUSH1 0x1 ISZERO ISZERO DUP2 MSTORE POP PUSH1 0x2 PUSH1 0x0 CALLER PUSH20 0xFFFFFFFFFFFFFFFFFFFFFFFFFFFFFFFFFFFFFFFF AND PUSH20 0xFFFFFFFFFFFFFFFFFFFFFFFFFFFFFFFFFFFFFFFF AND DUP2 MSTORE PUSH1 0x20 ADD SWAP1 DUP2 MSTORE PUSH1 0x20 ADD PUSH1 0x0 KECCAK256 PUSH1 0x0 DUP3 ADD MLOAD DUP2 PUSH1 0x0 ADD PUSH1 0x0 PUSH2 0x100 EXP DUP2 SLOAD DUP2 PUSH20 0xFFFFFFFFFFFFFFFFFFFFFFFFFFFFFFFFFFFFFFFF MUL NOT AND SWAP1 DUP4 PUSH20 0xFFFFFFFFFFFFFFFFFFFFFFFFFFFFFFFFFFFFFFFF AND MUL OR SWAP1 SSTORE POP PUSH1 0x20 DUP3 ADD MLOAD DUP2 PUSH1 0x1 ADD PUSH1 0x0 PUSH2 0x100 EXP DUP2 SLOAD DUP2 PUSH20 0xFFFFFFFFFFFFFFFFFFFFFFFFFFFFFFFFFFFFFFFF MUL NOT AND SWAP1 DUP4 PUSH20 0xFFFFFFFFFFFFFFFFFFFFFFFFFFFFFFFFFFFFFFFF AND MUL OR SWAP1 SSTORE POP PUSH1 0x40 DUP3 ADD MLOAD DUP2 PUSH1 0x2 ADD SWAP1 DUP2 PUSH2 0x14EF SWAP2 SWAP1 PUSH2 0x24C5 JUMP JUMPDEST POP PUSH1 0x60 DUP3 ADD MLOAD DUP2 PUSH1 0x3 ADD SWAP1 DUP2 PUSH2 0x1505 SWAP2 SWAP1 PUSH2 0x24C5 JUMP JUMPDEST POP PUSH1 0x80 DUP3 ADD MLOAD DUP2 PUSH1 0x4 ADD SWAP1 DUP2 PUSH2 0x151B SWAP2 SWAP1 PUSH2 0x24C5 JUMP JUMPDEST POP PUSH1 0xA0 DUP3 ADD MLOAD DUP2 PUSH1 0x5 ADD SSTORE PUSH1 0xC0 DUP3 ADD MLOAD DUP2 PUSH1 0x6 ADD SSTORE PUSH1 0xE0 DUP3 ADD MLOAD DUP2 PUSH1 0x7 ADD PUSH1 0x0 PUSH2 0x100 EXP DUP2 SLOAD DUP2 PUSH1 0xFF MUL NOT AND SWAP1 DUP4 ISZERO ISZERO MUL OR SWAP1 SSTORE POP SWAP1 POP POP POP POP POP POP POP POP JUMP JUMPDEST PUSH1 0x0 PUSH1 0x1 PUSH1 0x0 SWAP1 SLOAD SWAP1 PUSH2 0x100 EXP SWAP1 DIV PUSH20 0xFFFFFFFFFFFFFFFFFFFFFFFFFFFFFFFFFFFFFFFF AND SWAP1 POP SWAP1 JUMP JUMPDEST PUSH1 0x3 PUSH1 0x20 MSTORE DUP2 PUSH1 0x0 MSTORE PUSH1 0x40 PUSH1 0x0 KECCAK256 DUP2 DUP2 SLOAD DUP2 LT PUSH2 0x15A1 JUMPI PUSH1 0x0 DUP1 REVERT JUMPDEST SWAP1 PUSH1 0x0 MSTORE PUSH1 0x20 PUSH1 0x0 KECCAK256 SWAP1 PUSH1 0x7 MUL ADD PUSH1 0x0 SWAP2 POP SWAP2 POP POP DUP1 PUSH1 0x0 ADD PUSH1 0x0 SWAP1 SLOAD SWAP1 PUSH2 0x100 EXP SWAP1 DIV PUSH20 0xFFFFFFFFFFFFFFFFFFFFFFFFFFFFFFFFFFFFFFFF AND SWAP1 DUP1 PUSH1 0x1 ADD PUSH1 0x0 SWAP1 SLOAD SWAP1 PUSH2 0x100 EXP SWAP1 DIV PUSH20 0xFFFFFFFFFFFFFFFFFFFFFFFFFFFFFFFFFFFFFFFF AND SWAP1 DUP1 PUSH1 0x2 ADD SLOAD SWAP1 DUP1 PUSH1 0x3 ADD DUP1 SLOAD PUSH2 0x1617 SWAP1 PUSH2 0x211E JUMP JUMPDEST DUP1 PUSH1 0x1F ADD PUSH1 0x20 DUP1 SWAP2 DIV MUL PUSH1 0x20 ADD PUSH1 0x40 MLOAD SWAP1 DUP2 ADD PUSH1 0x40 MSTORE DUP1 SWAP3 SWAP2 SWAP1 DUP2 DUP2 MSTORE PUSH1 0x20 ADD DUP3 DUP1 SLOAD PUSH2 0x1643 SWAP1 PUSH2 0x211E JUMP JUMPDEST DUP1 ISZERO PUSH2 0x1690 JUMPI DUP1 PUSH1 0x1F LT PUSH2 0x1665 JUMPI PUSH2 0x100 DUP1 DUP4 SLOAD DIV MUL DUP4 MSTORE SWAP2 PUSH1 0x20 ADD SWAP2 PUSH2 0x1690 JUMP JUMPDEST DUP3 ADD SWAP2 SWAP1 PUSH1 0x0 MSTORE PUSH1 0x20 PUSH1 0x0 KECCAK256 SWAP1 JUMPDEST DUP2 SLOAD DUP2 MSTORE SWAP1 PUSH1 0x1 ADD SWAP1 PUSH1 0x20 ADD DUP1 DUP4 GT PUSH2 0x1673 JUMPI DUP3 SWAP1 SUB PUSH1 0x1F AND DUP3 ADD SWAP2 JUMPDEST POP POP POP POP POP SWAP1 DUP1 PUSH1 0x4 ADD PUSH1 0x0 SWAP1 SLOAD SWAP1 PUSH2 0x100 EXP SWAP1 DIV PUSH20 0xFFFFFFFFFFFFFFFFFFFFFFFFFFFFFFFFFFFFFFFF AND SWAP1 DUP1 PUSH1 0x5 ADD DUP1 SLOAD PUSH2 0x16CB SWAP1 PUSH2 0x211E JUMP JUMPDEST DUP1 PUSH1 0x1F ADD PUSH1 0x20 DUP1 SWAP2 DIV MUL PUSH1 0x20 ADD PUSH1 0x40 MLOAD SWAP1 DUP2 ADD PUSH1 0x40 MSTORE DUP1 SWAP3 SWAP2 SWAP1 DUP2 DUP2 MSTORE PUSH1 0x20 ADD DUP3 DUP1 SLOAD PUSH2 0x16F7 SWAP1 PUSH2 0x211E JUMP JUMPDEST DUP1 ISZERO PUSH2 0x1744 JUMPI DUP1 PUSH1 0x1F LT PUSH2 0x1719 JUMPI PUSH2 0x100 DUP1 DUP4 SLOAD DIV MUL DUP4 MSTORE SWAP2 PUSH1 0x20 ADD SWAP2 PUSH2 0x1744 JUMP JUMPDEST DUP3 ADD SWAP2 SWAP1 PUSH1 0x0 MSTORE PUSH1 0x20 PUSH1 0x0 KECCAK256 SWAP1 JUMPDEST DUP2 SLOAD DUP2 MSTORE SWAP1 PUSH1 0x1 ADD SWAP1 PUSH1 0x20 ADD DUP1 DUP4 GT PUSH2 0x1727 JUMPI DUP3 SWAP1 SUB PUSH1 0x1F AND DUP3 ADD SWAP2 JUMPDEST POP POP POP POP POP SWAP1 DUP1 PUSH1 0x6 ADD PUSH1 0x0 SWAP1 SLOAD SWAP1 PUSH2 0x100 EXP SWAP1 DIV PUSH20 0xFFFFFFFFFFFFFFFFFFFFFFFFFFFFFFFFFFFFFFFF AND SWAP1 POP DUP8 JUMP JUMPDEST PUSH1 0x0 PUSH1 0x1 PUSH1 0x5 DUP1 SLOAD SWAP1 POP PUSH2 0x1788 SWAP2 SWAP1 PUSH2 0x2632 JUMP JUMPDEST SWAP1 POP SWAP1 JUMP JUMPDEST POP DUP1 SLOAD PUSH2 0x1799 SWAP1 PUSH2 0x211E JUMP JUMPDEST PUSH1 0x0 DUP3 SSTORE DUP1 PUSH1 0x1F LT PUSH2 0x17AB JUMPI POP PUSH2 0x17CA JUMP JUMPDEST PUSH1 0x1F ADD PUSH1 0x20 SWAP1 DIV SWAP1 PUSH1 0x0 MSTORE PUSH1 0x20 PUSH1 0x0 KECCAK256 SWAP1 DUP2 ADD SWAP1 PUSH2 0x17C9 SWAP2 SWAP1 PUSH2 0x17CD JUMP JUMPDEST JUMPDEST POP JUMP JUMPDEST JUMPDEST DUP1 DUP3 GT ISZERO PUSH2 0x17E6 JUMPI PUSH1 0x0 DUP2 PUSH1 0x0 SWAP1 SSTORE POP PUSH1 0x1 ADD PUSH2 0x17CE JUMP JUMPDEST POP SWAP1 JUMP JUMPDEST PUSH1 0x0 DUP2 MLOAD SWAP1 POP SWAP2 SWAP1 POP JUMP JUMPDEST PUSH1 0x0 DUP3 DUP3 MSTORE PUSH1 0x20 DUP3 ADD SWAP1 POP SWAP3 SWAP2 POP POP JUMP JUMPDEST PUSH1 0x0 JUMPDEST DUP4 DUP2 LT ISZERO PUSH2 0x1824 JUMPI DUP1 DUP3 ADD MLOAD DUP2 DUP5 ADD MSTORE PUSH1 0x20 DUP2 ADD SWAP1 POP PUSH2 0x1809 JUMP JUMPDEST PUSH1 0x0 DUP5 DUP5 ADD MSTORE POP POP POP POP JUMP JUMPDEST PUSH1 0x0 PUSH1 0x1F NOT PUSH1 0x1F DUP4 ADD AND SWAP1 POP SWAP2 SWAP1 POP JUMP JUMPDEST PUSH1 0x0 PUSH2 0x184C DUP3 PUSH2 0x17EA JUMP JUMPDEST PUSH2 0x1856 DUP2 DUP6 PUSH2 0x17F5 JUMP JUMPDEST SWAP4 POP PUSH2 0x1866 DUP2 DUP6 PUSH1 0x20 DUP7 ADD PUSH2 0x1806 JUMP JUMPDEST PUSH2 0x186F DUP2 PUSH2 0x1830 JUMP JUMPDEST DUP5 ADD SWAP2 POP POP SWAP3 SWAP2 POP POP JUMP JUMPDEST PUSH1 0x0 PUSH1 0x20 DUP3 ADD SWAP1 POP DUP2 DUP2 SUB PUSH1 0x0 DUP4 ADD MSTORE PUSH2 0x1894 DUP2 DUP5 PUSH2 0x1841 JUMP JUMPDEST SWAP1 POP SWAP3 SWAP2 POP POP JUMP JUMPDEST PUSH1 0x0 PUSH1 0x40 MLOAD SWAP1 POP SWAP1 JUMP JUMPDEST PUSH1 0x0 DUP1 REVERT JUMPDEST PUSH1 0x0 DUP1 REVERT JUMPDEST PUSH1 0x0 DUP2 SWAP1 POP SWAP2 SWAP1 POP JUMP JUMPDEST PUSH2 0x18C3 DUP2 PUSH2 0x18B0 JUMP JUMPDEST DUP2 EQ PUSH2 0x18CE JUMPI PUSH1 0x0 DUP1 REVERT JUMPDEST POP JUMP JUMPDEST PUSH1 0x0 DUP2 CALLDATALOAD SWAP1 POP PUSH2 0x18E0 DUP2 PUSH2 0x18BA JUMP JUMPDEST SWAP3 SWAP2 POP POP JUMP JUMPDEST PUSH1 0x0 PUSH20 0xFFFFFFFFFFFFFFFFFFFFFFFFFFFFFFFFFFFFFFFF DUP3 AND SWAP1 POP SWAP2 SWAP1 POP JUMP JUMPDEST PUSH1 0x0 PUSH2 0x1911 DUP3 PUSH2 0x18E6 JUMP JUMPDEST SWAP1 POP SWAP2 SWAP1 POP JUMP JUMPDEST PUSH2 0x1921 DUP2 PUSH2 0x1906 JUMP JUMPDEST DUP2 EQ PUSH2 0x192C JUMPI PUSH1 0x0 DUP1 REVERT JUMPDEST POP JUMP JUMPDEST PUSH1 0x0 DUP2 CALLDATALOAD SWAP1 POP PUSH2 0x193E DUP2 PUSH2 0x1918 JUMP JUMPDEST SWAP3 SWAP2 POP POP JUMP JUMPDEST PUSH1 0x0 DUP1 PUSH1 0x40 DUP4 DUP6 SUB SLT ISZERO PUSH2 0x195B JUMPI PUSH2 0x195A PUSH2 0x18A6 JUMP JUMPDEST JUMPDEST PUSH1 0x0 PUSH2 0x1969 DUP6 DUP3 DUP7 ADD PUSH2 0x18D1 JUMP JUMPDEST SWAP3 POP POP PUSH1 0x20 PUSH2 0x197A DUP6 DUP3 DUP7 ADD PUSH2 0x192F JUMP JUMPDEST SWAP2 POP POP SWAP3 POP SWAP3 SWAP1 POP JUMP JUMPDEST PUSH1 0x0 DUP2 ISZERO ISZERO SWAP1 POP SWAP2 SWAP1 POP JUMP JUMPDEST PUSH2 0x1999 DUP2 PUSH2 0x1984 JUMP JUMPDEST DUP3 MSTORE POP POP JUMP JUMPDEST PUSH1 0x0 PUSH1 0x20 DUP3 ADD SWAP1 POP PUSH2 0x19B4 PUSH1 0x0 DUP4 ADD DUP5 PUSH2 0x1990 JUMP JUMPDEST SWAP3 SWAP2 POP POP JUMP JUMPDEST PUSH2 0x19C3 DUP2 PUSH2 0x1906 JUMP JUMPDEST DUP3 MSTORE POP POP JUMP JUMPDEST PUSH1 0x0 PUSH1 0x20 DUP3 ADD SWAP1 POP PUSH2 0x19DE PUSH1 0x0 DUP4 ADD DUP5 PUSH2 0x19BA JUMP JUMPDEST SWAP3 SWAP2 POP POP JUMP JUMPDEST PUSH1 0x0 PUSH1 0x20 DUP3 DUP5 SUB SLT ISZERO PUSH2 0x19FA JUMPI PUSH2 0x19F9 PUSH2 0x18A6 JUMP JUMPDEST JUMPDEST PUSH1 0x0 PUSH2 0x1A08 DUP5 DUP3 DUP6 ADD PUSH2 0x18D1 JUMP JUMPDEST SWAP2 POP POP SWAP3 SWAP2 POP POP JUMP JUMPDEST PUSH1 0x0 PUSH1 0x20 DUP3 DUP5 SUB SLT ISZERO PUSH2 0x1A27 JUMPI PUSH2 0x1A26 PUSH2 0x18A6 JUMP JUMPDEST JUMPDEST PUSH1 0x0 PUSH2 0x1A35 DUP5 DUP3 DUP6 ADD PUSH2 0x192F JUMP JUMPDEST SWAP2 POP POP SWAP3 SWAP2 POP POP JUMP JUMPDEST PUSH1 0x0 DUP2 SWAP1 POP SWAP2 SWAP1 POP JUMP JUMPDEST PUSH2 0x1A51 DUP2 PUSH2 0x1A3E JUMP JUMPDEST DUP3 MSTORE POP POP JUMP JUMPDEST PUSH1 0x0 PUSH2 0x100 DUP3 ADD SWAP1 POP PUSH2 0x1A6D PUSH1 0x0 DUP4 ADD DUP12 PUSH2 0x19BA JUMP JUMPDEST PUSH2 0x1A7A PUSH1 0x20 DUP4 ADD DUP11 PUSH2 0x19BA JUMP JUMPDEST DUP2 DUP2 SUB PUSH1 0x40 DUP4 ADD MSTORE PUSH2 0x1A8C DUP2 DUP10 PUSH2 0x1841 JUMP JUMPDEST SWAP1 POP DUP2 DUP2 SUB PUSH1 0x60 DUP4 ADD MSTORE PUSH2 0x1AA0 DUP2 DUP9 PUSH2 0x1841 JUMP JUMPDEST SWAP1 POP DUP2 DUP2 SUB PUSH1 0x80 DUP4 ADD MSTORE PUSH2 0x1AB4 DUP2 DUP8 PUSH2 0x1841 JUMP JUMPDEST SWAP1 POP PUSH2 0x1AC3 PUSH1 0xA0 DUP4 ADD DUP7 PUSH2 0x1A48 JUMP JUMPDEST PUSH2 0x1AD0 PUSH1 0xC0 DUP4 ADD DUP6 PUSH2 0x1A48 JUMP JUMPDEST PUSH2 0x1ADD PUSH1 0xE0 DUP4 ADD DUP5 PUSH2 0x1990 JUMP JUMPDEST SWAP10 SWAP9 POP POP POP POP POP POP POP POP POP JUMP JUMPDEST PUSH1 0x0 DUP1 REVERT JUMPDEST PUSH1 0x0 DUP1 REVERT JUMPDEST PUSH32 0x4E487B7100000000000000000000000000000000000000000000000000000000 PUSH1 0x0 MSTORE PUSH1 0x41 PUSH1 0x4 MSTORE PUSH1 0x24 PUSH1 0x0 REVERT JUMPDEST PUSH2 0x1B2C DUP3 PUSH2 0x1830 JUMP JUMPDEST DUP2 ADD DUP2 DUP2 LT PUSH8 0xFFFFFFFFFFFFFFFF DUP3 GT OR ISZERO PUSH2 0x1B4B JUMPI PUSH2 0x1B4A PUSH2 0x1AF4 JUMP JUMPDEST JUMPDEST DUP1 PUSH1 0x40 MSTORE POP POP POP JUMP JUMPDEST PUSH1 0x0 PUSH2 0x1B5E PUSH2 0x189C JUMP JUMPDEST SWAP1 POP PUSH2 0x1B6A DUP3 DUP3 PUSH2 0x1B23 JUMP JUMPDEST SWAP2 SWAP1 POP JUMP JUMPDEST PUSH1 0x0 PUSH8 0xFFFFFFFFFFFFFFFF DUP3 GT ISZERO PUSH2 0x1B8A JUMPI PUSH2 0x1B89 PUSH2 0x1AF4 JUMP JUMPDEST JUMPDEST PUSH2 0x1B93 DUP3 PUSH2 0x1830 JUMP JUMPDEST SWAP1 POP PUSH1 0x20 DUP2 ADD SWAP1 POP SWAP2 SWAP1 POP JUMP JUMPDEST DUP3 DUP2 DUP4 CALLDATACOPY PUSH1 0x0 DUP4 DUP4 ADD MSTORE POP POP POP JUMP JUMPDEST PUSH1 0x0 PUSH2 0x1BC2 PUSH2 0x1BBD DUP5 PUSH2 0x1B6F JUMP JUMPDEST PUSH2 0x1B54 JUMP JUMPDEST SWAP1 POP DUP3 DUP2 MSTORE PUSH1 0x20 DUP2 ADD DUP5 DUP5 DUP5 ADD GT ISZERO PUSH2 0x1BDE JUMPI PUSH2 0x1BDD PUSH2 0x1AEF JUMP JUMPDEST JUMPDEST PUSH2 0x1BE9 DUP5 DUP3 DUP6 PUSH2 0x1BA0 JUMP JUMPDEST POP SWAP4 SWAP3 POP POP POP JUMP JUMPDEST PUSH1 0x0 DUP3 PUSH1 0x1F DUP4 ADD SLT PUSH2 0x1C06 JUMPI PUSH2 0x1C05 PUSH2 0x1AEA JUMP JUMPDEST JUMPDEST DUP2 CALLDATALOAD PUSH2 0x1C16 DUP5 DUP3 PUSH1 0x20 DUP7 ADD PUSH2 0x1BAF JUMP JUMPDEST SWAP2 POP POP SWAP3 SWAP2 POP POP JUMP JUMPDEST PUSH1 0x0 DUP1 PUSH1 0x40 DUP4 DUP6 SUB SLT ISZERO PUSH2 0x1C36 JUMPI PUSH2 0x1C35 PUSH2 0x18A6 JUMP JUMPDEST JUMPDEST PUSH1 0x0 DUP4 ADD CALLDATALOAD PUSH8 0xFFFFFFFFFFFFFFFF DUP2 GT ISZERO PUSH2 0x1C54 JUMPI PUSH2 0x1C53 PUSH2 0x18AB JUMP JUMPDEST JUMPDEST PUSH2 0x1C60 DUP6 DUP3 DUP7 ADD PUSH2 0x1BF1 JUMP JUMPDEST SWAP3 POP POP PUSH1 0x20 DUP4 ADD CALLDATALOAD PUSH8 0xFFFFFFFFFFFFFFFF DUP2 GT ISZERO PUSH2 0x1C81 JUMPI PUSH2 0x1C80 PUSH2 0x18AB JUMP JUMPDEST JUMPDEST PUSH2 0x1C8D DUP6 DUP3 DUP7 ADD PUSH2 0x1BF1 JUMP JUMPDEST SWAP2 POP POP SWAP3 POP SWAP3 SWAP1 POP JUMP JUMPDEST PUSH2 0x1CA0 DUP2 PUSH2 0x1A3E JUMP JUMPDEST DUP2 EQ PUSH2 0x1CAB JUMPI PUSH1 0x0 DUP1 REVERT JUMPDEST POP JUMP JUMPDEST PUSH1 0x0 DUP2 CALLDATALOAD SWAP1 POP PUSH2 0x1CBD DUP2 PUSH2 0x1C97 JUMP JUMPDEST SWAP3 SWAP2 POP POP JUMP JUMPDEST PUSH1 0x0 DUP1 PUSH1 0x0 DUP1 PUSH1 0x0 DUP1 PUSH1 0x0 PUSH1 0xE0 DUP9 DUP11 SUB SLT ISZERO PUSH2 0x1CE2 JUMPI PUSH2 0x1CE1 PUSH2 0x18A6 JUMP JUMPDEST JUMPDEST PUSH1 0x0 PUSH2 0x1CF0 DUP11 DUP3 DUP12 ADD PUSH2 0x18D1 JUMP JUMPDEST SWAP8 POP POP PUSH1 0x20 PUSH2 0x1D01 DUP11 DUP3 DUP12 ADD PUSH2 0x192F JUMP JUMPDEST SWAP7 POP POP PUSH1 0x40 PUSH2 0x1D12 DUP11 DUP3 DUP12 ADD PUSH2 0x1CAE JUMP JUMPDEST SWAP6 POP POP PUSH1 0x60 DUP9 ADD CALLDATALOAD PUSH8 0xFFFFFFFFFFFFFFFF DUP2 GT ISZERO PUSH2 0x1D33 JUMPI PUSH2 0x1D32 PUSH2 0x18AB JUMP JUMPDEST JUMPDEST PUSH2 0x1D3F DUP11 DUP3 DUP12 ADD PUSH2 0x1BF1 JUMP JUMPDEST SWAP5 POP POP PUSH1 0x80 PUSH2 0x1D50 DUP11 DUP3 DUP12 ADD PUSH2 0x192F JUMP JUMPDEST SWAP4 POP POP PUSH1 0xA0 DUP9 ADD CALLDATALOAD PUSH8 0xFFFFFFFFFFFFFFFF DUP2 GT ISZERO PUSH2 0x1D71 JUMPI PUSH2 0x1D70 PUSH2 0x18AB JUMP JUMPDEST JUMPDEST PUSH2 0x1D7D DUP11 DUP3 DUP12 ADD PUSH2 0x1BF1 JUMP JUMPDEST SWAP3 POP POP PUSH1 0xC0 PUSH2 0x1D8E DUP11 DUP3 DUP12 ADD PUSH2 0x192F JUMP JUMPDEST SWAP2 POP POP SWAP3 SWAP6 SWAP9 SWAP2 SWAP5 SWAP8 POP SWAP3 SWAP6 POP JUMP JUMPDEST PUSH1 0x0 DUP1 PUSH1 0x0 DUP1 PUSH1 0x0 DUP1 PUSH1 0xC0 DUP8 DUP10 SUB SLT ISZERO PUSH2 0x1DBA JUMPI PUSH2 0x1DB9 PUSH2 0x18A6 JUMP JUMPDEST JUMPDEST PUSH1 0x0 PUSH2 0x1DC8 DUP10 DUP3 DUP11 ADD PUSH2 0x192F JUMP JUMPDEST SWAP7 POP POP PUSH1 0x20 DUP8 ADD CALLDATALOAD PUSH8 0xFFFFFFFFFFFFFFFF DUP2 GT ISZERO PUSH2 0x1DE9 JUMPI PUSH2 0x1DE8 PUSH2 0x18AB JUMP JUMPDEST JUMPDEST PUSH2 0x1DF5 DUP10 DUP3 DUP11 ADD PUSH2 0x1BF1 JUMP JUMPDEST SWAP6 POP POP PUSH1 0x40 DUP8 ADD CALLDATALOAD PUSH8 0xFFFFFFFFFFFFFFFF DUP2 GT ISZERO PUSH2 0x1E16 JUMPI PUSH2 0x1E15 PUSH2 0x18AB JUMP JUMPDEST JUMPDEST PUSH2 0x1E22 DUP10 DUP3 DUP11 ADD PUSH2 0x1BF1 JUMP JUMPDEST SWAP5 POP POP PUSH1 0x60 DUP8 ADD CALLDATALOAD PUSH8 0xFFFFFFFFFFFFFFFF DUP2 GT ISZERO PUSH2 0x1E43 JUMPI PUSH2 0x1E42 PUSH2 0x18AB JUMP JUMPDEST JUMPDEST PUSH2 0x1E4F DUP10 DUP3 DUP11 ADD PUSH2 0x1BF1 JUMP JUMPDEST SWAP4 POP POP PUSH1 0x80 PUSH2 0x1E60 DUP10 DUP3 DUP11 ADD PUSH2 0x1CAE JUMP JUMPDEST SWAP3 POP POP PUSH1 0xA0 PUSH2 0x1E71 DUP10 DUP3 DUP11 ADD PUSH2 0x1CAE JUMP JUMPDEST SWAP2 POP POP SWAP3 SWAP6 POP SWAP3 SWAP6 POP SWAP3 SWAP6 JUMP JUMPDEST PUSH1 0x0 DUP1 PUSH1 0x40 DUP4 DUP6 SUB SLT ISZERO PUSH2 0x1E95 JUMPI PUSH2 0x1E94 PUSH2 0x18A6 JUMP JUMPDEST JUMPDEST PUSH1 0x0 PUSH2 0x1EA3 DUP6 DUP3 DUP7 ADD PUSH2 0x18D1 JUMP JUMPDEST SWAP3 POP POP PUSH1 0x20 PUSH2 0x1EB4 DUP6 DUP3 DUP7 ADD PUSH2 0x1CAE JUMP JUMPDEST SWAP2 POP POP SWAP3 POP SWAP3 SWAP1 POP JUMP JUMPDEST PUSH1 0x0 PUSH1 0xE0 DUP3 ADD SWAP1 POP PUSH2 0x1ED3 PUSH1 0x0 DUP4 ADD DUP11 PUSH2 0x19BA JUMP JUMPDEST PUSH2 0x1EE0 PUSH1 0x20 DUP4 ADD DUP10 PUSH2 0x19BA JUMP JUMPDEST PUSH2 0x1EED PUSH1 0x40 DUP4 ADD DUP9 PUSH2 0x1A48 JUMP JUMPDEST DUP2 DUP2 SUB PUSH1 0x60 DUP4 ADD MSTORE PUSH2 0x1EFF DUP2 DUP8 PUSH2 0x1841 JUMP JUMPDEST SWAP1 POP PUSH2 0x1F0E PUSH1 0x80 DUP4 ADD DUP7 PUSH2 0x19BA JUMP JUMPDEST DUP2 DUP2 SUB PUSH1 0xA0 DUP4 ADD MSTORE PUSH2 0x1F20 DUP2 DUP6 PUSH2 0x1841 JUMP JUMPDEST SWAP1 POP PUSH2 0x1F2F PUSH1 0xC0 DUP4 ADD DUP5 PUSH2 0x19BA JUMP JUMPDEST SWAP9 SWAP8 POP POP POP POP POP POP POP POP JUMP JUMPDEST PUSH1 0x0 PUSH1 0x20 DUP3 ADD SWAP1 POP PUSH2 0x1F50 PUSH1 0x0 DUP4 ADD DUP5 PUSH2 0x1A48 JUMP JUMPDEST SWAP3 SWAP2 POP POP JUMP JUMPDEST PUSH32 0x5468652047617465204B6565706572204E6F7420666F756E6400000000000000 PUSH1 0x0 DUP3 ADD MSTORE POP JUMP JUMPDEST PUSH1 0x0 PUSH2 0x1F8C PUSH1 0x19 DUP4 PUSH2 0x17F5 JUMP JUMPDEST SWAP2 POP PUSH2 0x1F97 DUP3 PUSH2 0x1F56 JUMP JUMPDEST PUSH1 0x20 DUP3 ADD SWAP1 POP SWAP2 SWAP1 POP JUMP JUMPDEST PUSH1 0x0 PUSH1 0x20 DUP3 ADD SWAP1 POP DUP2 DUP2 SUB PUSH1 0x0 DUP4 ADD MSTORE PUSH2 0x1FBB DUP2 PUSH2 0x1F7F JUMP JUMPDEST SWAP1 POP SWAP2 SWAP1 POP JUMP JUMPDEST PUSH32 0x43616C6C6572206973206E6F74206D616E616765720000000000000000000000 PUSH1 0x0 DUP3 ADD MSTORE POP JUMP JUMPDEST PUSH1 0x0 PUSH2 0x1FF8 PUSH1 0x15 DUP4 PUSH2 0x17F5 JUMP JUMPDEST SWAP2 POP PUSH2 0x2003 DUP3 PUSH2 0x1FC2 JUMP JUMPDEST PUSH1 0x20 DUP3 ADD SWAP1 POP SWAP2 SWAP1 POP JUMP JUMPDEST PUSH1 0x0 PUSH1 0x20 DUP3 ADD SWAP1 POP DUP2 DUP2 SUB PUSH1 0x0 DUP4 ADD MSTORE PUSH2 0x2027 DUP2 PUSH2 0x1FEB JUMP JUMPDEST SWAP1 POP SWAP2 SWAP1 POP JUMP JUMPDEST PUSH32 0x4F6E6C79206F6E652074696D652063616C6C20697320616C6C6F77656420666F PUSH1 0x0 DUP3 ADD MSTORE PUSH32 0x7220747868617368000000000000000000000000000000000000000000000000 PUSH1 0x20 DUP3 ADD MSTORE POP JUMP JUMPDEST PUSH1 0x0 PUSH2 0x208A PUSH1 0x28 DUP4 PUSH2 0x17F5 JUMP JUMPDEST SWAP2 POP PUSH2 0x2095 DUP3 PUSH2 0x202E JUMP JUMPDEST PUSH1 0x40 DUP3 ADD SWAP1 POP SWAP2 SWAP1 POP JUMP JUMPDEST PUSH1 0x0 PUSH1 0x20 DUP3 ADD SWAP1 POP DUP2 DUP2 SUB PUSH1 0x0 DUP4 ADD MSTORE PUSH2 0x20B9 DUP2 PUSH2 0x207D JUMP JUMPDEST SWAP1 POP SWAP2 SWAP1 POP JUMP JUMPDEST PUSH32 0x4E487B7100000000000000000000000000000000000000000000000000000000 PUSH1 0x0 MSTORE PUSH1 0x32 PUSH1 0x4 MSTORE PUSH1 0x24 PUSH1 0x0 REVERT JUMPDEST PUSH32 0x4E487B7100000000000000000000000000000000000000000000000000000000 PUSH1 0x0 MSTORE PUSH1 0x22 PUSH1 0x4 MSTORE PUSH1 0x24 PUSH1 0x0 REVERT JUMPDEST PUSH1 0x0 PUSH1 0x2 DUP3 DIV SWAP1 POP PUSH1 0x1 DUP3 AND DUP1 PUSH2 0x2136 JUMPI PUSH1 0x7F DUP3 AND SWAP2 POP JUMPDEST PUSH1 0x20 DUP3 LT DUP2 SUB PUSH2 0x2149 JUMPI PUSH2 0x2148 PUSH2 0x20EF JUMP JUMPDEST JUMPDEST POP SWAP2 SWAP1 POP JUMP JUMPDEST PUSH1 0x0 DUP2 SWAP1 POP DUP2 PUSH1 0x0 MSTORE PUSH1 0x20 PUSH1 0x0 KECCAK256 SWAP1 POP SWAP2 SWAP1 POP JUMP JUMPDEST PUSH1 0x0 DUP2 SLOAD PUSH2 0x2171 DUP2 PUSH2 0x211E JUMP JUMPDEST PUSH2 0x217B DUP2 DUP7 PUSH2 0x17F5 JUMP JUMPDEST SWAP5 POP PUSH1 0x1 DUP3 AND PUSH1 0x0 DUP2 EQ PUSH2 0x2196 JUMPI PUSH1 0x1 DUP2 EQ PUSH2 0x21AC JUMPI PUSH2 0x21DF JUMP JUMPDEST PUSH1 0xFF NOT DUP4 AND DUP7 MSTORE DUP2 ISZERO ISZERO PUSH1 0x20 MUL DUP7 ADD SWAP4 POP PUSH2 0x21DF JUMP JUMPDEST PUSH2 0x21B5 DUP6 PUSH2 0x214F JUMP JUMPDEST PUSH1 0x0 JUMPDEST DUP4 DUP2 LT ISZERO PUSH2 0x21D7 JUMPI DUP2 SLOAD DUP2 DUP10 ADD MSTORE PUSH1 0x1 DUP3 ADD SWAP2 POP PUSH1 0x20 DUP2 ADD SWAP1 POP PUSH2 0x21B8 JUMP JUMPDEST DUP1 DUP9 ADD SWAP6 POP POP POP JUMPDEST POP POP POP SWAP3 SWAP2 POP POP JUMP JUMPDEST PUSH1 0x0 PUSH1 0xA0 DUP3 ADD SWAP1 POP PUSH2 0x21FD PUSH1 0x0 DUP4 ADD DUP9 PUSH2 0x1A48 JUMP JUMPDEST DUP2 DUP2 SUB PUSH1 0x20 DUP4 ADD MSTORE PUSH2 0x220F DUP2 DUP8 PUSH2 0x2164 JUMP JUMPDEST SWAP1 POP PUSH2 0x221E PUSH1 0x40 DUP4 ADD DUP7 PUSH2 0x19BA JUMP JUMPDEST DUP2 DUP2 SUB PUSH1 0x60 DUP4 ADD MSTORE PUSH2 0x2230 DUP2 DUP6 PUSH2 0x2164 JUMP JUMPDEST SWAP1 POP PUSH2 0x223F PUSH1 0x80 DUP4 ADD DUP5 PUSH2 0x19BA JUMP JUMPDEST SWAP7 SWAP6 POP POP POP POP POP POP JUMP JUMPDEST PUSH1 0x0 DUP2 SWAP1 POP SWAP3 SWAP2 POP POP JUMP JUMPDEST PUSH1 0x0 PUSH2 0x225F DUP3 PUSH2 0x17EA JUMP JUMPDEST PUSH2 0x2269 DUP2 DUP6 PUSH2 0x2249 JUMP JUMPDEST SWAP4 POP PUSH2 0x2279 DUP2 DUP6 PUSH1 0x20 DUP7 ADD PUSH2 0x1806 JUMP JUMPDEST DUP1 DUP5 ADD SWAP2 POP POP SWAP3 SWAP2 POP POP JUMP JUMPDEST PUSH1 0x0 PUSH2 0x2291 DUP3 DUP5 PUSH2 0x2254 JUMP JUMPDEST SWAP2 POP DUP2 SWAP1 POP SWAP3 SWAP2 POP POP JUMP JUMPDEST PUSH32 0x4F6E6C79206F6E652074696D652063616C6C20697320616C6C6F776564206279 PUSH1 0x0 DUP3 ADD MSTORE PUSH32 0x20656163682047617465204B6565706572000000000000000000000000000000 PUSH1 0x20 DUP3 ADD MSTORE POP JUMP JUMPDEST PUSH1 0x0 PUSH2 0x22F8 PUSH1 0x31 DUP4 PUSH2 0x17F5 JUMP JUMPDEST SWAP2 POP PUSH2 0x2303 DUP3 PUSH2 0x229C JUMP JUMPDEST PUSH1 0x40 DUP3 ADD SWAP1 POP SWAP2 SWAP1 POP JUMP JUMPDEST PUSH1 0x0 PUSH1 0x20 DUP3 ADD SWAP1 POP DUP2 DUP2 SUB PUSH1 0x0 DUP4 ADD MSTORE PUSH2 0x2327 DUP2 PUSH2 0x22EB JUMP JUMPDEST SWAP1 POP SWAP2 SWAP1 POP JUMP JUMPDEST PUSH1 0x0 PUSH1 0x20 PUSH1 0x1F DUP4 ADD DIV SWAP1 POP SWAP2 SWAP1 POP JUMP JUMPDEST PUSH1 0x0 DUP3 DUP3 SHL SWAP1 POP SWAP3 SWAP2 POP POP JUMP JUMPDEST PUSH1 0x0 PUSH1 0x8 DUP4 MUL PUSH2 0x237B PUSH32 0xFFFFFFFFFFFFFFFFFFFFFFFFFFFFFFFFFFFFFFFFFFFFFFFFFFFFFFFFFFFFFFFF DUP3 PUSH2 0x233E JUMP JUMPDEST PUSH2 0x2385 DUP7 DUP4 PUSH2 0x233E JUMP JUMPDEST SWAP6 POP DUP1 NOT DUP5 AND SWAP4 POP DUP1 DUP7 AND DUP5 OR SWAP3 POP POP POP SWAP4 SWAP3 POP POP POP JUMP JUMPDEST PUSH1 0x0 DUP2 SWAP1 POP SWAP2 SWAP1 POP JUMP JUMPDEST PUSH1 0x0 PUSH2 0x23C2 PUSH2 0x23BD PUSH2 0x23B8 DUP5 PUSH2 0x1A3E JUMP JUMPDEST PUSH2 0x239D JUMP JUMPDEST PUSH2 0x1A3E JUMP JUMPDEST SWAP1 POP SWAP2 SWAP1 POP JUMP JUMPDEST PUSH1 0x0 DUP2 SWAP1 POP SWAP2 SWAP1 POP JUMP JUMPDEST PUSH2 0x23DC DUP4 PUSH2 0x23A7 JUMP JUMPDEST PUSH2 0x23F0 PUSH2 0x23E8 DUP3 PUSH2 0x23C9 JUMP JUMPDEST DUP5 DUP5 SLOAD PUSH2 0x234B JUMP JUMPDEST DUP3 SSTORE POP POP POP POP JUMP JUMPDEST PUSH1 0x0 SWAP1 JUMP JUMPDEST PUSH2 0x2405 PUSH2 0x23F8 JUMP JUMPDEST PUSH2 0x2410 DUP2 DUP5 DUP5 PUSH2 0x23D3 JUMP JUMPDEST POP POP POP JUMP JUMPDEST JUMPDEST DUP2 DUP2 LT ISZERO PUSH2 0x2434 JUMPI PUSH2 0x2429 PUSH1 0x0 DUP3 PUSH2 0x23FD JUMP JUMPDEST PUSH1 0x1 DUP2 ADD SWAP1 POP PUSH2 0x2416 JUMP JUMPDEST POP POP JUMP JUMPDEST PUSH1 0x1F DUP3 GT ISZERO PUSH2 0x2479 JUMPI PUSH2 0x244A DUP2 PUSH2 0x214F JUMP JUMPDEST PUSH2 0x2453 DUP5 PUSH2 0x232E JUMP JUMPDEST DUP2 ADD PUSH1 0x20 DUP6 LT ISZERO PUSH2 0x2462 JUMPI DUP2 SWAP1 POP JUMPDEST PUSH2 0x2476 PUSH2 0x246E DUP6 PUSH2 0x232E JUMP JUMPDEST DUP4 ADD DUP3 PUSH2 0x2415 JUMP JUMPDEST POP POP JUMPDEST POP POP POP JUMP JUMPDEST PUSH1 0x0 DUP3 DUP3 SHR SWAP1 POP SWAP3 SWAP2 POP POP JUMP JUMPDEST PUSH1 0x0 PUSH2 0x249C PUSH1 0x0 NOT DUP5 PUSH1 0x8 MUL PUSH2 0x247E JUMP JUMPDEST NOT DUP1 DUP4 AND SWAP2 POP POP SWAP3 SWAP2 POP POP JUMP JUMPDEST PUSH1 0x0 PUSH2 0x24B5 DUP4 DUP4 PUSH2 0x248B JUMP JUMPDEST SWAP2 POP DUP3 PUSH1 0x2 MUL DUP3 OR SWAP1 POP SWAP3 SWAP2 POP POP JUMP JUMPDEST PUSH2 0x24CE DUP3 PUSH2 0x17EA JUMP JUMPDEST PUSH8 0xFFFFFFFFFFFFFFFF DUP2 GT ISZERO PUSH2 0x24E7 JUMPI PUSH2 0x24E6 PUSH2 0x1AF4 JUMP JUMPDEST JUMPDEST PUSH2 0x24F1 DUP3 SLOAD PUSH2 0x211E JUMP JUMPDEST PUSH2 0x24FC DUP3 DUP3 DUP6 PUSH2 0x2438 JUMP JUMPDEST PUSH1 0x0 PUSH1 0x20 SWAP1 POP PUSH1 0x1F DUP4 GT PUSH1 0x1 DUP2 EQ PUSH2 0x252F JUMPI PUSH1 0x0 DUP5 ISZERO PUSH2 0x251D JUMPI DUP3 DUP8 ADD MLOAD SWAP1 POP JUMPDEST PUSH2 0x2527 DUP6 DUP3 PUSH2 0x24A9 JUMP JUMPDEST DUP7 SSTORE POP PUSH2 0x258F JUMP JUMPDEST PUSH1 0x1F NOT DUP5 AND PUSH2 0x253D DUP7 PUSH2 0x214F JUMP JUMPDEST PUSH1 0x0 JUMPDEST DUP3 DUP2 LT ISZERO PUSH2 0x2565 JUMPI DUP5 DUP10 ADD MLOAD DUP3 SSTORE PUSH1 0x1 DUP3 ADD SWAP2 POP PUSH1 0x20 DUP6 ADD SWAP5 POP PUSH1 0x20 DUP2 ADD SWAP1 POP PUSH2 0x2540 JUMP JUMPDEST DUP7 DUP4 LT ISZERO PUSH2 0x2582 JUMPI DUP5 DUP10 ADD MLOAD PUSH2 0x257E PUSH1 0x1F DUP10 AND DUP3 PUSH2 0x248B JUMP JUMPDEST DUP4 SSTORE POP JUMPDEST PUSH1 0x1 PUSH1 0x2 DUP9 MUL ADD DUP9 SSTORE POP POP POP JUMPDEST POP POP POP POP POP POP JUMP JUMPDEST PUSH32 0x416C726561647920657869737473000000000000000000000000000000000000 PUSH1 0x0 DUP3 ADD MSTORE POP JUMP JUMPDEST PUSH1 0x0 PUSH2 0x25CD PUSH1 0xE DUP4 PUSH2 0x17F5 JUMP JUMPDEST SWAP2 POP PUSH2 0x25D8 DUP3 PUSH2 0x2597 JUMP JUMPDEST PUSH1 0x20 DUP3 ADD SWAP1 POP SWAP2 SWAP1 POP JUMP JUMPDEST PUSH1 0x0 PUSH1 0x20 DUP3 ADD SWAP1 POP DUP2 DUP2 SUB PUSH1 0x0 DUP4 ADD MSTORE PUSH2 0x25FC DUP2 PUSH2 0x25C0 JUMP JUMPDEST SWAP1 POP SWAP2 SWAP1 POP JUMP JUMPDEST PUSH32 0x4E487B7100000000000000000000000000000000000000000000000000000000 PUSH1 0x0 MSTORE PUSH1 0x11 PUSH1 0x4 MSTORE PUSH1 0x24 PUSH1 0x0 REVERT JUMPDEST PUSH1 0x0 PUSH2 0x263D DUP3 PUSH2 0x1A3E JUMP JUMPDEST SWAP2 POP PUSH2 0x2648 DUP4 PUSH2 0x1A3E JUMP JUMPDEST SWAP3 POP DUP3 DUP3 SUB SWAP1 POP DUP2 DUP2 GT ISZERO PUSH2 0x2660 JUMPI PUSH2 0x265F PUSH2 0x2603 JUMP JUMPDEST JUMPDEST SWAP3 SWAP2 POP POP JUMP INVALID LOG2 PUSH5 0x6970667358 0x22 SLT KECCAK256 DUP3 DUP11 0xB3 PUSH1 0xF5 0xB8 SWAP4 SAR DIV 0xE6 0xB2 0x4A 0x2D CALLDATACOPY MOD PC DUP9 REVERT JUMPI SIGNEXTEND 0xD ORIGIN 0x27 PUSH19 0x59865CF8CADA7F5E64736F6C63430008100033 "
				},
				"gasEstimates": {
					"creation": {
						"codeDepositCost": "1976800",
						"executionCost": "26357",
						"totalCost": "2003157"
					},
					"external": {
						"changeManager(address)": "30596",
						"compareStrings(string,string)": "infinite",
						"completedKeyMap(bytes32)": "2841",
						"createGateKeeper(address,string,string,string,uint256,uint256)": "infinite",
						"createReport(bytes32,address,uint256,string,address,string,address)": "infinite",
						"deleteGateKeeper()": "infinite",
						"gateKeeperMap(address)": "infinite",
						"getCompletedReport(bytes32)": "2867",
						"getLatestReport()": "infinite",
						"getManager()": "2588",
						"manager()": "2604",
						"name()": "infinite",
						"reportKeyMap(bytes32,address)": "3133",
						"reportMap(bytes32,uint256)": "infinite",
						"setCompletedReport(bytes32)": "infinite",
						"updateGateKeeper(address,string,string,string,uint256,uint256)": "infinite",
						"version()": "infinite"
					}
				},
				"methodIdentifiers": {
					"changeManager(address)": "a3fbbaae",
					"compareStrings(string,string)": "bed34bba",
					"completedKeyMap(bytes32)": "b5d7af7c",
					"createGateKeeper(address,string,string,string,uint256,uint256)": "d011883c",
					"createReport(bytes32,address,uint256,string,address,string,address)": "c4352a41",
					"deleteGateKeeper()": "414970a4",
					"gateKeeperMap(address)": "a378d97c",
					"getCompletedReport(bytes32)": "683856d4",
					"getLatestReport()": "fef201f3",
					"getManager()": "d5009584",
					"manager()": "481c6a75",
					"name()": "06fdde03",
					"reportKeyMap(bytes32,address)": "349dd800",
					"reportMap(bytes32,uint256)": "d8164f46",
					"setCompletedReport(bytes32)": "89ff3abf",
					"updateGateKeeper(address,string,string,string,uint256,uint256)": "c5b374a9",
					"version()": "54fd4d50"
				}
			},
			"storageLayout": {
				"storage": [
					{
						"astId": 399,
						"contract": "Users/ben/Documents/GitHub/gen-bridge/contracts/Bridge.sol:Bridge",
						"label": "token",
						"offset": 0,
						"slot": "0",
						"type": "t_contract(IERC20)77"
					},
					{
						"astId": 401,
						"contract": "Users/ben/Documents/GitHub/gen-bridge/contracts/Bridge.sol:Bridge",
						"label": "manager",
						"offset": 0,
						"slot": "1",
						"type": "t_address"
					},
					{
						"astId": 501,
						"contract": "Users/ben/Documents/GitHub/gen-bridge/contracts/Bridge.sol:Bridge",
						"label": "gateKeeperMap",
						"offset": 0,
						"slot": "2",
						"type": "t_mapping(t_address,t_struct(GateKeeper)518_storage)"
					},
					{
						"astId": 628,
						"contract": "Users/ben/Documents/GitHub/gen-bridge/contracts/Bridge.sol:Bridge",
						"label": "reportMap",
						"offset": 0,
						"slot": "3",
						"type": "t_mapping(t_bytes32,t_array(t_struct(Report)643_storage)dyn_storage)"
					},
					{
						"astId": 649,
						"contract": "Users/ben/Documents/GitHub/gen-bridge/contracts/Bridge.sol:Bridge",
						"label": "reportKeyMap",
						"offset": 0,
						"slot": "4",
						"type": "t_mapping(t_bytes32,t_mapping(t_address,t_bool))"
					},
					{
						"astId": 652,
						"contract": "Users/ben/Documents/GitHub/gen-bridge/contracts/Bridge.sol:Bridge",
						"label": "reportedTxhash",
						"offset": 0,
						"slot": "5",
						"type": "t_array(t_bytes32)dyn_storage"
					},
					{
						"astId": 656,
						"contract": "Users/ben/Documents/GitHub/gen-bridge/contracts/Bridge.sol:Bridge",
						"label": "completedKeyMap",
						"offset": 0,
						"slot": "6",
						"type": "t_mapping(t_bytes32,t_bool)"
					}
				],
				"types": {
					"t_address": {
						"encoding": "inplace",
						"label": "address",
						"numberOfBytes": "20"
					},
					"t_array(t_bytes32)dyn_storage": {
						"base": "t_bytes32",
						"encoding": "dynamic_array",
						"label": "bytes32[]",
						"numberOfBytes": "32"
					},
					"t_array(t_struct(Report)643_storage)dyn_storage": {
						"base": "t_struct(Report)643_storage",
						"encoding": "dynamic_array",
						"label": "struct Bridge.Report[]",
						"numberOfBytes": "32"
					},
					"t_bool": {
						"encoding": "inplace",
						"label": "bool",
						"numberOfBytes": "1"
					},
					"t_bytes32": {
						"encoding": "inplace",
						"label": "bytes32",
						"numberOfBytes": "32"
					},
					"t_contract(IERC20)77": {
						"encoding": "inplace",
						"label": "contract IERC20",
						"numberOfBytes": "20"
					},
					"t_mapping(t_address,t_bool)": {
						"encoding": "mapping",
						"key": "t_address",
						"label": "mapping(address => bool)",
						"numberOfBytes": "32",
						"value": "t_bool"
					},
					"t_mapping(t_address,t_struct(GateKeeper)518_storage)": {
						"encoding": "mapping",
						"key": "t_address",
						"label": "mapping(address => struct Bridge.GateKeeper)",
						"numberOfBytes": "32",
						"value": "t_struct(GateKeeper)518_storage"
					},
					"t_mapping(t_bytes32,t_array(t_struct(Report)643_storage)dyn_storage)": {
						"encoding": "mapping",
						"key": "t_bytes32",
						"label": "mapping(bytes32 => struct Bridge.Report[])",
						"numberOfBytes": "32",
						"value": "t_array(t_struct(Report)643_storage)dyn_storage"
					},
					"t_mapping(t_bytes32,t_bool)": {
						"encoding": "mapping",
						"key": "t_bytes32",
						"label": "mapping(bytes32 => bool)",
						"numberOfBytes": "32",
						"value": "t_bool"
					},
					"t_mapping(t_bytes32,t_mapping(t_address,t_bool))": {
						"encoding": "mapping",
						"key": "t_bytes32",
						"label": "mapping(bytes32 => mapping(address => bool))",
						"numberOfBytes": "32",
						"value": "t_mapping(t_address,t_bool)"
					},
					"t_string_storage": {
						"encoding": "bytes",
						"label": "string",
						"numberOfBytes": "32"
					},
					"t_struct(GateKeeper)518_storage": {
						"encoding": "inplace",
						"label": "struct Bridge.GateKeeper",
						"members": [
							{
								"astId": 503,
								"contract": "Users/ben/Documents/GitHub/gen-bridge/contracts/Bridge.sol:Bridge",
								"label": "nodeAddress",
								"offset": 0,
								"slot": "0",
								"type": "t_address"
							},
							{
								"astId": 505,
								"contract": "Users/ben/Documents/GitHub/gen-bridge/contracts/Bridge.sol:Bridge",
								"label": "rewardAddress",
								"offset": 0,
								"slot": "1",
								"type": "t_address"
							},
							{
								"astId": 507,
								"contract": "Users/ben/Documents/GitHub/gen-bridge/contracts/Bridge.sol:Bridge",
								"label": "name",
								"offset": 0,
								"slot": "2",
								"type": "t_string_storage"
							},
							{
								"astId": 509,
								"contract": "Users/ben/Documents/GitHub/gen-bridge/contracts/Bridge.sol:Bridge",
								"label": "website",
								"offset": 0,
								"slot": "3",
								"type": "t_string_storage"
							},
							{
								"astId": 511,
								"contract": "Users/ben/Documents/GitHub/gen-bridge/contracts/Bridge.sol:Bridge",
								"label": "description",
								"offset": 0,
								"slot": "4",
								"type": "t_string_storage"
							},
							{
								"astId": 513,
								"contract": "Users/ben/Documents/GitHub/gen-bridge/contracts/Bridge.sol:Bridge",
								"label": "commissionRate",
								"offset": 0,
								"slot": "5",
								"type": "t_uint256"
							},
							{
								"astId": 515,
								"contract": "Users/ben/Documents/GitHub/gen-bridge/contracts/Bridge.sol:Bridge",
								"label": "maximumCommission",
								"offset": 0,
								"slot": "6",
								"type": "t_uint256"
							},
							{
								"astId": 517,
								"contract": "Users/ben/Documents/GitHub/gen-bridge/contracts/Bridge.sol:Bridge",
								"label": "valid",
								"offset": 0,
								"slot": "7",
								"type": "t_bool"
							}
						],
						"numberOfBytes": "256"
					},
					"t_struct(Report)643_storage": {
						"encoding": "inplace",
						"label": "struct Bridge.Report",
						"members": [
							{
								"astId": 630,
								"contract": "Users/ben/Documents/GitHub/gen-bridge/contracts/Bridge.sol:Bridge",
								"label": "gateKeeperAdminAddress",
								"offset": 0,
								"slot": "0",
								"type": "t_address"
							},
							{
								"astId": 632,
								"contract": "Users/ben/Documents/GitHub/gen-bridge/contracts/Bridge.sol:Bridge",
								"label": "userAddress",
								"offset": 0,
								"slot": "1",
								"type": "t_address"
							},
							{
								"astId": 634,
								"contract": "Users/ben/Documents/GitHub/gen-bridge/contracts/Bridge.sol:Bridge",
								"label": "lockAmount",
								"offset": 0,
								"slot": "2",
								"type": "t_uint256"
							},
							{
								"astId": 636,
								"contract": "Users/ben/Documents/GitHub/gen-bridge/contracts/Bridge.sol:Bridge",
								"label": "fromChain",
								"offset": 0,
								"slot": "3",
								"type": "t_string_storage"
							},
							{
								"astId": 638,
								"contract": "Users/ben/Documents/GitHub/gen-bridge/contracts/Bridge.sol:Bridge",
								"label": "fromTokenAddress",
								"offset": 0,
								"slot": "4",
								"type": "t_address"
							},
							{
								"astId": 640,
								"contract": "Users/ben/Documents/GitHub/gen-bridge/contracts/Bridge.sol:Bridge",
								"label": "toChain",
								"offset": 0,
								"slot": "5",
								"type": "t_string_storage"
							},
							{
								"astId": 642,
								"contract": "Users/ben/Documents/GitHub/gen-bridge/contracts/Bridge.sol:Bridge",
								"label": "toTokenAddress",
								"offset": 0,
								"slot": "6",
								"type": "t_address"
							}
						],
						"numberOfBytes": "224"
					},
					"t_uint256": {
						"encoding": "inplace",
						"label": "uint256",
						"numberOfBytes": "32"
					}
				}
			},
			"userdoc": {
				"kind": "user",
				"methods": {},
				"version": 1
			}
		}
	}
}