{
  "contractName": "Bridge",
  "abi": [
    {
      "inputs": [],
      "stateMutability": "nonpayable",
      "type": "constructor"
    },
    {
      "anonymous": false,
      "inputs": [
        {
          "indexed": true,
          "internalType": "address",
          "name": "userAddress",
          "type": "address"
        },
        {
          "indexed": false,
          "internalType": "uint256",
          "name": "lockAmount",
          "type": "uint256"
        },
        {
          "indexed": false,
          "internalType": "string",
          "name": "fromChain",
          "type": "string"
        },
        {
          "indexed": false,
          "internalType": "address",
          "name": "fromTokenAddress",
          "type": "address"
        },
        {
          "indexed": false,
          "internalType": "string",
          "name": "toChain",
          "type": "string"
        },
        {
          "indexed": false,
          "internalType": "address",
          "name": "toTokenAddress",
          "type": "address"
        }
      ],
      "name": "CompleteReport",
      "type": "event"
    },
    {
      "anonymous": false,
      "inputs": [
        {
          "indexed": true,
          "internalType": "address",
          "name": "oldManager",
          "type": "address"
        },
        {
          "indexed": true,
          "internalType": "address",
          "name": "newManager",
          "type": "address"
        }
      ],
      "name": "ManagerSet",
      "type": "event"
    },
    {
      "inputs": [
        {
          "internalType": "bytes32",
          "name": "",
          "type": "bytes32"
        }
      ],
      "name": "completedKeyMap",
      "outputs": [
        {
          "internalType": "bool",
          "name": "",
          "type": "bool"
        }
      ],
      "stateMutability": "view",
      "type": "function",
      "constant": true
    },
    {
      "inputs": [
        {
          "internalType": "address",
          "name": "",
          "type": "address"
        }
      ],
      "name": "gateKeeperMap",
      "outputs": [
        {
          "internalType": "address",
          "name": "nodeAddress",
          "type": "address"
        },
        {
          "internalType": "address",
          "name": "rewardAddress",
          "type": "address"
        },
        {
          "internalType": "string",
          "name": "name",
          "type": "string"
        },
        {
          "internalType": "string",
          "name": "website",
          "type": "string"
        },
        {
          "internalType": "string",
          "name": "description",
          "type": "string"
        },
        {
          "internalType": "uint256",
          "name": "commissionRate",
          "type": "uint256"
        },
        {
          "internalType": "uint256",
          "name": "maximumCommission",
          "type": "uint256"
        },
        {
          "internalType": "bool",
          "name": "valid",
          "type": "bool"
        }
      ],
      "stateMutability": "view",
      "type": "function",
      "constant": true
    },
    {
      "inputs": [],
      "name": "manager",
      "outputs": [
        {
          "internalType": "address",
          "name": "",
          "type": "address"
        }
      ],
      "stateMutability": "view",
      "type": "function",
      "constant": true
    },
    {
      "inputs": [
        {
          "internalType": "bytes32",
          "name": "",
          "type": "bytes32"
        },
        {
          "internalType": "address",
          "name": "",
          "type": "address"
        }
      ],
      "name": "reportKeyMap",
      "outputs": [
        {
          "internalType": "bool",
          "name": "",
          "type": "bool"
        }
      ],
      "stateMutability": "view",
      "type": "function",
      "constant": true
    },
    {
      "inputs": [
        {
          "internalType": "bytes32",
          "name": "",
          "type": "bytes32"
        },
        {
          "internalType": "uint256",
          "name": "",
          "type": "uint256"
        }
      ],
      "name": "reportMap",
      "outputs": [
        {
          "internalType": "address",
          "name": "gateKeeperAdminAddress",
          "type": "address"
        },
        {
          "internalType": "address",
          "name": "userAddress",
          "type": "address"
        },
        {
          "internalType": "uint256",
          "name": "lockAmount",
          "type": "uint256"
        },
        {
          "internalType": "string",
          "name": "fromChain",
          "type": "string"
        },
        {
          "internalType": "address",
          "name": "fromTokenAddress",
          "type": "address"
        },
        {
          "internalType": "string",
          "name": "toChain",
          "type": "string"
        },
        {
          "internalType": "address",
          "name": "toTokenAddress",
          "type": "address"
        }
      ],
      "stateMutability": "view",
      "type": "function",
      "constant": true
    },
    {
      "inputs": [],
      "name": "version",
      "outputs": [
        {
          "internalType": "string",
          "name": "",
          "type": "string"
        }
      ],
      "stateMutability": "pure",
      "type": "function",
      "constant": true
    },
    {
      "inputs": [],
      "name": "name",
      "outputs": [
        {
          "internalType": "string",
          "name": "",
          "type": "string"
        }
      ],
      "stateMutability": "pure",
      "type": "function",
      "constant": true
    },
    {
      "inputs": [
        {
          "internalType": "string",
          "name": "a",
          "type": "string"
        },
        {
          "internalType": "string",
          "name": "b",
          "type": "string"
        }
      ],
      "name": "compareStrings",
      "outputs": [
        {
          "internalType": "bool",
          "name": "",
          "type": "bool"
        }
      ],
      "stateMutability": "view",
      "type": "function",
      "constant": true
    },
    {
      "inputs": [
        {
          "internalType": "address",
          "name": "newManager",
          "type": "address"
        }
      ],
      "name": "changeManager",
      "outputs": [],
      "stateMutability": "nonpayable",
      "type": "function"
    },
    {
      "inputs": [],
      "name": "getManager",
      "outputs": [
        {
          "internalType": "address",
          "name": "",
          "type": "address"
        }
      ],
      "stateMutability": "view",
      "type": "function",
      "constant": true
    },
    {
      "inputs": [
        {
          "internalType": "address",
          "name": "_rewardAddress",
          "type": "address"
        },
        {
          "internalType": "string",
          "name": "_name",
          "type": "string"
        },
        {
          "internalType": "string",
          "name": "_website",
          "type": "string"
        },
        {
          "internalType": "string",
          "name": "_description",
          "type": "string"
        },
        {
          "internalType": "uint256",
          "name": "_commissionRate",
          "type": "uint256"
        },
        {
          "internalType": "uint256",
          "name": "_maximumCommission",
          "type": "uint256"
        }
      ],
      "name": "createGateKeeper",
      "outputs": [],
      "stateMutability": "nonpayable",
      "type": "function"
    },
    {
      "inputs": [
        {
          "internalType": "address",
          "name": "_rewardAddress",
          "type": "address"
        },
        {
          "internalType": "string",
          "name": "_name",
          "type": "string"
        },
        {
          "internalType": "string",
          "name": "_website",
          "type": "string"
        },
        {
          "internalType": "string",
          "name": "_description",
          "type": "string"
        },
        {
          "internalType": "uint256",
          "name": "_commissionRate",
          "type": "uint256"
        },
        {
          "internalType": "uint256",
          "name": "_maximumCommission",
          "type": "uint256"
        }
      ],
      "name": "updateGateKeeper",
      "outputs": [],
      "stateMutability": "nonpayable",
      "type": "function"
    },
    {
      "inputs": [],
      "name": "deleteGateKeeper",
      "outputs": [],
      "stateMutability": "nonpayable",
      "type": "function"
    },
    {
      "inputs": [
        {
          "internalType": "bytes32",
          "name": "_txhash",
          "type": "bytes32"
        },
        {
          "internalType": "address",
          "name": "_userAddress",
          "type": "address"
        },
        {
          "internalType": "uint256",
          "name": "_lockAmount",
          "type": "uint256"
        },
        {
          "internalType": "string",
          "name": "_fromChain",
          "type": "string"
        },
        {
          "internalType": "address",
          "name": "_fromTokenAddress",
          "type": "address"
        },
        {
          "internalType": "string",
          "name": "_toChain",
          "type": "string"
        },
        {
          "internalType": "address",
          "name": "_toTokenAddress",
          "type": "address"
        }
      ],
      "name": "createReport",
      "outputs": [],
      "stateMutability": "nonpayable",
      "type": "function"
    },
    {
      "inputs": [],
      "name": "getLatestReport",
      "outputs": [
        {
          "internalType": "uint256",
          "name": "",
          "type": "uint256"
        }
      ],
      "stateMutability": "view",
      "type": "function",
      "constant": true
    },
    {
      "inputs": [
        {
          "internalType": "bytes32",
          "name": "_txhash",
          "type": "bytes32"
        }
      ],
      "name": "setCompletedReport",
      "outputs": [],
      "stateMutability": "nonpayable",
      "type": "function"
    },
    {
      "inputs": [
        {
          "internalType": "bytes32",
          "name": "_txhash",
          "type": "bytes32"
        }
      ],
      "name": "getCompletedReport",
      "outputs": [
        {
          "internalType": "bool",
          "name": "",
          "type": "bool"
        }
      ],
      "stateMutability": "view",
      "type": "function",
      "constant": true
    }
  ],
  "bytecode": "0x608060405234801561001057600080fd5b5033600160006101000a81548173ffffffffffffffffffffffffffffffffffffffff021916908373ffffffffffffffffffffffffffffffffffffffff1602179055506124f6806100616000396000f3fe608060405234801561001057600080fd5b506004361061010b5760003560e01c8063a3fbbaae116100a2578063c5b374a911610071578063c5b374a9146102bf578063d011883c146102db578063d5009584146102f7578063d8164f4614610315578063fef201f31461034b5761010b565b8063a3fbbaae14610227578063b5d7af7c14610243578063bed34bba14610273578063c4352a41146102a35761010b565b806354fd4d50116100de57806354fd4d5014610186578063683856d4146101a457806389ff3abf146101d4578063a378d97c146101f05761010b565b806306fdde0314610110578063349dd8001461012e578063414970a41461015e578063481c6a7514610168575b600080fd5b610118610369565b6040516101259190611941565b60405180910390f35b61014860048036038101906101439190611a0b565b6103a6565b6040516101559190611a66565b60405180910390f35b6101666103d5565b005b61017061054a565b60405161017d9190611a90565b60405180910390f35b61018e610570565b60405161019b9190611941565b60405180910390f35b6101be60048036038101906101b99190611aab565b6105ad565b6040516101cb9190611a66565b60405180910390f35b6101ee60048036038101906101e99190611aab565b6105d7565b005b61020a60048036038101906102059190611ad8565b6108f5565b60405161021e989796959493929190611b1e565b60405180910390f35b610241600480360381019061023c9190611ad8565b610b22565b005b61025d60048036038101906102589190611aab565b610c72565b60405161026a9190611a66565b60405180910390f35b61028d60048036038101906102889190611ce6565b610c92565b60405161029a9190611a66565b60405180910390f35b6102bd60048036038101906102b89190611d8a565b610ceb565b005b6102d960048036038101906102d49190611e64565b6110dc565b005b6102f560048036038101906102f09190611e64565b611337565b005b6102ff611593565b60405161030c9190611a90565b60405180910390f35b61032f600480360381019061032a9190611f45565b6115bd565b6040516103429796959493929190611f85565b60405180910390f35b6103536117ac565b6040516103609190612002565b60405180910390f35b60606040518060400160405280601181526020017f47656e65726174696f6e20427269646765000000000000000000000000000000815250905090565b60046020528160005260406000206020528060005260406000206000915091509054906101000a900460ff1681565b600260003373ffffffffffffffffffffffffffffffffffffffff1673ffffffffffffffffffffffffffffffffffffffff16815260200190815260200160002060070160009054906101000a900460ff16610464576040517f08c379a000000000000000000000000000000000000000000000000000000000815260040161045b90612069565b60405180910390fd5b600260003373ffffffffffffffffffffffffffffffffffffffff1673ffffffffffffffffffffffffffffffffffffffff168152602001908152602001600020600080820160006101000a81549073ffffffffffffffffffffffffffffffffffffffff02191690556001820160006101000a81549073ffffffffffffffffffffffffffffffffffffffff021916905560028201600061050291906117c5565b60038201600061051291906117c5565b60048201600061052291906117c5565b600582016000905560068201600090556007820160006101000a81549060ff02191690555050565b600160009054906101000a900473ffffffffffffffffffffffffffffffffffffffff1681565b60606040518060400160405280600581526020017f302e312e30000000000000000000000000000000000000000000000000000000815250905090565b60006006600083815260200190815260200160002060009054906101000a900460ff169050919050565b600160009054906101000a900473ffffffffffffffffffffffffffffffffffffffff1673ffffffffffffffffffffffffffffffffffffffff163373ffffffffffffffffffffffffffffffffffffffff1614610667576040517f08c379a000000000000000000000000000000000000000000000000000000000815260040161065e906120d5565b60405180910390fd5b6006600082815260200190815260200160002060009054906101000a900460ff16156106c8576040517f08c379a00000000000000000000000000000000000000000000000000000000081526004016106bf90612167565b60405180910390fd5b60016006600083815260200190815260200160002060006101000a81548160ff0219169083151502179055506003600082815260200190815260200160002060008154811061071a57610719612187565b5b906000526020600020906007020160010160009054906101000a900473ffffffffffffffffffffffffffffffffffffffff1673ffffffffffffffffffffffffffffffffffffffff167f9b5fcf7abf3265364998b0894b4faf37d58ced2b3a1de20b112db1bcf4cd68ab600360008481526020019081526020016000206000815481106107a9576107a8612187565b5b906000526020600020906007020160020154600360008581526020019081526020016000206000815481106107e1576107e0612187565b5b90600052602060002090600702016003016003600086815260200190815260200160002060008154811061081857610817612187565b5b906000526020600020906007020160040160009054906101000a900473ffffffffffffffffffffffffffffffffffffffff16600360008781526020019081526020016000206000815481106108705761086f612187565b5b9060005260206000209060070201600501600360008881526020019081526020016000206000815481106108a7576108a6612187565b5b906000526020600020906007020160060160009054906101000a900473ffffffffffffffffffffffffffffffffffffffff166040516108ea9594939291906122ab565b60405180910390a250565b60026020528060005260406000206000915090508060000160009054906101000a900473ffffffffffffffffffffffffffffffffffffffff16908060010160009054906101000a900473ffffffffffffffffffffffffffffffffffffffff1690806002018054610964906121e5565b80601f0160208091040260200160405190810160405280929190818152602001828054610990906121e5565b80156109dd5780601f106109b2576101008083540402835291602001916109dd565b820191906000526020600020905b8154815290600101906020018083116109c057829003601f168201915b5050505050908060030180546109f2906121e5565b80601f0160208091040260200160405190810160405280929190818152602001828054610a1e906121e5565b8015610a6b5780601f10610a4057610100808354040283529160200191610a6b565b820191906000526020600020905b815481529060010190602001808311610a4e57829003601f168201915b505050505090806004018054610a80906121e5565b80601f0160208091040260200160405190810160405280929190818152602001828054610aac906121e5565b8015610af95780601f10610ace57610100808354040283529160200191610af9565b820191906000526020600020905b815481529060010190602001808311610adc57829003601f168201915b5050505050908060050154908060060154908060070160009054906101000a900460ff16905088565b600160009054906101000a900473ffffffffffffffffffffffffffffffffffffffff1673ffffffffffffffffffffffffffffffffffffffff163373ffffffffffffffffffffffffffffffffffffffff1614610bb2576040517f08c379a0000000000000000000000000000000000000000000000000000000008152600401610ba9906120d5565b60405180910390fd5b8073ffffffffffffffffffffffffffffffffffffffff16600160009054906101000a900473ffffffffffffffffffffffffffffffffffffffff1673ffffffffffffffffffffffffffffffffffffffff167fc64707e618a83637fc41ad1e3aa4242bd5fdd353f3d60bc0faf40db0d7d8607860405160405180910390a380600160006101000a81548173ffffffffffffffffffffffffffffffffffffffff021916908373ffffffffffffffffffffffffffffffffffffffff16021790555050565b60066020528060005260406000206000915054906101000a900460ff1681565b600081604051602001610ca59190612348565b6040516020818303038152906040528051906020012083604051602001610ccc9190612348565b6040516020818303038152906040528051906020012014905092915050565b600260003373ffffffffffffffffffffffffffffffffffffffff1673ffffffffffffffffffffffffffffffffffffffff16815260200190815260200160002060070160009054906101000a900460ff16610d7a576040517f08c379a0000000000000000000000000000000000000000000000000000000008152600401610d7190612069565b60405180910390fd5b6004600088815260200190815260200160002060003373ffffffffffffffffffffffffffffffffffffffff1673ffffffffffffffffffffffffffffffffffffffff16815260200190815260200160002060009054906101000a900460ff1615610e18576040517f08c379a0000000000000000000000000000000000000000000000000000000008152600401610e0f906123d1565b60405180910390fd5b60016004600089815260200190815260200160002060003373ffffffffffffffffffffffffffffffffffffffff1673ffffffffffffffffffffffffffffffffffffffff16815260200190815260200160002060006101000a81548160ff0219169083151502179055506005879080600181540180825580915050600190039060005260206000200160009091909190915055600360008881526020019081526020016000206040518060e001604052803373ffffffffffffffffffffffffffffffffffffffff1681526020018873ffffffffffffffffffffffffffffffffffffffff1681526020018781526020018681526020018573ffffffffffffffffffffffffffffffffffffffff1681526020018481526020018373ffffffffffffffffffffffffffffffffffffffff16815250908060018154018082558091505060019003906000526020600020906007020160009091909190915060008201518160000160006101000a81548173ffffffffffffffffffffffffffffffffffffffff021916908373ffffffffffffffffffffffffffffffffffffffff16021790555060208201518160010160006101000a81548173ffffffffffffffffffffffffffffffffffffffff021916908373ffffffffffffffffffffffffffffffffffffffff160217905550604082015181600201556060820151816003019080519060200190611025929190611805565b5060808201518160040160006101000a81548173ffffffffffffffffffffffffffffffffffffffff021916908373ffffffffffffffffffffffffffffffffffffffff16021790555060a0820151816005019080519060200190611089929190611805565b5060c08201518160060160006101000a81548173ffffffffffffffffffffffffffffffffffffffff021916908373ffffffffffffffffffffffffffffffffffffffff160217905550505050505050505050565b600260003373ffffffffffffffffffffffffffffffffffffffff1673ffffffffffffffffffffffffffffffffffffffff16815260200190815260200160002060070160009054906101000a900460ff1661116b576040517f08c379a000000000000000000000000000000000000000000000000000000000815260040161116290612069565b60405180910390fd5b6040518061010001604052803373ffffffffffffffffffffffffffffffffffffffff1681526020018773ffffffffffffffffffffffffffffffffffffffff16815260200186815260200185815260200184815260200183815260200182815260200160011515815250600260003373ffffffffffffffffffffffffffffffffffffffff1673ffffffffffffffffffffffffffffffffffffffff16815260200190815260200160002060008201518160000160006101000a81548173ffffffffffffffffffffffffffffffffffffffff021916908373ffffffffffffffffffffffffffffffffffffffff16021790555060208201518160010160006101000a81548173ffffffffffffffffffffffffffffffffffffffff021916908373ffffffffffffffffffffffffffffffffffffffff16021790555060408201518160020190805190602001906112bd929190611805565b5060608201518160030190805190602001906112da929190611805565b5060808201518160040190805190602001906112f7929190611805565b5060a0820151816005015560c0820151816006015560e08201518160070160006101000a81548160ff021916908315150217905550905050505050505050565b600260003373ffffffffffffffffffffffffffffffffffffffff1673ffffffffffffffffffffffffffffffffffffffff16815260200190815260200160002060070160009054906101000a900460ff16156113c7576040517f08c379a00000000000000000000000000000000000000000000000000000000081526004016113be9061243d565b60405180910390fd5b6040518061010001604052803373ffffffffffffffffffffffffffffffffffffffff1681526020018773ffffffffffffffffffffffffffffffffffffffff16815260200186815260200185815260200184815260200183815260200182815260200160011515815250600260003373ffffffffffffffffffffffffffffffffffffffff1673ffffffffffffffffffffffffffffffffffffffff16815260200190815260200160002060008201518160000160006101000a81548173ffffffffffffffffffffffffffffffffffffffff021916908373ffffffffffffffffffffffffffffffffffffffff16021790555060208201518160010160006101000a81548173ffffffffffffffffffffffffffffffffffffffff021916908373ffffffffffffffffffffffffffffffffffffffff1602179055506040820151816002019080519060200190611519929190611805565b506060820151816003019080519060200190611536929190611805565b506080820151816004019080519060200190611553929190611805565b5060a0820151816005015560c0820151816006015560e08201518160070160006101000a81548160ff021916908315150217905550905050505050505050565b6000600160009054906101000a900473ffffffffffffffffffffffffffffffffffffffff16905090565b600360205281600052604060002081815481106115d957600080fd5b9060005260206000209060070201600091509150508060000160009054906101000a900473ffffffffffffffffffffffffffffffffffffffff16908060010160009054906101000a900473ffffffffffffffffffffffffffffffffffffffff169080600201549080600301805461164f906121e5565b80601f016020809104026020016040519081016040528092919081815260200182805461167b906121e5565b80156116c85780601f1061169d576101008083540402835291602001916116c8565b820191906000526020600020905b8154815290600101906020018083116116ab57829003601f168201915b5050505050908060040160009054906101000a900473ffffffffffffffffffffffffffffffffffffffff1690806005018054611703906121e5565b80601f016020809104026020016040519081016040528092919081815260200182805461172f906121e5565b801561177c5780601f106117515761010080835404028352916020019161177c565b820191906000526020600020905b81548152906001019060200180831161175f57829003601f168201915b5050505050908060060160009054906101000a900473ffffffffffffffffffffffffffffffffffffffff16905087565b600060016005805490506117c0919061248c565b905090565b5080546117d1906121e5565b6000825580601f106117e35750611802565b601f016020900490600052602060002090810190611801919061188b565b5b50565b828054611811906121e5565b90600052602060002090601f016020900481019282611833576000855561187a565b82601f1061184c57805160ff191683800117855561187a565b8280016001018555821561187a579182015b8281111561187957825182559160200191906001019061185e565b5b509050611887919061188b565b5090565b5b808211156118a457600081600090555060010161188c565b5090565b600081519050919050565b600082825260208201905092915050565b60005b838110156118e25780820151818401526020810190506118c7565b838111156118f1576000848401525b50505050565b6000601f19601f8301169050919050565b6000611913826118a8565b61191d81856118b3565b935061192d8185602086016118c4565b611936816118f7565b840191505092915050565b6000602082019050818103600083015261195b8184611908565b905092915050565b6000604051905090565b600080fd5b600080fd5b6000819050919050565b61198a81611977565b811461199557600080fd5b50565b6000813590506119a781611981565b92915050565b600073ffffffffffffffffffffffffffffffffffffffff82169050919050565b60006119d8826119ad565b9050919050565b6119e8816119cd565b81146119f357600080fd5b50565b600081359050611a05816119df565b92915050565b60008060408385031215611a2257611a2161196d565b5b6000611a3085828601611998565b9250506020611a41858286016119f6565b9150509250929050565b60008115159050919050565b611a6081611a4b565b82525050565b6000602082019050611a7b6000830184611a57565b92915050565b611a8a816119cd565b82525050565b6000602082019050611aa56000830184611a81565b92915050565b600060208284031215611ac157611ac061196d565b5b6000611acf84828501611998565b91505092915050565b600060208284031215611aee57611aed61196d565b5b6000611afc848285016119f6565b91505092915050565b6000819050919050565b611b1881611b05565b82525050565b600061010082019050611b34600083018b611a81565b611b41602083018a611a81565b8181036040830152611b538189611908565b90508181036060830152611b678188611908565b90508181036080830152611b7b8187611908565b9050611b8a60a0830186611b0f565b611b9760c0830185611b0f565b611ba460e0830184611a57565b9998505050505050505050565b600080fd5b600080fd5b7f4e487b7100000000000000000000000000000000000000000000000000000000600052604160045260246000fd5b611bf3826118f7565b810181811067ffffffffffffffff82111715611c1257611c11611bbb565b5b80604052505050565b6000611c25611963565b9050611c318282611bea565b919050565b600067ffffffffffffffff821115611c5157611c50611bbb565b5b611c5a826118f7565b9050602081019050919050565b82818337600083830152505050565b6000611c89611c8484611c36565b611c1b565b905082815260208101848484011115611ca557611ca4611bb6565b5b611cb0848285611c67565b509392505050565b600082601f830112611ccd57611ccc611bb1565b5b8135611cdd848260208601611c76565b91505092915050565b60008060408385031215611cfd57611cfc61196d565b5b600083013567ffffffffffffffff811115611d1b57611d1a611972565b5b611d2785828601611cb8565b925050602083013567ffffffffffffffff811115611d4857611d47611972565b5b611d5485828601611cb8565b9150509250929050565b611d6781611b05565b8114611d7257600080fd5b50565b600081359050611d8481611d5e565b92915050565b600080600080600080600060e0888a031215611da957611da861196d565b5b6000611db78a828b01611998565b9750506020611dc88a828b016119f6565b9650506040611dd98a828b01611d75565b955050606088013567ffffffffffffffff811115611dfa57611df9611972565b5b611e068a828b01611cb8565b9450506080611e178a828b016119f6565b93505060a088013567ffffffffffffffff811115611e3857611e37611972565b5b611e448a828b01611cb8565b92505060c0611e558a828b016119f6565b91505092959891949750929550565b60008060008060008060c08789031215611e8157611e8061196d565b5b6000611e8f89828a016119f6565b965050602087013567ffffffffffffffff811115611eb057611eaf611972565b5b611ebc89828a01611cb8565b955050604087013567ffffffffffffffff811115611edd57611edc611972565b5b611ee989828a01611cb8565b945050606087013567ffffffffffffffff811115611f0a57611f09611972565b5b611f1689828a01611cb8565b9350506080611f2789828a01611d75565b92505060a0611f3889828a01611d75565b9150509295509295509295565b60008060408385031215611f5c57611f5b61196d565b5b6000611f6a85828601611998565b9250506020611f7b85828601611d75565b9150509250929050565b600060e082019050611f9a600083018a611a81565b611fa76020830189611a81565b611fb46040830188611b0f565b8181036060830152611fc68187611908565b9050611fd56080830186611a81565b81810360a0830152611fe78185611908565b9050611ff660c0830184611a81565b98975050505050505050565b60006020820190506120176000830184611b0f565b92915050565b7f5468652047617465204b6565706572204e6f7420666f756e6400000000000000600082015250565b60006120536019836118b3565b915061205e8261201d565b602082019050919050565b6000602082019050818103600083015261208281612046565b9050919050565b7f43616c6c6572206973206e6f74206d616e616765720000000000000000000000600082015250565b60006120bf6015836118b3565b91506120ca82612089565b602082019050919050565b600060208201905081810360008301526120ee816120b2565b9050919050565b7f4f6e6c79206f6e652074696d652063616c6c20697320616c6c6f77656420666f60008201527f7220747868617368000000000000000000000000000000000000000000000000602082015250565b60006121516028836118b3565b915061215c826120f5565b604082019050919050565b6000602082019050818103600083015261218081612144565b9050919050565b7f4e487b7100000000000000000000000000000000000000000000000000000000600052603260045260246000fd5b7f4e487b7100000000000000000000000000000000000000000000000000000000600052602260045260246000fd5b600060028204905060018216806121fd57607f821691505b6020821081036122105761220f6121b6565b5b50919050565b60008190508160005260206000209050919050565b60008154612238816121e5565b61224281866118b3565b9450600182166000811461225d576001811461226f576122a2565b60ff19831686526020860193506122a2565b61227885612216565b60005b8381101561229a5781548189015260018201915060208101905061227b565b808801955050505b50505092915050565b600060a0820190506122c06000830188611b0f565b81810360208301526122d2818761222b565b90506122e16040830186611a81565b81810360608301526122f3818561222b565b90506123026080830184611a81565b9695505050505050565b600081905092915050565b6000612322826118a8565b61232c818561230c565b935061233c8185602086016118c4565b80840191505092915050565b60006123548284612317565b915081905092915050565b7f4f6e6c79206f6e652074696d652063616c6c20697320616c6c6f77656420627960008201527f20656163682047617465204b6565706572000000000000000000000000000000602082015250565b60006123bb6031836118b3565b91506123c68261235f565b604082019050919050565b600060208201905081810360008301526123ea816123ae565b9050919050565b7f416c726561647920657869737473000000000000000000000000000000000000600082015250565b6000612427600e836118b3565b9150612432826123f1565b602082019050919050565b600060208201905081810360008301526124568161241a565b9050919050565b7f4e487b7100000000000000000000000000000000000000000000000000000000600052601160045260246000fd5b600061249782611b05565b91506124a283611b05565b9250828210156124b5576124b461245d565b5b82820390509291505056fea2646970667358221220bdf533d2f5dd85d4d5a364b539465169a690d668d91c954c31bb6fb8bc419a3964736f6c634300080d0033",
  "immutableReferences": {},
  "source": "pragma solidity ^0.8.9;\n\nimport \"@openzeppelin/contracts/token/ERC20/IERC20.sol\";\nimport \"@openzeppelin/contracts/utils/math/SafeMath.sol\";\n\ncontract Bridge {\n    using SafeMath for uint256;\n    IERC20 token;\n\n    address public manager;\n\n    constructor() { \n        manager = msg.sender;\n    }\n\n    function version() public pure returns (string memory) {\n        return \"0.1.0\";\n    }\n\n    function name() public pure returns (string memory) {\n        return \"Generation Bridge\";\n    }\n\n    function compareStrings(string memory a, string memory b) public view returns (bool) {\n        return (keccak256(abi.encodePacked((a))) == keccak256(abi.encodePacked((b))));\n    }\n\n    // event for EVM logging\n    event ManagerSet(address indexed oldManager, address indexed newManager);\n\n    // modifier to check if caller is manager\n    modifier isManager() {\n        // If the first argument of 'require' evaluates to 'false', execution terminates and all\n        // changes to the state and to Ether balances are reverted.\n        // This used to consume all gas in old EVM versions, but not anymore.\n        // It is often a good idea to use 'require' to check if functions are called correctly.\n        // As a second argument, you can also provide an explanation about what went wrong.\n        require(msg.sender == manager, \"Caller is not manager\");\n        _;\n    }\n    \n    function changeManager(address newManager) public isManager {\n        emit ManagerSet(manager, newManager);\n        manager = newManager;\n    }\n\n    function getManager() external view returns (address) {\n        return manager;\n    }\n\n    mapping(address => GateKeeper) public gateKeeperMap;\n    struct GateKeeper {\n        address nodeAddress;\n        address rewardAddress;\n        string name;\n        string website;\n        string description;\n        uint256 commissionRate;\n        uint256 maximumCommission;\n        bool valid;\n    }\n\n    function createGateKeeper(\n        address _rewardAddress,\n        string memory _name,\n        string memory _website,\n        string memory _description,\n        uint256 _commissionRate,\n        uint256 _maximumCommission\n    ) public {\n        //   GK ?\n        require(!gateKeeperMap[msg.sender].valid, \"Already exists\");\n        \n        gateKeeperMap[msg.sender] = GateKeeper(\n            msg.sender,\n            _rewardAddress,\n            _name,\n            _website,\n            _description,\n            _commissionRate,\n            _maximumCommission,\n            true\n        );\n    }\n\n    function updateGateKeeper(\n        address _rewardAddress,\n        string memory _name,\n        string memory _website,\n        string memory _description,\n        uint256 _commissionRate,\n        uint256 _maximumCommission\n    ) public {\n        require(gateKeeperMap[msg.sender].valid, \"The Gate Keeper Not found\");\n        \n        gateKeeperMap[msg.sender] = GateKeeper(\n            msg.sender,\n            _rewardAddress,\n            _name,\n            _website,\n            _description,\n            _commissionRate,\n            _maximumCommission,\n            true\n        );\n    }\n\n    function deleteGateKeeper() public {\n        require(gateKeeperMap[msg.sender].valid, \"The Gate Keeper Not found\");\n\n        delete gateKeeperMap[msg.sender];\n    }\n\n    // key: txhash\n    mapping(bytes32 => Report[]) public reportMap;\n    struct Report {\n        address gateKeeperAdminAddress;\n        address userAddress;\n        uint256 lockAmount;\n        string fromChain;\n        address fromTokenAddress;\n        string toChain;\n        address toTokenAddress;\n    }\n\n    // keyA => mapping(keyB => value)\n    mapping(bytes32 => mapping(address => bool)) public reportKeyMap;\n    // keyA push\n    bytes32[] reportedTxhash;\n    // master gate keeper  trnasfer  txhash\n    mapping(bytes32 => bool) public completedKeyMap;\n    // bytes32[] completedTxhash;\n\n    function createReport(\n        bytes32 _txhash,\n        address _userAddress,\n        uint256 _lockAmount,\n        string memory _fromChain,\n        address _fromTokenAddress,\n        string memory _toChain,\n        address _toTokenAddress\n    ) public {\n        require(gateKeeperMap[msg.sender].valid, \"The Gate Keeper Not found\");\n\n        require(!(reportKeyMap[_txhash])[msg.sender], \"Only one time call is allowed by each Gate Keeper\");\n        (reportKeyMap[_txhash])[msg.sender] = true;\n\n        reportedTxhash.push(_txhash);\n\n        reportMap[_txhash].push(\n            Report (\n                msg.sender,\n                _userAddress,\n                _lockAmount,\n                _fromChain,\n                _fromTokenAddress,\n                _toChain,\n                _toTokenAddress\n            )\n        );\n    }\n\n    function getLatestReport() public view returns (uint256) {\n        return reportedTxhash.length - 1;\n    }\n\n    function setCompletedReport(bytes32 _txhash) public isManager {\n        require(!completedKeyMap[_txhash], \"Only one time call is allowed for txhash\");\n        completedKeyMap[_txhash] = true;\n\n        emit CompleteReport(\n            (reportMap[_txhash])[0].userAddress,\n            (reportMap[_txhash])[0].lockAmount,\n            (reportMap[_txhash])[0].fromChain,\n            (reportMap[_txhash])[0].fromTokenAddress,\n            (reportMap[_txhash])[0].toChain,\n            (reportMap[_txhash])[0].toTokenAddress\n        );\n    }\n\n    function getCompletedReport(bytes32 _txhash) public view returns (bool) {\n        // true means transfered txhash.\n        return completedKeyMap[_txhash];\n    }\n\n    event CompleteReport(\n        address indexed userAddress,\n        uint256 lockAmount,\n        string fromChain,\n        address fromTokenAddress,\n        string toChain,\n        address toTokenAddress\n    );\n}",
  "sourcePath": "/Users/ben/Documents/GitHub/gen-bridge/contracts/Bridge.sol",
  "compiler": {
    "name": "solc",
    "version": "0.8.13+commit.abaa5c0e.Emscripten.clang"
  },
  "schemaVersion": "3.4.7",
  "updatedAt": "2022-09-02T09:24:11.879Z",
  "networkType": "ethereum",
  "devdoc": {
    "kind": "dev",
    "methods": {},
    "version": 1
  },
  "userdoc": {
    "kind": "user",
    "methods": {},
    "version": 1
  }
}