{
  "contractName": "BridgeDeposit",
  "abi": [
    {
      "inputs": [],
      "stateMutability": "nonpayable",
      "type": "constructor"
    },
    {
      "anonymous": false,
      "inputs": [
        {
          "indexed": true,
          "internalType": "address",
          "name": "_from",
          "type": "address"
        },
        {
          "indexed": false,
          "internalType": "uint256",
          "name": "_amount",
          "type": "uint256"
        }
      ],
      "name": "Deposit",
      "type": "event"
    },
    {
      "anonymous": false,
      "inputs": [
        {
          "indexed": true,
          "internalType": "address",
          "name": "_from",
          "type": "address"
        },
        {
          "indexed": false,
          "internalType": "uint256",
          "name": "_amount",
          "type": "uint256"
        }
      ],
      "name": "GenTransfer",
      "type": "event"
    },
    {
      "anonymous": false,
      "inputs": [
        {
          "indexed": true,
          "internalType": "address",
          "name": "oldManager",
          "type": "address"
        },
        {
          "indexed": true,
          "internalType": "address",
          "name": "newManager",
          "type": "address"
        }
      ],
      "name": "ManagerSet",
      "type": "event"
    },
    {
      "anonymous": false,
      "inputs": [
        {
          "indexed": true,
          "internalType": "address",
          "name": "_from",
          "type": "address"
        },
        {
          "indexed": false,
          "internalType": "uint256",
          "name": "_amount",
          "type": "uint256"
        },
        {
          "indexed": false,
          "internalType": "address",
          "name": "token",
          "type": "address"
        }
      ],
      "name": "TokenTransfer",
      "type": "event"
    },
    {
      "inputs": [],
      "name": "manager",
      "outputs": [
        {
          "internalType": "address",
          "name": "",
          "type": "address"
        }
      ],
      "stateMutability": "view",
      "type": "function",
      "constant": true
    },
    {
      "stateMutability": "payable",
      "type": "receive",
      "payable": true
    },
    {
      "inputs": [],
      "name": "version",
      "outputs": [
        {
          "internalType": "string",
          "name": "",
          "type": "string"
        }
      ],
      "stateMutability": "pure",
      "type": "function",
      "constant": true
    },
    {
      "inputs": [],
      "name": "name",
      "outputs": [
        {
          "internalType": "string",
          "name": "",
          "type": "string"
        }
      ],
      "stateMutability": "pure",
      "type": "function",
      "constant": true
    },
    {
      "inputs": [
        {
          "internalType": "address",
          "name": "newManager",
          "type": "address"
        }
      ],
      "name": "changeManager",
      "outputs": [],
      "stateMutability": "nonpayable",
      "type": "function"
    },
    {
      "inputs": [],
      "name": "getManager",
      "outputs": [
        {
          "internalType": "address",
          "name": "",
          "type": "address"
        }
      ],
      "stateMutability": "view",
      "type": "function",
      "constant": true
    },
    {
      "inputs": [],
      "name": "getGenBalance",
      "outputs": [
        {
          "internalType": "uint256",
          "name": "",
          "type": "uint256"
        }
      ],
      "stateMutability": "view",
      "type": "function",
      "constant": true
    },
    {
      "inputs": [
        {
          "internalType": "uint256",
          "name": "amount",
          "type": "uint256"
        }
      ],
      "name": "bridgeGenTransfer",
      "outputs": [],
      "stateMutability": "nonpayable",
      "type": "function"
    },
    {
      "inputs": [
        {
          "internalType": "address",
          "name": "token",
          "type": "address"
        }
      ],
      "name": "getTokenBalance",
      "outputs": [
        {
          "internalType": "uint256",
          "name": "",
          "type": "uint256"
        }
      ],
      "stateMutability": "view",
      "type": "function",
      "constant": true
    },
    {
      "inputs": [
        {
          "internalType": "address",
          "name": "token",
          "type": "address"
        },
        {
          "internalType": "uint256",
          "name": "amount",
          "type": "uint256"
        },
        {
          "internalType": "address",
          "name": "toAddress",
          "type": "address"
        }
      ],
      "name": "bridgeTokenTransfer",
      "outputs": [],
      "stateMutability": "nonpayable",
      "type": "function"
    }
  ],
  "bytecode": "0x608060405234801561001057600080fd5b50336000806101000a81548173ffffffffffffffffffffffffffffffffffffffff021916908373ffffffffffffffffffffffffffffffffffffffff160217905550611232806100606000396000f3fe60806040526004361061008a5760003560e01c806354fd4d501161005957806354fd4d50146101ed578063783b04b814610218578063a3fbbaae14610241578063b79cf13f1461026a578063d5009584146102955761012c565b806306fdde03146101315780632cd891391461015c5780633aecd0e314610185578063481c6a75146101c25761012c565b3661012c57600064e8d4a510009050803410156100dc576040517f08c379a00000000000000000000000000000000000000000000000000000000081526004016100d390610bd9565b60405180910390fd5b3373ffffffffffffffffffffffffffffffffffffffff167fe1fffcc4923d04b559f4d29a8bfc6cda04eb5b0d3c460751c2402c5c5cc9109c346040516101229190610c12565b60405180910390a2005b600080fd5b34801561013d57600080fd5b506101466102c0565b6040516101539190610cb5565b60405180910390f35b34801561016857600080fd5b50610183600480360381019061017e9190610d08565b6102fd565b005b34801561019157600080fd5b506101ac60048036038101906101a79190610d93565b610423565b6040516101b99190610c12565b60405180910390f35b3480156101ce57600080fd5b506101d76104a6565b6040516101e49190610dcf565b60405180910390f35b3480156101f957600080fd5b506102026104ca565b60405161020f9190610cb5565b60405180910390f35b34801561022457600080fd5b5061023f600480360381019061023a9190610dea565b610507565b005b34801561024d57600080fd5b5061026860048036038101906102639190610d93565b6106d7565b005b34801561027657600080fd5b5061027f610822565b60405161028c9190610c12565b60405180910390f35b3480156102a157600080fd5b506102aa61082a565b6040516102b79190610dcf565b60405180910390f35b60606040518060400160405280601781526020017f427269646765204465706f73697420436f6e7472616374000000000000000000815250905090565b60008054906101000a900473ffffffffffffffffffffffffffffffffffffffff1673ffffffffffffffffffffffffffffffffffffffff163373ffffffffffffffffffffffffffffffffffffffff161461038b576040517f08c379a000000000000000000000000000000000000000000000000000000000815260040161038290610e89565b60405180910390fd5b3373ffffffffffffffffffffffffffffffffffffffff166108fc479081150290604051600060405180830381858888f193505050501580156103d1573d6000803e3d6000fd5b503373ffffffffffffffffffffffffffffffffffffffff167fa1f8fe9881f87957d0db5ebb2883430b78d16fda15cfd81b181a595fe06a9551826040516104189190610c12565b60405180910390a250565b60008173ffffffffffffffffffffffffffffffffffffffff166370a08231306040518263ffffffff1660e01b815260040161045e9190610dcf565b602060405180830381865afa15801561047b573d6000803e3d6000fd5b505050506040513d601f19601f8201168201806040525081019061049f9190610ebe565b9050919050565b60008054906101000a900473ffffffffffffffffffffffffffffffffffffffff1681565b60606040518060400160405280600581526020017f302e312e30000000000000000000000000000000000000000000000000000000815250905090565b60008054906101000a900473ffffffffffffffffffffffffffffffffffffffff1673ffffffffffffffffffffffffffffffffffffffff163373ffffffffffffffffffffffffffffffffffffffff1614610595576040517f08c379a000000000000000000000000000000000000000000000000000000000815260040161058c90610e89565b60405180910390fd5b60008373ffffffffffffffffffffffffffffffffffffffff166370a08231306040518263ffffffff1660e01b81526004016105d09190610dcf565b602060405180830381865afa1580156105ed573d6000803e3d6000fd5b505050506040513d601f19601f820116820180604052508101906106119190610ebe565b905082811015610656576040517f08c379a000000000000000000000000000000000000000000000000000000000815260040161064d90610f37565b60405180910390fd5b61068182848673ffffffffffffffffffffffffffffffffffffffff166108539092919063ffffffff16565b3373ffffffffffffffffffffffffffffffffffffffff167fe9001e94dcb1564a47a8ad9116dfc37603e2c82e303ac9ce65dd8747d02ce0b484866040516106c9929190610f57565b60405180910390a250505050565b60008054906101000a900473ffffffffffffffffffffffffffffffffffffffff1673ffffffffffffffffffffffffffffffffffffffff163373ffffffffffffffffffffffffffffffffffffffff1614610765576040517f08c379a000000000000000000000000000000000000000000000000000000000815260040161075c90610e89565b60405180910390fd5b8073ffffffffffffffffffffffffffffffffffffffff1660008054906101000a900473ffffffffffffffffffffffffffffffffffffffff1673ffffffffffffffffffffffffffffffffffffffff167fc64707e618a83637fc41ad1e3aa4242bd5fdd353f3d60bc0faf40db0d7d8607860405160405180910390a3806000806101000a81548173ffffffffffffffffffffffffffffffffffffffff021916908373ffffffffffffffffffffffffffffffffffffffff16021790555050565b600047905090565b60008060009054906101000a900473ffffffffffffffffffffffffffffffffffffffff16905090565b6108d48363a9059cbb60e01b8484604051602401610872929190610f80565b604051602081830303815290604052907bffffffffffffffffffffffffffffffffffffffffffffffffffffffff19166020820180517bffffffffffffffffffffffffffffffffffffffffffffffffffffffff83818316178352505050506108d9565b505050565b600061093b826040518060400160405280602081526020017f5361666545524332303a206c6f772d6c6576656c2063616c6c206661696c65648152508573ffffffffffffffffffffffffffffffffffffffff166109a09092919063ffffffff16565b905060008151111561099b578080602001905181019061095b9190610fe1565b61099a576040517f08c379a000000000000000000000000000000000000000000000000000000000815260040161099190611080565b60405180910390fd5b5b505050565b60606109af84846000856109b8565b90509392505050565b6060824710156109fd576040517f08c379a00000000000000000000000000000000000000000000000000000000081526004016109f490611112565b60405180910390fd5b610a0685610acc565b610a45576040517f08c379a0000000000000000000000000000000000000000000000000000000008152600401610a3c9061117e565b60405180910390fd5b6000808673ffffffffffffffffffffffffffffffffffffffff168587604051610a6e91906111e5565b60006040518083038185875af1925050503d8060008114610aab576040519150601f19603f3d011682016040523d82523d6000602084013e610ab0565b606091505b5091509150610ac0828286610aef565b92505050949350505050565b6000808273ffffffffffffffffffffffffffffffffffffffff163b119050919050565b60608315610aff57829050610b4f565b600083511115610b125782518084602001fd5b816040517f08c379a0000000000000000000000000000000000000000000000000000000008152600401610b469190610cb5565b60405180910390fd5b9392505050565b600082825260208201905092915050565b7f596f75206e65656420746f2073656e64206174206c6561737420302e3030303060008201527f30312047454e0000000000000000000000000000000000000000000000000000602082015250565b6000610bc3602683610b56565b9150610bce82610b67565b604082019050919050565b60006020820190508181036000830152610bf281610bb6565b9050919050565b6000819050919050565b610c0c81610bf9565b82525050565b6000602082019050610c276000830184610c03565b92915050565b600081519050919050565b60005b83811015610c56578082015181840152602081019050610c3b565b83811115610c65576000848401525b50505050565b6000601f19601f8301169050919050565b6000610c8782610c2d565b610c918185610b56565b9350610ca1818560208601610c38565b610caa81610c6b565b840191505092915050565b60006020820190508181036000830152610ccf8184610c7c565b905092915050565b600080fd5b610ce581610bf9565b8114610cf057600080fd5b50565b600081359050610d0281610cdc565b92915050565b600060208284031215610d1e57610d1d610cd7565b5b6000610d2c84828501610cf3565b91505092915050565b600073ffffffffffffffffffffffffffffffffffffffff82169050919050565b6000610d6082610d35565b9050919050565b610d7081610d55565b8114610d7b57600080fd5b50565b600081359050610d8d81610d67565b92915050565b600060208284031215610da957610da8610cd7565b5b6000610db784828501610d7e565b91505092915050565b610dc981610d55565b82525050565b6000602082019050610de46000830184610dc0565b92915050565b600080600060608486031215610e0357610e02610cd7565b5b6000610e1186828701610d7e565b9350506020610e2286828701610cf3565b9250506040610e3386828701610d7e565b9150509250925092565b7f43616c6c6572206973206e6f74206d616e616765720000000000000000000000600082015250565b6000610e73601583610b56565b9150610e7e82610e3d565b602082019050919050565b60006020820190508181036000830152610ea281610e66565b9050919050565b600081519050610eb881610cdc565b92915050565b600060208284031215610ed457610ed3610cd7565b5b6000610ee284828501610ea9565b91505092915050565b7f496e73756666696369656e7420746f6b656e2062616c616e6365000000000000600082015250565b6000610f21601a83610b56565b9150610f2c82610eeb565b602082019050919050565b60006020820190508181036000830152610f5081610f14565b9050919050565b6000604082019050610f6c6000830185610c03565b610f796020830184610dc0565b9392505050565b6000604082019050610f956000830185610dc0565b610fa26020830184610c03565b9392505050565b60008115159050919050565b610fbe81610fa9565b8114610fc957600080fd5b50565b600081519050610fdb81610fb5565b92915050565b600060208284031215610ff757610ff6610cd7565b5b600061100584828501610fcc565b91505092915050565b7f5361666545524332303a204552433230206f7065726174696f6e20646964206e60008201527f6f74207375636365656400000000000000000000000000000000000000000000602082015250565b600061106a602a83610b56565b91506110758261100e565b604082019050919050565b600060208201905081810360008301526110998161105d565b9050919050565b7f416464726573733a20696e73756666696369656e742062616c616e636520666f60008201527f722063616c6c0000000000000000000000000000000000000000000000000000602082015250565b60006110fc602683610b56565b9150611107826110a0565b604082019050919050565b6000602082019050818103600083015261112b816110ef565b9050919050565b7f416464726573733a2063616c6c20746f206e6f6e2d636f6e7472616374000000600082015250565b6000611168601d83610b56565b915061117382611132565b602082019050919050565b600060208201905081810360008301526111978161115b565b9050919050565b600081519050919050565b600081905092915050565b60006111bf8261119e565b6111c981856111a9565b93506111d9818560208601610c38565b80840191505092915050565b60006111f182846111b4565b91508190509291505056fea26469706673582212203ebd441e3d888152cb9c6fe931aaa4f2a62e441ec7122b937fb7ddb5a412392d64736f6c634300080d0033",
  "immutableReferences": {},
  "source": "pragma solidity ^0.8.9;\n\nimport \"@openzeppelin/contracts/token/ERC20/IERC20.sol\";\nimport \"@openzeppelin/contracts/token/ERC20/utils/SafeERC20.sol\";\n\ncontract BridgeDeposit {\n    using SafeERC20 for IERC20;\n\n    address public manager;\n\n    event Deposit(address indexed _from, uint _amount);\n    event GenTransfer(address indexed _from, uint _amount);\n    event TokenTransfer(address indexed _from, uint _amount, address token);\n\n    receive() payable external {\n        // Native   \n        // Case 1: Ethereum -> Generation\n        // ( )\n        // Case 2: Generation -> Ethereum\n        // receive  !\n\n        // 0.000001\n        uint _minAmount = 1*(10**12);\n        require(msg.value >= _minAmount, \"You need to send at least 0.000001 GEN\");\n\n        emit Deposit(msg.sender, msg.value);\n    }\n\n    constructor() { \n        manager = msg.sender;\n    }\n\n    function version() public pure returns (string memory) {\n        return \"0.1.0\";\n    }\n\n    function name() public pure returns (string memory) {\n        return \"Bridge Deposit Contract\";\n    }\n\n    // event for EVM logging\n    event ManagerSet(address indexed oldManager, address indexed newManager);\n\n    // modifier to check if caller is manager\n    modifier isManager() {\n        // If the first argument of 'require' evaluates to 'false', execution terminates and all\n        // changes to the state and to Ether balances are reverted.\n        // This used to consume all gas in old EVM versions, but not anymore.\n        // It is often a good idea to use 'require' to check if functions are called correctly.\n        // As a second argument, you can also provide an explanation about what went wrong.\n        require(msg.sender == manager, \"Caller is not manager\");\n        _;\n    }\n    \n    function changeManager(address newManager) public isManager {\n        emit ManagerSet(manager, newManager);\n        manager = newManager;\n    }\n\n    function getManager() external view returns (address) {\n        return manager;\n    }\n\n    // Native\n    function getGenBalance() public view returns (uint) {\n        return address(this).balance;\n    }\n\n    function bridgeGenTransfer(uint256 amount) public isManager {\n        payable(msg.sender).transfer(address(this).balance);\n        emit GenTransfer(msg.sender, amount);\n    }\n\n    function getTokenBalance(address token) public view returns (uint) {\n        return IERC20(token).balanceOf(address(this));\n    }\n\n    function bridgeTokenTransfer(address token, uint256 amount, address toAddress) public isManager {\n        uint256 tokenBalance = IERC20(token).balanceOf(address(this));\n        require(tokenBalance >= amount, \"Insufficient token balance\");\n\n        IERC20(token).safeTransfer(toAddress, amount);\n        emit TokenTransfer(msg.sender, amount, token);\n    }\n}",
  "sourcePath": "/Users/ben/Documents/GitHub/gen-bridge/contracts/BridgeDeposit.sol",
  "compiler": {
    "name": "solc",
    "version": "0.8.13+commit.abaa5c0e.Emscripten.clang"
  },
  "schemaVersion": "3.4.7",
  "updatedAt": "2022-09-02T09:24:11.891Z",
  "networkType": "ethereum",
  "devdoc": {
    "kind": "dev",
    "methods": {},
    "version": 1
  },
  "userdoc": {
    "kind": "user",
    "methods": {},
    "version": 1
  }
}